{
  "contractName": "BattleShip",
  "abi": [
    {
      "anonymous": false,
      "inputs": [
        {
          "indexed": false,
          "internalType": "uint256",
          "name": "game_id",
          "type": "uint256"
        },
        {
          "indexed": false,
          "internalType": "address",
          "name": "player_id",
          "type": "address"
        }
      ],
      "name": "AccusationRequest",
      "type": "event"
    },
    {
      "anonymous": false,
      "inputs": [
        {
          "indexed": false,
          "internalType": "uint256",
          "name": "game_id",
          "type": "uint256"
        },
        {
          "indexed": false,
          "internalType": "address",
          "name": "player_id",
          "type": "address"
        },
        {
          "indexed": false,
          "internalType": "uint256",
          "name": "board",
          "type": "uint256"
        }
      ],
      "name": "BoardCommitted",
      "type": "event"
    },
    {
      "anonymous": false,
      "inputs": [
        {
          "indexed": false,
          "internalType": "uint256",
          "name": "game_id",
          "type": "uint256"
        },
        {
          "indexed": false,
          "internalType": "address",
          "name": "player_id",
          "type": "address"
        }
      ],
      "name": "CheatingAttempt",
      "type": "event"
    },
    {
      "anonymous": false,
      "inputs": [
        {
          "indexed": false,
          "internalType": "uint256",
          "name": "game_id",
          "type": "uint256"
        }
      ],
      "name": "EndOfGame",
      "type": "event"
    },
    {
      "anonymous": false,
      "inputs": [
        {
          "indexed": false,
          "internalType": "uint256",
          "name": "game_id",
          "type": "uint256"
        },
        {
          "indexed": false,
          "internalType": "uint256",
          "name": "fee",
          "type": "uint256"
        }
      ],
      "name": "FeeAgreed",
      "type": "event"
    },
    {
      "anonymous": false,
      "inputs": [
        {
          "indexed": false,
          "internalType": "uint256",
          "name": "game_id",
          "type": "uint256"
        },
        {
          "indexed": false,
          "internalType": "address",
          "name": "player_id",
          "type": "address"
        },
        {
          "indexed": false,
          "internalType": "uint256",
          "name": "fee",
          "type": "uint256"
        }
      ],
      "name": "FeeProposed",
      "type": "event"
    },
    {
      "anonymous": false,
      "inputs": [
        {
          "indexed": false,
          "internalType": "uint256",
          "name": "game_id",
          "type": "uint256"
        },
        {
          "indexed": false,
          "internalType": "address",
          "name": "winner",
          "type": "address"
        }
      ],
      "name": "GameOver",
      "type": "event"
    },
    {
      "anonymous": false,
      "inputs": [
        {
          "indexed": false,
          "internalType": "uint256",
          "name": "game_id",
          "type": "uint256"
        }
      ],
      "name": "GameStarted",
      "type": "event"
    },
    {
      "anonymous": false,
      "inputs": [
        {
          "indexed": false,
          "internalType": "uint256",
          "name": "game_id",
          "type": "uint256"
        },
        {
          "indexed": false,
          "internalType": "address",
          "name": "player_id",
          "type": "address"
        },
        {
          "indexed": false,
          "internalType": "uint8",
          "name": "position",
          "type": "uint8"
        }
      ],
      "name": "Hit",
      "type": "event"
    },
    {
      "anonymous": false,
      "inputs": [
        {
          "indexed": false,
          "internalType": "uint256",
          "name": "game_id",
          "type": "uint256"
        },
        {
          "indexed": false,
          "internalType": "address",
          "name": "player_id",
          "type": "address"
        },
        {
          "indexed": false,
          "internalType": "uint8",
          "name": "position",
          "type": "uint8"
        }
      ],
      "name": "Miss",
      "type": "event"
    },
    {
      "anonymous": false,
      "inputs": [
        {
          "indexed": false,
          "internalType": "uint256",
          "name": "game_id",
          "type": "uint256"
        },
        {
          "indexed": false,
          "internalType": "address",
          "name": "player_id",
          "type": "address"
        },
        {
          "indexed": false,
          "internalType": "uint8",
          "name": "move",
          "type": "uint8"
        }
      ],
      "name": "MoveProposed",
      "type": "event"
    },
    {
      "anonymous": false,
      "inputs": [
        {
          "indexed": false,
          "internalType": "uint256",
          "name": "game_id",
          "type": "uint256"
        }
      ],
      "name": "NewGame",
      "type": "event"
    },
    {
      "anonymous": false,
      "inputs": [
        {
          "indexed": false,
          "internalType": "uint256",
          "name": "game_id",
          "type": "uint256"
        }
      ],
      "name": "NextRound",
      "type": "event"
    },
    {
      "anonymous": false,
      "inputs": [
        {
          "indexed": false,
          "internalType": "uint256",
          "name": "game_id",
          "type": "uint256"
        },
        {
          "indexed": false,
          "internalType": "address",
          "name": "player_id",
          "type": "address"
        }
      ],
      "name": "PlayerJoined",
      "type": "event"
    },
    {
      "inputs": [],
      "name": "new_game",
      "outputs": [],
      "stateMutability": "nonpayable",
      "type": "function"
    },
    {
      "inputs": [
        {
          "internalType": "uint256",
          "name": "game_id",
          "type": "uint256"
        }
      ],
      "name": "join_game",
      "outputs": [],
      "stateMutability": "nonpayable",
      "type": "function"
    },
    {
      "inputs": [],
      "name": "join_random_game",
      "outputs": [],
      "stateMutability": "nonpayable",
      "type": "function"
    },
    {
      "inputs": [
        {
          "internalType": "uint256",
          "name": "game_id",
          "type": "uint256"
        },
        {
          "internalType": "uint256",
          "name": "fee",
          "type": "uint256"
        }
      ],
      "name": "propose_fee",
      "outputs": [],
      "stateMutability": "nonpayable",
      "type": "function"
    },
    {
      "inputs": [
        {
          "internalType": "uint256",
          "name": "game_id",
          "type": "uint256"
        },
        {
          "internalType": "uint256",
          "name": "board",
          "type": "uint256"
        }
      ],
      "name": "commit_board",
      "outputs": [],
      "stateMutability": "payable",
      "type": "function",
      "payable": true
    },
    {
      "inputs": [
        {
          "internalType": "uint256",
          "name": "game_id",
          "type": "uint256"
        },
        {
          "internalType": "uint8",
          "name": "move",
          "type": "uint8"
        }
      ],
      "name": "submit_move",
      "outputs": [],
      "stateMutability": "nonpayable",
      "type": "function"
    },
    {
      "inputs": [
        {
          "internalType": "uint256",
          "name": "game_id",
          "type": "uint256"
        },
        {
          "internalType": "bool",
          "name": "has_ship",
          "type": "bool"
        },
        {
          "internalType": "uint256",
          "name": "nonce",
          "type": "uint256"
        },
        {
          "internalType": "uint256[6]",
          "name": "proof",
          "type": "uint256[6]"
        }
      ],
      "name": "submit_proof",
      "outputs": [],
      "stateMutability": "nonpayable",
      "type": "function"
    },
    {
      "inputs": [
        {
          "internalType": "uint256",
          "name": "game_id",
          "type": "uint256"
        },
        {
          "components": [
            {
              "internalType": "uint8",
              "name": "start_position",
              "type": "uint8"
            },
            {
              "internalType": "bool",
              "name": "direction",
              "type": "bool"
            }
          ],
          "internalType": "struct BattleShip.Ship[5]",
          "name": "ships",
          "type": "tuple[5]"
        },
        {
          "internalType": "uint256[64]",
          "name": "nonces",
          "type": "uint256[64]"
        }
      ],
      "name": "reveal_board",
      "outputs": [],
      "stateMutability": "nonpayable",
      "type": "function"
    },
    {
      "inputs": [
        {
          "internalType": "uint256",
          "name": "game_id",
          "type": "uint256"
        }
      ],
      "name": "withdraw",
      "outputs": [],
      "stateMutability": "nonpayable",
      "type": "function"
    },
    {
      "inputs": [
        {
          "internalType": "uint256",
          "name": "game_id",
          "type": "uint256"
        }
      ],
      "name": "make_accusation",
      "outputs": [],
      "stateMutability": "nonpayable",
      "type": "function"
    },
    {
      "inputs": [
        {
          "internalType": "uint256",
          "name": "game_id",
          "type": "uint256"
        }
      ],
      "name": "get_game_state",
      "outputs": [
        {
          "internalType": "enum BattleShip.GameState",
          "name": "",
          "type": "uint8"
        }
      ],
      "stateMutability": "view",
      "type": "function",
      "constant": true
    },
    {
      "inputs": [],
      "name": "get_free_games_length",
      "outputs": [
        {
          "internalType": "uint256",
          "name": "",
          "type": "uint256"
        }
      ],
      "stateMutability": "view",
      "type": "function",
      "constant": true
    },
    {
      "inputs": [
        {
          "internalType": "uint256",
          "name": "game_id",
          "type": "uint256"
        }
      ],
      "name": "get_opponent",
      "outputs": [
        {
          "internalType": "address",
          "name": "",
          "type": "address"
        }
      ],
      "stateMutability": "view",
      "type": "function",
      "constant": true
    }
  ],
  "bytecode": "0x608060405234801561001057600080fd5b506147e0806100206000396000f3fe6080604052600436106100c25760003560e01c80634a7b26ec1161007f57806385b3f2b41161005957806385b3f2b41461023c578063b88a392d14610267578063d4c66c3514610290578063d9d9a9a7146102ac576100c2565b80634a7b26ec146101d35780634c856460146101fc5780637e1d5c4c14610213576100c2565b80630e6372e4146100c757806326bd595814610104578063276df1af1461012d5780632e1a7d4d1461015657806342085e381461017f578063447d4436146101bc575b600080fd5b3480156100d357600080fd5b506100ee60048036038101906100e99190613520565b6102d5565b6040516100fb91906135c4565b60405180910390f35b34801561011057600080fd5b5061012b6004803603810190610126919061375e565b610358565b005b34801561013957600080fd5b50610154600480360381019061014f91906137ff565b610be2565b005b34801561016257600080fd5b5061017d60048036038101906101789190613520565b61103e565b005b34801561018b57600080fd5b506101a660048036038101906101a19190613520565b6114d2565b6040516101b39190613880565b60405180910390f35b3480156101c857600080fd5b506101d16115fc565b005b3480156101df57600080fd5b506101fa60048036038101906101f59190613520565b61168b565b005b34801561020857600080fd5b50610211611942565b005b34801561021f57600080fd5b5061023a6004803603810190610235919061389b565b611b26565b005b34801561024857600080fd5b50610251611e70565b60405161025e91906138ea565b60405180910390f35b34801561027357600080fd5b5061028e60048036038101906102899190613520565b611e7a565b005b6102aa60048036038101906102a5919061389b565b612241565b005b3480156102b857600080fd5b506102d360048036038101906102ce9190613abc565b61269e565b005b600080600080848152602001908152602001600020600001540361032e576040517f08c379a000000000000000000000000000000000000000000000000000000000815260040161032590613b6e565b60405180910390fd5b60008083815260200190815260200160002060010160009054906101000a900460ff169050919050565b83600080600083815260200190815260200160002060000154036103b1576040517f08c379a00000000000000000000000000000000000000000000000000000000081526004016103a890613b6e565b60405180910390fd5b3373ffffffffffffffffffffffffffffffffffffffff1660008083815260200190815260200160002060020160000160009054906101000a900473ffffffffffffffffffffffffffffffffffffffff1673ffffffffffffffffffffffffffffffffffffffff16148061048657503373ffffffffffffffffffffffffffffffffffffffff1660008083815260200190815260200160002060080160000160009054906101000a900473ffffffffffffffffffffffffffffffffffffffff1673ffffffffffffffffffffffffffffffffffffffff16145b6104c5576040517f08c379a00000000000000000000000000000000000000000000000000000000081526004016104bc90613bda565b60405180910390fd5b8460048060068111156104db576104da61354d565b5b60008084815260200190815260200160002060010160009054906101000a900460ff1660068111156105105761050f61354d565b5b14610550576040517f08c379a000000000000000000000000000000000000000000000000000000000815260040161054790613c46565b60405180910390fd5b60068014610593576040517f08c379a000000000000000000000000000000000000000000000000000000000815260040161058a90613cd8565b60405180910390fd5b600080600089815260200190815260200160002090506000803373ffffffffffffffffffffffffffffffffffffffff168360020160000160009054906101000a900473ffffffffffffffffffffffffffffffffffffffff1673ffffffffffffffffffffffffffffffffffffffff160361061757826002019150826008019050610624565b8260080191508260020190505b8160050160129054906101000a900460ff1615610676576040517f08c379a000000000000000000000000000000000000000000000000000000000815260040161066d90613d44565b60405180910390fd5b6106988160050160119054906101000a900460ff168a8a8a8660020154612df6565b6107ce5760068360010160006101000a81548160ff021916908360068111156106c4576106c361354d565b5b02179055508060000160009054906101000a900473ffffffffffffffffffffffffffffffffffffffff1683600f0160016101000a81548173ffffffffffffffffffffffffffffffffffffffff021916908373ffffffffffffffffffffffffffffffffffffffff1602179055507fa94eb170965acb1cb9de7b8c291cb52184d88fe98c0710bbb74068e2efb6f8708a33604051610761929190613d64565b60405180910390a17f668ce4ca171dee87d4d9d2b5d3dc31963fe7fbe50b982064dddb0fb9d56aee8b8a8260000160009054906101000a900473ffffffffffffffffffffffffffffffffffffffff166040516107be929190613d64565b60405180910390a1505050610bd9565b6107d88a83612f07565b156107e557505050610bd9565b8060050160119054906101000a900460ff1660ff166001901b8260050160008282829054906101000a900467ffffffffffffffff161792506101000a81548167ffffffffffffffff021916908367ffffffffffffffff1602179055508815610952578160050160119054906101000a900460ff1660ff166001901b8160050160088282829054906101000a900467ffffffffffffffff161792506101000a81548167ffffffffffffffff021916908367ffffffffffffffff16021790555080600501601081819054906101000a900460ff16809291906108c490613dbc565b91906101000a81548160ff021916908360ff160217905550507f362fa9e1f76c7bd7da2bb79b2c5a6979f30761fef11ef5f06aee598fff2d0f208a8260000160009054906101000a900473ffffffffffffffffffffffffffffffffffffffff168360050160119054906101000a900460ff1660405161094593929190613df4565b60405180910390a16109c3565b7f7a542921653b80e9acb31eb9f20c8a79aaf5fc7bbc090bf2e75b5cc26607c7f58a8260000160009054906101000a900473ffffffffffffffffffffffffffffffffffffffff168360050160119054906101000a900460ff166040516109ba93929190613df4565b60405180910390a15b60018260050160126101000a81548160ff0219169083151502179055508060050160129054906101000a900460ff1615610bd557600183600f0160008282829054906101000a900460ff16610a189190613e2b565b92506101000a81548160ff021916908360ff160217905550601060ff168160050160109054906101000a900460ff1660ff161480610a6d5750601060ff168260050160109054906101000a900460ff1660ff16145b80610a8f5750604060ff1683600f0160009054906101000a900460ff1660ff16145b15610b005760058360010160006101000a81548160ff02191690836006811115610abc57610abb61354d565b5b02179055507f55bc7d27b24d9318cbcdf7a99aa9c14ab31e868d7adc542554db60815e5718cd8a604051610af091906138ea565b60405180910390a1505050610bd9565b60038360010160006101000a81548160ff02191690836006811115610b2857610b2761354d565b5b021790555060ff8160050160116101000a81548160ff021916908360ff16021790558260050160116101000a81548160ff021916908360ff16021790555060008160050160126101000a81548160ff02191690831515021790558260050160126101000a81548160ff0219169083151502179055507fdaa0d5c2f72f50e5aff5657590d693b8ca6161f597bbd985f55cab431744f6ce8a604051610bcc91906138ea565b60405180910390a15b5050505b50505050505050565b8160008060008381526020019081526020016000206000015403610c3b576040517f08c379a0000000000000000000000000000000000000000000000000000000008152600401610c3290613b6e565b60405180910390fd5b3373ffffffffffffffffffffffffffffffffffffffff1660008083815260200190815260200160002060020160000160009054906101000a900473ffffffffffffffffffffffffffffffffffffffff1673ffffffffffffffffffffffffffffffffffffffff161480610d1057503373ffffffffffffffffffffffffffffffffffffffff1660008083815260200190815260200160002060080160000160009054906101000a900473ffffffffffffffffffffffffffffffffffffffff1673ffffffffffffffffffffffffffffffffffffffff16145b610d4f576040517f08c379a0000000000000000000000000000000000000000000000000000000008152600401610d4690613bda565b60405180910390fd5b826003806006811115610d6557610d6461354d565b5b60008084815260200190815260200160002060010160009054906101000a900460ff166006811115610d9a57610d9961354d565b5b14610dda576040517f08c379a0000000000000000000000000000000000000000000000000000000008152600401610dd190613c46565b60405180910390fd5b60408460ff1610610e20576040517f08c379a0000000000000000000000000000000000000000000000000000000008152600401610e1790613eac565b60405180910390fd5b600080600087815260200190815260200160002090506000803373ffffffffffffffffffffffffffffffffffffffff168360020160000160009054906101000a900473ffffffffffffffffffffffffffffffffffffffff1673ffffffffffffffffffffffffffffffffffffffff1603610ea457826002019150826008019050610eb1565b8260080191508260020190505b60ff80168260050160119054906101000a900460ff1660ff1614610f0a576040517f08c379a0000000000000000000000000000000000000000000000000000000008152600401610f0190613f18565b60405180910390fd5b60008760ff166001901b8260050160009054906101000a900467ffffffffffffffff1667ffffffffffffffff161614610f78576040517f08c379a0000000000000000000000000000000000000000000000000000000008152600401610f6f90613f84565b60405180910390fd5b610f828883612f07565b15610f8f57505050611037565b868260050160116101000a81548160ff021916908360ff1602179055507f55cac4ede2505e92e4459bdeff964df027cd1fc03b9bf762d3d27a700de7c998883389604051610fdf93929190613df4565b60405180910390a160ff80168160050160119054906101000a900460ff1660ff16146110335760048360010160006101000a81548160ff0219169083600681111561102d5761102c61354d565b5b02179055505b5050505b5050505050565b8060008060008381526020019081526020016000206000015403611097576040517f08c379a000000000000000000000000000000000000000000000000000000000815260040161108e90613b6e565b60405180910390fd5b3373ffffffffffffffffffffffffffffffffffffffff1660008083815260200190815260200160002060020160000160009054906101000a900473ffffffffffffffffffffffffffffffffffffffff1673ffffffffffffffffffffffffffffffffffffffff16148061116c57503373ffffffffffffffffffffffffffffffffffffffff1660008083815260200190815260200160002060080160000160009054906101000a900473ffffffffffffffffffffffffffffffffffffffff1673ffffffffffffffffffffffffffffffffffffffff16145b6111ab576040517f08c379a00000000000000000000000000000000000000000000000000000000081526004016111a290613bda565b60405180910390fd5b8160068060068111156111c1576111c061354d565b5b60008084815260200190815260200160002060010160009054906101000a900460ff1660068111156111f6576111f561354d565b5b14611236576040517f08c379a000000000000000000000000000000000000000000000000000000000815260040161122d90613c46565b60405180910390fd5b600080600086815260200190815260200160002090503373ffffffffffffffffffffffffffffffffffffffff1681600f0160019054906101000a900473ffffffffffffffffffffffffffffffffffffffff1673ffffffffffffffffffffffffffffffffffffffff1614806112fa5750600073ffffffffffffffffffffffffffffffffffffffff1681600f0160019054906101000a900473ffffffffffffffffffffffffffffffffffffffff1673ffffffffffffffffffffffffffffffffffffffff16145b611339576040517f08c379a000000000000000000000000000000000000000000000000000000000815260040161133090614016565b60405180910390fd5b60003373ffffffffffffffffffffffffffffffffffffffff168260020160000160009054906101000a900473ffffffffffffffffffffffffffffffffffffffff1673ffffffffffffffffffffffffffffffffffffffff16036113a0578160020190506113a7565b8160080190505b8060050160139054906101000a900460ff16156113f9576040517f08c379a00000000000000000000000000000000000000000000000000000000081526004016113f090614082565b60405180910390fd5b600082600201600101549050600073ffffffffffffffffffffffffffffffffffffffff1683600f0160019054906101000a900473ffffffffffffffffffffffffffffffffffffffff1673ffffffffffffffffffffffffffffffffffffffff160361146557600181901b90505b60018260050160136101000a81548160ff0219169083151502179055503373ffffffffffffffffffffffffffffffffffffffff166108fc829081150290604051600060405180830381858888f193505050501580156114c8573d6000803e3d6000fd5b5050505050505050565b600080600080848152602001908152602001600020600001540361152b576040517f08c379a000000000000000000000000000000000000000000000000000000000815260040161152290613b6e565b60405180910390fd5b600080600084815260200190815260200160002090503373ffffffffffffffffffffffffffffffffffffffff168160020160000160009054906101000a900473ffffffffffffffffffffffffffffffffffffffff1673ffffffffffffffffffffffffffffffffffffffff16036115cb578060080160000160009054906101000a900473ffffffffffffffffffffffffffffffffffffffff169150506115f7565b8060020160000160009054906101000a900473ffffffffffffffffffffffffffffffffffffffff169150505b919050565b6000600254036116135761160e611942565b611689565b600060014361162291906140a2565b60405160200161163291906140f7565b6040516020818303038152906040528051906020012060001c9050600060016002548361165f9190614141565b815481106116705761166f614172565b5b906000526020600020015490506116868161168b565b50505b565b600080600083815260200190815260200160002060000154036116e3576040517f08c379a00000000000000000000000000000000000000000000000000000000081526004016116da90613b6e565b60405180910390fd5b600080600083815260200190815260200160002090503373ffffffffffffffffffffffffffffffffffffffff168160020160000160009054906101000a900473ffffffffffffffffffffffffffffffffffffffff1673ffffffffffffffffffffffffffffffffffffffff160361178e576040517f08c379a0000000000000000000000000000000000000000000000000000000008152600401611785906141ed565b60405180910390fd5b6001600254036117d85760016000815481106117ad576117ac614172565b5b9060005260206000200160009055600260008154809291906117ce9061420d565b9190505550611892565b600081600e01549050600060016002546117f291906140a2565b905060006001828154811061180a57611809614172565b5b90600052602060002001549050806001848154811061182c5761182b614172565b5b906000526020600020018190555082600080838152602001908152602001600020600e01819055506001828154811061186857611867614172565b5b9060005260206000200160009055600260008154809291906118899061420d565b91905055505050505b338160080160000160006101000a81548173ffffffffffffffffffffffffffffffffffffffff021916908373ffffffffffffffffffffffffffffffffffffffff16021790555060018160010160006101000a81548160ff02191690836006811115611900576118ff61354d565b5b02179055507f87969bc7faf902221a147b95ceba76e011c5efb0339a0a8ee7a2bb82d9cfbbd68233604051611936929190613d64565b60405180910390a15050565b600060014361195191906140a2565b60405160200161196191906140f7565b6040516020818303038152906040528051906020012060001c9050600080600083815260200190815260200160002060000154146119d4576040517f08c379a00000000000000000000000000000000000000000000000000000000081526004016119cb906142a8565b60405180910390fd5b6000806000838152602001908152602001600020905081816000018190555060008160010160006101000a81548160ff02191690836006811115611a1b57611a1a61354d565b5b021790555060025481600e018190555060018054905060025403611a67576001829080600181540180825580915050600190039060005260206000200160009091909190915055611a8d565b81600160025481548110611a7e57611a7d614172565b5b90600052602060002001819055505b60026000815480929190611aa0906142c8565b9190505550338160020160000160006101000a81548173ffffffffffffffffffffffffffffffffffffffff021916908373ffffffffffffffffffffffffffffffffffffffff1602179055507fa0b7f6f22bb4f69adc52dd16ffe2a964ab8b577be274247fa9a1547b03ce3e5582604051611b1a91906138ea565b60405180910390a15050565b8160008060008381526020019081526020016000206000015403611b7f576040517f08c379a0000000000000000000000000000000000000000000000000000000008152600401611b7690613b6e565b60405180910390fd5b3373ffffffffffffffffffffffffffffffffffffffff1660008083815260200190815260200160002060020160000160009054906101000a900473ffffffffffffffffffffffffffffffffffffffff1673ffffffffffffffffffffffffffffffffffffffff161480611c5457503373ffffffffffffffffffffffffffffffffffffffff1660008083815260200190815260200160002060080160000160009054906101000a900473ffffffffffffffffffffffffffffffffffffffff1673ffffffffffffffffffffffffffffffffffffffff16145b611c93576040517f08c379a0000000000000000000000000000000000000000000000000000000008152600401611c8a90613bda565b60405180910390fd5b826001806006811115611ca957611ca861354d565b5b60008084815260200190815260200160002060010160009054906101000a900460ff166006811115611cde57611cdd61354d565b5b14611d1e576040517f08c379a0000000000000000000000000000000000000000000000000000000008152600401611d1590613c46565b60405180910390fd5b600080600087815260200190815260200160002090503373ffffffffffffffffffffffffffffffffffffffff168160020160000160009054906101000a900473ffffffffffffffffffffffffffffffffffffffff1673ffffffffffffffffffffffffffffffffffffffff1603611d9f57848160020160010181905550611dac565b8481600801600101819055505b8060080160010154816002016001015403611e2c5760028160010160006101000a81548160ff02191690836006811115611de957611de861354d565b5b02179055507f49d0a3e35aea3c38dab75808edcf04c0cfae71b83c1a7ed55dc4e6a1bce8afc88686604051611e1f929190614310565b60405180910390a1611e68565b7f491d190755439e2ce91c7bed9989ef10d393e72ddb15dc0e75fe4c483998c263863387604051611e5f93929190614339565b60405180910390a15b505050505050565b6000600254905090565b8060008060008381526020019081526020016000206000015403611ed3576040517f08c379a0000000000000000000000000000000000000000000000000000000008152600401611eca90613b6e565b60405180910390fd5b3373ffffffffffffffffffffffffffffffffffffffff1660008083815260200190815260200160002060020160000160009054906101000a900473ffffffffffffffffffffffffffffffffffffffff1673ffffffffffffffffffffffffffffffffffffffff161480611fa857503373ffffffffffffffffffffffffffffffffffffffff1660008083815260200190815260200160002060080160000160009054906101000a900473ffffffffffffffffffffffffffffffffffffffff1673ffffffffffffffffffffffffffffffffffffffff16145b611fe7576040517f08c379a0000000000000000000000000000000000000000000000000000000008152600401611fde90613bda565b60405180910390fd5b60008060008481526020019081526020016000209050600360068111156120115761201061354d565b5b8160010160009054906101000a900460ff1660068111156120355761203461354d565b5b14806120765750600460068111156120505761204f61354d565b5b8160010160009054906101000a900460ff1660068111156120745761207361354d565b5b145b806120b65750600560068111156120905761208f61354d565b5b8160010160009054906101000a900460ff1660068111156120b4576120b361354d565b5b145b6120f5576040517f08c379a00000000000000000000000000000000000000000000000000000000081526004016120ec90613c46565b60405180910390fd5b6000803373ffffffffffffffffffffffffffffffffffffffff168360020160000160009054906101000a900473ffffffffffffffffffffffffffffffffffffffff1673ffffffffffffffffffffffffffffffffffffffff160361216357826002019150826008019050612170565b8260080191508260020190505b8160030160009054906101000a900460ff16156121c2576040517f08c379a00000000000000000000000000000000000000000000000000000000081526004016121b9906143e2565b60405180910390fd5b8060030160009054906101000a900460ff1615612214576040517f08c379a000000000000000000000000000000000000000000000000000000000815260040161220b90614474565b60405180910390fd5b60018160030160006101000a81548160ff0219169083151502179055504281600401819055505050505050565b816000806000838152602001908152602001600020600001540361229a576040517f08c379a000000000000000000000000000000000000000000000000000000000815260040161229190613b6e565b60405180910390fd5b3373ffffffffffffffffffffffffffffffffffffffff1660008083815260200190815260200160002060020160000160009054906101000a900473ffffffffffffffffffffffffffffffffffffffff1673ffffffffffffffffffffffffffffffffffffffff16148061236f57503373ffffffffffffffffffffffffffffffffffffffff1660008083815260200190815260200160002060080160000160009054906101000a900473ffffffffffffffffffffffffffffffffffffffff1673ffffffffffffffffffffffffffffffffffffffff16145b6123ae576040517f08c379a00000000000000000000000000000000000000000000000000000000081526004016123a590613bda565b60405180910390fd5b8260028060068111156123c4576123c361354d565b5b60008084815260200190815260200160002060010160009054906101000a900460ff1660068111156123f9576123f861354d565b5b14612439576040517f08c379a000000000000000000000000000000000000000000000000000000000815260040161243090613c46565b60405180910390fd5b6000806000878152602001908152602001600020905060003373ffffffffffffffffffffffffffffffffffffffff168260020160000160009054906101000a900473ffffffffffffffffffffffffffffffffffffffff1673ffffffffffffffffffffffffffffffffffffffff16146124b457816008016124b9565b816002015b90506000816002015414612502576040517f08c379a00000000000000000000000000000000000000000000000000000000081526004016124f9906144e0565b60405180910390fd5b80600101543414612548576040517f08c379a000000000000000000000000000000000000000000000000000000000815260040161253f90614572565b60405180910390fd5b858160020181905550600082600201600201541415801561257157506000826008016002015414155b156126595760038260010160006101000a81548160ff0219169083600681111561259e5761259d61354d565b5b021790555060ff8260080160050160116101000a81548160ff021916908360ff16021790558260020160050160116101000a81548160ff021916908360ff1602179055507f010d29992f394ceed8a8aed324eeba56758ab368faf07ca79af9fffe7953b8eb87338860405161261593929190614339565b60405180910390a17f50ad08f58a27f2851d7e3a1b3a6a46b290f2ce677e99642d30ff639721e777908760405161264c91906138ea565b60405180910390a1612695565b7f010d29992f394ceed8a8aed324eeba56758ab368faf07ca79af9fffe7953b8eb87338860405161268c93929190614339565b60405180910390a15b50505050505050565b82600080600083815260200190815260200160002060000154036126f7576040517f08c379a00000000000000000000000000000000000000000000000000000000081526004016126ee90613b6e565b60405180910390fd5b3373ffffffffffffffffffffffffffffffffffffffff1660008083815260200190815260200160002060020160000160009054906101000a900473ffffffffffffffffffffffffffffffffffffffff1673ffffffffffffffffffffffffffffffffffffffff1614806127cc57503373ffffffffffffffffffffffffffffffffffffffff1660008083815260200190815260200160002060080160000160009054906101000a900473ffffffffffffffffffffffffffffffffffffffff1673ffffffffffffffffffffffffffffffffffffffff16145b61280b576040517f08c379a000000000000000000000000000000000000000000000000000000000815260040161280290613bda565b60405180910390fd5b8360058060068111156128215761282061354d565b5b60008084815260200190815260200160002060010160009054906101000a900460ff1660068111156128565761285561354d565b5b14612896576040517f08c379a000000000000000000000000000000000000000000000000000000000815260040161288d90613c46565b60405180910390fd5b600080600088815260200190815260200160002090506000803373ffffffffffffffffffffffffffffffffffffffff168360020160000160009054906101000a900473ffffffffffffffffffffffffffffffffffffffff1673ffffffffffffffffffffffffffffffffffffffff160361291a57826002019150826008019050612927565b8260080191508260020190505b8160050160129054906101000a900460ff1615612979576040517f08c379a0000000000000000000000000000000000000000000000000000000008152600401612970906145de565b60405180910390fd5b604080146129bc576040517f08c379a00000000000000000000000000000000000000000000000000000000081526004016129b39061464a565b60405180910390fd5b600580146129ff576040517f08c379a00000000000000000000000000000000000000000000000000000000081526004016129f6906146b6565b60405180910390fd5b6000612a0a89613133565b905060008167ffffffffffffffff161480612a315750612a2f8360020154828a613229565b155b15612b695760068460010160006101000a81548160ff02191690836006811115612a5e57612a5d61354d565b5b02179055508160000160009054906101000a900473ffffffffffffffffffffffffffffffffffffffff1684600f0160016101000a81548173ffffffffffffffffffffffffffffffffffffffff021916908373ffffffffffffffffffffffffffffffffffffffff1602179055507fa94eb170965acb1cb9de7b8c291cb52184d88fe98c0710bbb74068e2efb6f8708a33604051612afb929190613d64565b60405180910390a17f668ce4ca171dee87d4d9d2b5d3dc31963fe7fbe50b982064dddb0fb9d56aee8b8a8360000160009054906101000a900473ffffffffffffffffffffffffffffffffffffffff16604051612b58929190613d64565b60405180910390a150505050612dee565b612b738a84612f07565b15612b815750505050612dee565b808360050160086101000a81548167ffffffffffffffff021916908367ffffffffffffffff16021790555060018360050160126101000a81548160ff0219169083151502179055508160050160129054906101000a900460ff1615612de9578160050160109054906101000a900460ff1660ff168360050160109054906101000a900460ff1660ff161115612c7c578260000160009054906101000a900473ffffffffffffffffffffffffffffffffffffffff1684600f0160016101000a81548173ffffffffffffffffffffffffffffffffffffffff021916908373ffffffffffffffffffffffffffffffffffffffff160217905550612d5e565b8260050160109054906101000a900460ff1660ff168260050160109054906101000a900460ff1660ff161115612d18578160000160009054906101000a900473ffffffffffffffffffffffffffffffffffffffff1684600f0160016101000a81548173ffffffffffffffffffffffffffffffffffffffff021916908373ffffffffffffffffffffffffffffffffffffffff160217905550612d5d565b600084600f0160016101000a81548173ffffffffffffffffffffffffffffffffffffffff021916908373ffffffffffffffffffffffffffffffffffffffff1602179055505b5b60068460010160006101000a81548160ff02191690836006811115612d8657612d8561354d565b5b02179055507f668ce4ca171dee87d4d9d2b5d3dc31963fe7fbe50b982064dddb0fb9d56aee8b8a85600f0160019054906101000a900473ffffffffffffffffffffffffffffffffffffffff16604051612de0929190613d64565b60405180910390a15b505050505b505050505050565b6000808585604051602001612e0c92919061471e565b6040516020818303038152906040528051906020012060001c905060005b60068160ff161015612ef75760006001891660ff1603612e915781858260ff1660068110612e5b57612e5a614172565b5b6020020151604051602001612e7192919061474a565b6040516020818303038152906040528051906020012060001c9150612eda565b848160ff1660068110612ea757612ea6614172565b5b602002015182604051602001612ebe92919061474a565b6040516020818303038152906040528051906020012060001c91505b60018860ff16901c97508080612eef90613dbc565b915050612e2a565b5082811491505095945050505050565b60008160030160009054906101000a900460ff1615613128574260058360040154612f329190614776565b1015612f685760008260030160006101000a81548160ff021916908315150217905550600082600401819055506000905061312d565b6000806000858152602001908152602001600020905060068160010160006101000a81548160ff02191690836006811115612fa657612fa561354d565b5b02179055508060020160000160009054906101000a900473ffffffffffffffffffffffffffffffffffffffff1673ffffffffffffffffffffffffffffffffffffffff168360000160009054906101000a900473ffffffffffffffffffffffffffffffffffffffff1673ffffffffffffffffffffffffffffffffffffffff1614613056578060020160000160009054906101000a900473ffffffffffffffffffffffffffffffffffffffff1661307f565b8060080160000160009054906101000a900473ffffffffffffffffffffffffffffffffffffffff165b81600f0160016101000a81548173ffffffffffffffffffffffffffffffffffffffff021916908373ffffffffffffffffffffffffffffffffffffffff1602179055507f668ce4ca171dee87d4d9d2b5d3dc31963fe7fbe50b982064dddb0fb9d56aee8b8482600f0160019054906101000a900473ffffffffffffffffffffffffffffffffffffffff16604051613116929190613d64565b60405180910390a1600191505061312d565b600090505b92915050565b6000806000905060006040518060a00160405280600560ff168152602001600460ff168152602001600360ff168152602001600260ff168152602001600260ff16815250905060005b60058160ff16101561321d576131ea83868360ff16600581106131a2576131a1614172565b5b602002015160000151878460ff16600581106131c1576131c0614172565b5b602002015160200151858560ff16600581106131e0576131df614172565b5b60200201516133f9565b925060008367ffffffffffffffff160361320a5760009350505050613224565b808061321590613dbc565b91505061317c565b5081925050505b919050565b600080600090506000806040905061323f6134b8565b600093505b8160ff168460ff1610156132e9576001808560ff168967ffffffffffffffff16901c1667ffffffffffffffff1614868560ff166040811061328857613287614172565b5b602002015160405160200161329e92919061471e565b6040516020818303038152906040528051906020012060001c818560ff16604081106132cd576132cc614172565b5b60200201818152505083806132e190613dbc565b945050613244565b60018260ff16901c91505b60008260ff16146133d157600092508293505b8160ff168460ff1610156133c257808360ff166040811061332b5761332a614172565b5b60200201518160018561333e9190613e2b565b60ff166040811061335257613351614172565b5b602002015160405160200161336892919061474a565b6040516020818303038152906040528051906020012060001c818560ff166040811061339757613396614172565b5b6020020181815250506002836133ad9190613e2b565b925083806133ba90613dbc565b945050613307565b60018260ff16901c91506132f4565b87816000604081106133e6576133e5614172565b5b6020020151149450505050509392505050565b600080600090505b8260ff168160ff1610156134ab5760006007861660ff16036134275760009150506134b0565b603f8560ff16111561343d5760009150506134b0565b60008560ff166001901b871667ffffffffffffffff16146134625760009150506134b0565b8460ff166001901b861795508315613488576001856134819190613e2b565b9450613498565b6008856134959190613e2b565b94505b80806134a390613dbc565b915050613401565b508490505b949350505050565b604051806108000160405280604090602082028036833780820191505090505090565b6000604051905090565b600080fd5b6000819050919050565b6134fd816134ea565b811461350857600080fd5b50565b60008135905061351a816134f4565b92915050565b600060208284031215613536576135356134e5565b5b60006135448482850161350b565b91505092915050565b7f4e487b7100000000000000000000000000000000000000000000000000000000600052602160045260246000fd5b6007811061358d5761358c61354d565b5b50565b600081905061359e8261357c565b919050565b60006135ae82613590565b9050919050565b6135be816135a3565b82525050565b60006020820190506135d960008301846135b5565b92915050565b60008115159050919050565b6135f4816135df565b81146135ff57600080fd5b50565b600081359050613611816135eb565b92915050565b600080fd5b6000601f19601f8301169050919050565b7f4e487b7100000000000000000000000000000000000000000000000000000000600052604160045260246000fd5b6136658261361c565b810181811067ffffffffffffffff821117156136845761368361362d565b5b80604052505050565b60006136976134db565b90506136a3828261365c565b919050565b600067ffffffffffffffff8211156136c3576136c261362d565b5b602082029050919050565b600080fd5b60006136e66136e1846136a8565b61368d565b90508060208402830185811115613700576136ff6136ce565b5b835b818110156137295780613715888261350b565b845260208401935050602081019050613702565b5050509392505050565b600082601f83011261374857613747613617565b5b60066137558482856136d3565b91505092915050565b6000806000806101208587031215613779576137786134e5565b5b60006137878782880161350b565b945050602061379887828801613602565b93505060406137a98782880161350b565b92505060606137ba87828801613733565b91505092959194509250565b600060ff82169050919050565b6137dc816137c6565b81146137e757600080fd5b50565b6000813590506137f9816137d3565b92915050565b60008060408385031215613816576138156134e5565b5b60006138248582860161350b565b9250506020613835858286016137ea565b9150509250929050565b600073ffffffffffffffffffffffffffffffffffffffff82169050919050565b600061386a8261383f565b9050919050565b61387a8161385f565b82525050565b60006020820190506138956000830184613871565b92915050565b600080604083850312156138b2576138b16134e5565b5b60006138c08582860161350b565b92505060206138d18582860161350b565b9150509250929050565b6138e4816134ea565b82525050565b60006020820190506138ff60008301846138db565b92915050565b600067ffffffffffffffff8211156139205761391f61362d565b5b602082029050919050565b600080fd5b6000604082840312156139465761394561392b565b5b613950604061368d565b90506000613960848285016137ea565b600083015250602061397484828501613602565b60208301525092915050565b600061399361398e84613905565b61368d565b905080604084028301858111156139ad576139ac6136ce565b5b835b818110156139d657806139c28882613930565b8452602084019350506040810190506139af565b5050509392505050565b600082601f8301126139f5576139f4613617565b5b6005613a02848285613980565b91505092915050565b600067ffffffffffffffff821115613a2657613a2561362d565b5b602082029050919050565b6000613a44613a3f84613a0b565b61368d565b90508060208402830185811115613a5e57613a5d6136ce565b5b835b81811015613a875780613a73888261350b565b845260208401935050602081019050613a60565b5050509392505050565b600082601f830112613aa657613aa5613617565b5b6040613ab3848285613a31565b91505092915050565b60008060006109608486031215613ad657613ad56134e5565b5b6000613ae48682870161350b565b9350506020613af5868287016139e0565b925050610160613b0786828701613a91565b9150509250925092565b600082825260208201905092915050565b7f47616d6520646f6573206e6f7420657869737400000000000000000000000000600082015250565b6000613b58601383613b11565b9150613b6382613b22565b602082019050919050565b60006020820190508181036000830152613b8781613b4b565b9050919050565b7f596f7520617265206e6f7420696e20746869732067616d650000000000000000600082015250565b6000613bc4601883613b11565b9150613bcf82613b8e565b602082019050919050565b60006020820190508181036000830152613bf381613bb7565b9050919050565b7f47616d65206973206e6f7420696e2074686520636f7272656374207374617465600082015250565b6000613c30602083613b11565b9150613c3b82613bfa565b602082019050919050565b60006020820190508181036000830152613c5f81613c23565b9050919050565b7f496e76616c69642070726f6f662c206974206d75737420626520616e2061727260008201527f6179206f66203620686173686573000000000000000000000000000000000000602082015250565b6000613cc2602e83613b11565b9150613ccd82613c66565b604082019050919050565b60006020820190508181036000830152613cf181613cb5565b9050919050565b7f596f7520616c72656164792072657665616c656420746865206d6f7665000000600082015250565b6000613d2e601d83613b11565b9150613d3982613cf8565b602082019050919050565b60006020820190508181036000830152613d5d81613d21565b9050919050565b6000604082019050613d7960008301856138db565b613d866020830184613871565b9392505050565b7f4e487b7100000000000000000000000000000000000000000000000000000000600052601160045260246000fd5b6000613dc7826137c6565b915060ff8203613dda57613dd9613d8d565b5b600182019050919050565b613dee816137c6565b82525050565b6000606082019050613e0960008301866138db565b613e166020830185613871565b613e236040830184613de5565b949350505050565b6000613e36826137c6565b9150613e41836137c6565b9250828201905060ff811115613e5a57613e59613d8d565b5b92915050565b7f496e76616c696420706f736974696f6e00000000000000000000000000000000600082015250565b6000613e96601083613b11565b9150613ea182613e60565b602082019050919050565b60006020820190508181036000830152613ec581613e89565b9050919050565b7f596f7520616c72656164792070726f706f7365642061206d6f76650000000000600082015250565b6000613f02601b83613b11565b9150613f0d82613ecc565b602082019050919050565b60006020820190508181036000830152613f3181613ef5565b9050919050565b7f506f736974696f6e20616c72656164792072657665616c656400000000000000600082015250565b6000613f6e601983613b11565b9150613f7982613f38565b602082019050919050565b60006020820190508181036000830152613f9d81613f61565b9050919050565b7f596f7520617265206e6f74207468652077696e6e6572206f662074686973206760008201527f616d650000000000000000000000000000000000000000000000000000000000602082015250565b6000614000602383613b11565b915061400b82613fa4565b604082019050919050565b6000602082019050818103600083015261402f81613ff3565b9050919050565b7f596f7520616c7265616479207769746864726177656400000000000000000000600082015250565b600061406c601683613b11565b915061407782614036565b602082019050919050565b6000602082019050818103600083015261409b8161405f565b9050919050565b60006140ad826134ea565b91506140b8836134ea565b92508282039050818111156140d0576140cf613d8d565b5b92915050565b6000819050919050565b6140f16140ec826134ea565b6140d6565b82525050565b600061410382846140e0565b60208201915081905092915050565b7f4e487b7100000000000000000000000000000000000000000000000000000000600052601260045260246000fd5b600061414c826134ea565b9150614157836134ea565b92508261416757614166614112565b5b828206905092915050565b7f4e487b7100000000000000000000000000000000000000000000000000000000600052603260045260246000fd5b7f596f752061726520616c726561647920696e20746869732067616d6500000000600082015250565b60006141d7601c83613b11565b91506141e2826141a1565b602082019050919050565b60006020820190508181036000830152614206816141ca565b9050919050565b6000614218826134ea565b91506000820361422b5761422a613d8d565b5b600182039050919050565b7f43616e2774206372656174652061206e65772067616d6520617420746865206d60008201527f6f6d656e742c2072657472790000000000000000000000000000000000000000602082015250565b6000614292602c83613b11565b915061429d82614236565b604082019050919050565b600060208201905081810360008301526142c181614285565b9050919050565b60006142d3826134ea565b91507fffffffffffffffffffffffffffffffffffffffffffffffffffffffffffffffff820361430557614304613d8d565b5b600182019050919050565b600060408201905061432560008301856138db565b61433260208301846138db565b9392505050565b600060608201905061434e60008301866138db565b61435b6020830185613871565b61436860408301846138db565b949350505050565b7f596f752061726520756e6465722061636375736174696f6e2c2063616e27742060008201527f6d616b65206f74686572206d6f76657300000000000000000000000000000000602082015250565b60006143cc603083613b11565b91506143d782614370565b604082019050919050565b600060208201905081810360008301526143fb816143bf565b9050919050565b7f4f70706f6e656e7420697320616c726561647920756e6465722061636375736160008201527f74696f6e00000000000000000000000000000000000000000000000000000000602082015250565b600061445e602483613b11565b915061446982614402565b604082019050919050565b6000602082019050818103600083015261448d81614451565b9050919050565b7f596f7520616c726561647920636f6d6d69747465642074686520626f61726400600082015250565b60006144ca601f83613b11565b91506144d582614494565b602082019050919050565b600060208201905081810360008301526144f9816144bd565b9050919050565b7f596f75206d75737420706179207468652066656520746f20636f6d6d6974207460008201527f686520626f617264000000000000000000000000000000000000000000000000602082015250565b600061455c602883613b11565b915061456782614500565b604082019050919050565b6000602082019050818103600083015261458b8161454f565b9050919050565b7f596f7520616c72656164792072657665616c65642074686520626f6172640000600082015250565b60006145c8601e83613b11565b91506145d382614592565b602082019050919050565b600060208201905081810360008301526145f7816145bb565b9050919050565b7f496e76616c6964206e6f6e636573206c656e6774680000000000000000000000600082015250565b6000614634601583613b11565b915061463f826145fe565b602082019050919050565b6000602082019050818103600083015261466381614627565b9050919050565b7f496e76616c6964207368697073206c656e677468000000000000000000000000600082015250565b60006146a0601483613b11565b91506146ab8261466a565b602082019050919050565b600060208201905081810360008301526146cf81614693565b9050919050565b60008160f81b9050919050565b60006146ee826146d6565b9050919050565b6000614700826146e3565b9050919050565b614718614713826135df565b6146f5565b82525050565b600061472a8285614707565b60018201915061473a82846140e0565b6020820191508190509392505050565b600061475682856140e0565b60208201915061476682846140e0565b6020820191508190509392505050565b6000614781826134ea565b915061478c836134ea565b92508282019050808211156147a4576147a3613d8d565b5b9291505056fea2646970667358221220c4712d48ec98827bede722aa3a908d7721f01991ea55dd4ec1be25305bf3df9764736f6c63430008130033",
  "immutableReferences": {},
  "source": "// SPDX-License-Identifier: MIT\npragma solidity >=0.4.22 <0.9.0;\n\n/*\n    The board is fixed to 8x8\n    with the following pieces:\n    - 1x Aircraft Carrier (5 squares)\n    - 1x Battleship (4 squares)\n    - 1x Cruiser (3 squares)\n    - 2x Destroyers (2 squares)\n\n    So we can terminate the game when:\n    - 1 player has 16 hits\n    - all positions have been revealed\n\n    Merkle proof for a 64 position board (8x8):\n    - actual position state\n    - nonce used to generate the hash\n    - 6 hashes\n    - Merkle Hash (already stored in the contract)\n */\n\ncontract BattleShip {\n    uint8 private constant NO_MOVE = 255;\n    uint8 private constant MAX_HIT = 16;\n    uint8 private constant MAX_ROUNDS = 64;\n\n    enum GameState {\n        // Game created but waiting for the second player to join\n        WaitingForOpponent,\n        // Players joined the game but need to agree on the fee\n        FeeNegotiation,\n        // Players agreed on the fee and need to commit the board\n        WaitingCommitment,\n        // Players committed the board and now the game starts\n        WaitingForMove,\n        // Players must submit Merkle proof in order to prove the move result\n        WaitingForProof,\n        // Game ended and now player must reveal the board\n        WaitingForReveal,\n        // Game ended and now we have a winner\n        GameOver\n    }\n\n    struct Ship {\n        uint8 start_position;\n        // true if horizontal, false if vertical\n        bool direction;\n    }\n\n    struct Player {\n        address user_id;\n        // Used to implement the fee negotiation, then to store the actual fee\n        uint256 proposed_fee;\n        // Used to implement the board commitment and check at the end\n        uint256 committed_board;\n        // Used to implements accusation\n        bool accused; // if true the player has been accused of leaving\n        uint256 accused_at; // represents the time when the player has been accused\n        // Used to store revealed board status and check at the end\n        // bitmap used to store the revealed positions\n        uint64 revealed_positions;\n        // bitmap used to store the actual hit\n        // only the actual bit at 1 in\n        // revealed_positions & position_status\n        // are the actual hits\n        uint64 position_status;\n        uint8 hits;\n        // Used to implement the move submission\n        uint8 move;\n        // Used to implement both the move reveal and the board reveal\n        bool revealed;\n        bool withdrawed;\n    }\n\n    struct Game {\n        uint256 game_id;\n        GameState game_state;\n        Player A;\n        Player B;\n        uint256 position_in_games_list;\n        uint8 rounds_elapsed;\n        address winner;\n    }\n\n    // Events to notify frontend\n    event NewGame(uint256 game_id);\n    event PlayerJoined(uint256 game_id, address player_id);\n    event FeeProposed(uint256 game_id, address player_id, uint256 fee);\n    event FeeAgreed(uint256 game_id, uint256 fee);\n    event BoardCommitted(uint256 game_id, address player_id, uint256 board);\n    event GameStarted(uint256 game_id);\n    event MoveProposed(uint256 game_id, address player_id, uint8 move);\n    event CheatingAttempt(uint256 game_id, address player_id);\n    event Hit(uint256 game_id, address player_id, uint8 position);\n    event Miss(uint256 game_id, address player_id, uint8 position);\n    event NextRound(uint256 game_id);\n    event EndOfGame(uint256 game_id);\n    event GameOver(uint256 game_id, address winner);\n    event AccusationRequest(uint256 game_id, address player_id);\n\n    // Collects actual games data, used for the game evolution\n    mapping(uint256 => Game) private id2game;\n    // Collects games which are pending for players to join\n    // used for random matchmaking and game join\n    uint256[] private free_games;\n    uint256 private free_games_count;\n\n    // NB: public because it is both used by the frontend and the contract itself\n    function new_game() public {\n        uint256 game_id = uint256(\n            keccak256(abi.encodePacked(block.number - 1))\n        );\n\n        require(\n            id2game[game_id].game_id == 0,\n            \"Can't create a new game at the moment, retry\"\n        );\n\n        Game storage game = id2game[game_id];\n        game.game_id = game_id;\n        game.game_state = GameState.WaitingForOpponent;\n        game.position_in_games_list = free_games_count;\n        if (free_games_count == free_games.length) {\n            free_games.push(game_id);\n        } else {\n            free_games[free_games_count] = game_id;\n        }\n        free_games_count++;\n\n        game.A.user_id = msg.sender;\n\n        emit NewGame(game_id);\n    }\n\n    // NB: public because it is both used by the frontend and the contract itself\n    function join_game(uint256 game_id) public {\n        require(id2game[game_id].game_id != 0, \"Game does not exist\");\n\n        Game storage current_game = id2game[game_id];\n        require(\n            current_game.A.user_id != msg.sender,\n            \"You are already in this game\"\n        );\n\n        // Remove the game from the list of available games\n        if (free_games_count == 1) {\n            // if only one element, just remove it\n            delete free_games[0];\n            free_games_count--;\n        } else {\n            // otherwise swap the current game with the last one\n            // and then remove the last one and update it's position\n            // in the list\n            uint256 current_position = current_game.position_in_games_list;\n            uint256 last_position = free_games_count - 1;\n            uint256 last_game_id = free_games[last_position];\n\n            free_games[current_position] = last_game_id;\n            id2game[last_game_id].position_in_games_list = current_position;\n            delete free_games[last_position];\n            free_games_count--;\n        }\n\n        // Update game infos\n        // Assign the opponet player\n        current_game.B.user_id = msg.sender;\n\n        // Move game to fee negotiation\n        current_game.game_state = GameState.FeeNegotiation;\n\n        emit PlayerJoined(game_id, msg.sender);\n    }\n\n    // If no game exists just create one\n    // otherwise join random game\n    // then returns the game_id\n    // and a boolean to indicate if the game is new or not\n    function join_random_game() external {\n        if (free_games_count == 0) {\n            new_game();\n        } else {\n            // make choice at random\n            uint256 random_index = uint256(\n                keccak256(abi.encodePacked(block.number - 1))\n            );\n\n            uint256 game_id = free_games[random_index % free_games_count];\n            join_game(game_id);\n        }\n    }\n\n    modifier player_in_game(uint256 game_id) {\n        // Check that the game exists\n        require(id2game[game_id].game_id != 0, \"Game does not exist\");\n\n        // Check that user is in the game\n        require(\n            id2game[game_id].A.user_id == msg.sender ||\n                id2game[game_id].B.user_id == msg.sender,\n            \"You are not in this game\"\n        );\n        _;\n    }\n\n    modifier check_game_state(uint256 game_id, GameState game_state) {\n        // Check that the game is in the correct state\n        require(\n            id2game[game_id].game_state == game_state,\n            \"Game is not in the correct state\"\n        );\n        _;\n    }\n\n    // Propose fee until both players agree on the same fee\n    function propose_fee(\n        uint256 game_id,\n        uint256 fee\n    )\n        external\n        player_in_game(game_id)\n        check_game_state(game_id, GameState.FeeNegotiation)\n    {\n        Game storage current_game = id2game[game_id];\n\n        // Update fee proposal\n        if (current_game.A.user_id == msg.sender) {\n            current_game.A.proposed_fee = fee;\n        } else {\n            current_game.B.proposed_fee = fee;\n        }\n\n        // Manage notification to frontend and game state\n        // Both players agreed on the fee\n        if (current_game.A.proposed_fee == current_game.B.proposed_fee) {\n            current_game.game_state = GameState.WaitingCommitment;\n            emit FeeAgreed(game_id, fee);\n        }\n        // Otherwise just notify the frontend to continue the negotiation\n        else {\n            emit FeeProposed(game_id, msg.sender, fee);\n        }\n    }\n\n    function commit_board(\n        uint256 game_id,\n        uint256 board\n    )\n        external\n        payable\n        player_in_game(game_id)\n        check_game_state(game_id, GameState.WaitingCommitment)\n    {\n        Game storage current_game = id2game[game_id];\n\n        Player storage player = (current_game.A.user_id == msg.sender)\n            ? current_game.A\n            : current_game.B;\n\n        // Check that user did not already commit the board\n        // otherwise it would double pay\n        require(player.committed_board == 0, \"You already committed the board\");\n\n        // Check that the fee has been paid\n        // proposed_fee SHOULD be the same at this point\n        require(\n            msg.value == player.proposed_fee,\n            \"You must pay the fee to commit the board\"\n        );\n\n        // Update committed board\n        player.committed_board = board;\n\n        // Manage notification to frontend and game state\n        // Both players committed the board and payed the fee\n        if (\n            current_game.A.committed_board != 0 &&\n            current_game.B.committed_board != 0\n        ) {\n            current_game.game_state = GameState.WaitingForMove;\n            current_game.A.move = current_game.B.move = NO_MOVE;\n            emit BoardCommitted(game_id, msg.sender, board);\n            emit GameStarted(game_id);\n        }\n        // Otherwise just notify the frontend to continue wait for the other player\n        else {\n            emit BoardCommitted(game_id, msg.sender, board);\n        }\n    }\n\n    function submit_move(\n        uint256 game_id,\n        uint8 move\n    )\n        external\n        player_in_game(game_id)\n        check_game_state(game_id, GameState.WaitingForMove)\n    {\n        // Move must be in the range [0, 63] for a 8x8 board\n        require(move < 64, \"Invalid position\");\n        Game storage current_game = id2game[game_id];\n\n        Player storage player;\n        Player storage opponent;\n\n        if (current_game.A.user_id == msg.sender) {\n            player = current_game.A;\n            opponent = current_game.B;\n        } else {\n            player = current_game.B;\n            opponent = current_game.A;\n        }\n\n        // Check if user already proposed a move\n        require(player.move == NO_MOVE, \"You already proposed a move\");\n\n        // Check if positions has already been revealed\n        require(\n            (opponent.revealed_positions & (1 << move)) == 0,\n            \"Position already revealed\"\n        );\n\n        if (check_accusation(game_id, player)) {\n            return;\n        }\n\n        // Update move\n        player.move = move;\n\n        emit MoveProposed(game_id, msg.sender, move);\n\n        // Check if opponent already proposed a move\n        if (opponent.move != NO_MOVE) {\n            // move to reveal phase\n            current_game.game_state = GameState.WaitingForProof;\n        }\n    }\n\n    function submit_proof(\n        uint256 game_id,\n        bool has_ship,\n        uint256 nonce,\n        uint256[6] memory proof\n    )\n        external\n        player_in_game(game_id)\n        check_game_state(game_id, GameState.WaitingForProof)\n    {\n        // Check that the proof has the needed length\n        require(\n            proof.length == 6,\n            \"Invalid proof, it must be an array of 6 hashes\"\n        );\n\n        Game storage current_game = id2game[game_id];\n\n        Player storage player;\n        Player storage opponent;\n\n        if (current_game.A.user_id == msg.sender) {\n            player = current_game.A;\n            opponent = current_game.B;\n        } else {\n            player = current_game.B;\n            opponent = current_game.A;\n        }\n\n        // check that the user has not already revealed the move\n        require(!player.revealed, \"You already revealed the move\");\n\n        // Check if the proof is valid\n        if (\n            !check_proof(\n                opponent.move,\n                has_ship,\n                nonce,\n                proof,\n                player.committed_board\n            )\n        ) {\n            // Cheating attempt: terminate the game and set the opponet as the winner\n            current_game.game_state = GameState.GameOver;\n            current_game.winner = opponent.user_id;\n            emit CheatingAttempt(game_id, msg.sender);\n            emit GameOver(game_id, opponent.user_id);\n            return;\n        }\n\n        if (check_accusation(game_id, player)) {\n            return;\n        }\n\n        // Update revealed positions\n        player.revealed_positions |= uint64(1 << opponent.move);\n\n        // Update position status\n        if (has_ship) {\n            opponent.position_status |= uint64(1 << player.move);\n            opponent.hits++;\n            emit Hit(game_id, opponent.user_id, opponent.move);\n        } else {\n            emit Miss(game_id, opponent.user_id, opponent.move);\n        }\n\n        // set the move as revealed\n        player.revealed = true;\n\n        // Check if reveal phase is over\n        if (opponent.revealed) {\n            current_game.rounds_elapsed += 1;\n            // Check if game is over\n            if (\n                opponent.hits == MAX_HIT ||\n                player.hits == MAX_HIT ||\n                current_game.rounds_elapsed == MAX_ROUNDS\n            ) {\n                // Game is over so user must reveal their boards\n                current_game.game_state = GameState.WaitingForReveal;\n                emit EndOfGame(game_id);\n                return;\n            }\n            // Otherwise move to the next round\n            current_game.game_state = GameState.WaitingForMove;\n            player.move = opponent.move = NO_MOVE;\n            player.revealed = opponent.revealed = false;\n            emit NextRound(game_id);\n        }\n    }\n\n    function reveal_board(\n        uint256 game_id,\n        Ship[5] memory ships,\n        uint256[64] memory nonces\n    )\n        external\n        player_in_game(game_id)\n        check_game_state(game_id, GameState.WaitingForReveal)\n    {\n        Game storage current_game = id2game[game_id];\n\n        Player storage player;\n        Player storage opponent;\n\n        if (current_game.A.user_id == msg.sender) {\n            player = current_game.A;\n            opponent = current_game.B;\n        } else {\n            player = current_game.B;\n            opponent = current_game.A;\n        }\n\n        // Check that the user has not already revealed the board\n        require(!player.revealed, \"You already revealed the board\");\n\n        // Check that the user passed the right number of nonces\n        require(nonces.length == 64, \"Invalid nonces length\");\n\n        require(ships.length == 5, \"Invalid ships length\");\n\n        // If the board cannot be built, the user is cheating\n        uint64 board = build_board(ships);\n\n        // Check if ship placement is valid\n        // and that the board is the same as the committed one\n        if (\n            board == 0 ||\n            !check_board_proof(player.committed_board, board, nonces)\n        ) {\n            // Cheating attempt: terminate the game and set the opponet as the winner\n            current_game.game_state = GameState.GameOver;\n            current_game.winner = opponent.user_id;\n            emit CheatingAttempt(game_id, msg.sender);\n            emit GameOver(game_id, opponent.user_id);\n            return;\n        }\n\n        if (check_accusation(game_id, player)) {\n            return;\n        }\n\n        // Update revealed positions\n        player.position_status = board;\n        // Update user state to revealed\n        player.revealed = true;\n\n        // If both user revealed the board, the game is over\n        if (opponent.revealed) {\n            // Set winner\n            if (player.hits > opponent.hits) {\n                // player wins\n                current_game.winner = player.user_id;\n            } else if (opponent.hits > player.hits) {\n                // opponent wins\n                current_game.winner = opponent.user_id;\n            } else {\n                // draw\n                current_game.winner = address(0);\n            }\n            current_game.game_state = GameState.GameOver;\n            emit GameOver(game_id, current_game.winner);\n        }\n    }\n\n    function check_accusation(\n        uint256 game_id,\n        Player storage current_player\n    ) private returns (bool) {\n        // Check if player is under accusation\n        if (current_player.accused) {\n            // If response is under time limit, the accusation is retired\n            if (current_player.accused_at + 5 < block.timestamp) {\n                current_player.accused = false;\n                current_player.accused_at = 0;\n                return false;\n            } else {\n                // Otherwise the accusation is valid and the opponent wins\n                Game storage current_game = id2game[game_id];\n                current_game.game_state = GameState.GameOver;\n                current_game.winner = current_player.user_id ==\n                    current_game.A.user_id\n                    ? current_game.B.user_id\n                    : current_game.A.user_id;\n                emit GameOver(game_id, current_game.winner);\n                return true;\n            }\n        }\n\n        return false;\n    }\n\n    function withdraw(\n        uint256 game_id\n    )\n        external\n        player_in_game(game_id)\n        check_game_state(game_id, GameState.GameOver)\n    {\n        Game storage current_game = id2game[game_id];\n        require(\n            current_game.winner == msg.sender ||\n                current_game.winner == address(0),\n            \"You are not the winner of this game\"\n        );\n\n        Player storage player;\n\n        if (current_game.A.user_id == msg.sender) {\n            player = current_game.A;\n        } else {\n            player = current_game.B;\n        }\n\n        require(!player.withdrawed, \"You already withdrawed\");\n\n        uint256 amount = current_game.A.proposed_fee;\n        if (current_game.winner == address(0)) {\n            amount <<= 1;\n        }\n\n        // Avoid reentrancy\n        player.withdrawed = true;\n        payable(msg.sender).transfer(amount);\n    }\n\n    function make_accusation(uint256 game_id) external player_in_game(game_id) {\n        // Check that the game is either in the waiting for move or waiting for proof/reveal state\n        Game storage current_game = id2game[game_id];\n\n        require(\n            current_game.game_state == GameState.WaitingForMove ||\n                current_game.game_state == GameState.WaitingForProof ||\n                current_game.game_state == GameState.WaitingForReveal,\n            \"Game is not in the correct state\"\n        );\n\n        Player storage player;\n        Player storage opponent;\n\n        if (current_game.A.user_id == msg.sender) {\n            player = current_game.A;\n            opponent = current_game.B;\n        } else {\n            player = current_game.B;\n            opponent = current_game.A;\n        }\n\n        // Check that the user is not currently under accusation\n        require(\n            !player.accused,\n            \"You are under accusation, can't make other moves\"\n        );\n\n        // Check that the other player is not currently under accusation\n        require(!opponent.accused, \"Opponent is already under accusation\");\n\n        opponent.accused = true;\n        opponent.accused_at = block.timestamp;\n    }\n\n    /* Utility functions */\n\n    /* Assume that:\n        - index in [0, 63]\n        - proof.length == 6\n    */\n    function check_proof(\n        uint8 index,\n        bool has_ship,\n        uint256 nonce,\n        uint256[6] memory proof,\n        uint256 committed_board\n    ) private pure returns (bool) {\n        // build the leaf hash by hash(has_ship || nonce)\n        uint256 previous_hash = uint256(\n            keccak256(abi.encodePacked(has_ship, nonce))\n        );\n\n        for (uint8 i = 0; i < 6; i++) {\n            if (index & 1 == 0) {\n                // we are on the left side of the tree\n                previous_hash = uint256(\n                    keccak256(abi.encodePacked(previous_hash, proof[i]))\n                );\n            } else {\n                // we are on the right side of the tree\n                previous_hash = uint256(\n                    keccak256(abi.encodePacked(proof[i], previous_hash))\n                );\n            }\n            index = index >> 1;\n        }\n\n        return previous_hash == committed_board;\n    }\n\n    function check_board_proof(\n        uint256 committed_board,\n        uint64 board,\n        uint256[64] memory nonces\n    ) private pure returns (bool) {\n        // Compute Merkle tree root\n        uint8 i = 0;\n        uint8 j = 0;\n        uint8 actual_size = 64;\n\n        uint256[64] memory tree;\n\n        // Compute various hash(ship[i]  || nonces[i])\n        for (i = 0; i < actual_size; i++) {\n            tree[i] = uint256(\n                keccak256(abi.encodePacked(((board >> i) & 1) == 1, nonces[i]))\n            );\n        }\n\n        actual_size = actual_size >> 1;\n        while (actual_size != 0) {\n            for (i = j = 0; i < actual_size; i++) {\n                tree[i] = uint256(\n                    keccak256(abi.encodePacked(tree[j], tree[j + 1]))\n                );\n                j += 2;\n            }\n            actual_size = actual_size >> 1;\n        }\n\n        return tree[0] == committed_board;\n    }\n\n    function update_board(\n        uint64 current_board,\n        uint8 index,\n        bool direction,\n        uint8 ship_size\n    ) private pure returns (uint64) {\n        for (uint8 i = 0; i < ship_size; i++) {\n            // Check if we are at the end of the row\n            if (index & 0x7 == 0) {\n                return 0;\n            }\n            // check if we are at the end of the board\n            if (index > 63) {\n                return 0;\n            }\n\n            // If the bit is already set, it means that there is a collision\n            if (current_board & uint64(1 << index) != 0) {\n                return 0;\n            }\n\n            // Update board\n            current_board |= uint64(1 << index);\n            if (direction) {\n                index += 1;\n            } else {\n                index += 8;\n            }\n        }\n\n        return current_board;\n    }\n\n    function build_board(Ship[5] memory ships) private pure returns (uint64) {\n        uint64 board = 0;\n        uint8[5] memory sizes = [5, 4, 3, 2, 2];\n\n        for (uint8 i = 0; i < 5; i++) {\n            board = update_board(\n                board,\n                ships[i].start_position,\n                ships[i].direction,\n                sizes[i]\n            );\n            if (board == 0) {\n                return 0;\n            }\n        }\n\n        return board;\n    }\n\n    /* View functions */\n    // Return GameState\n    function get_game_state(uint256 game_id) external view returns (GameState) {\n        require(id2game[game_id].game_id != 0, \"Game does not exist\");\n        return id2game[game_id].game_state;\n    }\n\n    function get_free_games_length() external view returns (uint256) {\n        return free_games_count;\n    }\n\n    function get_opponent(uint256 game_id) external view returns (address) {\n        require(id2game[game_id].game_id != 0, \"Game does not exist\");\n        Game storage current_game = id2game[game_id];\n        if (current_game.A.user_id == msg.sender) {\n            return current_game.B.user_id;\n        } else {\n            return current_game.A.user_id;\n        }\n    }\n}\n",
  "sourcePath": "/home/drw0if/p2p/battleship/contracts/BattleShip.sol",
  "compiler": {
    "name": "solc",
    "version": "0.8.19+commit.7dd6d404.Emscripten.clang"
  },
  "schemaVersion": "3.4.16",
  "updatedAt": "2023-12-27T20:37:01.346Z",
  "networkType": "ethereum",
  "devdoc": {
    "kind": "dev",
    "methods": {},
    "version": 1
  },
  "userdoc": {
    "kind": "user",
    "methods": {},
    "version": 1
  }
}