{
  "contractName": "BattleShip",
  "abi": [
    {
      "anonymous": false,
      "inputs": [
        {
          "indexed": false,
          "internalType": "uint256",
          "name": "game_id",
          "type": "uint256"
        },
        {
          "indexed": false,
          "internalType": "address",
          "name": "player_id",
          "type": "address"
        }
      ],
      "name": "AccusationElapsed",
      "type": "event"
    },
    {
      "anonymous": false,
      "inputs": [
        {
          "indexed": false,
          "internalType": "uint256",
          "name": "game_id",
          "type": "uint256"
        }
      ],
      "name": "AccusationInPlace",
      "type": "event"
    },
    {
      "anonymous": false,
      "inputs": [
        {
          "indexed": false,
          "internalType": "uint256",
          "name": "game_id",
          "type": "uint256"
        },
        {
          "indexed": false,
          "internalType": "address",
          "name": "player_id",
          "type": "address"
        }
      ],
      "name": "AccusationRequest",
      "type": "event"
    },
    {
      "anonymous": false,
      "inputs": [
        {
          "indexed": false,
          "internalType": "uint256",
          "name": "game_id",
          "type": "uint256"
        },
        {
          "indexed": false,
          "internalType": "address",
          "name": "player_id",
          "type": "address"
        },
        {
          "indexed": false,
          "internalType": "uint256",
          "name": "board",
          "type": "uint256"
        }
      ],
      "name": "BoardCommitted",
      "type": "event"
    },
    {
      "anonymous": false,
      "inputs": [
        {
          "indexed": false,
          "internalType": "uint256",
          "name": "game_id",
          "type": "uint256"
        },
        {
          "indexed": false,
          "internalType": "address",
          "name": "player_id",
          "type": "address"
        }
      ],
      "name": "CheatingAttempt",
      "type": "event"
    },
    {
      "anonymous": false,
      "inputs": [
        {
          "indexed": false,
          "internalType": "uint256",
          "name": "game_id",
          "type": "uint256"
        }
      ],
      "name": "EndOfGame",
      "type": "event"
    },
    {
      "anonymous": false,
      "inputs": [
        {
          "indexed": false,
          "internalType": "uint256",
          "name": "game_id",
          "type": "uint256"
        },
        {
          "indexed": false,
          "internalType": "uint256",
          "name": "fee",
          "type": "uint256"
        }
      ],
      "name": "FeeAgreed",
      "type": "event"
    },
    {
      "anonymous": false,
      "inputs": [
        {
          "indexed": false,
          "internalType": "uint256",
          "name": "game_id",
          "type": "uint256"
        },
        {
          "indexed": false,
          "internalType": "address",
          "name": "player_id",
          "type": "address"
        },
        {
          "indexed": false,
          "internalType": "uint256",
          "name": "fee",
          "type": "uint256"
        }
      ],
      "name": "FeeProposed",
      "type": "event"
    },
    {
      "anonymous": false,
      "inputs": [
        {
          "indexed": false,
          "internalType": "uint256",
          "name": "game_id",
          "type": "uint256"
        },
        {
          "indexed": false,
          "internalType": "address",
          "name": "winner",
          "type": "address"
        }
      ],
      "name": "GameOver",
      "type": "event"
    },
    {
      "anonymous": false,
      "inputs": [
        {
          "indexed": false,
          "internalType": "uint256",
          "name": "game_id",
          "type": "uint256"
        }
      ],
      "name": "GameStarted",
      "type": "event"
    },
    {
      "anonymous": false,
      "inputs": [
        {
          "indexed": false,
          "internalType": "uint256",
          "name": "game_id",
          "type": "uint256"
        },
        {
          "indexed": false,
          "internalType": "address",
          "name": "player_id",
          "type": "address"
        },
        {
          "indexed": false,
          "internalType": "uint8",
          "name": "position",
          "type": "uint8"
        }
      ],
      "name": "Hit",
      "type": "event"
    },
    {
      "anonymous": false,
      "inputs": [
        {
          "indexed": false,
          "internalType": "uint256",
          "name": "game_id",
          "type": "uint256"
        },
        {
          "indexed": false,
          "internalType": "address",
          "name": "player_id",
          "type": "address"
        },
        {
          "indexed": false,
          "internalType": "uint8",
          "name": "position",
          "type": "uint8"
        }
      ],
      "name": "Miss",
      "type": "event"
    },
    {
      "anonymous": false,
      "inputs": [
        {
          "indexed": false,
          "internalType": "uint256",
          "name": "game_id",
          "type": "uint256"
        },
        {
          "indexed": false,
          "internalType": "address",
          "name": "player_id",
          "type": "address"
        },
        {
          "indexed": false,
          "internalType": "uint8",
          "name": "move",
          "type": "uint8"
        }
      ],
      "name": "MoveProposed",
      "type": "event"
    },
    {
      "anonymous": false,
      "inputs": [
        {
          "indexed": false,
          "internalType": "uint256",
          "name": "game_id",
          "type": "uint256"
        }
      ],
      "name": "NewGame",
      "type": "event"
    },
    {
      "anonymous": false,
      "inputs": [
        {
          "indexed": false,
          "internalType": "uint256",
          "name": "game_id",
          "type": "uint256"
        }
      ],
      "name": "NextRound",
      "type": "event"
    },
    {
      "anonymous": false,
      "inputs": [
        {
          "indexed": false,
          "internalType": "uint256",
          "name": "game_id",
          "type": "uint256"
        },
        {
          "indexed": false,
          "internalType": "address",
          "name": "player_id",
          "type": "address"
        }
      ],
      "name": "PlayerJoined",
      "type": "event"
    },
    {
      "inputs": [],
      "name": "new_game",
      "outputs": [],
      "stateMutability": "nonpayable",
      "type": "function"
    },
    {
      "inputs": [
        {
          "internalType": "uint256",
          "name": "game_id",
          "type": "uint256"
        }
      ],
      "name": "join_game",
      "outputs": [],
      "stateMutability": "nonpayable",
      "type": "function"
    },
    {
      "inputs": [],
      "name": "join_random_game",
      "outputs": [],
      "stateMutability": "nonpayable",
      "type": "function"
    },
    {
      "inputs": [
        {
          "internalType": "uint256",
          "name": "game_id",
          "type": "uint256"
        },
        {
          "internalType": "uint256",
          "name": "fee",
          "type": "uint256"
        }
      ],
      "name": "propose_fee",
      "outputs": [],
      "stateMutability": "nonpayable",
      "type": "function"
    },
    {
      "inputs": [
        {
          "internalType": "uint256",
          "name": "game_id",
          "type": "uint256"
        },
        {
          "internalType": "uint256",
          "name": "board",
          "type": "uint256"
        }
      ],
      "name": "commit_board",
      "outputs": [],
      "stateMutability": "payable",
      "type": "function",
      "payable": true
    },
    {
      "inputs": [
        {
          "internalType": "uint256",
          "name": "game_id",
          "type": "uint256"
        },
        {
          "internalType": "uint8",
          "name": "move",
          "type": "uint8"
        }
      ],
      "name": "submit_move",
      "outputs": [],
      "stateMutability": "nonpayable",
      "type": "function"
    },
    {
      "inputs": [
        {
          "internalType": "uint256",
          "name": "game_id",
          "type": "uint256"
        },
        {
          "internalType": "bool",
          "name": "has_ship",
          "type": "bool"
        },
        {
          "internalType": "uint256",
          "name": "nonce",
          "type": "uint256"
        },
        {
          "internalType": "uint256[6]",
          "name": "proof",
          "type": "uint256[6]"
        }
      ],
      "name": "submit_proof",
      "outputs": [],
      "stateMutability": "nonpayable",
      "type": "function"
    },
    {
      "inputs": [
        {
          "internalType": "uint256",
          "name": "game_id",
          "type": "uint256"
        },
        {
          "components": [
            {
              "internalType": "uint8",
              "name": "start_position",
              "type": "uint8"
            },
            {
              "internalType": "bool",
              "name": "is_horizontal",
              "type": "bool"
            }
          ],
          "internalType": "struct BattleShip.Ship[5]",
          "name": "ships",
          "type": "tuple[5]"
        },
        {
          "internalType": "uint256[64]",
          "name": "nonces",
          "type": "uint256[64]"
        }
      ],
      "name": "reveal_board",
      "outputs": [],
      "stateMutability": "nonpayable",
      "type": "function"
    },
    {
      "inputs": [
        {
          "internalType": "uint256",
          "name": "game_id",
          "type": "uint256"
        }
      ],
      "name": "withdraw",
      "outputs": [],
      "stateMutability": "nonpayable",
      "type": "function"
    },
    {
      "inputs": [
        {
          "internalType": "uint256",
          "name": "game_id",
          "type": "uint256"
        }
      ],
      "name": "make_accusation",
      "outputs": [],
      "stateMutability": "nonpayable",
      "type": "function"
    },
    {
      "inputs": [
        {
          "internalType": "uint256",
          "name": "game_id",
          "type": "uint256"
        }
      ],
      "name": "check_accusation",
      "outputs": [],
      "stateMutability": "nonpayable",
      "type": "function"
    },
    {
      "inputs": [
        {
          "internalType": "uint256",
          "name": "game_id",
          "type": "uint256"
        }
      ],
      "name": "get_game_state",
      "outputs": [
        {
          "internalType": "enum BattleShip.GameState",
          "name": "",
          "type": "uint8"
        }
      ],
      "stateMutability": "view",
      "type": "function",
      "constant": true
    },
    {
      "inputs": [],
      "name": "get_free_games_length",
      "outputs": [
        {
          "internalType": "uint256",
          "name": "",
          "type": "uint256"
        }
      ],
      "stateMutability": "view",
      "type": "function",
      "constant": true
    },
    {
      "inputs": [
        {
          "internalType": "uint256",
          "name": "game_id",
          "type": "uint256"
        }
      ],
      "name": "get_opponent",
      "outputs": [
        {
          "internalType": "address",
          "name": "",
          "type": "address"
        }
      ],
      "stateMutability": "view",
      "type": "function",
      "constant": true
    }
  ],
  "bytecode": "0x608060405234801561001057600080fd5b50614c53806100206000396000f3fe6080604052600436106100dd5760003560e01c80634c8564601161007f578063b88a392d11610059578063b88a392d14610282578063cb80a7dd146102ab578063d4c66c35146102d4578063d9d9a9a7146102f0576100dd565b80634c856460146102175780637e1d5c4c1461022e57806385b3f2b414610257576100dd565b80632e1a7d4d116100bb5780632e1a7d4d1461017157806342085e381461019a578063447d4436146101d75780634a7b26ec146101ee576100dd565b80630e6372e4146100e257806326bd59581461011f578063276df1af14610148575b600080fd5b3480156100ee57600080fd5b5061010960048036038101906101049190613901565b610319565b60405161011691906139a5565b60405180910390f35b34801561012b57600080fd5b5061014660048036038101906101419190613b3f565b61039c565b005b34801561015457600080fd5b5061016f600480360381019061016a9190613be0565b610c00565b005b34801561017d57600080fd5b5061019860048036038101906101939190613901565b61105c565b005b3480156101a657600080fd5b506101c160048036038101906101bc9190613901565b6114f0565b6040516101ce9190613c61565b60405180910390f35b3480156101e357600080fd5b506101ec61161a565b005b3480156101fa57600080fd5b5061021560048036038101906102109190613901565b6116a9565b005b34801561022357600080fd5b5061022c611960565b005b34801561023a57600080fd5b5061025560048036038101906102509190613c7c565b611b44565b005b34801561026357600080fd5b5061026c611e8e565b6040516102799190613ccb565b60405180910390f35b34801561028e57600080fd5b506102a960048036038101906102a49190613901565b611e98565b005b3480156102b757600080fd5b506102d260048036038101906102cd9190613901565b61225f565b005b6102ee60048036038101906102e99190613c7c565b6125fe565b005b3480156102fc57600080fd5b5061031760048036038101906103129190613e9d565b612a5b565b005b6000806000808481526020019081526020016000206000015403610372576040517f08c379a000000000000000000000000000000000000000000000000000000000815260040161036990613f4f565b60405180910390fd5b60008083815260200190815260200160002060010160009054906101000a900460ff169050919050565b83600080600083815260200190815260200160002060000154036103f5576040517f08c379a00000000000000000000000000000000000000000000000000000000081526004016103ec90613f4f565b60405180910390fd5b3373ffffffffffffffffffffffffffffffffffffffff1660008083815260200190815260200160002060020160000160009054906101000a900473ffffffffffffffffffffffffffffffffffffffff1673ffffffffffffffffffffffffffffffffffffffff1614806104ca57503373ffffffffffffffffffffffffffffffffffffffff1660008083815260200190815260200160002060080160000160009054906101000a900473ffffffffffffffffffffffffffffffffffffffff1673ffffffffffffffffffffffffffffffffffffffff16145b610509576040517f08c379a000000000000000000000000000000000000000000000000000000000815260040161050090613fbb565b60405180910390fd5b84600480600681111561051f5761051e61392e565b5b60008084815260200190815260200160002060010160009054906101000a900460ff1660068111156105545761055361392e565b5b14610594576040517f08c379a000000000000000000000000000000000000000000000000000000000815260040161058b90614027565b60405180910390fd5b600680146105d7576040517f08c379a00000000000000000000000000000000000000000000000000000000081526004016105ce906140b9565b60405180910390fd5b600080600089815260200190815260200160002090506000803373ffffffffffffffffffffffffffffffffffffffff168360020160000160009054906101000a900473ffffffffffffffffffffffffffffffffffffffff1673ffffffffffffffffffffffffffffffffffffffff160361065b57826002019150826008019050610668565b8260080191508260020190505b8160050160129054906101000a900460ff16156106ba576040517f08c379a00000000000000000000000000000000000000000000000000000000081526004016106b190614125565b60405180910390fd5b6106dc8160050160119054906101000a900460ff168a8a8a8660020154613156565b6107b55760068360010160006101000a81548160ff021916908360068111156107085761070761392e565b5b02179055508060000160009054906101000a900473ffffffffffffffffffffffffffffffffffffffff1683600f0160016101000a81548173ffffffffffffffffffffffffffffffffffffffff021916908373ffffffffffffffffffffffffffffffffffffffff1602179055507fa94eb170965acb1cb9de7b8c291cb52184d88fe98c0710bbb74068e2efb6f8708a336040516107a5929190614145565b60405180910390a1505050610bf7565b6107bf8a83613267565b156107cc57505050610bf7565b8060050160119054906101000a900460ff1660ff166001901b8260050160008282829054906101000a900467ffffffffffffffff161792506101000a81548167ffffffffffffffff021916908367ffffffffffffffff1602179055508815610939578160050160119054906101000a900460ff1660ff166001901b8160050160088282829054906101000a900467ffffffffffffffff161792506101000a81548167ffffffffffffffff021916908367ffffffffffffffff16021790555080600501601081819054906101000a900460ff16809291906108ab9061419d565b91906101000a81548160ff021916908360ff160217905550507f362fa9e1f76c7bd7da2bb79b2c5a6979f30761fef11ef5f06aee598fff2d0f208a8260000160009054906101000a900473ffffffffffffffffffffffffffffffffffffffff168360050160119054906101000a900460ff1660405161092c939291906141d5565b60405180910390a16109aa565b7f7a542921653b80e9acb31eb9f20c8a79aaf5fc7bbc090bf2e75b5cc26607c7f58a8260000160009054906101000a900473ffffffffffffffffffffffffffffffffffffffff168360050160119054906101000a900460ff166040516109a1939291906141d5565b60405180910390a15b60018260050160126101000a81548160ff0219169083151502179055508060050160129054906101000a900460ff1615610bf357600183600f0160008282829054906101000a900460ff166109ff919061420c565b92506101000a81548160ff021916908360ff160217905550601060ff168160050160109054906101000a900460ff1660ff161480610a545750601060ff168260050160109054906101000a900460ff1660ff16145b80610a765750604060ff1683600f0160009054906101000a900460ff1660ff16145b15610b1e5760058360010160006101000a81548160ff02191690836006811115610aa357610aa261392e565b5b021790555060008160050160126101000a81548160ff02191690831515021790558260050160126101000a81548160ff0219169083151502179055507f55bc7d27b24d9318cbcdf7a99aa9c14ab31e868d7adc542554db60815e5718cd8a604051610b0e9190613ccb565b60405180910390a1505050610bf7565b60038360010160006101000a81548160ff02191690836006811115610b4657610b4561392e565b5b021790555060ff8160050160116101000a81548160ff021916908360ff16021790558260050160116101000a81548160ff021916908360ff16021790555060008160050160126101000a81548160ff02191690831515021790558260050160126101000a81548160ff0219169083151502179055507fdaa0d5c2f72f50e5aff5657590d693b8ca6161f597bbd985f55cab431744f6ce8a604051610bea9190613ccb565b60405180910390a15b5050505b50505050505050565b8160008060008381526020019081526020016000206000015403610c59576040517f08c379a0000000000000000000000000000000000000000000000000000000008152600401610c5090613f4f565b60405180910390fd5b3373ffffffffffffffffffffffffffffffffffffffff1660008083815260200190815260200160002060020160000160009054906101000a900473ffffffffffffffffffffffffffffffffffffffff1673ffffffffffffffffffffffffffffffffffffffff161480610d2e57503373ffffffffffffffffffffffffffffffffffffffff1660008083815260200190815260200160002060080160000160009054906101000a900473ffffffffffffffffffffffffffffffffffffffff1673ffffffffffffffffffffffffffffffffffffffff16145b610d6d576040517f08c379a0000000000000000000000000000000000000000000000000000000008152600401610d6490613fbb565b60405180910390fd5b826003806006811115610d8357610d8261392e565b5b60008084815260200190815260200160002060010160009054906101000a900460ff166006811115610db857610db761392e565b5b14610df8576040517f08c379a0000000000000000000000000000000000000000000000000000000008152600401610def90614027565b60405180910390fd5b60408460ff1610610e3e576040517f08c379a0000000000000000000000000000000000000000000000000000000008152600401610e359061428d565b60405180910390fd5b600080600087815260200190815260200160002090506000803373ffffffffffffffffffffffffffffffffffffffff168360020160000160009054906101000a900473ffffffffffffffffffffffffffffffffffffffff1673ffffffffffffffffffffffffffffffffffffffff1603610ec257826002019150826008019050610ecf565b8260080191508260020190505b60ff80168260050160119054906101000a900460ff1660ff1614610f28576040517f08c379a0000000000000000000000000000000000000000000000000000000008152600401610f1f906142f9565b60405180910390fd5b60008760ff166001901b8260050160009054906101000a900467ffffffffffffffff1667ffffffffffffffff161614610f96576040517f08c379a0000000000000000000000000000000000000000000000000000000008152600401610f8d90614365565b60405180910390fd5b610fa08883613267565b15610fad57505050611055565b868260050160116101000a81548160ff021916908360ff1602179055507f55cac4ede2505e92e4459bdeff964df027cd1fc03b9bf762d3d27a700de7c998883389604051610ffd939291906141d5565b60405180910390a160ff80168160050160119054906101000a900460ff1660ff16146110515760048360010160006101000a81548160ff0219169083600681111561104b5761104a61392e565b5b02179055505b5050505b5050505050565b80600080600083815260200190815260200160002060000154036110b5576040517f08c379a00000000000000000000000000000000000000000000000000000000081526004016110ac90613f4f565b60405180910390fd5b3373ffffffffffffffffffffffffffffffffffffffff1660008083815260200190815260200160002060020160000160009054906101000a900473ffffffffffffffffffffffffffffffffffffffff1673ffffffffffffffffffffffffffffffffffffffff16148061118a57503373ffffffffffffffffffffffffffffffffffffffff1660008083815260200190815260200160002060080160000160009054906101000a900473ffffffffffffffffffffffffffffffffffffffff1673ffffffffffffffffffffffffffffffffffffffff16145b6111c9576040517f08c379a00000000000000000000000000000000000000000000000000000000081526004016111c090613fbb565b60405180910390fd5b8160068060068111156111df576111de61392e565b5b60008084815260200190815260200160002060010160009054906101000a900460ff1660068111156112145761121361392e565b5b14611254576040517f08c379a000000000000000000000000000000000000000000000000000000000815260040161124b90614027565b60405180910390fd5b600080600086815260200190815260200160002090503373ffffffffffffffffffffffffffffffffffffffff1681600f0160019054906101000a900473ffffffffffffffffffffffffffffffffffffffff1673ffffffffffffffffffffffffffffffffffffffff1614806113185750600073ffffffffffffffffffffffffffffffffffffffff1681600f0160019054906101000a900473ffffffffffffffffffffffffffffffffffffffff1673ffffffffffffffffffffffffffffffffffffffff16145b611357576040517f08c379a000000000000000000000000000000000000000000000000000000000815260040161134e906143f7565b60405180910390fd5b60003373ffffffffffffffffffffffffffffffffffffffff168260020160000160009054906101000a900473ffffffffffffffffffffffffffffffffffffffff1673ffffffffffffffffffffffffffffffffffffffff16036113be578160020190506113c5565b8160080190505b8060050160139054906101000a900460ff1615611417576040517f08c379a000000000000000000000000000000000000000000000000000000000815260040161140e90614463565b60405180910390fd5b600082600201600101549050600073ffffffffffffffffffffffffffffffffffffffff1683600f0160019054906101000a900473ffffffffffffffffffffffffffffffffffffffff1673ffffffffffffffffffffffffffffffffffffffff160361148357600181901b90505b60018260050160136101000a81548160ff0219169083151502179055503373ffffffffffffffffffffffffffffffffffffffff166108fc829081150290604051600060405180830381858888f193505050501580156114e6573d6000803e3d6000fd5b5050505050505050565b6000806000808481526020019081526020016000206000015403611549576040517f08c379a000000000000000000000000000000000000000000000000000000000815260040161154090613f4f565b60405180910390fd5b600080600084815260200190815260200160002090503373ffffffffffffffffffffffffffffffffffffffff168160020160000160009054906101000a900473ffffffffffffffffffffffffffffffffffffffff1673ffffffffffffffffffffffffffffffffffffffff16036115e9578060080160000160009054906101000a900473ffffffffffffffffffffffffffffffffffffffff16915050611615565b8060020160000160009054906101000a900473ffffffffffffffffffffffffffffffffffffffff169150505b919050565b6000600254036116315761162c611960565b6116a7565b60006001436116409190614483565b60405160200161165091906144d8565b6040516020818303038152906040528051906020012060001c9050600060016002548361167d9190614522565b8154811061168e5761168d614553565b5b906000526020600020015490506116a4816116a9565b50505b565b60008060008381526020019081526020016000206000015403611701576040517f08c379a00000000000000000000000000000000000000000000000000000000081526004016116f890613f4f565b60405180910390fd5b600080600083815260200190815260200160002090503373ffffffffffffffffffffffffffffffffffffffff168160020160000160009054906101000a900473ffffffffffffffffffffffffffffffffffffffff1673ffffffffffffffffffffffffffffffffffffffff16036117ac576040517f08c379a00000000000000000000000000000000000000000000000000000000081526004016117a3906145ce565b60405180910390fd5b6001600254036117f65760016000815481106117cb576117ca614553565b5b9060005260206000200160009055600260008154809291906117ec906145ee565b91905055506118b0565b600081600e01549050600060016002546118109190614483565b905060006001828154811061182857611827614553565b5b90600052602060002001549050806001848154811061184a57611849614553565b5b906000526020600020018190555082600080838152602001908152602001600020600e01819055506001828154811061188657611885614553565b5b9060005260206000200160009055600260008154809291906118a7906145ee565b91905055505050505b338160080160000160006101000a81548173ffffffffffffffffffffffffffffffffffffffff021916908373ffffffffffffffffffffffffffffffffffffffff16021790555060018160010160006101000a81548160ff0219169083600681111561191e5761191d61392e565b5b02179055507f87969bc7faf902221a147b95ceba76e011c5efb0339a0a8ee7a2bb82d9cfbbd68233604051611954929190614145565b60405180910390a15050565b600060014361196f9190614483565b60405160200161197f91906144d8565b6040516020818303038152906040528051906020012060001c9050600080600083815260200190815260200160002060000154146119f2576040517f08c379a00000000000000000000000000000000000000000000000000000000081526004016119e990614689565b60405180910390fd5b6000806000838152602001908152602001600020905081816000018190555060008160010160006101000a81548160ff02191690836006811115611a3957611a3861392e565b5b021790555060025481600e018190555060018054905060025403611a85576001829080600181540180825580915050600190039060005260206000200160009091909190915055611aab565b81600160025481548110611a9c57611a9b614553565b5b90600052602060002001819055505b60026000815480929190611abe906146a9565b9190505550338160020160000160006101000a81548173ffffffffffffffffffffffffffffffffffffffff021916908373ffffffffffffffffffffffffffffffffffffffff1602179055507fa0b7f6f22bb4f69adc52dd16ffe2a964ab8b577be274247fa9a1547b03ce3e5582604051611b389190613ccb565b60405180910390a15050565b8160008060008381526020019081526020016000206000015403611b9d576040517f08c379a0000000000000000000000000000000000000000000000000000000008152600401611b9490613f4f565b60405180910390fd5b3373ffffffffffffffffffffffffffffffffffffffff1660008083815260200190815260200160002060020160000160009054906101000a900473ffffffffffffffffffffffffffffffffffffffff1673ffffffffffffffffffffffffffffffffffffffff161480611c7257503373ffffffffffffffffffffffffffffffffffffffff1660008083815260200190815260200160002060080160000160009054906101000a900473ffffffffffffffffffffffffffffffffffffffff1673ffffffffffffffffffffffffffffffffffffffff16145b611cb1576040517f08c379a0000000000000000000000000000000000000000000000000000000008152600401611ca890613fbb565b60405180910390fd5b826001806006811115611cc757611cc661392e565b5b60008084815260200190815260200160002060010160009054906101000a900460ff166006811115611cfc57611cfb61392e565b5b14611d3c576040517f08c379a0000000000000000000000000000000000000000000000000000000008152600401611d3390614027565b60405180910390fd5b600080600087815260200190815260200160002090503373ffffffffffffffffffffffffffffffffffffffff168160020160000160009054906101000a900473ffffffffffffffffffffffffffffffffffffffff1673ffffffffffffffffffffffffffffffffffffffff1603611dbd57848160020160010181905550611dca565b8481600801600101819055505b8060080160010154816002016001015403611e4a5760028160010160006101000a81548160ff02191690836006811115611e0757611e0661392e565b5b02179055507f49d0a3e35aea3c38dab75808edcf04c0cfae71b83c1a7ed55dc4e6a1bce8afc88686604051611e3d9291906146f1565b60405180910390a1611e86565b7f491d190755439e2ce91c7bed9989ef10d393e72ddb15dc0e75fe4c483998c263863387604051611e7d9392919061471a565b60405180910390a15b505050505050565b6000600254905090565b8060008060008381526020019081526020016000206000015403611ef1576040517f08c379a0000000000000000000000000000000000000000000000000000000008152600401611ee890613f4f565b60405180910390fd5b3373ffffffffffffffffffffffffffffffffffffffff1660008083815260200190815260200160002060020160000160009054906101000a900473ffffffffffffffffffffffffffffffffffffffff1673ffffffffffffffffffffffffffffffffffffffff161480611fc657503373ffffffffffffffffffffffffffffffffffffffff1660008083815260200190815260200160002060080160000160009054906101000a900473ffffffffffffffffffffffffffffffffffffffff1673ffffffffffffffffffffffffffffffffffffffff16145b612005576040517f08c379a0000000000000000000000000000000000000000000000000000000008152600401611ffc90613fbb565b60405180910390fd5b600080600084815260200190815260200160002090506003600681111561202f5761202e61392e565b5b8160010160009054906101000a900460ff1660068111156120535761205261392e565b5b148061209457506004600681111561206e5761206d61392e565b5b8160010160009054906101000a900460ff1660068111156120925761209161392e565b5b145b806120d45750600560068111156120ae576120ad61392e565b5b8160010160009054906101000a900460ff1660068111156120d2576120d161392e565b5b145b612113576040517f08c379a000000000000000000000000000000000000000000000000000000000815260040161210a90614027565b60405180910390fd5b6000803373ffffffffffffffffffffffffffffffffffffffff168360020160000160009054906101000a900473ffffffffffffffffffffffffffffffffffffffff1673ffffffffffffffffffffffffffffffffffffffff16036121815782600201915082600801905061218e565b8260080191508260020190505b8160030160009054906101000a900460ff16156121e0576040517f08c379a00000000000000000000000000000000000000000000000000000000081526004016121d7906147c3565b60405180910390fd5b8060030160009054906101000a900460ff1615612232576040517f08c379a000000000000000000000000000000000000000000000000000000000815260040161222990614855565b60405180910390fd5b60018160030160006101000a81548160ff0219169083151502179055504281600401819055505050505050565b80600080600083815260200190815260200160002060000154036122b8576040517f08c379a00000000000000000000000000000000000000000000000000000000081526004016122af90613f4f565b60405180910390fd5b3373ffffffffffffffffffffffffffffffffffffffff1660008083815260200190815260200160002060020160000160009054906101000a900473ffffffffffffffffffffffffffffffffffffffff1673ffffffffffffffffffffffffffffffffffffffff16148061238d57503373ffffffffffffffffffffffffffffffffffffffff1660008083815260200190815260200160002060080160000160009054906101000a900473ffffffffffffffffffffffffffffffffffffffff1673ffffffffffffffffffffffffffffffffffffffff16145b6123cc576040517f08c379a00000000000000000000000000000000000000000000000000000000081526004016123c390613fbb565b60405180910390fd5b600080600084815260200190815260200160002090506000803373ffffffffffffffffffffffffffffffffffffffff168360020160000160009054906101000a900473ffffffffffffffffffffffffffffffffffffffff1673ffffffffffffffffffffffffffffffffffffffff16036124505782600201915082600801905061245d565b8260080191508260020190505b8060030160009054906101000a900460ff166124ae576040517f08c379a00000000000000000000000000000000000000000000000000000000081526004016124a5906148e7565b60405180910390fd5b42600582600401546124c09190614907565b10156125bf5760068360010160006101000a81548160ff021916908360068111156124ee576124ed61392e565b5b02179055508160000160009054906101000a900473ffffffffffffffffffffffffffffffffffffffff1683600f0160016101000a81548173ffffffffffffffffffffffffffffffffffffffff021916908373ffffffffffffffffffffffffffffffffffffffff1602179055507ff53df37e8372cfaaf74216c29650302bab52c3b6bbeb8664039e6e43f8c8b5db8584600f0160019054906101000a900473ffffffffffffffffffffffffffffffffffffffff166040516125af929190614145565b60405180910390a15050506125fa565b7f3334044400dc5124bf45e9d12931dc5b329c2a143dfa2f0c10634249d178e7ad856040516125ee9190613ccb565b60405180910390a15050505b5050565b8160008060008381526020019081526020016000206000015403612657576040517f08c379a000000000000000000000000000000000000000000000000000000000815260040161264e90613f4f565b60405180910390fd5b3373ffffffffffffffffffffffffffffffffffffffff1660008083815260200190815260200160002060020160000160009054906101000a900473ffffffffffffffffffffffffffffffffffffffff1673ffffffffffffffffffffffffffffffffffffffff16148061272c57503373ffffffffffffffffffffffffffffffffffffffff1660008083815260200190815260200160002060080160000160009054906101000a900473ffffffffffffffffffffffffffffffffffffffff1673ffffffffffffffffffffffffffffffffffffffff16145b61276b576040517f08c379a000000000000000000000000000000000000000000000000000000000815260040161276290613fbb565b60405180910390fd5b8260028060068111156127815761278061392e565b5b60008084815260200190815260200160002060010160009054906101000a900460ff1660068111156127b6576127b561392e565b5b146127f6576040517f08c379a00000000000000000000000000000000000000000000000000000000081526004016127ed90614027565b60405180910390fd5b6000806000878152602001908152602001600020905060003373ffffffffffffffffffffffffffffffffffffffff168260020160000160009054906101000a900473ffffffffffffffffffffffffffffffffffffffff1673ffffffffffffffffffffffffffffffffffffffff16146128715781600801612876565b816002015b905060008160020154146128bf576040517f08c379a00000000000000000000000000000000000000000000000000000000081526004016128b690614987565b60405180910390fd5b80600101543414612905576040517f08c379a00000000000000000000000000000000000000000000000000000000081526004016128fc90614a19565b60405180910390fd5b858160020181905550600082600201600201541415801561292e57506000826008016002015414155b15612a165760038260010160006101000a81548160ff0219169083600681111561295b5761295a61392e565b5b021790555060ff8260080160050160116101000a81548160ff021916908360ff16021790558260020160050160116101000a81548160ff021916908360ff1602179055507f010d29992f394ceed8a8aed324eeba56758ab368faf07ca79af9fffe7953b8eb8733886040516129d29392919061471a565b60405180910390a17f50ad08f58a27f2851d7e3a1b3a6a46b290f2ce677e99642d30ff639721e7779087604051612a099190613ccb565b60405180910390a1612a52565b7f010d29992f394ceed8a8aed324eeba56758ab368faf07ca79af9fffe7953b8eb873388604051612a499392919061471a565b60405180910390a15b50505050505050565b8260008060008381526020019081526020016000206000015403612ab4576040517f08c379a0000000000000000000000000000000000000000000000000000000008152600401612aab90613f4f565b60405180910390fd5b3373ffffffffffffffffffffffffffffffffffffffff1660008083815260200190815260200160002060020160000160009054906101000a900473ffffffffffffffffffffffffffffffffffffffff1673ffffffffffffffffffffffffffffffffffffffff161480612b8957503373ffffffffffffffffffffffffffffffffffffffff1660008083815260200190815260200160002060080160000160009054906101000a900473ffffffffffffffffffffffffffffffffffffffff1673ffffffffffffffffffffffffffffffffffffffff16145b612bc8576040517f08c379a0000000000000000000000000000000000000000000000000000000008152600401612bbf90613fbb565b60405180910390fd5b836005806006811115612bde57612bdd61392e565b5b60008084815260200190815260200160002060010160009054906101000a900460ff166006811115612c1357612c1261392e565b5b14612c53576040517f08c379a0000000000000000000000000000000000000000000000000000000008152600401612c4a90614027565b60405180910390fd5b600080600088815260200190815260200160002090506000803373ffffffffffffffffffffffffffffffffffffffff168360020160000160009054906101000a900473ffffffffffffffffffffffffffffffffffffffff1673ffffffffffffffffffffffffffffffffffffffff1603612cd757826002019150826008019050612ce4565b8260080191508260020190505b8160050160129054906101000a900460ff1615612d36576040517f08c379a0000000000000000000000000000000000000000000000000000000008152600401612d2d90614a85565b60405180910390fd5b60408014612d79576040517f08c379a0000000000000000000000000000000000000000000000000000000008152600401612d7090614af1565b60405180910390fd5b60058014612dbc576040517f08c379a0000000000000000000000000000000000000000000000000000000008152600401612db390614b5d565b60405180910390fd5b6000612dc789613493565b905060008167ffffffffffffffff161480612dee5750612dec8360020154828a6135bf565b155b15612ec95760068460010160006101000a81548160ff02191690836006811115612e1b57612e1a61392e565b5b02179055508160000160009054906101000a900473ffffffffffffffffffffffffffffffffffffffff1684600f0160016101000a81548173ffffffffffffffffffffffffffffffffffffffff021916908373ffffffffffffffffffffffffffffffffffffffff1602179055507fa94eb170965acb1cb9de7b8c291cb52184d88fe98c0710bbb74068e2efb6f8708a33604051612eb8929190614145565b60405180910390a15050505061314e565b612ed38a84613267565b15612ee1575050505061314e565b808360050160086101000a81548167ffffffffffffffff021916908367ffffffffffffffff16021790555060018360050160126101000a81548160ff0219169083151502179055508160050160129054906101000a900460ff1615613149578160050160109054906101000a900460ff1660ff168360050160109054906101000a900460ff1660ff161115612fdc578260000160009054906101000a900473ffffffffffffffffffffffffffffffffffffffff1684600f0160016101000a81548173ffffffffffffffffffffffffffffffffffffffff021916908373ffffffffffffffffffffffffffffffffffffffff1602179055506130be565b8260050160109054906101000a900460ff1660ff168260050160109054906101000a900460ff1660ff161115613078578160000160009054906101000a900473ffffffffffffffffffffffffffffffffffffffff1684600f0160016101000a81548173ffffffffffffffffffffffffffffffffffffffff021916908373ffffffffffffffffffffffffffffffffffffffff1602179055506130bd565b600084600f0160016101000a81548173ffffffffffffffffffffffffffffffffffffffff021916908373ffffffffffffffffffffffffffffffffffffffff1602179055505b5b60068460010160006101000a81548160ff021916908360068111156130e6576130e561392e565b5b02179055507f668ce4ca171dee87d4d9d2b5d3dc31963fe7fbe50b982064dddb0fb9d56aee8b8a85600f0160019054906101000a900473ffffffffffffffffffffffffffffffffffffffff16604051613140929190614145565b60405180910390a15b505050505b505050505050565b600080858560405160200161316c929190614bc5565b6040516020818303038152906040528051906020012060001c905060005b60068160ff1610156132575760006001891660ff16036131f15781858260ff16600681106131bb576131ba614553565b5b60200201516040516020016131d1929190614bf1565b6040516020818303038152906040528051906020012060001c915061323a565b848160ff166006811061320757613206614553565b5b60200201518260405160200161321e929190614bf1565b6040516020818303038152906040528051906020012060001c91505b60018860ff16901c9750808061324f9061419d565b91505061318a565b5082811491505095945050505050565b60008160030160009054906101000a900460ff16156134885742600583600401546132929190614907565b10156132c85760008260030160006101000a81548160ff021916908315150217905550600082600401819055506000905061348d565b6000806000858152602001908152602001600020905060068160010160006101000a81548160ff021916908360068111156133065761330561392e565b5b02179055508060020160000160009054906101000a900473ffffffffffffffffffffffffffffffffffffffff1673ffffffffffffffffffffffffffffffffffffffff168360000160009054906101000a900473ffffffffffffffffffffffffffffffffffffffff1673ffffffffffffffffffffffffffffffffffffffff16146133b6578060020160000160009054906101000a900473ffffffffffffffffffffffffffffffffffffffff166133df565b8060080160000160009054906101000a900473ffffffffffffffffffffffffffffffffffffffff165b81600f0160016101000a81548173ffffffffffffffffffffffffffffffffffffffff021916908373ffffffffffffffffffffffffffffffffffffffff1602179055507ff53df37e8372cfaaf74216c29650302bab52c3b6bbeb8664039e6e43f8c8b5db8482600f0160019054906101000a900473ffffffffffffffffffffffffffffffffffffffff16604051613476929190614145565b60405180910390a1600191505061348d565b600090505b92915050565b6000806000905060006040518060a00160405280600560ff168152602001600460ff168152602001600360ff168152602001600260ff168152602001600260ff16815250905060005b60058160ff1610156135b357603f858260ff1660058110613500576134ff614553565b5b60200201516000015160ff16111561351e57600093505050506135ba565b61358083868360ff166005811061353857613537614553565b5b602002015160000151878460ff166005811061355757613556614553565b5b602002015160200151858560ff166005811061357657613575614553565b5b602002015161378f565b925060008367ffffffffffffffff16036135a057600093505050506135ba565b80806135ab9061419d565b9150506134dc565b5081925050505b919050565b60008060009050600080604090506135d5613899565b600093505b8160ff168460ff16101561367f576001808560ff168967ffffffffffffffff16901c1667ffffffffffffffff1614868560ff166040811061361e5761361d614553565b5b6020020151604051602001613634929190614bc5565b6040516020818303038152906040528051906020012060001c818560ff166040811061366357613662614553565b5b60200201818152505083806136779061419d565b9450506135da565b60018260ff16901c91505b60008260ff161461376757600092508293505b8160ff168460ff16101561375857808360ff16604081106136c1576136c0614553565b5b6020020151816001856136d4919061420c565b60ff16604081106136e8576136e7614553565b5b60200201516040516020016136fe929190614bf1565b6040516020818303038152906040528051906020012060001c818560ff166040811061372d5761372c614553565b5b602002018181525050600283613743919061420c565b925083806137509061419d565b94505061369d565b60018260ff16901c915061368a565b878160006040811061377c5761377b614553565b5b6020020151149450505050509392505050565b60008360ff166001901b8517945082156137b7576001846137b0919061420c565b93506137c7565b6008846137c4919061420c565b93505b6000600190505b8260ff168160ff16101561388c578380156137ef575060006007861660ff16145b156137fe576000915050613891565b8315801561380f5750603f8560ff16115b1561381e576000915050613891565b60008560ff166001901b871667ffffffffffffffff1614613843576000915050613891565b8460ff166001901b86179550831561386957600185613862919061420c565b9450613879565b600885613876919061420c565b94505b80806138849061419d565b9150506137ce565b508490505b949350505050565b604051806108000160405280604090602082028036833780820191505090505090565b6000604051905090565b600080fd5b6000819050919050565b6138de816138cb565b81146138e957600080fd5b50565b6000813590506138fb816138d5565b92915050565b600060208284031215613917576139166138c6565b5b6000613925848285016138ec565b91505092915050565b7f4e487b7100000000000000000000000000000000000000000000000000000000600052602160045260246000fd5b6007811061396e5761396d61392e565b5b50565b600081905061397f8261395d565b919050565b600061398f82613971565b9050919050565b61399f81613984565b82525050565b60006020820190506139ba6000830184613996565b92915050565b60008115159050919050565b6139d5816139c0565b81146139e057600080fd5b50565b6000813590506139f2816139cc565b92915050565b600080fd5b6000601f19601f8301169050919050565b7f4e487b7100000000000000000000000000000000000000000000000000000000600052604160045260246000fd5b613a46826139fd565b810181811067ffffffffffffffff82111715613a6557613a64613a0e565b5b80604052505050565b6000613a786138bc565b9050613a848282613a3d565b919050565b600067ffffffffffffffff821115613aa457613aa3613a0e565b5b602082029050919050565b600080fd5b6000613ac7613ac284613a89565b613a6e565b90508060208402830185811115613ae157613ae0613aaf565b5b835b81811015613b0a5780613af688826138ec565b845260208401935050602081019050613ae3565b5050509392505050565b600082601f830112613b2957613b286139f8565b5b6006613b36848285613ab4565b91505092915050565b6000806000806101208587031215613b5a57613b596138c6565b5b6000613b68878288016138ec565b9450506020613b79878288016139e3565b9350506040613b8a878288016138ec565b9250506060613b9b87828801613b14565b91505092959194509250565b600060ff82169050919050565b613bbd81613ba7565b8114613bc857600080fd5b50565b600081359050613bda81613bb4565b92915050565b60008060408385031215613bf757613bf66138c6565b5b6000613c05858286016138ec565b9250506020613c1685828601613bcb565b9150509250929050565b600073ffffffffffffffffffffffffffffffffffffffff82169050919050565b6000613c4b82613c20565b9050919050565b613c5b81613c40565b82525050565b6000602082019050613c766000830184613c52565b92915050565b60008060408385031215613c9357613c926138c6565b5b6000613ca1858286016138ec565b9250506020613cb2858286016138ec565b9150509250929050565b613cc5816138cb565b82525050565b6000602082019050613ce06000830184613cbc565b92915050565b600067ffffffffffffffff821115613d0157613d00613a0e565b5b602082029050919050565b600080fd5b600060408284031215613d2757613d26613d0c565b5b613d316040613a6e565b90506000613d4184828501613bcb565b6000830152506020613d55848285016139e3565b60208301525092915050565b6000613d74613d6f84613ce6565b613a6e565b90508060408402830185811115613d8e57613d8d613aaf565b5b835b81811015613db75780613da38882613d11565b845260208401935050604081019050613d90565b5050509392505050565b600082601f830112613dd657613dd56139f8565b5b6005613de3848285613d61565b91505092915050565b600067ffffffffffffffff821115613e0757613e06613a0e565b5b602082029050919050565b6000613e25613e2084613dec565b613a6e565b90508060208402830185811115613e3f57613e3e613aaf565b5b835b81811015613e685780613e5488826138ec565b845260208401935050602081019050613e41565b5050509392505050565b600082601f830112613e8757613e866139f8565b5b6040613e94848285613e12565b91505092915050565b60008060006109608486031215613eb757613eb66138c6565b5b6000613ec5868287016138ec565b9350506020613ed686828701613dc1565b925050610160613ee886828701613e72565b9150509250925092565b600082825260208201905092915050565b7f47616d6520646f6573206e6f7420657869737400000000000000000000000000600082015250565b6000613f39601383613ef2565b9150613f4482613f03565b602082019050919050565b60006020820190508181036000830152613f6881613f2c565b9050919050565b7f596f7520617265206e6f7420696e20746869732067616d650000000000000000600082015250565b6000613fa5601883613ef2565b9150613fb082613f6f565b602082019050919050565b60006020820190508181036000830152613fd481613f98565b9050919050565b7f47616d65206973206e6f7420696e2074686520636f7272656374207374617465600082015250565b6000614011602083613ef2565b915061401c82613fdb565b602082019050919050565b6000602082019050818103600083015261404081614004565b9050919050565b7f496e76616c69642070726f6f662c206974206d75737420626520616e2061727260008201527f6179206f66203620686173686573000000000000000000000000000000000000602082015250565b60006140a3602e83613ef2565b91506140ae82614047565b604082019050919050565b600060208201905081810360008301526140d281614096565b9050919050565b7f596f7520616c72656164792072657665616c656420746865206d6f7665000000600082015250565b600061410f601d83613ef2565b915061411a826140d9565b602082019050919050565b6000602082019050818103600083015261413e81614102565b9050919050565b600060408201905061415a6000830185613cbc565b6141676020830184613c52565b9392505050565b7f4e487b7100000000000000000000000000000000000000000000000000000000600052601160045260246000fd5b60006141a882613ba7565b915060ff82036141bb576141ba61416e565b5b600182019050919050565b6141cf81613ba7565b82525050565b60006060820190506141ea6000830186613cbc565b6141f76020830185613c52565b61420460408301846141c6565b949350505050565b600061421782613ba7565b915061422283613ba7565b9250828201905060ff81111561423b5761423a61416e565b5b92915050565b7f496e76616c696420706f736974696f6e00000000000000000000000000000000600082015250565b6000614277601083613ef2565b915061428282614241565b602082019050919050565b600060208201905081810360008301526142a68161426a565b9050919050565b7f596f7520616c72656164792070726f706f7365642061206d6f76650000000000600082015250565b60006142e3601b83613ef2565b91506142ee826142ad565b602082019050919050565b60006020820190508181036000830152614312816142d6565b9050919050565b7f506f736974696f6e20616c72656164792072657665616c656400000000000000600082015250565b600061434f601983613ef2565b915061435a82614319565b602082019050919050565b6000602082019050818103600083015261437e81614342565b9050919050565b7f596f7520617265206e6f74207468652077696e6e6572206f662074686973206760008201527f616d650000000000000000000000000000000000000000000000000000000000602082015250565b60006143e1602383613ef2565b91506143ec82614385565b604082019050919050565b60006020820190508181036000830152614410816143d4565b9050919050565b7f596f7520616c7265616479207769746864726177656400000000000000000000600082015250565b600061444d601683613ef2565b915061445882614417565b602082019050919050565b6000602082019050818103600083015261447c81614440565b9050919050565b600061448e826138cb565b9150614499836138cb565b92508282039050818111156144b1576144b061416e565b5b92915050565b6000819050919050565b6144d26144cd826138cb565b6144b7565b82525050565b60006144e482846144c1565b60208201915081905092915050565b7f4e487b7100000000000000000000000000000000000000000000000000000000600052601260045260246000fd5b600061452d826138cb565b9150614538836138cb565b925082614548576145476144f3565b5b828206905092915050565b7f4e487b7100000000000000000000000000000000000000000000000000000000600052603260045260246000fd5b7f596f752061726520616c726561647920696e20746869732067616d6500000000600082015250565b60006145b8601c83613ef2565b91506145c382614582565b602082019050919050565b600060208201905081810360008301526145e7816145ab565b9050919050565b60006145f9826138cb565b91506000820361460c5761460b61416e565b5b600182039050919050565b7f43616e2774206372656174652061206e65772067616d6520617420746865206d60008201527f6f6d656e742c2072657472790000000000000000000000000000000000000000602082015250565b6000614673602c83613ef2565b915061467e82614617565b604082019050919050565b600060208201905081810360008301526146a281614666565b9050919050565b60006146b4826138cb565b91507fffffffffffffffffffffffffffffffffffffffffffffffffffffffffffffffff82036146e6576146e561416e565b5b600182019050919050565b60006040820190506147066000830185613cbc565b6147136020830184613cbc565b9392505050565b600060608201905061472f6000830186613cbc565b61473c6020830185613c52565b6147496040830184613cbc565b949350505050565b7f596f752061726520756e6465722061636375736174696f6e2c2063616e27742060008201527f6d616b65206f74686572206d6f76657300000000000000000000000000000000602082015250565b60006147ad603083613ef2565b91506147b882614751565b604082019050919050565b600060208201905081810360008301526147dc816147a0565b9050919050565b7f4f70706f6e656e7420697320616c726561647920756e6465722061636375736160008201527f74696f6e00000000000000000000000000000000000000000000000000000000602082015250565b600061483f602483613ef2565b915061484a826147e3565b604082019050919050565b6000602082019050818103600083015261486e81614832565b9050919050565b7f596f7572206f70706f6e656e74206973206e6f7420756e64657220616363757360008201527f6174696f6e000000000000000000000000000000000000000000000000000000602082015250565b60006148d1602583613ef2565b91506148dc82614875565b604082019050919050565b60006020820190508181036000830152614900816148c4565b9050919050565b6000614912826138cb565b915061491d836138cb565b92508282019050808211156149355761493461416e565b5b92915050565b7f596f7520616c726561647920636f6d6d69747465642074686520626f61726400600082015250565b6000614971601f83613ef2565b915061497c8261493b565b602082019050919050565b600060208201905081810360008301526149a081614964565b9050919050565b7f596f75206d75737420706179207468652066656520746f20636f6d6d6974207460008201527f686520626f617264000000000000000000000000000000000000000000000000602082015250565b6000614a03602883613ef2565b9150614a0e826149a7565b604082019050919050565b60006020820190508181036000830152614a32816149f6565b9050919050565b7f596f7520616c72656164792072657665616c65642074686520626f6172640000600082015250565b6000614a6f601e83613ef2565b9150614a7a82614a39565b602082019050919050565b60006020820190508181036000830152614a9e81614a62565b9050919050565b7f496e76616c6964206e6f6e636573206c656e6774680000000000000000000000600082015250565b6000614adb601583613ef2565b9150614ae682614aa5565b602082019050919050565b60006020820190508181036000830152614b0a81614ace565b9050919050565b7f496e76616c6964207368697073206c656e677468000000000000000000000000600082015250565b6000614b47601483613ef2565b9150614b5282614b11565b602082019050919050565b60006020820190508181036000830152614b7681614b3a565b9050919050565b60008160f81b9050919050565b6000614b9582614b7d565b9050919050565b6000614ba782614b8a565b9050919050565b614bbf614bba826139c0565b614b9c565b82525050565b6000614bd18285614bae565b600182019150614be182846144c1565b6020820191508190509392505050565b6000614bfd82856144c1565b602082019150614c0d82846144c1565b602082019150819050939250505056fea2646970667358221220fb78e1cb575d9b2b649920c590062a7c9b0e722c04eaf73ea6dcb08d45e5202c64736f6c63430008130033",
  "immutableReferences": {},
  "source": "// SPDX-License-Identifier: MIT\npragma solidity >=0.4.22 <0.9.0;\n\n/*\n    The board is fixed to 8x8\n    with the following pieces:\n    - 1x Aircraft Carrier (5 squares)\n    - 1x Battleship (4 squares)\n    - 1x Cruiser (3 squares)\n    - 2x Destroyers (2 squares)\n\n    So we can terminate the game when:\n    - 1 player has 16 hits\n    - all positions have been revealed\n\n    Merkle proof for a 64 position board (8x8):\n    - actual position state\n    - nonce used to generate the hash\n    - 6 hashes\n    - Merkle Hash (already stored in the contract)\n */\n\ncontract BattleShip {\n    uint8 private constant NO_MOVE = 255;\n    uint8 private constant MAX_HIT = 16;\n    uint8 private constant MAX_ROUNDS = 64;\n\n    enum GameState {\n        // Game created but waiting for the second player to join\n        WaitingForOpponent,\n        // Players joined the game but need to agree on the fee\n        FeeNegotiation,\n        // Players agreed on the fee and need to commit the board\n        WaitingCommitment,\n        // Players committed the board and now the game starts\n        WaitingForMove,\n        // Players must submit Merkle proof in order to prove the move result\n        WaitingForProof,\n        // Game ended and now player must reveal the board\n        WaitingForReveal,\n        // Game ended and now we have a winner\n        GameOver\n    }\n\n    struct Ship {\n        uint8 start_position;\n        // true if horizontal, false if vertical\n        bool is_horizontal;\n    }\n\n    struct Player {\n        address user_id;\n        // Used to implement the fee negotiation, then to store the actual fee\n        uint256 proposed_fee;\n        // Used to implement the board commitment and check at the end\n        uint256 committed_board;\n        // Used to implements accusation\n        bool accused; // if true the player has been accused of leaving\n        uint256 accused_at; // represents the time when the player has been accused\n        // Used to store revealed board status and check at the end\n        // bitmap used to store the revealed positions\n        uint64 revealed_positions;\n        // bitmap used to store the actual hit\n        // only the actual bit at 1 in\n        // revealed_positions & position_status\n        // are the actual hits\n        uint64 position_status;\n        uint8 hits;\n        // Used to implement the move submission\n        uint8 move;\n        // Used to implement both the move reveal and the board reveal\n        bool revealed;\n        bool withdrawed;\n    }\n\n    struct Game {\n        uint256 game_id;\n        GameState game_state;\n        Player A;\n        Player B;\n        uint256 position_in_games_list;\n        uint8 rounds_elapsed;\n        address winner;\n    }\n\n    // Events to notify frontend\n    event NewGame(uint256 game_id);\n    event PlayerJoined(uint256 game_id, address player_id);\n    event FeeProposed(uint256 game_id, address player_id, uint256 fee);\n    event FeeAgreed(uint256 game_id, uint256 fee);\n    event BoardCommitted(uint256 game_id, address player_id, uint256 board);\n    event GameStarted(uint256 game_id);\n    event MoveProposed(uint256 game_id, address player_id, uint8 move);\n    event CheatingAttempt(uint256 game_id, address player_id);\n    event Hit(uint256 game_id, address player_id, uint8 position);\n    event Miss(uint256 game_id, address player_id, uint8 position);\n    event NextRound(uint256 game_id);\n    event EndOfGame(uint256 game_id);\n    event GameOver(uint256 game_id, address winner);\n    event AccusationRequest(uint256 game_id, address player_id);\n    event AccusationElapsed(uint256 game_id, address player_id);\n    event AccusationInPlace(uint256 game_id);\n\n    // Collects actual games data, used for the game evolution\n    mapping(uint256 => Game) private id2game;\n    // Collects games which are pending for players to join\n    // used for random matchmaking and game join\n    uint256[] private free_games;\n    uint256 private free_games_count;\n\n    // NB: public because it is both used by the frontend and the contract itself\n    function new_game() public {\n        uint256 game_id = uint256(\n            keccak256(abi.encodePacked(block.number - 1))\n        );\n\n        require(\n            id2game[game_id].game_id == 0,\n            \"Can't create a new game at the moment, retry\"\n        );\n\n        Game storage game = id2game[game_id];\n        game.game_id = game_id;\n        game.game_state = GameState.WaitingForOpponent;\n        game.position_in_games_list = free_games_count;\n        if (free_games_count == free_games.length) {\n            free_games.push(game_id);\n        } else {\n            free_games[free_games_count] = game_id;\n        }\n        free_games_count++;\n\n        game.A.user_id = msg.sender;\n\n        emit NewGame(game_id);\n    }\n\n    // NB: public because it is both used by the frontend and the contract itself\n    function join_game(uint256 game_id) public {\n        require(id2game[game_id].game_id != 0, \"Game does not exist\");\n\n        Game storage current_game = id2game[game_id];\n        require(\n            current_game.A.user_id != msg.sender,\n            \"You are already in this game\"\n        );\n\n        // Remove the game from the list of available games\n        if (free_games_count == 1) {\n            // if only one element, just remove it\n            delete free_games[0];\n            free_games_count--;\n        } else {\n            // otherwise swap the current game with the last one\n            // and then remove the last one and update it's position\n            // in the list\n            uint256 current_position = current_game.position_in_games_list;\n            uint256 last_position = free_games_count - 1;\n            uint256 last_game_id = free_games[last_position];\n\n            free_games[current_position] = last_game_id;\n            id2game[last_game_id].position_in_games_list = current_position;\n            delete free_games[last_position];\n            free_games_count--;\n        }\n\n        // Update game infos\n        // Assign the opponet player\n        current_game.B.user_id = msg.sender;\n\n        // Move game to fee negotiation\n        current_game.game_state = GameState.FeeNegotiation;\n\n        emit PlayerJoined(game_id, msg.sender);\n    }\n\n    // If no game exists just create one\n    // otherwise join random game\n    // then returns the game_id\n    // and a boolean to indicate if the game is new or not\n    function join_random_game() external {\n        if (free_games_count == 0) {\n            new_game();\n        } else {\n            // make choice at random\n            uint256 random_index = uint256(\n                keccak256(abi.encodePacked(block.number - 1))\n            );\n\n            uint256 game_id = free_games[random_index % free_games_count];\n            join_game(game_id);\n        }\n    }\n\n    modifier player_in_game(uint256 game_id) {\n        // Check that the game exists\n        require(id2game[game_id].game_id != 0, \"Game does not exist\");\n\n        // Check that user is in the game\n        require(\n            id2game[game_id].A.user_id == msg.sender ||\n                id2game[game_id].B.user_id == msg.sender,\n            \"You are not in this game\"\n        );\n        _;\n    }\n\n    modifier check_game_state(uint256 game_id, GameState game_state) {\n        // Check that the game is in the correct state\n        require(\n            id2game[game_id].game_state == game_state,\n            \"Game is not in the correct state\"\n        );\n        _;\n    }\n\n    // Propose fee until both players agree on the same fee\n    function propose_fee(\n        uint256 game_id,\n        uint256 fee\n    )\n        external\n        player_in_game(game_id)\n        check_game_state(game_id, GameState.FeeNegotiation)\n    {\n        Game storage current_game = id2game[game_id];\n\n        // Update fee proposal\n        if (current_game.A.user_id == msg.sender) {\n            current_game.A.proposed_fee = fee;\n        } else {\n            current_game.B.proposed_fee = fee;\n        }\n\n        // Manage notification to frontend and game state\n        // Both players agreed on the fee\n        if (current_game.A.proposed_fee == current_game.B.proposed_fee) {\n            current_game.game_state = GameState.WaitingCommitment;\n            emit FeeAgreed(game_id, fee);\n        }\n        // Otherwise just notify the frontend to continue the negotiation\n        else {\n            emit FeeProposed(game_id, msg.sender, fee);\n        }\n    }\n\n    function commit_board(\n        uint256 game_id,\n        uint256 board\n    )\n        external\n        payable\n        player_in_game(game_id)\n        check_game_state(game_id, GameState.WaitingCommitment)\n    {\n        Game storage current_game = id2game[game_id];\n\n        Player storage player = (current_game.A.user_id == msg.sender)\n            ? current_game.A\n            : current_game.B;\n\n        // Check that user did not already commit the board\n        // otherwise it would double pay\n        require(player.committed_board == 0, \"You already committed the board\");\n\n        // Check that the fee has been paid\n        // proposed_fee SHOULD be the same at this point\n        require(\n            msg.value == player.proposed_fee,\n            \"You must pay the fee to commit the board\"\n        );\n\n        // Update committed board\n        player.committed_board = board;\n\n        // Manage notification to frontend and game state\n        // Both players committed the board and payed the fee\n        if (\n            current_game.A.committed_board != 0 &&\n            current_game.B.committed_board != 0\n        ) {\n            current_game.game_state = GameState.WaitingForMove;\n            current_game.A.move = current_game.B.move = NO_MOVE;\n            emit BoardCommitted(game_id, msg.sender, board);\n            emit GameStarted(game_id);\n        }\n        // Otherwise just notify the frontend to continue wait for the other player\n        else {\n            emit BoardCommitted(game_id, msg.sender, board);\n        }\n    }\n\n    function submit_move(\n        uint256 game_id,\n        uint8 move\n    )\n        external\n        player_in_game(game_id)\n        check_game_state(game_id, GameState.WaitingForMove)\n    {\n        // Move must be in the range [0, 63] for a 8x8 board\n        require(move < 64, \"Invalid position\");\n        Game storage current_game = id2game[game_id];\n\n        Player storage player;\n        Player storage opponent;\n\n        if (current_game.A.user_id == msg.sender) {\n            player = current_game.A;\n            opponent = current_game.B;\n        } else {\n            player = current_game.B;\n            opponent = current_game.A;\n        }\n\n        // Check if user already proposed a move\n        require(player.move == NO_MOVE, \"You already proposed a move\");\n\n        // Check if positions has already been revealed\n        require(\n            (opponent.revealed_positions & (1 << move)) == 0,\n            \"Position already revealed\"\n        );\n\n        if (try_to_clean_accusation(game_id, player)) {\n            return;\n        }\n\n        // Update move\n        player.move = move;\n\n        emit MoveProposed(game_id, msg.sender, move);\n\n        // Check if opponent already proposed a move\n        if (opponent.move != NO_MOVE) {\n            // move to reveal phase\n            current_game.game_state = GameState.WaitingForProof;\n        }\n    }\n\n    function submit_proof(\n        uint256 game_id,\n        bool has_ship,\n        uint256 nonce,\n        uint256[6] memory proof\n    )\n        external\n        player_in_game(game_id)\n        check_game_state(game_id, GameState.WaitingForProof)\n    {\n        // Check that the proof has the needed length\n        require(\n            proof.length == 6,\n            \"Invalid proof, it must be an array of 6 hashes\"\n        );\n\n        Game storage current_game = id2game[game_id];\n\n        Player storage player;\n        Player storage opponent;\n\n        if (current_game.A.user_id == msg.sender) {\n            player = current_game.A;\n            opponent = current_game.B;\n        } else {\n            player = current_game.B;\n            opponent = current_game.A;\n        }\n\n        // check that the user has not already revealed the move\n        require(!player.revealed, \"You already revealed the move\");\n\n        // Check if the proof is valid\n        if (\n            !check_proof(\n                opponent.move,\n                has_ship,\n                nonce,\n                proof,\n                player.committed_board\n            )\n        ) {\n            // Cheating attempt: terminate the game and set the opponet as the winner\n            current_game.game_state = GameState.GameOver;\n            current_game.winner = opponent.user_id;\n            emit CheatingAttempt(game_id, msg.sender);\n            return;\n        }\n\n        if (try_to_clean_accusation(game_id, player)) {\n            return;\n        }\n\n        // Update revealed positions\n        player.revealed_positions |= uint64(1 << opponent.move);\n\n        // Update position status\n        if (has_ship) {\n            opponent.position_status |= uint64(1 << player.move);\n            opponent.hits++;\n            emit Hit(game_id, opponent.user_id, opponent.move);\n        } else {\n            emit Miss(game_id, opponent.user_id, opponent.move);\n        }\n\n        // set the move as revealed\n        player.revealed = true;\n\n        // Check if reveal phase is over\n        if (opponent.revealed) {\n            current_game.rounds_elapsed += 1;\n            // Check if game is over\n            if (\n                opponent.hits == MAX_HIT ||\n                player.hits == MAX_HIT ||\n                current_game.rounds_elapsed == MAX_ROUNDS\n            ) {\n                // Game is over so user must reveal their boards\n                current_game.game_state = GameState.WaitingForReveal;\n                player.revealed = opponent.revealed = false;\n                emit EndOfGame(game_id);\n                return;\n            }\n            // Otherwise move to the next round\n            current_game.game_state = GameState.WaitingForMove;\n            player.move = opponent.move = NO_MOVE;\n            player.revealed = opponent.revealed = false;\n            emit NextRound(game_id);\n        }\n    }\n\n    function reveal_board(\n        uint256 game_id,\n        Ship[5] memory ships,\n        uint256[64] memory nonces\n    )\n        external\n        player_in_game(game_id)\n        check_game_state(game_id, GameState.WaitingForReveal)\n    {\n        Game storage current_game = id2game[game_id];\n\n        Player storage player;\n        Player storage opponent;\n\n        if (current_game.A.user_id == msg.sender) {\n            player = current_game.A;\n            opponent = current_game.B;\n        } else {\n            player = current_game.B;\n            opponent = current_game.A;\n        }\n\n        // Check that the user has not already revealed the board\n        require(!player.revealed, \"You already revealed the board\");\n\n        // Check that the user passed the right number of nonces\n        require(nonces.length == 64, \"Invalid nonces length\");\n\n        require(ships.length == 5, \"Invalid ships length\");\n\n        // If the board cannot be built, the user is cheating\n        uint64 board = build_board(ships);\n\n        // Check if ship placement is valid\n        // and that the board is the same as the committed one\n        if (\n            board == 0 ||\n            !check_board_proof(player.committed_board, board, nonces)\n        ) {\n            // Cheating attempt: terminate the game and set the opponet as the winner\n            current_game.game_state = GameState.GameOver;\n            current_game.winner = opponent.user_id;\n            emit CheatingAttempt(game_id, msg.sender);\n            return;\n        }\n\n        if (try_to_clean_accusation(game_id, player)) {\n            return;\n        }\n\n        // Update revealed positions\n        player.position_status = board;\n        // Update user state to revealed\n        player.revealed = true;\n\n        // If both user revealed the board, the game is over\n        if (opponent.revealed) {\n            // Set winner\n            if (player.hits > opponent.hits) {\n                // player wins\n                current_game.winner = player.user_id;\n            } else if (opponent.hits > player.hits) {\n                // opponent wins\n                current_game.winner = opponent.user_id;\n            } else {\n                // draw\n                current_game.winner = address(0);\n            }\n            current_game.game_state = GameState.GameOver;\n            emit GameOver(game_id, current_game.winner);\n        }\n    }\n\n    function try_to_clean_accusation(\n        uint256 game_id,\n        Player storage current_player\n    ) private returns (bool) {\n        // Check if player is under accusation\n        if (current_player.accused) {\n            // If response is under time limit, the accusation is retired\n            if (current_player.accused_at + 5 < block.timestamp) {\n                current_player.accused = false;\n                current_player.accused_at = 0;\n                return false;\n            } else {\n                // Otherwise the accusation is valid and the opponent wins\n                Game storage current_game = id2game[game_id];\n                current_game.game_state = GameState.GameOver;\n                current_game.winner = current_player.user_id ==\n                    current_game.A.user_id\n                    ? current_game.B.user_id\n                    : current_game.A.user_id;\n                emit AccusationElapsed(game_id, current_game.winner);\n                return true;\n            }\n        }\n\n        return false;\n    }\n\n    function withdraw(\n        uint256 game_id\n    )\n        external\n        player_in_game(game_id)\n        check_game_state(game_id, GameState.GameOver)\n    {\n        Game storage current_game = id2game[game_id];\n        require(\n            current_game.winner == msg.sender ||\n                current_game.winner == address(0),\n            \"You are not the winner of this game\"\n        );\n\n        Player storage player;\n\n        if (current_game.A.user_id == msg.sender) {\n            player = current_game.A;\n        } else {\n            player = current_game.B;\n        }\n\n        require(!player.withdrawed, \"You already withdrawed\");\n\n        uint256 amount = current_game.A.proposed_fee;\n        if (current_game.winner == address(0)) {\n            amount <<= 1;\n        }\n\n        // Avoid reentrancy\n        player.withdrawed = true;\n        payable(msg.sender).transfer(amount);\n    }\n\n    function make_accusation(uint256 game_id) external player_in_game(game_id) {\n        // Check that the game is either in the waiting for move or waiting for proof/reveal state\n        Game storage current_game = id2game[game_id];\n\n        require(\n            current_game.game_state == GameState.WaitingForMove ||\n                current_game.game_state == GameState.WaitingForProof ||\n                current_game.game_state == GameState.WaitingForReveal,\n            \"Game is not in the correct state\"\n        );\n\n        Player storage player;\n        Player storage opponent;\n\n        if (current_game.A.user_id == msg.sender) {\n            player = current_game.A;\n            opponent = current_game.B;\n        } else {\n            player = current_game.B;\n            opponent = current_game.A;\n        }\n\n        // Check that the user is not currently under accusation\n        require(\n            !player.accused,\n            \"You are under accusation, can't make other moves\"\n        );\n\n        // Check that the other player is not currently under accusation\n        require(!opponent.accused, \"Opponent is already under accusation\");\n\n        opponent.accused = true;\n        opponent.accused_at = block.timestamp;\n    }\n\n    function check_accusation(\n        uint256 game_id\n    ) external player_in_game(game_id) {\n        Game storage current_game = id2game[game_id];\n\n        Player storage player;\n        Player storage opponent;\n\n        if (current_game.A.user_id == msg.sender) {\n            player = current_game.A;\n            opponent = current_game.B;\n        } else {\n            player = current_game.B;\n            opponent = current_game.A;\n        }\n\n        // Check if player is under accusation\n        require(opponent.accused, \"Your opponent is not under accusation\");\n\n        // If opponent did not respond in time, the accusation is valid\n        if (opponent.accused_at + 5 < block.timestamp) {\n            current_game.game_state = GameState.GameOver;\n            current_game.winner = player.user_id;\n            emit AccusationElapsed(game_id, current_game.winner);\n            return;\n        }\n        emit AccusationInPlace(game_id);\n    }\n\n    /* Utility functions */\n\n    /* Assume that:\n        - index in [0, 63]\n        - proof.length == 6\n    */\n    function check_proof(\n        uint8 index,\n        bool has_ship,\n        uint256 nonce,\n        uint256[6] memory proof,\n        uint256 committed_board\n    ) private pure returns (bool) {\n        // build the leaf hash by hash(has_ship || nonce)\n        uint256 previous_hash = uint256(\n            keccak256(abi.encodePacked(has_ship, nonce))\n        );\n\n        for (uint8 i = 0; i < 6; i++) {\n            if (index & 1 == 0) {\n                // we are on the left side of the tree\n                previous_hash = uint256(\n                    keccak256(abi.encodePacked(previous_hash, proof[i]))\n                );\n            } else {\n                // we are on the right side of the tree\n                previous_hash = uint256(\n                    keccak256(abi.encodePacked(proof[i], previous_hash))\n                );\n            }\n            index = index >> 1;\n        }\n\n        return previous_hash == committed_board;\n    }\n\n    function check_board_proof(\n        uint256 committed_board,\n        uint64 board,\n        uint256[64] memory nonces\n    ) private pure returns (bool) {\n        // Compute Merkle tree root\n        uint8 i = 0;\n        uint8 j = 0;\n        uint8 actual_size = 64;\n\n        uint256[64] memory tree;\n\n        // Compute various hash(ship[i]  || nonces[i])\n        for (i = 0; i < actual_size; i++) {\n            tree[i] = uint256(\n                keccak256(abi.encodePacked(((board >> i) & 1) == 1, nonces[i]))\n            );\n        }\n\n        actual_size = actual_size >> 1;\n        while (actual_size != 0) {\n            for (i = j = 0; i < actual_size; i++) {\n                tree[i] = uint256(\n                    keccak256(abi.encodePacked(tree[j], tree[j + 1]))\n                );\n                j += 2;\n            }\n            actual_size = actual_size >> 1;\n        }\n\n        return tree[0] == committed_board;\n    }\n\n    function update_board(\n        uint64 current_board,\n        uint8 index,\n        bool is_horizontal,\n        uint8 ship_size\n    ) private pure returns (uint64) {\n        current_board |= uint64(1 << index);\n        if (is_horizontal) {\n            index += 1;\n        } else {\n            index += 8;\n        }\n\n        for (uint8 i = 1; i < ship_size; i++) {\n            // if ship is horizontal we can't be at the start of the row\n            if (is_horizontal && index & 0x7 == 0) {\n                return 0;\n            }\n            // if ship is vertical we can't be over the last row\n            if (!is_horizontal && index > 63) {\n                return 0;\n            }\n\n            // If the bit is already set, it means that there is a collision\n            if (current_board & uint64(1 << index) != 0) {\n                return 0;\n            }\n\n            // Update board\n            current_board |= uint64(1 << index);\n            if (is_horizontal) {\n                index += 1;\n            } else {\n                index += 8;\n            }\n        }\n\n        return current_board;\n    }\n\n    function build_board(Ship[5] memory ships) private pure returns (uint64) {\n        uint64 board = 0;\n        uint8[5] memory sizes = [5, 4, 3, 2, 2];\n\n        for (uint8 i = 0; i < 5; i++) {\n            if(ships[i].start_position > 63) {\n                return 0;\n            }\n\n            board = update_board(\n                board,\n                ships[i].start_position,\n                ships[i].is_horizontal,\n                sizes[i]\n            );\n            if (board == 0) {\n                return 0;\n            }\n        }\n\n        return board;\n    }\n\n    /* View functions */\n    // Return GameState\n    function get_game_state(uint256 game_id) external view returns (GameState) {\n        require(id2game[game_id].game_id != 0, \"Game does not exist\");\n        return id2game[game_id].game_state;\n    }\n\n    function get_free_games_length() external view returns (uint256) {\n        return free_games_count;\n    }\n\n    function get_opponent(uint256 game_id) external view returns (address) {\n        require(id2game[game_id].game_id != 0, \"Game does not exist\");\n        Game storage current_game = id2game[game_id];\n        if (current_game.A.user_id == msg.sender) {\n            return current_game.B.user_id;\n        } else {\n            return current_game.A.user_id;\n        }\n    }\n}\n",
  "sourcePath": "/home/drw0if/p2p/battleship/contracts/BattleShip.sol",
  "compiler": {
    "name": "solc",
    "version": "0.8.19+commit.7dd6d404.Emscripten.clang"
  },
  "schemaVersion": "3.4.16",
  "updatedAt": "2023-12-29T11:39:49.995Z",
  "networkType": "ethereum",
  "devdoc": {
    "kind": "dev",
    "methods": {},
    "version": 1
  },
  "userdoc": {
    "kind": "user",
    "methods": {},
    "version": 1
  }
}