{
  "contractName": "BattleShip",
  "abi": [
    {
      "anonymous": false,
      "inputs": [
        {
          "indexed": false,
          "internalType": "uint256",
          "name": "game_id",
          "type": "uint256"
        }
      ],
      "name": "AccusationElapsed",
      "type": "event"
    },
    {
      "anonymous": false,
      "inputs": [
        {
          "indexed": false,
          "internalType": "uint256",
          "name": "game_id",
          "type": "uint256"
        }
      ],
      "name": "AccusationInPlace",
      "type": "event"
    },
    {
      "anonymous": false,
      "inputs": [
        {
          "indexed": false,
          "internalType": "uint256",
          "name": "game_id",
          "type": "uint256"
        },
        {
          "indexed": false,
          "internalType": "address",
          "name": "player_id",
          "type": "address"
        }
      ],
      "name": "AccusationRequest",
      "type": "event"
    },
    {
      "anonymous": false,
      "inputs": [
        {
          "indexed": false,
          "internalType": "uint256",
          "name": "game_id",
          "type": "uint256"
        }
      ],
      "name": "AccusationRetired",
      "type": "event"
    },
    {
      "anonymous": false,
      "inputs": [
        {
          "indexed": false,
          "internalType": "uint256",
          "name": "game_id",
          "type": "uint256"
        },
        {
          "indexed": false,
          "internalType": "address",
          "name": "player_id",
          "type": "address"
        },
        {
          "indexed": false,
          "internalType": "uint256",
          "name": "board",
          "type": "uint256"
        }
      ],
      "name": "BoardCommitted",
      "type": "event"
    },
    {
      "anonymous": false,
      "inputs": [
        {
          "indexed": false,
          "internalType": "uint256",
          "name": "game_id",
          "type": "uint256"
        },
        {
          "indexed": false,
          "internalType": "address",
          "name": "player_id",
          "type": "address"
        }
      ],
      "name": "CheatingAttempt",
      "type": "event"
    },
    {
      "anonymous": false,
      "inputs": [
        {
          "indexed": false,
          "internalType": "uint256",
          "name": "game_id",
          "type": "uint256"
        }
      ],
      "name": "EndOfGame",
      "type": "event"
    },
    {
      "anonymous": false,
      "inputs": [
        {
          "indexed": false,
          "internalType": "uint256",
          "name": "game_id",
          "type": "uint256"
        },
        {
          "indexed": false,
          "internalType": "uint256",
          "name": "fee",
          "type": "uint256"
        }
      ],
      "name": "FeeAgreed",
      "type": "event"
    },
    {
      "anonymous": false,
      "inputs": [
        {
          "indexed": false,
          "internalType": "uint256",
          "name": "game_id",
          "type": "uint256"
        },
        {
          "indexed": false,
          "internalType": "address",
          "name": "player_id",
          "type": "address"
        },
        {
          "indexed": false,
          "internalType": "uint256",
          "name": "fee",
          "type": "uint256"
        }
      ],
      "name": "FeeProposed",
      "type": "event"
    },
    {
      "anonymous": false,
      "inputs": [
        {
          "indexed": false,
          "internalType": "uint256",
          "name": "game_id",
          "type": "uint256"
        },
        {
          "indexed": false,
          "internalType": "address",
          "name": "winner",
          "type": "address"
        }
      ],
      "name": "GameOver",
      "type": "event"
    },
    {
      "anonymous": false,
      "inputs": [
        {
          "indexed": false,
          "internalType": "uint256",
          "name": "game_id",
          "type": "uint256"
        }
      ],
      "name": "GameStarted",
      "type": "event"
    },
    {
      "anonymous": false,
      "inputs": [
        {
          "indexed": false,
          "internalType": "uint256",
          "name": "game_id",
          "type": "uint256"
        },
        {
          "indexed": false,
          "internalType": "address",
          "name": "player_id",
          "type": "address"
        },
        {
          "indexed": false,
          "internalType": "uint8",
          "name": "position",
          "type": "uint8"
        }
      ],
      "name": "Hit",
      "type": "event"
    },
    {
      "anonymous": false,
      "inputs": [
        {
          "indexed": false,
          "internalType": "uint256",
          "name": "game_id",
          "type": "uint256"
        },
        {
          "indexed": false,
          "internalType": "address",
          "name": "player_id",
          "type": "address"
        },
        {
          "indexed": false,
          "internalType": "uint8",
          "name": "position",
          "type": "uint8"
        }
      ],
      "name": "Miss",
      "type": "event"
    },
    {
      "anonymous": false,
      "inputs": [
        {
          "indexed": false,
          "internalType": "uint256",
          "name": "game_id",
          "type": "uint256"
        },
        {
          "indexed": false,
          "internalType": "address",
          "name": "player_id",
          "type": "address"
        },
        {
          "indexed": false,
          "internalType": "uint8",
          "name": "move",
          "type": "uint8"
        }
      ],
      "name": "MoveProposed",
      "type": "event"
    },
    {
      "anonymous": false,
      "inputs": [
        {
          "indexed": false,
          "internalType": "uint256",
          "name": "game_id",
          "type": "uint256"
        }
      ],
      "name": "NewGame",
      "type": "event"
    },
    {
      "anonymous": false,
      "inputs": [
        {
          "indexed": false,
          "internalType": "uint256",
          "name": "game_id",
          "type": "uint256"
        }
      ],
      "name": "NextRound",
      "type": "event"
    },
    {
      "anonymous": false,
      "inputs": [
        {
          "indexed": false,
          "internalType": "uint256",
          "name": "game_id",
          "type": "uint256"
        },
        {
          "indexed": false,
          "internalType": "address",
          "name": "player_id",
          "type": "address"
        }
      ],
      "name": "PlayerJoined",
      "type": "event"
    },
    {
      "inputs": [],
      "name": "new_game",
      "outputs": [],
      "stateMutability": "nonpayable",
      "type": "function"
    },
    {
      "inputs": [
        {
          "internalType": "uint256",
          "name": "game_id",
          "type": "uint256"
        }
      ],
      "name": "join_game",
      "outputs": [],
      "stateMutability": "nonpayable",
      "type": "function"
    },
    {
      "inputs": [],
      "name": "join_random_game",
      "outputs": [],
      "stateMutability": "nonpayable",
      "type": "function"
    },
    {
      "inputs": [
        {
          "internalType": "uint256",
          "name": "game_id",
          "type": "uint256"
        },
        {
          "internalType": "uint256",
          "name": "fee",
          "type": "uint256"
        }
      ],
      "name": "propose_fee",
      "outputs": [],
      "stateMutability": "nonpayable",
      "type": "function"
    },
    {
      "inputs": [
        {
          "internalType": "uint256",
          "name": "game_id",
          "type": "uint256"
        },
        {
          "internalType": "uint256",
          "name": "board",
          "type": "uint256"
        }
      ],
      "name": "commit_board",
      "outputs": [],
      "stateMutability": "payable",
      "type": "function",
      "payable": true
    },
    {
      "inputs": [
        {
          "internalType": "uint256",
          "name": "game_id",
          "type": "uint256"
        },
        {
          "internalType": "uint8",
          "name": "move",
          "type": "uint8"
        }
      ],
      "name": "submit_move",
      "outputs": [],
      "stateMutability": "nonpayable",
      "type": "function"
    },
    {
      "inputs": [
        {
          "internalType": "uint256",
          "name": "game_id",
          "type": "uint256"
        },
        {
          "internalType": "bool",
          "name": "has_ship",
          "type": "bool"
        },
        {
          "internalType": "uint256",
          "name": "nonce",
          "type": "uint256"
        },
        {
          "internalType": "uint256[6]",
          "name": "proof",
          "type": "uint256[6]"
        }
      ],
      "name": "submit_proof",
      "outputs": [],
      "stateMutability": "nonpayable",
      "type": "function"
    },
    {
      "inputs": [
        {
          "internalType": "uint256",
          "name": "game_id",
          "type": "uint256"
        },
        {
          "components": [
            {
              "internalType": "uint8",
              "name": "start_position",
              "type": "uint8"
            },
            {
              "internalType": "bool",
              "name": "is_horizontal",
              "type": "bool"
            }
          ],
          "internalType": "struct BattleShip.Ship[5]",
          "name": "ships",
          "type": "tuple[5]"
        },
        {
          "internalType": "uint256[64]",
          "name": "nonces",
          "type": "uint256[64]"
        }
      ],
      "name": "reveal_board",
      "outputs": [],
      "stateMutability": "nonpayable",
      "type": "function"
    },
    {
      "inputs": [
        {
          "internalType": "uint256",
          "name": "game_id",
          "type": "uint256"
        }
      ],
      "name": "withdraw",
      "outputs": [],
      "stateMutability": "nonpayable",
      "type": "function"
    },
    {
      "inputs": [
        {
          "internalType": "uint256",
          "name": "game_id",
          "type": "uint256"
        }
      ],
      "name": "make_accusation",
      "outputs": [],
      "stateMutability": "nonpayable",
      "type": "function"
    },
    {
      "inputs": [
        {
          "internalType": "uint256",
          "name": "game_id",
          "type": "uint256"
        }
      ],
      "name": "check_accusation",
      "outputs": [],
      "stateMutability": "nonpayable",
      "type": "function"
    },
    {
      "inputs": [
        {
          "internalType": "uint256",
          "name": "game_id",
          "type": "uint256"
        }
      ],
      "name": "get_game_state",
      "outputs": [
        {
          "internalType": "enum BattleShip.GameState",
          "name": "",
          "type": "uint8"
        }
      ],
      "stateMutability": "view",
      "type": "function",
      "constant": true
    },
    {
      "inputs": [],
      "name": "get_free_games_length",
      "outputs": [
        {
          "internalType": "uint256",
          "name": "",
          "type": "uint256"
        }
      ],
      "stateMutability": "view",
      "type": "function",
      "constant": true
    },
    {
      "inputs": [
        {
          "internalType": "uint256",
          "name": "game_id",
          "type": "uint256"
        }
      ],
      "name": "get_opponent",
      "outputs": [
        {
          "internalType": "address",
          "name": "",
          "type": "address"
        }
      ],
      "stateMutability": "view",
      "type": "function",
      "constant": true
    }
  ],
  "bytecode": "0x608060405234801561001057600080fd5b50614e4a806100206000396000f3fe6080604052600436106100dd5760003560e01c80634c8564601161007f578063b88a392d11610059578063b88a392d14610282578063cb80a7dd146102ab578063d4c66c35146102d4578063d9d9a9a7146102f0576100dd565b80634c856460146102175780637e1d5c4c1461022e57806385b3f2b414610257576100dd565b80632e1a7d4d116100bb5780632e1a7d4d1461017157806342085e381461019a578063447d4436146101d75780634a7b26ec146101ee576100dd565b80630e6372e4146100e257806326bd59581461011f578063276df1af14610148575b600080fd5b3480156100ee57600080fd5b5061010960048036038101906101049190613ab6565b610319565b6040516101169190613b5a565b60405180910390f35b34801561012b57600080fd5b5061014660048036038101906101419190613cf4565b61039c565b005b34801561015457600080fd5b5061016f600480360381019061016a9190613d95565b610c5d565b005b34801561017d57600080fd5b5061019860048036038101906101939190613ab6565b6110b9565b005b3480156101a657600080fd5b506101c160048036038101906101bc9190613ab6565b61155c565b6040516101ce9190613e16565b60405180910390f35b3480156101e357600080fd5b506101ec611686565b005b3480156101fa57600080fd5b5061021560048036038101906102109190613ab6565b611715565b005b34801561022357600080fd5b5061022c6119cc565b005b34801561023a57600080fd5b5061025560048036038101906102509190613e31565b611bb0565b005b34801561026357600080fd5b5061026c611efa565b6040516102799190613e80565b60405180910390f35b34801561028e57600080fd5b506102a960048036038101906102a49190613ab6565b611f04565b005b3480156102b757600080fd5b506102d260048036038101906102cd9190613ab6565b612304565b005b6102ee60048036038101906102e99190613e31565b6126da565b005b3480156102fc57600080fd5b5061031760048036038101906103129190614052565b612b46565b005b6000806000808481526020019081526020016000206000015403610372576040517f08c379a000000000000000000000000000000000000000000000000000000000815260040161036990614104565b60405180910390fd5b60008083815260200190815260200160002060010160009054906101000a900460ff169050919050565b83600080600083815260200190815260200160002060000154036103f5576040517f08c379a00000000000000000000000000000000000000000000000000000000081526004016103ec90614104565b60405180910390fd5b3373ffffffffffffffffffffffffffffffffffffffff1660008083815260200190815260200160002060020160000160009054906101000a900473ffffffffffffffffffffffffffffffffffffffff1673ffffffffffffffffffffffffffffffffffffffff1614806104ca57503373ffffffffffffffffffffffffffffffffffffffff1660008083815260200190815260200160002060080160000160009054906101000a900473ffffffffffffffffffffffffffffffffffffffff1673ffffffffffffffffffffffffffffffffffffffff16145b610509576040517f08c379a000000000000000000000000000000000000000000000000000000000815260040161050090614170565b60405180910390fd5b84600480600681111561051f5761051e613ae3565b5b60008084815260200190815260200160002060010160009054906101000a900460ff16600681111561055457610553613ae3565b5b14610594576040517f08c379a000000000000000000000000000000000000000000000000000000000815260040161058b906141dc565b60405180910390fd5b600680146105d7576040517f08c379a00000000000000000000000000000000000000000000000000000000081526004016105ce9061426e565b60405180910390fd5b600080600089815260200190815260200160002090506000803373ffffffffffffffffffffffffffffffffffffffff168360020160000160009054906101000a900473ffffffffffffffffffffffffffffffffffffffff1673ffffffffffffffffffffffffffffffffffffffff160361065b57826002019150826008019050610668565b8260080191508260020190505b8160050160129054906101000a900460ff16156106ba576040517f08c379a00000000000000000000000000000000000000000000000000000000081526004016106b1906142da565b60405180910390fd5b6106dc8160050160119054906101000a900460ff168a8a8a866002015461329e565b6108125760068360010160006101000a81548160ff0219169083600681111561070857610707613ae3565b5b02179055508060000160009054906101000a900473ffffffffffffffffffffffffffffffffffffffff1683600f0160016101000a81548173ffffffffffffffffffffffffffffffffffffffff021916908373ffffffffffffffffffffffffffffffffffffffff1602179055507fa94eb170965acb1cb9de7b8c291cb52184d88fe98c0710bbb74068e2efb6f8708a336040516107a59291906142fa565b60405180910390a17f668ce4ca171dee87d4d9d2b5d3dc31963fe7fbe50b982064dddb0fb9d56aee8b8a84600f0160019054906101000a900473ffffffffffffffffffffffffffffffffffffffff166040516108029291906142fa565b60405180910390a1505050610c54565b61081c8a836133af565b1561082957505050610c54565b8060050160119054906101000a900460ff1660ff166001901b8260050160008282829054906101000a900467ffffffffffffffff161792506101000a81548167ffffffffffffffff021916908367ffffffffffffffff1602179055508815610996578160050160119054906101000a900460ff1660ff166001901b8160050160088282829054906101000a900467ffffffffffffffff161792506101000a81548167ffffffffffffffff021916908367ffffffffffffffff16021790555080600501601081819054906101000a900460ff168092919061090890614352565b91906101000a81548160ff021916908360ff160217905550507f362fa9e1f76c7bd7da2bb79b2c5a6979f30761fef11ef5f06aee598fff2d0f208a8260000160009054906101000a900473ffffffffffffffffffffffffffffffffffffffff168360050160119054906101000a900460ff166040516109899392919061438a565b60405180910390a1610a07565b7f7a542921653b80e9acb31eb9f20c8a79aaf5fc7bbc090bf2e75b5cc26607c7f58a8260000160009054906101000a900473ffffffffffffffffffffffffffffffffffffffff168360050160119054906101000a900460ff166040516109fe9392919061438a565b60405180910390a15b60018260050160126101000a81548160ff0219169083151502179055508060050160129054906101000a900460ff1615610c5057600183600f0160008282829054906101000a900460ff16610a5c91906143c1565b92506101000a81548160ff021916908360ff160217905550600160ff168160050160109054906101000a900460ff1660ff161480610ab15750600160ff168260050160109054906101000a900460ff1660ff16145b80610ad35750604060ff1683600f0160009054906101000a900460ff1660ff16145b15610b7b5760058360010160006101000a81548160ff02191690836006811115610b0057610aff613ae3565b5b021790555060008160050160126101000a81548160ff02191690831515021790558260050160126101000a81548160ff0219169083151502179055507f55bc7d27b24d9318cbcdf7a99aa9c14ab31e868d7adc542554db60815e5718cd8a604051610b6b9190613e80565b60405180910390a1505050610c54565b60038360010160006101000a81548160ff02191690836006811115610ba357610ba2613ae3565b5b021790555060ff8160050160116101000a81548160ff021916908360ff16021790558260050160116101000a81548160ff021916908360ff16021790555060008160050160126101000a81548160ff02191690831515021790558260050160126101000a81548160ff0219169083151502179055507fdaa0d5c2f72f50e5aff5657590d693b8ca6161f597bbd985f55cab431744f6ce8a604051610c479190613e80565b60405180910390a15b5050505b50505050505050565b8160008060008381526020019081526020016000206000015403610cb6576040517f08c379a0000000000000000000000000000000000000000000000000000000008152600401610cad90614104565b60405180910390fd5b3373ffffffffffffffffffffffffffffffffffffffff1660008083815260200190815260200160002060020160000160009054906101000a900473ffffffffffffffffffffffffffffffffffffffff1673ffffffffffffffffffffffffffffffffffffffff161480610d8b57503373ffffffffffffffffffffffffffffffffffffffff1660008083815260200190815260200160002060080160000160009054906101000a900473ffffffffffffffffffffffffffffffffffffffff1673ffffffffffffffffffffffffffffffffffffffff16145b610dca576040517f08c379a0000000000000000000000000000000000000000000000000000000008152600401610dc190614170565b60405180910390fd5b826003806006811115610de057610ddf613ae3565b5b60008084815260200190815260200160002060010160009054906101000a900460ff166006811115610e1557610e14613ae3565b5b14610e55576040517f08c379a0000000000000000000000000000000000000000000000000000000008152600401610e4c906141dc565b60405180910390fd5b60408460ff1610610e9b576040517f08c379a0000000000000000000000000000000000000000000000000000000008152600401610e9290614442565b60405180910390fd5b600080600087815260200190815260200160002090506000803373ffffffffffffffffffffffffffffffffffffffff168360020160000160009054906101000a900473ffffffffffffffffffffffffffffffffffffffff1673ffffffffffffffffffffffffffffffffffffffff1603610f1f57826002019150826008019050610f2c565b8260080191508260020190505b60ff80168260050160119054906101000a900460ff1660ff1614610f85576040517f08c379a0000000000000000000000000000000000000000000000000000000008152600401610f7c906144ae565b60405180910390fd5b60008760ff166001901b8260050160009054906101000a900467ffffffffffffffff1667ffffffffffffffff161614610ff3576040517f08c379a0000000000000000000000000000000000000000000000000000000008152600401610fea9061451a565b60405180910390fd5b610ffd88836133af565b1561100a575050506110b2565b868260050160116101000a81548160ff021916908360ff1602179055507f55cac4ede2505e92e4459bdeff964df027cd1fc03b9bf762d3d27a700de7c99888338960405161105a9392919061438a565b60405180910390a160ff80168160050160119054906101000a900460ff1660ff16146110ae5760048360010160006101000a81548160ff021916908360068111156110a8576110a7613ae3565b5b02179055505b5050505b5050505050565b8060008060008381526020019081526020016000206000015403611112576040517f08c379a000000000000000000000000000000000000000000000000000000000815260040161110990614104565b60405180910390fd5b3373ffffffffffffffffffffffffffffffffffffffff1660008083815260200190815260200160002060020160000160009054906101000a900473ffffffffffffffffffffffffffffffffffffffff1673ffffffffffffffffffffffffffffffffffffffff1614806111e757503373ffffffffffffffffffffffffffffffffffffffff1660008083815260200190815260200160002060080160000160009054906101000a900473ffffffffffffffffffffffffffffffffffffffff1673ffffffffffffffffffffffffffffffffffffffff16145b611226576040517f08c379a000000000000000000000000000000000000000000000000000000000815260040161121d90614170565b60405180910390fd5b81600680600681111561123c5761123b613ae3565b5b60008084815260200190815260200160002060010160009054906101000a900460ff16600681111561127157611270613ae3565b5b146112b1576040517f08c379a00000000000000000000000000000000000000000000000000000000081526004016112a8906141dc565b60405180910390fd5b600080600086815260200190815260200160002090503373ffffffffffffffffffffffffffffffffffffffff1681600f0160019054906101000a900473ffffffffffffffffffffffffffffffffffffffff1673ffffffffffffffffffffffffffffffffffffffff1614806113755750600073ffffffffffffffffffffffffffffffffffffffff1681600f0160019054906101000a900473ffffffffffffffffffffffffffffffffffffffff1673ffffffffffffffffffffffffffffffffffffffff16145b6113b4576040517f08c379a00000000000000000000000000000000000000000000000000000000081526004016113ab906145ac565b60405180910390fd5b60003373ffffffffffffffffffffffffffffffffffffffff168260020160000160009054906101000a900473ffffffffffffffffffffffffffffffffffffffff1673ffffffffffffffffffffffffffffffffffffffff160361141b57816002019050611422565b8160080190505b8060050160139054906101000a900460ff1615611474576040517f08c379a000000000000000000000000000000000000000000000000000000000815260040161146b90614618565b60405180910390fd5b6000633b9aca00836002016001015461148d9190614638565b9050600073ffffffffffffffffffffffffffffffffffffffff1683600f0160019054906101000a900473ffffffffffffffffffffffffffffffffffffffff1673ffffffffffffffffffffffffffffffffffffffff16146114ef57600181901b90505b60018260050160136101000a81548160ff0219169083151502179055503373ffffffffffffffffffffffffffffffffffffffff166108fc829081150290604051600060405180830381858888f19350505050158015611552573d6000803e3d6000fd5b5050505050505050565b60008060008084815260200190815260200160002060000154036115b5576040517f08c379a00000000000000000000000000000000000000000000000000000000081526004016115ac90614104565b60405180910390fd5b600080600084815260200190815260200160002090503373ffffffffffffffffffffffffffffffffffffffff168160020160000160009054906101000a900473ffffffffffffffffffffffffffffffffffffffff1673ffffffffffffffffffffffffffffffffffffffff1603611655578060080160000160009054906101000a900473ffffffffffffffffffffffffffffffffffffffff16915050611681565b8060020160000160009054906101000a900473ffffffffffffffffffffffffffffffffffffffff169150505b919050565b60006002540361169d576116986119cc565b611713565b60006001436116ac919061467a565b6040516020016116bc91906146cf565b6040516020818303038152906040528051906020012060001c905060006001600254836116e99190614719565b815481106116fa576116f961474a565b5b9060005260206000200154905061171081611715565b50505b565b6000806000838152602001908152602001600020600001540361176d576040517f08c379a000000000000000000000000000000000000000000000000000000000815260040161176490614104565b60405180910390fd5b600080600083815260200190815260200160002090503373ffffffffffffffffffffffffffffffffffffffff168160020160000160009054906101000a900473ffffffffffffffffffffffffffffffffffffffff1673ffffffffffffffffffffffffffffffffffffffff1603611818576040517f08c379a000000000000000000000000000000000000000000000000000000000815260040161180f906147c5565b60405180910390fd5b6001600254036118625760016000815481106118375761183661474a565b5b906000526020600020016000905560026000815480929190611858906147e5565b919050555061191c565b600081600e015490506000600160025461187c919061467a565b90506000600182815481106118945761189361474a565b5b9060005260206000200154905080600184815481106118b6576118b561474a565b5b906000526020600020018190555082600080838152602001908152602001600020600e0181905550600182815481106118f2576118f161474a565b5b906000526020600020016000905560026000815480929190611913906147e5565b91905055505050505b338160080160000160006101000a81548173ffffffffffffffffffffffffffffffffffffffff021916908373ffffffffffffffffffffffffffffffffffffffff16021790555060018160010160006101000a81548160ff0219169083600681111561198a57611989613ae3565b5b02179055507f87969bc7faf902221a147b95ceba76e011c5efb0339a0a8ee7a2bb82d9cfbbd682336040516119c09291906142fa565b60405180910390a15050565b60006001436119db919061467a565b6040516020016119eb91906146cf565b6040516020818303038152906040528051906020012060001c905060008060008381526020019081526020016000206000015414611a5e576040517f08c379a0000000000000000000000000000000000000000000000000000000008152600401611a5590614880565b60405180910390fd5b6000806000838152602001908152602001600020905081816000018190555060008160010160006101000a81548160ff02191690836006811115611aa557611aa4613ae3565b5b021790555060025481600e018190555060018054905060025403611af1576001829080600181540180825580915050600190039060005260206000200160009091909190915055611b17565b81600160025481548110611b0857611b0761474a565b5b90600052602060002001819055505b60026000815480929190611b2a906148a0565b9190505550338160020160000160006101000a81548173ffffffffffffffffffffffffffffffffffffffff021916908373ffffffffffffffffffffffffffffffffffffffff1602179055507fa0b7f6f22bb4f69adc52dd16ffe2a964ab8b577be274247fa9a1547b03ce3e5582604051611ba49190613e80565b60405180910390a15050565b8160008060008381526020019081526020016000206000015403611c09576040517f08c379a0000000000000000000000000000000000000000000000000000000008152600401611c0090614104565b60405180910390fd5b3373ffffffffffffffffffffffffffffffffffffffff1660008083815260200190815260200160002060020160000160009054906101000a900473ffffffffffffffffffffffffffffffffffffffff1673ffffffffffffffffffffffffffffffffffffffff161480611cde57503373ffffffffffffffffffffffffffffffffffffffff1660008083815260200190815260200160002060080160000160009054906101000a900473ffffffffffffffffffffffffffffffffffffffff1673ffffffffffffffffffffffffffffffffffffffff16145b611d1d576040517f08c379a0000000000000000000000000000000000000000000000000000000008152600401611d1490614170565b60405180910390fd5b826001806006811115611d3357611d32613ae3565b5b60008084815260200190815260200160002060010160009054906101000a900460ff166006811115611d6857611d67613ae3565b5b14611da8576040517f08c379a0000000000000000000000000000000000000000000000000000000008152600401611d9f906141dc565b60405180910390fd5b600080600087815260200190815260200160002090503373ffffffffffffffffffffffffffffffffffffffff168160020160000160009054906101000a900473ffffffffffffffffffffffffffffffffffffffff1673ffffffffffffffffffffffffffffffffffffffff1603611e2957848160020160010181905550611e36565b8481600801600101819055505b8060080160010154816002016001015403611eb65760028160010160006101000a81548160ff02191690836006811115611e7357611e72613ae3565b5b02179055507f49d0a3e35aea3c38dab75808edcf04c0cfae71b83c1a7ed55dc4e6a1bce8afc88686604051611ea99291906148e8565b60405180910390a1611ef2565b7f491d190755439e2ce91c7bed9989ef10d393e72ddb15dc0e75fe4c483998c263863387604051611ee993929190614911565b60405180910390a15b505050505050565b6000600254905090565b8060008060008381526020019081526020016000206000015403611f5d576040517f08c379a0000000000000000000000000000000000000000000000000000000008152600401611f5490614104565b60405180910390fd5b3373ffffffffffffffffffffffffffffffffffffffff1660008083815260200190815260200160002060020160000160009054906101000a900473ffffffffffffffffffffffffffffffffffffffff1673ffffffffffffffffffffffffffffffffffffffff16148061203257503373ffffffffffffffffffffffffffffffffffffffff1660008083815260200190815260200160002060080160000160009054906101000a900473ffffffffffffffffffffffffffffffffffffffff1673ffffffffffffffffffffffffffffffffffffffff16145b612071576040517f08c379a000000000000000000000000000000000000000000000000000000000815260040161206890614170565b60405180910390fd5b600080600084815260200190815260200160002090506003600681111561209b5761209a613ae3565b5b8160010160009054906101000a900460ff1660068111156120bf576120be613ae3565b5b14806121005750600460068111156120da576120d9613ae3565b5b8160010160009054906101000a900460ff1660068111156120fe576120fd613ae3565b5b145b8061214057506005600681111561211a57612119613ae3565b5b8160010160009054906101000a900460ff16600681111561213e5761213d613ae3565b5b145b61217f576040517f08c379a0000000000000000000000000000000000000000000000000000000008152600401612176906141dc565b60405180910390fd5b6000803373ffffffffffffffffffffffffffffffffffffffff168360020160000160009054906101000a900473ffffffffffffffffffffffffffffffffffffffff1673ffffffffffffffffffffffffffffffffffffffff16036121ed578260020191508260080190506121fa565b8260080191508260020190505b8160030160009054906101000a900460ff161561224c576040517f08c379a0000000000000000000000000000000000000000000000000000000008152600401612243906149ba565b60405180910390fd5b8060030160009054906101000a900460ff161561229e576040517f08c379a000000000000000000000000000000000000000000000000000000000815260040161229590614a4c565b60405180910390fd5b60018160030160006101000a81548160ff0219169083151502179055504381600401819055507f9ce0aa7025d616473a01671a650cb659690a7dacc113158da2294c8b131a25e685336040516122f59291906142fa565b60405180910390a15050505050565b806000806000838152602001908152602001600020600001540361235d576040517f08c379a000000000000000000000000000000000000000000000000000000000815260040161235490614104565b60405180910390fd5b3373ffffffffffffffffffffffffffffffffffffffff1660008083815260200190815260200160002060020160000160009054906101000a900473ffffffffffffffffffffffffffffffffffffffff1673ffffffffffffffffffffffffffffffffffffffff16148061243257503373ffffffffffffffffffffffffffffffffffffffff1660008083815260200190815260200160002060080160000160009054906101000a900473ffffffffffffffffffffffffffffffffffffffff1673ffffffffffffffffffffffffffffffffffffffff16145b612471576040517f08c379a000000000000000000000000000000000000000000000000000000000815260040161246890614170565b60405180910390fd5b600080600084815260200190815260200160002090506000803373ffffffffffffffffffffffffffffffffffffffff168360020160000160009054906101000a900473ffffffffffffffffffffffffffffffffffffffff1673ffffffffffffffffffffffffffffffffffffffff16036124f557826002019150826008019050612502565b8260080191508260020190505b8060030160009054906101000a900460ff16612553576040517f08c379a000000000000000000000000000000000000000000000000000000000815260040161254a90614ade565b60405180910390fd5b43600582600401546125659190614afe565b101561269b5760068360010160006101000a81548160ff0219169083600681111561259357612592613ae3565b5b02179055508160000160009054906101000a900473ffffffffffffffffffffffffffffffffffffffff1683600f0160016101000a81548173ffffffffffffffffffffffffffffffffffffffff021916908373ffffffffffffffffffffffffffffffffffffffff1602179055507f35521ad379f18fb3a8d3f2b8ad58c2ebd2f0b1d95a559c0d7c7e5428abb273128560405161262e9190613e80565b60405180910390a17f668ce4ca171dee87d4d9d2b5d3dc31963fe7fbe50b982064dddb0fb9d56aee8b8584600f0160019054906101000a900473ffffffffffffffffffffffffffffffffffffffff1660405161268b9291906142fa565b60405180910390a15050506126d6565b7f3334044400dc5124bf45e9d12931dc5b329c2a143dfa2f0c10634249d178e7ad856040516126ca9190613e80565b60405180910390a15050505b5050565b8160008060008381526020019081526020016000206000015403612733576040517f08c379a000000000000000000000000000000000000000000000000000000000815260040161272a90614104565b60405180910390fd5b3373ffffffffffffffffffffffffffffffffffffffff1660008083815260200190815260200160002060020160000160009054906101000a900473ffffffffffffffffffffffffffffffffffffffff1673ffffffffffffffffffffffffffffffffffffffff16148061280857503373ffffffffffffffffffffffffffffffffffffffff1660008083815260200190815260200160002060080160000160009054906101000a900473ffffffffffffffffffffffffffffffffffffffff1673ffffffffffffffffffffffffffffffffffffffff16145b612847576040517f08c379a000000000000000000000000000000000000000000000000000000000815260040161283e90614170565b60405180910390fd5b82600280600681111561285d5761285c613ae3565b5b60008084815260200190815260200160002060010160009054906101000a900460ff16600681111561289257612891613ae3565b5b146128d2576040517f08c379a00000000000000000000000000000000000000000000000000000000081526004016128c9906141dc565b60405180910390fd5b6000806000878152602001908152602001600020905060003373ffffffffffffffffffffffffffffffffffffffff168260020160000160009054906101000a900473ffffffffffffffffffffffffffffffffffffffff1673ffffffffffffffffffffffffffffffffffffffff161461294d5781600801612952565b816002015b9050600081600201541461299b576040517f08c379a000000000000000000000000000000000000000000000000000000000815260040161299290614b7e565b60405180910390fd5b633b9aca0081600101546129af9190614638565b34146129f0576040517f08c379a00000000000000000000000000000000000000000000000000000000081526004016129e790614c10565b60405180910390fd5b8581600201819055506000826002016002015414158015612a1957506000826008016002015414155b15612b015760038260010160006101000a81548160ff02191690836006811115612a4657612a45613ae3565b5b021790555060ff8260080160050160116101000a81548160ff021916908360ff16021790558260020160050160116101000a81548160ff021916908360ff1602179055507f010d29992f394ceed8a8aed324eeba56758ab368faf07ca79af9fffe7953b8eb873388604051612abd93929190614911565b60405180910390a17f50ad08f58a27f2851d7e3a1b3a6a46b290f2ce677e99642d30ff639721e7779087604051612af49190613e80565b60405180910390a1612b3d565b7f010d29992f394ceed8a8aed324eeba56758ab368faf07ca79af9fffe7953b8eb873388604051612b3493929190614911565b60405180910390a15b50505050505050565b8260008060008381526020019081526020016000206000015403612b9f576040517f08c379a0000000000000000000000000000000000000000000000000000000008152600401612b9690614104565b60405180910390fd5b3373ffffffffffffffffffffffffffffffffffffffff1660008083815260200190815260200160002060020160000160009054906101000a900473ffffffffffffffffffffffffffffffffffffffff1673ffffffffffffffffffffffffffffffffffffffff161480612c7457503373ffffffffffffffffffffffffffffffffffffffff1660008083815260200190815260200160002060080160000160009054906101000a900473ffffffffffffffffffffffffffffffffffffffff1673ffffffffffffffffffffffffffffffffffffffff16145b612cb3576040517f08c379a0000000000000000000000000000000000000000000000000000000008152600401612caa90614170565b60405180910390fd5b836005806006811115612cc957612cc8613ae3565b5b60008084815260200190815260200160002060010160009054906101000a900460ff166006811115612cfe57612cfd613ae3565b5b14612d3e576040517f08c379a0000000000000000000000000000000000000000000000000000000008152600401612d35906141dc565b60405180910390fd5b600080600088815260200190815260200160002090506000803373ffffffffffffffffffffffffffffffffffffffff168360020160000160009054906101000a900473ffffffffffffffffffffffffffffffffffffffff1673ffffffffffffffffffffffffffffffffffffffff1603612dc257826002019150826008019050612dcf565b8260080191508260020190505b8160050160129054906101000a900460ff1615612e21576040517f08c379a0000000000000000000000000000000000000000000000000000000008152600401612e1890614c7c565b60405180910390fd5b60408014612e64576040517f08c379a0000000000000000000000000000000000000000000000000000000008152600401612e5b90614ce8565b60405180910390fd5b60058014612ea7576040517f08c379a0000000000000000000000000000000000000000000000000000000008152600401612e9e90614d54565b60405180910390fd5b6000612eb289613648565b905060008167ffffffffffffffff161480612ed95750612ed78360020154828a613774565b155b156130115760068460010160006101000a81548160ff02191690836006811115612f0657612f05613ae3565b5b02179055508160000160009054906101000a900473ffffffffffffffffffffffffffffffffffffffff1684600f0160016101000a81548173ffffffffffffffffffffffffffffffffffffffff021916908373ffffffffffffffffffffffffffffffffffffffff1602179055507fa94eb170965acb1cb9de7b8c291cb52184d88fe98c0710bbb74068e2efb6f8708a33604051612fa39291906142fa565b60405180910390a17f668ce4ca171dee87d4d9d2b5d3dc31963fe7fbe50b982064dddb0fb9d56aee8b8a85600f0160019054906101000a900473ffffffffffffffffffffffffffffffffffffffff166040516130009291906142fa565b60405180910390a150505050613296565b61301b8a846133af565b156130295750505050613296565b808360050160086101000a81548167ffffffffffffffff021916908367ffffffffffffffff16021790555060018360050160126101000a81548160ff0219169083151502179055508160050160129054906101000a900460ff1615613291578160050160109054906101000a900460ff1660ff168360050160109054906101000a900460ff1660ff161115613124578260000160009054906101000a900473ffffffffffffffffffffffffffffffffffffffff1684600f0160016101000a81548173ffffffffffffffffffffffffffffffffffffffff021916908373ffffffffffffffffffffffffffffffffffffffff160217905550613206565b8260050160109054906101000a900460ff1660ff168260050160109054906101000a900460ff1660ff1611156131c0578160000160009054906101000a900473ffffffffffffffffffffffffffffffffffffffff1684600f0160016101000a81548173ffffffffffffffffffffffffffffffffffffffff021916908373ffffffffffffffffffffffffffffffffffffffff160217905550613205565b600084600f0160016101000a81548173ffffffffffffffffffffffffffffffffffffffff021916908373ffffffffffffffffffffffffffffffffffffffff1602179055505b5b60068460010160006101000a81548160ff0219169083600681111561322e5761322d613ae3565b5b02179055507f668ce4ca171dee87d4d9d2b5d3dc31963fe7fbe50b982064dddb0fb9d56aee8b8a85600f0160019054906101000a900473ffffffffffffffffffffffffffffffffffffffff166040516132889291906142fa565b60405180910390a15b505050505b505050505050565b60008085856040516020016132b4929190614dbc565b6040516020818303038152906040528051906020012060001c905060005b60068160ff16101561339f5760006001891660ff16036133395781858260ff16600681106133035761330261474a565b5b6020020151604051602001613319929190614de8565b6040516020818303038152906040528051906020012060001c9150613382565b848160ff166006811061334f5761334e61474a565b5b602002015182604051602001613366929190614de8565b6040516020818303038152906040528051906020012060001c91505b60018860ff16901c9750808061339790614352565b9150506132d2565b5082811491505095945050505050565b60008160030160009054906101000a900460ff161561363d5743600583600401546133da9190614afe565b106134465760008260030160006101000a81548160ff021916908315150217905550600082600401819055507f6824f9e34be35e97c705482a7ab710d7937229bc22528770aae7ec1ad6a7417a836040516134359190613e80565b60405180910390a160009050613642565b6000806000858152602001908152602001600020905060068160010160006101000a81548160ff0219169083600681111561348457613483613ae3565b5b02179055508060020160000160009054906101000a900473ffffffffffffffffffffffffffffffffffffffff1673ffffffffffffffffffffffffffffffffffffffff168360000160009054906101000a900473ffffffffffffffffffffffffffffffffffffffff1673ffffffffffffffffffffffffffffffffffffffff1614613534578060020160000160009054906101000a900473ffffffffffffffffffffffffffffffffffffffff1661355d565b8060080160000160009054906101000a900473ffffffffffffffffffffffffffffffffffffffff165b81600f0160016101000a81548173ffffffffffffffffffffffffffffffffffffffff021916908373ffffffffffffffffffffffffffffffffffffffff1602179055507f35521ad379f18fb3a8d3f2b8ad58c2ebd2f0b1d95a559c0d7c7e5428abb27312846040516135ce9190613e80565b60405180910390a17f668ce4ca171dee87d4d9d2b5d3dc31963fe7fbe50b982064dddb0fb9d56aee8b8482600f0160019054906101000a900473ffffffffffffffffffffffffffffffffffffffff1660405161362b9291906142fa565b60405180910390a16001915050613642565b600090505b92915050565b6000806000905060006040518060a00160405280600560ff168152602001600460ff168152602001600360ff168152602001600260ff168152602001600260ff16815250905060005b60058160ff16101561376857603f858260ff16600581106136b5576136b461474a565b5b60200201516000015160ff1611156136d3576000935050505061376f565b61373583868360ff16600581106136ed576136ec61474a565b5b602002015160000151878460ff166005811061370c5761370b61474a565b5b602002015160200151858560ff166005811061372b5761372a61474a565b5b6020020151613944565b925060008367ffffffffffffffff1603613755576000935050505061376f565b808061376090614352565b915050613691565b5081925050505b919050565b600080600090506000806040905061378a613a4e565b600093505b8160ff168460ff161015613834576001808560ff168967ffffffffffffffff16901c1667ffffffffffffffff1614868560ff16604081106137d3576137d261474a565b5b60200201516040516020016137e9929190614dbc565b6040516020818303038152906040528051906020012060001c818560ff16604081106138185761381761474a565b5b602002018181525050838061382c90614352565b94505061378f565b60018260ff16901c91505b60008260ff161461391c57600092508293505b8160ff168460ff16101561390d57808360ff16604081106138765761387561474a565b5b60200201518160018561388991906143c1565b60ff166040811061389d5761389c61474a565b5b60200201516040516020016138b3929190614de8565b6040516020818303038152906040528051906020012060001c818560ff16604081106138e2576138e161474a565b5b6020020181815250506002836138f891906143c1565b9250838061390590614352565b945050613852565b60018260ff16901c915061383f565b87816000604081106139315761393061474a565b5b6020020151149450505050509392505050565b60008360ff166001901b85179450821561396c5760018461396591906143c1565b935061397c565b60088461397991906143c1565b93505b6000600190505b8260ff168160ff161015613a41578380156139a4575060006007861660ff16145b156139b3576000915050613a46565b831580156139c45750603f8560ff16115b156139d3576000915050613a46565b60008560ff166001901b871667ffffffffffffffff16146139f8576000915050613a46565b8460ff166001901b861795508315613a1e57600185613a1791906143c1565b9450613a2e565b600885613a2b91906143c1565b94505b8080613a3990614352565b915050613983565b508490505b949350505050565b604051806108000160405280604090602082028036833780820191505090505090565b6000604051905090565b600080fd5b6000819050919050565b613a9381613a80565b8114613a9e57600080fd5b50565b600081359050613ab081613a8a565b92915050565b600060208284031215613acc57613acb613a7b565b5b6000613ada84828501613aa1565b91505092915050565b7f4e487b7100000000000000000000000000000000000000000000000000000000600052602160045260246000fd5b60078110613b2357613b22613ae3565b5b50565b6000819050613b3482613b12565b919050565b6000613b4482613b26565b9050919050565b613b5481613b39565b82525050565b6000602082019050613b6f6000830184613b4b565b92915050565b60008115159050919050565b613b8a81613b75565b8114613b9557600080fd5b50565b600081359050613ba781613b81565b92915050565b600080fd5b6000601f19601f8301169050919050565b7f4e487b7100000000000000000000000000000000000000000000000000000000600052604160045260246000fd5b613bfb82613bb2565b810181811067ffffffffffffffff82111715613c1a57613c19613bc3565b5b80604052505050565b6000613c2d613a71565b9050613c398282613bf2565b919050565b600067ffffffffffffffff821115613c5957613c58613bc3565b5b602082029050919050565b600080fd5b6000613c7c613c7784613c3e565b613c23565b90508060208402830185811115613c9657613c95613c64565b5b835b81811015613cbf5780613cab8882613aa1565b845260208401935050602081019050613c98565b5050509392505050565b600082601f830112613cde57613cdd613bad565b5b6006613ceb848285613c69565b91505092915050565b6000806000806101208587031215613d0f57613d0e613a7b565b5b6000613d1d87828801613aa1565b9450506020613d2e87828801613b98565b9350506040613d3f87828801613aa1565b9250506060613d5087828801613cc9565b91505092959194509250565b600060ff82169050919050565b613d7281613d5c565b8114613d7d57600080fd5b50565b600081359050613d8f81613d69565b92915050565b60008060408385031215613dac57613dab613a7b565b5b6000613dba85828601613aa1565b9250506020613dcb85828601613d80565b9150509250929050565b600073ffffffffffffffffffffffffffffffffffffffff82169050919050565b6000613e0082613dd5565b9050919050565b613e1081613df5565b82525050565b6000602082019050613e2b6000830184613e07565b92915050565b60008060408385031215613e4857613e47613a7b565b5b6000613e5685828601613aa1565b9250506020613e6785828601613aa1565b9150509250929050565b613e7a81613a80565b82525050565b6000602082019050613e956000830184613e71565b92915050565b600067ffffffffffffffff821115613eb657613eb5613bc3565b5b602082029050919050565b600080fd5b600060408284031215613edc57613edb613ec1565b5b613ee66040613c23565b90506000613ef684828501613d80565b6000830152506020613f0a84828501613b98565b60208301525092915050565b6000613f29613f2484613e9b565b613c23565b90508060408402830185811115613f4357613f42613c64565b5b835b81811015613f6c5780613f588882613ec6565b845260208401935050604081019050613f45565b5050509392505050565b600082601f830112613f8b57613f8a613bad565b5b6005613f98848285613f16565b91505092915050565b600067ffffffffffffffff821115613fbc57613fbb613bc3565b5b602082029050919050565b6000613fda613fd584613fa1565b613c23565b90508060208402830185811115613ff457613ff3613c64565b5b835b8181101561401d57806140098882613aa1565b845260208401935050602081019050613ff6565b5050509392505050565b600082601f83011261403c5761403b613bad565b5b6040614049848285613fc7565b91505092915050565b6000806000610960848603121561406c5761406b613a7b565b5b600061407a86828701613aa1565b935050602061408b86828701613f76565b92505061016061409d86828701614027565b9150509250925092565b600082825260208201905092915050565b7f47616d6520646f6573206e6f7420657869737400000000000000000000000000600082015250565b60006140ee6013836140a7565b91506140f9826140b8565b602082019050919050565b6000602082019050818103600083015261411d816140e1565b9050919050565b7f596f7520617265206e6f7420696e20746869732067616d650000000000000000600082015250565b600061415a6018836140a7565b915061416582614124565b602082019050919050565b600060208201905081810360008301526141898161414d565b9050919050565b7f47616d65206973206e6f7420696e2074686520636f7272656374207374617465600082015250565b60006141c66020836140a7565b91506141d182614190565b602082019050919050565b600060208201905081810360008301526141f5816141b9565b9050919050565b7f496e76616c69642070726f6f662c206974206d75737420626520616e2061727260008201527f6179206f66203620686173686573000000000000000000000000000000000000602082015250565b6000614258602e836140a7565b9150614263826141fc565b604082019050919050565b600060208201905081810360008301526142878161424b565b9050919050565b7f596f7520616c72656164792072657665616c656420746865206d6f7665000000600082015250565b60006142c4601d836140a7565b91506142cf8261428e565b602082019050919050565b600060208201905081810360008301526142f3816142b7565b9050919050565b600060408201905061430f6000830185613e71565b61431c6020830184613e07565b9392505050565b7f4e487b7100000000000000000000000000000000000000000000000000000000600052601160045260246000fd5b600061435d82613d5c565b915060ff82036143705761436f614323565b5b600182019050919050565b61438481613d5c565b82525050565b600060608201905061439f6000830186613e71565b6143ac6020830185613e07565b6143b9604083018461437b565b949350505050565b60006143cc82613d5c565b91506143d783613d5c565b9250828201905060ff8111156143f0576143ef614323565b5b92915050565b7f496e76616c696420706f736974696f6e00000000000000000000000000000000600082015250565b600061442c6010836140a7565b9150614437826143f6565b602082019050919050565b6000602082019050818103600083015261445b8161441f565b9050919050565b7f596f7520616c72656164792070726f706f7365642061206d6f76650000000000600082015250565b6000614498601b836140a7565b91506144a382614462565b602082019050919050565b600060208201905081810360008301526144c78161448b565b9050919050565b7f506f736974696f6e20616c72656164792072657665616c656400000000000000600082015250565b60006145046019836140a7565b915061450f826144ce565b602082019050919050565b60006020820190508181036000830152614533816144f7565b9050919050565b7f596f7520617265206e6f74207468652077696e6e6572206f662074686973206760008201527f616d650000000000000000000000000000000000000000000000000000000000602082015250565b60006145966023836140a7565b91506145a18261453a565b604082019050919050565b600060208201905081810360008301526145c581614589565b9050919050565b7f596f7520616c7265616479207769746864726177656400000000000000000000600082015250565b60006146026016836140a7565b915061460d826145cc565b602082019050919050565b60006020820190508181036000830152614631816145f5565b9050919050565b600061464382613a80565b915061464e83613a80565b925082820261465c81613a80565b9150828204841483151761467357614672614323565b5b5092915050565b600061468582613a80565b915061469083613a80565b92508282039050818111156146a8576146a7614323565b5b92915050565b6000819050919050565b6146c96146c482613a80565b6146ae565b82525050565b60006146db82846146b8565b60208201915081905092915050565b7f4e487b7100000000000000000000000000000000000000000000000000000000600052601260045260246000fd5b600061472482613a80565b915061472f83613a80565b92508261473f5761473e6146ea565b5b828206905092915050565b7f4e487b7100000000000000000000000000000000000000000000000000000000600052603260045260246000fd5b7f596f752061726520616c726561647920696e20746869732067616d6500000000600082015250565b60006147af601c836140a7565b91506147ba82614779565b602082019050919050565b600060208201905081810360008301526147de816147a2565b9050919050565b60006147f082613a80565b91506000820361480357614802614323565b5b600182039050919050565b7f43616e2774206372656174652061206e65772067616d6520617420746865206d60008201527f6f6d656e742c2072657472790000000000000000000000000000000000000000602082015250565b600061486a602c836140a7565b91506148758261480e565b604082019050919050565b600060208201905081810360008301526148998161485d565b9050919050565b60006148ab82613a80565b91507fffffffffffffffffffffffffffffffffffffffffffffffffffffffffffffffff82036148dd576148dc614323565b5b600182019050919050565b60006040820190506148fd6000830185613e71565b61490a6020830184613e71565b9392505050565b60006060820190506149266000830186613e71565b6149336020830185613e07565b6149406040830184613e71565b949350505050565b7f596f752061726520756e6465722061636375736174696f6e2c2063616e27742060008201527f6d616b65206f74686572206d6f76657300000000000000000000000000000000602082015250565b60006149a46030836140a7565b91506149af82614948565b604082019050919050565b600060208201905081810360008301526149d381614997565b9050919050565b7f4f70706f6e656e7420697320616c726561647920756e6465722061636375736160008201527f74696f6e00000000000000000000000000000000000000000000000000000000602082015250565b6000614a366024836140a7565b9150614a41826149da565b604082019050919050565b60006020820190508181036000830152614a6581614a29565b9050919050565b7f596f7572206f70706f6e656e74206973206e6f7420756e64657220616363757360008201527f6174696f6e000000000000000000000000000000000000000000000000000000602082015250565b6000614ac86025836140a7565b9150614ad382614a6c565b604082019050919050565b60006020820190508181036000830152614af781614abb565b9050919050565b6000614b0982613a80565b9150614b1483613a80565b9250828201905080821115614b2c57614b2b614323565b5b92915050565b7f596f7520616c726561647920636f6d6d69747465642074686520626f61726400600082015250565b6000614b68601f836140a7565b9150614b7382614b32565b602082019050919050565b60006020820190508181036000830152614b9781614b5b565b9050919050565b7f596f75206d75737420706179207468652066656520746f20636f6d6d6974207460008201527f686520626f617264000000000000000000000000000000000000000000000000602082015250565b6000614bfa6028836140a7565b9150614c0582614b9e565b604082019050919050565b60006020820190508181036000830152614c2981614bed565b9050919050565b7f596f7520616c72656164792072657665616c65642074686520626f6172640000600082015250565b6000614c66601e836140a7565b9150614c7182614c30565b602082019050919050565b60006020820190508181036000830152614c9581614c59565b9050919050565b7f496e76616c6964206e6f6e636573206c656e6774680000000000000000000000600082015250565b6000614cd26015836140a7565b9150614cdd82614c9c565b602082019050919050565b60006020820190508181036000830152614d0181614cc5565b9050919050565b7f496e76616c6964207368697073206c656e677468000000000000000000000000600082015250565b6000614d3e6014836140a7565b9150614d4982614d08565b602082019050919050565b60006020820190508181036000830152614d6d81614d31565b9050919050565b60008160f81b9050919050565b6000614d8c82614d74565b9050919050565b6000614d9e82614d81565b9050919050565b614db6614db182613b75565b614d93565b82525050565b6000614dc88285614da5565b600182019150614dd882846146b8565b6020820191508190509392505050565b6000614df482856146b8565b602082019150614e0482846146b8565b602082019150819050939250505056fea2646970667358221220b732bfd7e364fdffcfd6f90ddcf82b54878cb21b2cdce34ca00b312b736de46e64736f6c63430008130033",
  "immutableReferences": {},
  "source": "// SPDX-License-Identifier: MIT\npragma solidity >=0.4.22 <0.9.0;\n\n/*\n    The board is fixed to 8x8\n    with the following pieces:\n    - 1x Aircraft Carrier (5 squares)\n    - 1x Battleship (4 squares)\n    - 1x Cruiser (3 squares)\n    - 2x Destroyers (2 squares)\n\n    So we can terminate the game when:\n    - 1 player has 16 hits\n    - all positions have been revealed\n\n    Merkle proof for a 64 position board (8x8):\n    - actual position state\n    - nonce used to generate the hash\n    - 6 hashes\n    - Merkle Hash (already stored in the contract)\n */\n\ncontract BattleShip {\n    uint8 private constant NO_MOVE = 255;\n    uint8 private constant MAX_HIT = 1; //16;\n    uint8 private constant MAX_ROUNDS = 64;\n\n    enum GameState {\n        // Game created but waiting for the second player to join\n        WaitingForOpponent,\n        // Players joined the game but need to agree on the fee\n        FeeNegotiation,\n        // Players agreed on the fee and need to commit the board\n        WaitingCommitment,\n        // Players committed the board and now the game starts\n        WaitingForMove,\n        // Players must submit Merkle proof in order to prove the move result\n        WaitingForProof,\n        // Game ended and now player must reveal the board\n        WaitingForReveal,\n        // Game ended and now we have a winner\n        GameOver\n    }\n\n    struct Ship {\n        uint8 start_position;\n        // true if horizontal, false if vertical\n        bool is_horizontal;\n    }\n\n    struct Player {\n        address user_id;\n        // Used to implement the fee negotiation, then to store the actual fee\n        uint256 proposed_fee;\n        // Used to implement the board commitment and check at the end\n        uint256 committed_board;\n        // Used to implements accusation\n        bool accused; // if true the player has been accused of leaving\n        uint256 accused_at; // represents the time when the player has been accused\n        // Used to store revealed board status and check at the end\n        // bitmap used to store the revealed positions\n        uint64 revealed_positions;\n        // bitmap used to store the actual hit\n        // only the actual bit at 1 in\n        // revealed_positions & position_status\n        // are the actual hits\n        uint64 position_status;\n        uint8 hits;\n        // Used to implement the move submission\n        uint8 move;\n        // Used to implement both the move reveal and the board reveal\n        bool revealed;\n        bool withdrawed;\n    }\n\n    struct Game {\n        uint256 game_id;\n        GameState game_state;\n        Player A;\n        Player B;\n        uint256 position_in_games_list;\n        uint8 rounds_elapsed;\n        address winner;\n    }\n\n    // Events to notify frontend\n    event NewGame(uint256 game_id);\n    event PlayerJoined(uint256 game_id, address player_id);\n    event FeeProposed(uint256 game_id, address player_id, uint256 fee);\n    event FeeAgreed(uint256 game_id, uint256 fee);\n    event BoardCommitted(uint256 game_id, address player_id, uint256 board);\n    event GameStarted(uint256 game_id);\n    event MoveProposed(uint256 game_id, address player_id, uint8 move);\n    event CheatingAttempt(uint256 game_id, address player_id);\n    event Hit(uint256 game_id, address player_id, uint8 position);\n    event Miss(uint256 game_id, address player_id, uint8 position);\n    event NextRound(uint256 game_id);\n    event EndOfGame(uint256 game_id);\n    event GameOver(uint256 game_id, address winner);\n    event AccusationRequest(uint256 game_id, address player_id);\n    event AccusationElapsed(uint256 game_id);\n    event AccusationRetired(uint256 game_id);\n    event AccusationInPlace(uint256 game_id);\n\n    // Collects actual games data, used for the game evolution\n    mapping(uint256 => Game) private id2game;\n    // Collects games which are pending for players to join\n    // used for random matchmaking and game join\n    uint256[] private free_games;\n    uint256 private free_games_count;\n\n    // NB: public because it is both used by the frontend and the contract itself\n    function new_game() public {\n        uint256 game_id = uint256(\n            keccak256(abi.encodePacked(block.number - 1))\n        );\n\n        require(\n            id2game[game_id].game_id == 0,\n            \"Can't create a new game at the moment, retry\"\n        );\n\n        Game storage game = id2game[game_id];\n        game.game_id = game_id;\n        game.game_state = GameState.WaitingForOpponent;\n        game.position_in_games_list = free_games_count;\n        if (free_games_count == free_games.length) {\n            free_games.push(game_id);\n        } else {\n            free_games[free_games_count] = game_id;\n        }\n        free_games_count++;\n\n        game.A.user_id = msg.sender;\n\n        emit NewGame(game_id);\n    }\n\n    // NB: public because it is both used by the frontend and the contract itself\n    function join_game(uint256 game_id) public {\n        require(id2game[game_id].game_id != 0, \"Game does not exist\");\n\n        Game storage current_game = id2game[game_id];\n        require(\n            current_game.A.user_id != msg.sender,\n            \"You are already in this game\"\n        );\n\n        // Remove the game from the list of available games\n        if (free_games_count == 1) {\n            // if only one element, just remove it\n            delete free_games[0];\n            free_games_count--;\n        } else {\n            // otherwise swap the current game with the last one\n            // and then remove the last one and update it's position\n            // in the list\n            uint256 current_position = current_game.position_in_games_list;\n            uint256 last_position = free_games_count - 1;\n            uint256 last_game_id = free_games[last_position];\n\n            free_games[current_position] = last_game_id;\n            id2game[last_game_id].position_in_games_list = current_position;\n            delete free_games[last_position];\n            free_games_count--;\n        }\n\n        // Update game infos\n        // Assign the opponet player\n        current_game.B.user_id = msg.sender;\n\n        // Move game to fee negotiation\n        current_game.game_state = GameState.FeeNegotiation;\n\n        emit PlayerJoined(game_id, msg.sender);\n    }\n\n    // If no game exists just create one\n    // otherwise join random game\n    // then returns the game_id\n    // and a boolean to indicate if the game is new or not\n    function join_random_game() external {\n        if (free_games_count == 0) {\n            new_game();\n        } else {\n            // make choice at random\n            uint256 random_index = uint256(\n                keccak256(abi.encodePacked(block.number - 1))\n            );\n\n            uint256 game_id = free_games[random_index % free_games_count];\n            join_game(game_id);\n        }\n    }\n\n    modifier player_in_game(uint256 game_id) {\n        // Check that the game exists\n        require(id2game[game_id].game_id != 0, \"Game does not exist\");\n\n        // Check that user is in the game\n        require(\n            id2game[game_id].A.user_id == msg.sender ||\n                id2game[game_id].B.user_id == msg.sender,\n            \"You are not in this game\"\n        );\n        _;\n    }\n\n    modifier check_game_state(uint256 game_id, GameState game_state) {\n        // Check that the game is in the correct state\n        require(\n            id2game[game_id].game_state == game_state,\n            \"Game is not in the correct state\"\n        );\n        _;\n    }\n\n    // Propose fee until both players agree on the same fee\n    function propose_fee(\n        uint256 game_id,\n        uint256 fee\n    )\n        external\n        player_in_game(game_id)\n        check_game_state(game_id, GameState.FeeNegotiation)\n    {\n        Game storage current_game = id2game[game_id];\n\n        // Update fee proposal\n        if (current_game.A.user_id == msg.sender) {\n            current_game.A.proposed_fee = fee;\n        } else {\n            current_game.B.proposed_fee = fee;\n        }\n\n        // Manage notification to frontend and game state\n        // Both players agreed on the fee\n        if (current_game.A.proposed_fee == current_game.B.proposed_fee) {\n            current_game.game_state = GameState.WaitingCommitment;\n            emit FeeAgreed(game_id, fee);\n        }\n        // Otherwise just notify the frontend to continue the negotiation\n        else {\n            emit FeeProposed(game_id, msg.sender, fee);\n        }\n    }\n\n    function commit_board(\n        uint256 game_id,\n        uint256 board\n    )\n        external\n        payable\n        player_in_game(game_id)\n        check_game_state(game_id, GameState.WaitingCommitment)\n    {\n        Game storage current_game = id2game[game_id];\n\n        Player storage player = (current_game.A.user_id == msg.sender)\n            ? current_game.A\n            : current_game.B;\n\n        // Check that user did not already commit the board\n        // otherwise it would double pay\n        require(player.committed_board == 0, \"You already committed the board\");\n\n        // Check that the fee has been paid\n        // proposed_fee SHOULD be the same at this point\n        require(\n            msg.value == player.proposed_fee *1e9,\n            \"You must pay the fee to commit the board\"\n        );\n\n        // Update committed board\n        player.committed_board = board;\n\n        // Manage notification to frontend and game state\n        // Both players committed the board and payed the fee\n        if (\n            current_game.A.committed_board != 0 &&\n            current_game.B.committed_board != 0\n        ) {\n            current_game.game_state = GameState.WaitingForMove;\n            current_game.A.move = current_game.B.move = NO_MOVE;\n            emit BoardCommitted(game_id, msg.sender, board);\n            emit GameStarted(game_id);\n        }\n        // Otherwise just notify the frontend to continue wait for the other player\n        else {\n            emit BoardCommitted(game_id, msg.sender, board);\n        }\n    }\n\n    function submit_move(\n        uint256 game_id,\n        uint8 move\n    )\n        external\n        player_in_game(game_id)\n        check_game_state(game_id, GameState.WaitingForMove)\n    {\n        // Move must be in the range [0, 63] for a 8x8 board\n        require(move < 64, \"Invalid position\");\n        Game storage current_game = id2game[game_id];\n\n        Player storage player;\n        Player storage opponent;\n\n        if (current_game.A.user_id == msg.sender) {\n            player = current_game.A;\n            opponent = current_game.B;\n        } else {\n            player = current_game.B;\n            opponent = current_game.A;\n        }\n\n        // Check if user already proposed a move\n        require(player.move == NO_MOVE, \"You already proposed a move\");\n\n        // Check if positions has already been revealed\n        require(\n            (opponent.revealed_positions & (1 << move)) == 0,\n            \"Position already revealed\"\n        );\n\n        if (try_to_clean_accusation(game_id, player)) {\n            return;\n        }\n\n        // Update move\n        player.move = move;\n\n        emit MoveProposed(game_id, msg.sender, move);\n\n        // Check if opponent already proposed a move\n        if (opponent.move != NO_MOVE) {\n            // move to reveal phase\n            current_game.game_state = GameState.WaitingForProof;\n        }\n    }\n\n    function submit_proof(\n        uint256 game_id,\n        bool has_ship,\n        uint256 nonce,\n        uint256[6] memory proof\n    )\n        external\n        player_in_game(game_id)\n        check_game_state(game_id, GameState.WaitingForProof)\n    {\n        // Check that the proof has the needed length\n        require(\n            proof.length == 6,\n            \"Invalid proof, it must be an array of 6 hashes\"\n        );\n\n        Game storage current_game = id2game[game_id];\n\n        Player storage player;\n        Player storage opponent;\n\n        if (current_game.A.user_id == msg.sender) {\n            player = current_game.A;\n            opponent = current_game.B;\n        } else {\n            player = current_game.B;\n            opponent = current_game.A;\n        }\n\n        // check that the user has not already revealed the move\n        require(!player.revealed, \"You already revealed the move\");\n\n        // Check if the proof is valid\n        if (\n            !check_proof(\n                opponent.move,\n                has_ship,\n                nonce,\n                proof,\n                player.committed_board\n            )\n        ) {\n            // Cheating attempt: terminate the game and set the opponet as the winner\n            current_game.game_state = GameState.GameOver;\n            current_game.winner = opponent.user_id;\n            emit CheatingAttempt(game_id, msg.sender);\n            emit GameOver(game_id, current_game.winner);\n            return;\n        }\n\n        if (try_to_clean_accusation(game_id, player)) {\n            return;\n        }\n\n        // Update revealed positions\n        player.revealed_positions |= uint64(1 << opponent.move);\n\n        // Update position status\n        if (has_ship) {\n            opponent.position_status |= uint64(1 << player.move);\n            opponent.hits++;\n            emit Hit(game_id, opponent.user_id, opponent.move);\n        } else {\n            emit Miss(game_id, opponent.user_id, opponent.move);\n        }\n\n        // set the move as revealed\n        player.revealed = true;\n\n        // Check if reveal phase is over\n        if (opponent.revealed) {\n            current_game.rounds_elapsed += 1;\n            // Check if game is over\n            if (\n                opponent.hits == MAX_HIT ||\n                player.hits == MAX_HIT ||\n                current_game.rounds_elapsed == MAX_ROUNDS\n            ) {\n                // Game is over so user must reveal their boards\n                current_game.game_state = GameState.WaitingForReveal;\n                player.revealed = opponent.revealed = false;\n                emit EndOfGame(game_id);\n                return;\n            }\n            // Otherwise move to the next round\n            current_game.game_state = GameState.WaitingForMove;\n            player.move = opponent.move = NO_MOVE;\n            player.revealed = opponent.revealed = false;\n            emit NextRound(game_id);\n        }\n    }\n\n    function reveal_board(\n        uint256 game_id,\n        Ship[5] memory ships,\n        uint256[64] memory nonces\n    )\n        external\n        player_in_game(game_id)\n        check_game_state(game_id, GameState.WaitingForReveal)\n    {\n        Game storage current_game = id2game[game_id];\n\n        Player storage player;\n        Player storage opponent;\n\n        if (current_game.A.user_id == msg.sender) {\n            player = current_game.A;\n            opponent = current_game.B;\n        } else {\n            player = current_game.B;\n            opponent = current_game.A;\n        }\n\n        // Check that the user has not already revealed the board\n        require(!player.revealed, \"You already revealed the board\");\n\n        // Check that the user passed the right number of nonces\n        require(nonces.length == 64, \"Invalid nonces length\");\n\n        require(ships.length == 5, \"Invalid ships length\");\n\n        // If the board cannot be built, the user is cheating\n        uint64 board = build_board(ships);\n\n        // Check if ship placement is valid\n        // and that the board is the same as the committed one\n        if (\n            board == 0 ||\n            !check_board_proof(player.committed_board, board, nonces)\n        ) {\n            // Cheating attempt: terminate the game and set the opponet as the winner\n            current_game.game_state = GameState.GameOver;\n            current_game.winner = opponent.user_id;\n            emit CheatingAttempt(game_id, msg.sender);\n            emit GameOver(game_id, current_game.winner);\n            return;\n        }\n\n        if (try_to_clean_accusation(game_id, player)) {\n            return;\n        }\n\n        // Update revealed positions\n        player.position_status = board;\n        // Update user state to revealed\n        player.revealed = true;\n\n        // If both user revealed the board, the game is over\n        if (opponent.revealed) {\n            // Set winner\n            if (player.hits > opponent.hits) {\n                // player wins\n                current_game.winner = player.user_id;\n            } else if (opponent.hits > player.hits) {\n                // opponent wins\n                current_game.winner = opponent.user_id;\n            } else {\n                // draw\n                current_game.winner = address(0);\n            }\n            current_game.game_state = GameState.GameOver;\n            emit GameOver(game_id, current_game.winner);\n        }\n    }\n\n    function try_to_clean_accusation(\n        uint256 game_id,\n        Player storage current_player\n    ) private returns (bool) {\n        // Check if player is under accusation\n        if (current_player.accused) {\n            // If response is under time limit, the accusation is retired\n            if (current_player.accused_at + 5 >= block.number) {\n                current_player.accused = false;\n                current_player.accused_at = 0;\n                emit AccusationRetired(game_id);\n                return false;\n            } else {\n                // Otherwise the accusation is valid and the opponent wins\n                Game storage current_game = id2game[game_id];\n                current_game.game_state = GameState.GameOver;\n                current_game.winner = current_player.user_id ==\n                    current_game.A.user_id\n                    ? current_game.B.user_id\n                    : current_game.A.user_id;\n                emit AccusationElapsed(game_id);\n                emit GameOver(game_id, current_game.winner);\n                return true;\n            }\n        }\n\n        return false;\n    }\n\n    function withdraw(\n        uint256 game_id\n    )\n        external\n        player_in_game(game_id)\n        check_game_state(game_id, GameState.GameOver)\n    {\n        Game storage current_game = id2game[game_id];\n        require(\n            current_game.winner == msg.sender ||\n                current_game.winner == address(0),\n            \"You are not the winner of this game\"\n        );\n\n        Player storage player;\n\n        if (current_game.A.user_id == msg.sender) {\n            player = current_game.A;\n        } else {\n            player = current_game.B;\n        }\n\n        require(!player.withdrawed, \"You already withdrawed\");\n\n        uint256 amount = current_game.A.proposed_fee * 1e9;\n        if (current_game.winner != address(0)) {\n            amount <<= 1;\n        }\n\n        // Avoid reentrancy\n        player.withdrawed = true;\n        payable(msg.sender).transfer(amount);\n    }\n\n    function make_accusation(uint256 game_id) external player_in_game(game_id) {\n        // Check that the game is either in the waiting for move or waiting for proof/reveal state\n        Game storage current_game = id2game[game_id];\n\n        require(\n            current_game.game_state == GameState.WaitingForMove ||\n                current_game.game_state == GameState.WaitingForProof ||\n                current_game.game_state == GameState.WaitingForReveal,\n            \"Game is not in the correct state\"\n        );\n\n        Player storage player;\n        Player storage opponent;\n\n        if (current_game.A.user_id == msg.sender) {\n            player = current_game.A;\n            opponent = current_game.B;\n        } else {\n            player = current_game.B;\n            opponent = current_game.A;\n        }\n\n        // Check that the user is not currently under accusation\n        require(\n            !player.accused,\n            \"You are under accusation, can't make other moves\"\n        );\n\n        // Check that the other player is not currently under accusation\n        require(!opponent.accused, \"Opponent is already under accusation\");\n\n        opponent.accused = true;\n        opponent.accused_at = block.number;\n        emit AccusationRequest(game_id, msg.sender);\n    }\n\n    function check_accusation(\n        uint256 game_id\n    ) external player_in_game(game_id) {\n        Game storage current_game = id2game[game_id];\n\n        Player storage player;\n        Player storage opponent;\n\n        if (current_game.A.user_id == msg.sender) {\n            player = current_game.A;\n            opponent = current_game.B;\n        } else {\n            player = current_game.B;\n            opponent = current_game.A;\n        }\n\n        // Check if player is under accusation\n        require(opponent.accused, \"Your opponent is not under accusation\");\n\n        // If opponent did not respond in time, the accusation is valid\n        if (opponent.accused_at + 5 < block.number) {\n            current_game.game_state = GameState.GameOver;\n            current_game.winner = player.user_id;\n            emit AccusationElapsed(game_id);\n            emit GameOver(game_id, current_game.winner);\n            return;\n        }\n        emit AccusationInPlace(game_id);\n    }\n\n    /* Utility functions */\n\n    /* Assume that:\n        - index in [0, 63]\n        - proof.length == 6\n    */\n    function check_proof(\n        uint8 index,\n        bool has_ship,\n        uint256 nonce,\n        uint256[6] memory proof,\n        uint256 committed_board\n    ) private pure returns (bool) {\n        // build the leaf hash by hash(has_ship || nonce)\n        uint256 previous_hash = uint256(\n            keccak256(abi.encodePacked(has_ship, nonce))\n        );\n\n        for (uint8 i = 0; i < 6; i++) {\n            if (index & 1 == 0) {\n                // we are on the left side of the tree\n                previous_hash = uint256(\n                    keccak256(abi.encodePacked(previous_hash, proof[i]))\n                );\n            } else {\n                // we are on the right side of the tree\n                previous_hash = uint256(\n                    keccak256(abi.encodePacked(proof[i], previous_hash))\n                );\n            }\n            index = index >> 1;\n        }\n\n        return previous_hash == committed_board;\n    }\n\n    function check_board_proof(\n        uint256 committed_board,\n        uint64 board,\n        uint256[64] memory nonces\n    ) private pure returns (bool) {\n        // Compute Merkle tree root\n        uint8 i = 0;\n        uint8 j = 0;\n        uint8 actual_size = 64;\n\n        uint256[64] memory tree;\n\n        // Compute various hash(ship[i]  || nonces[i])\n        for (i = 0; i < actual_size; i++) {\n            tree[i] = uint256(\n                keccak256(abi.encodePacked(((board >> i) & 1) == 1, nonces[i]))\n            );\n        }\n\n        actual_size = actual_size >> 1;\n        while (actual_size != 0) {\n            for (i = j = 0; i < actual_size; i++) {\n                tree[i] = uint256(\n                    keccak256(abi.encodePacked(tree[j], tree[j + 1]))\n                );\n                j += 2;\n            }\n            actual_size = actual_size >> 1;\n        }\n\n        return tree[0] == committed_board;\n    }\n\n    function update_board(\n        uint64 current_board,\n        uint8 index,\n        bool is_horizontal,\n        uint8 ship_size\n    ) private pure returns (uint64) {\n        current_board |= uint64(1 << index);\n        if (is_horizontal) {\n            index += 1;\n        } else {\n            index += 8;\n        }\n\n        for (uint8 i = 1; i < ship_size; i++) {\n            // if ship is horizontal we can't be at the start of the row\n            if (is_horizontal && index & 0x7 == 0) {\n                return 0;\n            }\n            // if ship is vertical we can't be over the last row\n            if (!is_horizontal && index > 63) {\n                return 0;\n            }\n\n            // If the bit is already set, it means that there is a collision\n            if (current_board & uint64(1 << index) != 0) {\n                return 0;\n            }\n\n            // Update board\n            current_board |= uint64(1 << index);\n            if (is_horizontal) {\n                index += 1;\n            } else {\n                index += 8;\n            }\n        }\n\n        return current_board;\n    }\n\n    function build_board(Ship[5] memory ships) private pure returns (uint64) {\n        uint64 board = 0;\n        uint8[5] memory sizes = [5, 4, 3, 2, 2];\n\n        for (uint8 i = 0; i < 5; i++) {\n            if (ships[i].start_position > 63) {\n                return 0;\n            }\n\n            board = update_board(\n                board,\n                ships[i].start_position,\n                ships[i].is_horizontal,\n                sizes[i]\n            );\n            if (board == 0) {\n                return 0;\n            }\n        }\n\n        return board;\n    }\n\n    /* View functions */\n    // Return GameState\n    function get_game_state(uint256 game_id) external view returns (GameState) {\n        require(id2game[game_id].game_id != 0, \"Game does not exist\");\n        return id2game[game_id].game_state;\n    }\n\n    function get_free_games_length() external view returns (uint256) {\n        return free_games_count;\n    }\n\n    function get_opponent(uint256 game_id) external view returns (address) {\n        require(id2game[game_id].game_id != 0, \"Game does not exist\");\n        Game storage current_game = id2game[game_id];\n        if (current_game.A.user_id == msg.sender) {\n            return current_game.B.user_id;\n        } else {\n            return current_game.A.user_id;\n        }\n    }\n}\n",
  "sourcePath": "/home/drw0if/p2p/battleship/contracts/BattleShip.sol",
  "compiler": {
    "name": "solc",
    "version": "0.8.19+commit.7dd6d404.Emscripten.clang"
  },
  "schemaVersion": "3.4.16",
  "updatedAt": "2023-12-30T12:36:12.641Z",
  "networkType": "ethereum",
  "devdoc": {
    "kind": "dev",
    "methods": {},
    "version": 1
  },
  "userdoc": {
    "kind": "user",
    "methods": {},
    "version": 1
  }
}