{
  "contractName": "BattleShip",
  "abi": [
    {
      "anonymous": false,
      "inputs": [
        {
          "indexed": false,
          "internalType": "uint256",
          "name": "game_id",
          "type": "uint256"
        },
        {
          "indexed": false,
          "internalType": "address",
          "name": "player_id",
          "type": "address"
        }
      ],
      "name": "AccusationRequest",
      "type": "event"
    },
    {
      "anonymous": false,
      "inputs": [
        {
          "indexed": false,
          "internalType": "uint256",
          "name": "game_id",
          "type": "uint256"
        },
        {
          "indexed": false,
          "internalType": "address",
          "name": "player_id",
          "type": "address"
        },
        {
          "indexed": false,
          "internalType": "uint256",
          "name": "board",
          "type": "uint256"
        }
      ],
      "name": "BoardCommitted",
      "type": "event"
    },
    {
      "anonymous": false,
      "inputs": [
        {
          "indexed": false,
          "internalType": "uint256",
          "name": "game_id",
          "type": "uint256"
        },
        {
          "indexed": false,
          "internalType": "address",
          "name": "player_id",
          "type": "address"
        }
      ],
      "name": "CheatingAttempt",
      "type": "event"
    },
    {
      "anonymous": false,
      "inputs": [
        {
          "indexed": false,
          "internalType": "uint256",
          "name": "game_id",
          "type": "uint256"
        }
      ],
      "name": "EndOfGame",
      "type": "event"
    },
    {
      "anonymous": false,
      "inputs": [
        {
          "indexed": false,
          "internalType": "uint256",
          "name": "game_id",
          "type": "uint256"
        },
        {
          "indexed": false,
          "internalType": "uint256",
          "name": "fee",
          "type": "uint256"
        }
      ],
      "name": "FeeAgreed",
      "type": "event"
    },
    {
      "anonymous": false,
      "inputs": [
        {
          "indexed": false,
          "internalType": "uint256",
          "name": "game_id",
          "type": "uint256"
        },
        {
          "indexed": false,
          "internalType": "address",
          "name": "player_id",
          "type": "address"
        },
        {
          "indexed": false,
          "internalType": "uint256",
          "name": "fee",
          "type": "uint256"
        }
      ],
      "name": "FeeProposed",
      "type": "event"
    },
    {
      "anonymous": false,
      "inputs": [
        {
          "indexed": false,
          "internalType": "uint256",
          "name": "game_id",
          "type": "uint256"
        },
        {
          "indexed": false,
          "internalType": "address",
          "name": "winner",
          "type": "address"
        }
      ],
      "name": "GameOver",
      "type": "event"
    },
    {
      "anonymous": false,
      "inputs": [
        {
          "indexed": false,
          "internalType": "uint256",
          "name": "game_id",
          "type": "uint256"
        }
      ],
      "name": "GameStarted",
      "type": "event"
    },
    {
      "anonymous": false,
      "inputs": [
        {
          "indexed": false,
          "internalType": "uint256",
          "name": "game_id",
          "type": "uint256"
        },
        {
          "indexed": false,
          "internalType": "address",
          "name": "player_id",
          "type": "address"
        },
        {
          "indexed": false,
          "internalType": "uint8",
          "name": "position",
          "type": "uint8"
        }
      ],
      "name": "Hit",
      "type": "event"
    },
    {
      "anonymous": false,
      "inputs": [
        {
          "indexed": false,
          "internalType": "uint256",
          "name": "game_id",
          "type": "uint256"
        },
        {
          "indexed": false,
          "internalType": "address",
          "name": "player_id",
          "type": "address"
        },
        {
          "indexed": false,
          "internalType": "uint8",
          "name": "position",
          "type": "uint8"
        }
      ],
      "name": "Miss",
      "type": "event"
    },
    {
      "anonymous": false,
      "inputs": [
        {
          "indexed": false,
          "internalType": "uint256",
          "name": "game_id",
          "type": "uint256"
        },
        {
          "indexed": false,
          "internalType": "address",
          "name": "player_id",
          "type": "address"
        },
        {
          "indexed": false,
          "internalType": "uint8",
          "name": "move",
          "type": "uint8"
        }
      ],
      "name": "MoveProposed",
      "type": "event"
    },
    {
      "anonymous": false,
      "inputs": [
        {
          "indexed": false,
          "internalType": "uint256",
          "name": "game_id",
          "type": "uint256"
        }
      ],
      "name": "NewGame",
      "type": "event"
    },
    {
      "anonymous": false,
      "inputs": [
        {
          "indexed": false,
          "internalType": "uint256",
          "name": "game_id",
          "type": "uint256"
        },
        {
          "indexed": false,
          "internalType": "address",
          "name": "player_id",
          "type": "address"
        }
      ],
      "name": "PlayerJoined",
      "type": "event"
    },
    {
      "inputs": [],
      "name": "new_game",
      "outputs": [],
      "stateMutability": "nonpayable",
      "type": "function"
    },
    {
      "inputs": [
        {
          "internalType": "uint256",
          "name": "game_id",
          "type": "uint256"
        }
      ],
      "name": "join_game",
      "outputs": [],
      "stateMutability": "nonpayable",
      "type": "function"
    },
    {
      "inputs": [],
      "name": "join_random_game",
      "outputs": [],
      "stateMutability": "nonpayable",
      "type": "function"
    },
    {
      "inputs": [
        {
          "internalType": "uint256",
          "name": "game_id",
          "type": "uint256"
        },
        {
          "internalType": "uint256",
          "name": "fee",
          "type": "uint256"
        }
      ],
      "name": "propose_fee",
      "outputs": [],
      "stateMutability": "nonpayable",
      "type": "function"
    },
    {
      "inputs": [
        {
          "internalType": "uint256",
          "name": "game_id",
          "type": "uint256"
        },
        {
          "internalType": "uint256",
          "name": "board",
          "type": "uint256"
        }
      ],
      "name": "commit_board",
      "outputs": [],
      "stateMutability": "payable",
      "type": "function",
      "payable": true
    },
    {
      "inputs": [
        {
          "internalType": "uint256",
          "name": "game_id",
          "type": "uint256"
        },
        {
          "internalType": "uint8",
          "name": "move",
          "type": "uint8"
        }
      ],
      "name": "submit_move",
      "outputs": [],
      "stateMutability": "nonpayable",
      "type": "function"
    },
    {
      "inputs": [
        {
          "internalType": "uint256",
          "name": "game_id",
          "type": "uint256"
        },
        {
          "internalType": "bool",
          "name": "has_ship",
          "type": "bool"
        },
        {
          "internalType": "uint256",
          "name": "nonce",
          "type": "uint256"
        },
        {
          "internalType": "uint256[6]",
          "name": "proof",
          "type": "uint256[6]"
        }
      ],
      "name": "submit_proof",
      "outputs": [],
      "stateMutability": "nonpayable",
      "type": "function"
    },
    {
      "inputs": [
        {
          "internalType": "uint256",
          "name": "game_id",
          "type": "uint256"
        },
        {
          "components": [
            {
              "internalType": "uint8",
              "name": "start_position",
              "type": "uint8"
            },
            {
              "internalType": "bool",
              "name": "direction",
              "type": "bool"
            }
          ],
          "internalType": "struct BattleShip.Ship[5]",
          "name": "ships",
          "type": "tuple[5]"
        },
        {
          "internalType": "uint256[64]",
          "name": "nonces",
          "type": "uint256[64]"
        }
      ],
      "name": "reveal_board",
      "outputs": [],
      "stateMutability": "nonpayable",
      "type": "function"
    },
    {
      "inputs": [
        {
          "internalType": "uint256",
          "name": "game_id",
          "type": "uint256"
        }
      ],
      "name": "withdraw",
      "outputs": [],
      "stateMutability": "nonpayable",
      "type": "function"
    },
    {
      "inputs": [
        {
          "internalType": "uint256",
          "name": "game_id",
          "type": "uint256"
        }
      ],
      "name": "make_accusation",
      "outputs": [],
      "stateMutability": "nonpayable",
      "type": "function"
    },
    {
      "inputs": [
        {
          "internalType": "uint256",
          "name": "game_id",
          "type": "uint256"
        }
      ],
      "name": "get_game_state",
      "outputs": [
        {
          "internalType": "enum BattleShip.GameState",
          "name": "",
          "type": "uint8"
        }
      ],
      "stateMutability": "view",
      "type": "function",
      "constant": true
    },
    {
      "inputs": [],
      "name": "get_free_games_length",
      "outputs": [
        {
          "internalType": "uint256",
          "name": "",
          "type": "uint256"
        }
      ],
      "stateMutability": "view",
      "type": "function",
      "constant": true
    }
  ],
  "bytecode": "0x608060405234801561001057600080fd5b5061460c806100206000396000f3fe6080604052600436106100a75760003560e01c80634c856460116100645780634c856460146101a45780637e1d5c4c146101bb57806385b3f2b4146101e4578063b88a392d1461020f578063d4c66c3514610238578063d9d9a9a714610254576100a7565b80630e6372e4146100ac57806326bd5958146100e9578063276df1af146101125780632e1a7d4d1461013b578063447d4436146101645780634a7b26ec1461017b575b600080fd5b3480156100b857600080fd5b506100d360048036038101906100ce9190613367565b61027d565b6040516100e0919061340b565b60405180910390f35b3480156100f557600080fd5b50610110600480360381019061010b91906135a5565b610300565b005b34801561011e57600080fd5b5061013960048036038101906101349190613646565b610b53565b005b34801561014757600080fd5b50610162600480360381019061015d9190613367565b610faf565b005b34801561017057600080fd5b50610179611443565b005b34801561018757600080fd5b506101a2600480360381019061019d9190613367565b6114d2565b005b3480156101b057600080fd5b506101b9611789565b005b3480156101c757600080fd5b506101e260048036038101906101dd9190613686565b61196d565b005b3480156101f057600080fd5b506101f9611cb7565b60405161020691906136d5565b60405180910390f35b34801561021b57600080fd5b5061023660048036038101906102319190613367565b611cc1565b005b610252600480360381019061024d9190613686565b612088565b005b34801561026057600080fd5b5061027b600480360381019061027691906138a7565b6124e5565b005b60008060008084815260200190815260200160002060000154036102d6576040517f08c379a00000000000000000000000000000000000000000000000000000000081526004016102cd90613959565b60405180910390fd5b60008083815260200190815260200160002060010160009054906101000a900460ff169050919050565b8360008060008381526020019081526020016000206000015403610359576040517f08c379a000000000000000000000000000000000000000000000000000000000815260040161035090613959565b60405180910390fd5b3373ffffffffffffffffffffffffffffffffffffffff1660008083815260200190815260200160002060020160000160009054906101000a900473ffffffffffffffffffffffffffffffffffffffff1673ffffffffffffffffffffffffffffffffffffffff16148061042e57503373ffffffffffffffffffffffffffffffffffffffff1660008083815260200190815260200160002060080160000160009054906101000a900473ffffffffffffffffffffffffffffffffffffffff1673ffffffffffffffffffffffffffffffffffffffff16145b61046d576040517f08c379a0000000000000000000000000000000000000000000000000000000008152600401610464906139c5565b60405180910390fd5b84600480600681111561048357610482613394565b5b60008084815260200190815260200160002060010160009054906101000a900460ff1660068111156104b8576104b7613394565b5b146104f8576040517f08c379a00000000000000000000000000000000000000000000000000000000081526004016104ef90613a31565b60405180910390fd5b6006801461053b576040517f08c379a000000000000000000000000000000000000000000000000000000000815260040161053290613ac3565b60405180910390fd5b600080600089815260200190815260200160002090506000803373ffffffffffffffffffffffffffffffffffffffff168360020160000160009054906101000a900473ffffffffffffffffffffffffffffffffffffffff1673ffffffffffffffffffffffffffffffffffffffff16036105bf578260020191508260080190506105cc565b8260080191508260020190505b8160050160129054906101000a900460ff161561061e576040517f08c379a000000000000000000000000000000000000000000000000000000000815260040161061590613b2f565b60405180910390fd5b6106408160050160119054906101000a900460ff168a8a8a8660020154612c3d565b6107765760068360010160006101000a81548160ff0219169083600681111561066c5761066b613394565b5b02179055508060000160009054906101000a900473ffffffffffffffffffffffffffffffffffffffff1683600f0160016101000a81548173ffffffffffffffffffffffffffffffffffffffff021916908373ffffffffffffffffffffffffffffffffffffffff1602179055507fa94eb170965acb1cb9de7b8c291cb52184d88fe98c0710bbb74068e2efb6f8708a33604051610709929190613b90565b60405180910390a17f668ce4ca171dee87d4d9d2b5d3dc31963fe7fbe50b982064dddb0fb9d56aee8b8a8260000160009054906101000a900473ffffffffffffffffffffffffffffffffffffffff16604051610766929190613b90565b60405180910390a1505050610b4a565b6107808a83612d4e565b1561078d57505050610b4a565b8060050160119054906101000a900460ff1660ff166001901b8260050160008282829054906101000a900467ffffffffffffffff161792506101000a81548167ffffffffffffffff021916908367ffffffffffffffff16021790555088156108fa578160050160119054906101000a900460ff1660ff166001901b8160050160088282829054906101000a900467ffffffffffffffff161792506101000a81548167ffffffffffffffff021916908367ffffffffffffffff16021790555080600501601081819054906101000a900460ff168092919061086c90613be8565b91906101000a81548160ff021916908360ff160217905550507f362fa9e1f76c7bd7da2bb79b2c5a6979f30761fef11ef5f06aee598fff2d0f208a8260000160009054906101000a900473ffffffffffffffffffffffffffffffffffffffff168360050160119054906101000a900460ff166040516108ed93929190613c20565b60405180910390a161096b565b7f7a542921653b80e9acb31eb9f20c8a79aaf5fc7bbc090bf2e75b5cc26607c7f58a8260000160009054906101000a900473ffffffffffffffffffffffffffffffffffffffff168360050160119054906101000a900460ff1660405161096293929190613c20565b60405180910390a15b60018260050160126101000a81548160ff0219169083151502179055508060050160129054906101000a900460ff1615610b4657600183600f0160008282829054906101000a900460ff166109c09190613c57565b92506101000a81548160ff021916908360ff160217905550601060ff168160050160109054906101000a900460ff1660ff161480610a155750601060ff168260050160109054906101000a900460ff1660ff16145b80610a375750604060ff1683600f0160009054906101000a900460ff1660ff16145b15610aa85760058360010160006101000a81548160ff02191690836006811115610a6457610a63613394565b5b02179055507f55bc7d27b24d9318cbcdf7a99aa9c14ab31e868d7adc542554db60815e5718cd8a604051610a9891906136d5565b60405180910390a1505050610b4a565b60038360010160006101000a81548160ff02191690836006811115610ad057610acf613394565b5b021790555060ff8160050160116101000a81548160ff021916908360ff16021790558260050160116101000a81548160ff021916908360ff16021790555060008160050160126101000a81548160ff02191690831515021790558260050160126101000a81548160ff0219169083151502179055505b5050505b50505050505050565b8160008060008381526020019081526020016000206000015403610bac576040517f08c379a0000000000000000000000000000000000000000000000000000000008152600401610ba390613959565b60405180910390fd5b3373ffffffffffffffffffffffffffffffffffffffff1660008083815260200190815260200160002060020160000160009054906101000a900473ffffffffffffffffffffffffffffffffffffffff1673ffffffffffffffffffffffffffffffffffffffff161480610c8157503373ffffffffffffffffffffffffffffffffffffffff1660008083815260200190815260200160002060080160000160009054906101000a900473ffffffffffffffffffffffffffffffffffffffff1673ffffffffffffffffffffffffffffffffffffffff16145b610cc0576040517f08c379a0000000000000000000000000000000000000000000000000000000008152600401610cb7906139c5565b60405180910390fd5b826003806006811115610cd657610cd5613394565b5b60008084815260200190815260200160002060010160009054906101000a900460ff166006811115610d0b57610d0a613394565b5b14610d4b576040517f08c379a0000000000000000000000000000000000000000000000000000000008152600401610d4290613a31565b60405180910390fd5b60408460ff1610610d91576040517f08c379a0000000000000000000000000000000000000000000000000000000008152600401610d8890613cd8565b60405180910390fd5b600080600087815260200190815260200160002090506000803373ffffffffffffffffffffffffffffffffffffffff168360020160000160009054906101000a900473ffffffffffffffffffffffffffffffffffffffff1673ffffffffffffffffffffffffffffffffffffffff1603610e1557826002019150826008019050610e22565b8260080191508260020190505b60ff80168260050160119054906101000a900460ff1660ff1614610e7b576040517f08c379a0000000000000000000000000000000000000000000000000000000008152600401610e7290613d44565b60405180910390fd5b60008760ff166001901b8260050160009054906101000a900467ffffffffffffffff1667ffffffffffffffff161614610ee9576040517f08c379a0000000000000000000000000000000000000000000000000000000008152600401610ee090613db0565b60405180910390fd5b610ef38883612d4e565b15610f0057505050610fa8565b868260050160116101000a81548160ff021916908360ff1602179055507f55cac4ede2505e92e4459bdeff964df027cd1fc03b9bf762d3d27a700de7c998883389604051610f5093929190613c20565b60405180910390a160ff80168160050160119054906101000a900460ff1660ff1614610fa45760048360010160006101000a81548160ff02191690836006811115610f9e57610f9d613394565b5b02179055505b5050505b5050505050565b8060008060008381526020019081526020016000206000015403611008576040517f08c379a0000000000000000000000000000000000000000000000000000000008152600401610fff90613959565b60405180910390fd5b3373ffffffffffffffffffffffffffffffffffffffff1660008083815260200190815260200160002060020160000160009054906101000a900473ffffffffffffffffffffffffffffffffffffffff1673ffffffffffffffffffffffffffffffffffffffff1614806110dd57503373ffffffffffffffffffffffffffffffffffffffff1660008083815260200190815260200160002060080160000160009054906101000a900473ffffffffffffffffffffffffffffffffffffffff1673ffffffffffffffffffffffffffffffffffffffff16145b61111c576040517f08c379a0000000000000000000000000000000000000000000000000000000008152600401611113906139c5565b60405180910390fd5b81600680600681111561113257611131613394565b5b60008084815260200190815260200160002060010160009054906101000a900460ff16600681111561116757611166613394565b5b146111a7576040517f08c379a000000000000000000000000000000000000000000000000000000000815260040161119e90613a31565b60405180910390fd5b600080600086815260200190815260200160002090503373ffffffffffffffffffffffffffffffffffffffff1681600f0160019054906101000a900473ffffffffffffffffffffffffffffffffffffffff1673ffffffffffffffffffffffffffffffffffffffff16148061126b5750600073ffffffffffffffffffffffffffffffffffffffff1681600f0160019054906101000a900473ffffffffffffffffffffffffffffffffffffffff1673ffffffffffffffffffffffffffffffffffffffff16145b6112aa576040517f08c379a00000000000000000000000000000000000000000000000000000000081526004016112a190613e42565b60405180910390fd5b60003373ffffffffffffffffffffffffffffffffffffffff168260020160000160009054906101000a900473ffffffffffffffffffffffffffffffffffffffff1673ffffffffffffffffffffffffffffffffffffffff160361131157816002019050611318565b8160080190505b8060050160139054906101000a900460ff161561136a576040517f08c379a000000000000000000000000000000000000000000000000000000000815260040161136190613eae565b60405180910390fd5b600082600201600101549050600073ffffffffffffffffffffffffffffffffffffffff1683600f0160019054906101000a900473ffffffffffffffffffffffffffffffffffffffff1673ffffffffffffffffffffffffffffffffffffffff16036113d657600181901b90505b60018260050160136101000a81548160ff0219169083151502179055503373ffffffffffffffffffffffffffffffffffffffff166108fc829081150290604051600060405180830381858888f19350505050158015611439573d6000803e3d6000fd5b5050505050505050565b60006002540361145a57611455611789565b6114d0565b60006001436114699190613ece565b6040516020016114799190613f23565b6040516020818303038152906040528051906020012060001c905060006001600254836114a69190613f6d565b815481106114b7576114b6613f9e565b5b906000526020600020015490506114cd816114d2565b50505b565b6000806000838152602001908152602001600020600001540361152a576040517f08c379a000000000000000000000000000000000000000000000000000000000815260040161152190613959565b60405180910390fd5b600080600083815260200190815260200160002090503373ffffffffffffffffffffffffffffffffffffffff168160020160000160009054906101000a900473ffffffffffffffffffffffffffffffffffffffff1673ffffffffffffffffffffffffffffffffffffffff16036115d5576040517f08c379a00000000000000000000000000000000000000000000000000000000081526004016115cc90614019565b60405180910390fd5b60016002540361161f5760016000815481106115f4576115f3613f9e565b5b90600052602060002001600090556002600081548092919061161590614039565b91905055506116d9565b600081600e01549050600060016002546116399190613ece565b905060006001828154811061165157611650613f9e565b5b90600052602060002001549050806001848154811061167357611672613f9e565b5b906000526020600020018190555082600080838152602001908152602001600020600e0181905550600182815481106116af576116ae613f9e565b5b9060005260206000200160009055600260008154809291906116d090614039565b91905055505050505b338160080160000160006101000a81548173ffffffffffffffffffffffffffffffffffffffff021916908373ffffffffffffffffffffffffffffffffffffffff16021790555060018160010160006101000a81548160ff0219169083600681111561174757611746613394565b5b02179055507f87969bc7faf902221a147b95ceba76e011c5efb0339a0a8ee7a2bb82d9cfbbd6823360405161177d929190613b90565b60405180910390a15050565b60006001436117989190613ece565b6040516020016117a89190613f23565b6040516020818303038152906040528051906020012060001c90506000806000838152602001908152602001600020600001541461181b576040517f08c379a0000000000000000000000000000000000000000000000000000000008152600401611812906140d4565b60405180910390fd5b6000806000838152602001908152602001600020905081816000018190555060008160010160006101000a81548160ff0219169083600681111561186257611861613394565b5b021790555060025481600e0181905550600180549050600254036118ae5760018290806001815401808255809150506001900390600052602060002001600090919091909150556118d4565b816001600254815481106118c5576118c4613f9e565b5b90600052602060002001819055505b600260008154809291906118e7906140f4565b9190505550338160020160000160006101000a81548173ffffffffffffffffffffffffffffffffffffffff021916908373ffffffffffffffffffffffffffffffffffffffff1602179055507fa0b7f6f22bb4f69adc52dd16ffe2a964ab8b577be274247fa9a1547b03ce3e558260405161196191906136d5565b60405180910390a15050565b81600080600083815260200190815260200160002060000154036119c6576040517f08c379a00000000000000000000000000000000000000000000000000000000081526004016119bd90613959565b60405180910390fd5b3373ffffffffffffffffffffffffffffffffffffffff1660008083815260200190815260200160002060020160000160009054906101000a900473ffffffffffffffffffffffffffffffffffffffff1673ffffffffffffffffffffffffffffffffffffffff161480611a9b57503373ffffffffffffffffffffffffffffffffffffffff1660008083815260200190815260200160002060080160000160009054906101000a900473ffffffffffffffffffffffffffffffffffffffff1673ffffffffffffffffffffffffffffffffffffffff16145b611ada576040517f08c379a0000000000000000000000000000000000000000000000000000000008152600401611ad1906139c5565b60405180910390fd5b826001806006811115611af057611aef613394565b5b60008084815260200190815260200160002060010160009054906101000a900460ff166006811115611b2557611b24613394565b5b14611b65576040517f08c379a0000000000000000000000000000000000000000000000000000000008152600401611b5c90613a31565b60405180910390fd5b600080600087815260200190815260200160002090503373ffffffffffffffffffffffffffffffffffffffff168160020160000160009054906101000a900473ffffffffffffffffffffffffffffffffffffffff1673ffffffffffffffffffffffffffffffffffffffff1603611be657848160020160010181905550611bf3565b8481600801600101819055505b8060080160010154816002016001015403611c735760028160010160006101000a81548160ff02191690836006811115611c3057611c2f613394565b5b02179055507f49d0a3e35aea3c38dab75808edcf04c0cfae71b83c1a7ed55dc4e6a1bce8afc88686604051611c6692919061413c565b60405180910390a1611caf565b7f491d190755439e2ce91c7bed9989ef10d393e72ddb15dc0e75fe4c483998c263863387604051611ca693929190614165565b60405180910390a15b505050505050565b6000600254905090565b8060008060008381526020019081526020016000206000015403611d1a576040517f08c379a0000000000000000000000000000000000000000000000000000000008152600401611d1190613959565b60405180910390fd5b3373ffffffffffffffffffffffffffffffffffffffff1660008083815260200190815260200160002060020160000160009054906101000a900473ffffffffffffffffffffffffffffffffffffffff1673ffffffffffffffffffffffffffffffffffffffff161480611def57503373ffffffffffffffffffffffffffffffffffffffff1660008083815260200190815260200160002060080160000160009054906101000a900473ffffffffffffffffffffffffffffffffffffffff1673ffffffffffffffffffffffffffffffffffffffff16145b611e2e576040517f08c379a0000000000000000000000000000000000000000000000000000000008152600401611e25906139c5565b60405180910390fd5b6000806000848152602001908152602001600020905060036006811115611e5857611e57613394565b5b8160010160009054906101000a900460ff166006811115611e7c57611e7b613394565b5b1480611ebd575060046006811115611e9757611e96613394565b5b8160010160009054906101000a900460ff166006811115611ebb57611eba613394565b5b145b80611efd575060056006811115611ed757611ed6613394565b5b8160010160009054906101000a900460ff166006811115611efb57611efa613394565b5b145b611f3c576040517f08c379a0000000000000000000000000000000000000000000000000000000008152600401611f3390613a31565b60405180910390fd5b6000803373ffffffffffffffffffffffffffffffffffffffff168360020160000160009054906101000a900473ffffffffffffffffffffffffffffffffffffffff1673ffffffffffffffffffffffffffffffffffffffff1603611faa57826002019150826008019050611fb7565b8260080191508260020190505b8160030160009054906101000a900460ff1615612009576040517f08c379a00000000000000000000000000000000000000000000000000000000081526004016120009061420e565b60405180910390fd5b8060030160009054906101000a900460ff161561205b576040517f08c379a0000000000000000000000000000000000000000000000000000000008152600401612052906142a0565b60405180910390fd5b60018160030160006101000a81548160ff0219169083151502179055504281600401819055505050505050565b81600080600083815260200190815260200160002060000154036120e1576040517f08c379a00000000000000000000000000000000000000000000000000000000081526004016120d890613959565b60405180910390fd5b3373ffffffffffffffffffffffffffffffffffffffff1660008083815260200190815260200160002060020160000160009054906101000a900473ffffffffffffffffffffffffffffffffffffffff1673ffffffffffffffffffffffffffffffffffffffff1614806121b657503373ffffffffffffffffffffffffffffffffffffffff1660008083815260200190815260200160002060080160000160009054906101000a900473ffffffffffffffffffffffffffffffffffffffff1673ffffffffffffffffffffffffffffffffffffffff16145b6121f5576040517f08c379a00000000000000000000000000000000000000000000000000000000081526004016121ec906139c5565b60405180910390fd5b82600280600681111561220b5761220a613394565b5b60008084815260200190815260200160002060010160009054906101000a900460ff1660068111156122405761223f613394565b5b14612280576040517f08c379a000000000000000000000000000000000000000000000000000000000815260040161227790613a31565b60405180910390fd5b6000806000878152602001908152602001600020905060003373ffffffffffffffffffffffffffffffffffffffff168260020160000160009054906101000a900473ffffffffffffffffffffffffffffffffffffffff1673ffffffffffffffffffffffffffffffffffffffff16146122fb5781600801612300565b816002015b90506000816002015403612349576040517f08c379a00000000000000000000000000000000000000000000000000000000081526004016123409061430c565b60405180910390fd5b8060010154341461238f576040517f08c379a00000000000000000000000000000000000000000000000000000000081526004016123869061439e565b60405180910390fd5b85816002018190555060008260020160020154141580156123b857506000826008016002015414155b156124a05760038260010160006101000a81548160ff021916908360068111156123e5576123e4613394565b5b021790555060ff8260080160050160116101000a81548160ff021916908360ff16021790558260020160050160116101000a81548160ff021916908360ff1602179055507f010d29992f394ceed8a8aed324eeba56758ab368faf07ca79af9fffe7953b8eb87338860405161245c93929190614165565b60405180910390a17f50ad08f58a27f2851d7e3a1b3a6a46b290f2ce677e99642d30ff639721e777908760405161249391906136d5565b60405180910390a16124dc565b7f010d29992f394ceed8a8aed324eeba56758ab368faf07ca79af9fffe7953b8eb8733886040516124d393929190614165565b60405180910390a15b50505050505050565b826000806000838152602001908152602001600020600001540361253e576040517f08c379a000000000000000000000000000000000000000000000000000000000815260040161253590613959565b60405180910390fd5b3373ffffffffffffffffffffffffffffffffffffffff1660008083815260200190815260200160002060020160000160009054906101000a900473ffffffffffffffffffffffffffffffffffffffff1673ffffffffffffffffffffffffffffffffffffffff16148061261357503373ffffffffffffffffffffffffffffffffffffffff1660008083815260200190815260200160002060080160000160009054906101000a900473ffffffffffffffffffffffffffffffffffffffff1673ffffffffffffffffffffffffffffffffffffffff16145b612652576040517f08c379a0000000000000000000000000000000000000000000000000000000008152600401612649906139c5565b60405180910390fd5b83600580600681111561266857612667613394565b5b60008084815260200190815260200160002060010160009054906101000a900460ff16600681111561269d5761269c613394565b5b146126dd576040517f08c379a00000000000000000000000000000000000000000000000000000000081526004016126d490613a31565b60405180910390fd5b600080600088815260200190815260200160002090506000803373ffffffffffffffffffffffffffffffffffffffff168360020160000160009054906101000a900473ffffffffffffffffffffffffffffffffffffffff1673ffffffffffffffffffffffffffffffffffffffff16036127615782600201915082600801905061276e565b8260080191508260020190505b8160050160129054906101000a900460ff16156127c0576040517f08c379a00000000000000000000000000000000000000000000000000000000081526004016127b79061440a565b60405180910390fd5b60408014612803576040517f08c379a00000000000000000000000000000000000000000000000000000000081526004016127fa90614476565b60405180910390fd5b60058014612846576040517f08c379a000000000000000000000000000000000000000000000000000000000815260040161283d906144e2565b60405180910390fd5b600061285189612f7a565b905060008167ffffffffffffffff16148061287857506128768360020154828a613070565b155b156129b05760068460010160006101000a81548160ff021916908360068111156128a5576128a4613394565b5b02179055508160000160009054906101000a900473ffffffffffffffffffffffffffffffffffffffff1684600f0160016101000a81548173ffffffffffffffffffffffffffffffffffffffff021916908373ffffffffffffffffffffffffffffffffffffffff1602179055507fa94eb170965acb1cb9de7b8c291cb52184d88fe98c0710bbb74068e2efb6f8708a33604051612942929190613b90565b60405180910390a17f668ce4ca171dee87d4d9d2b5d3dc31963fe7fbe50b982064dddb0fb9d56aee8b8a8360000160009054906101000a900473ffffffffffffffffffffffffffffffffffffffff1660405161299f929190613b90565b60405180910390a150505050612c35565b6129ba8a84612d4e565b156129c85750505050612c35565b808360050160086101000a81548167ffffffffffffffff021916908367ffffffffffffffff16021790555060018360050160126101000a81548160ff0219169083151502179055508160050160129054906101000a900460ff1615612c30578160050160109054906101000a900460ff1660ff168360050160109054906101000a900460ff1660ff161115612ac3578260000160009054906101000a900473ffffffffffffffffffffffffffffffffffffffff1684600f0160016101000a81548173ffffffffffffffffffffffffffffffffffffffff021916908373ffffffffffffffffffffffffffffffffffffffff160217905550612ba5565b8260050160109054906101000a900460ff1660ff168260050160109054906101000a900460ff1660ff161115612b5f578160000160009054906101000a900473ffffffffffffffffffffffffffffffffffffffff1684600f0160016101000a81548173ffffffffffffffffffffffffffffffffffffffff021916908373ffffffffffffffffffffffffffffffffffffffff160217905550612ba4565b600084600f0160016101000a81548173ffffffffffffffffffffffffffffffffffffffff021916908373ffffffffffffffffffffffffffffffffffffffff1602179055505b5b60068460010160006101000a81548160ff02191690836006811115612bcd57612bcc613394565b5b02179055507f668ce4ca171dee87d4d9d2b5d3dc31963fe7fbe50b982064dddb0fb9d56aee8b8a85600f0160019054906101000a900473ffffffffffffffffffffffffffffffffffffffff16604051612c27929190613b90565b60405180910390a15b505050505b505050505050565b6000808585604051602001612c5392919061454a565b6040516020818303038152906040528051906020012060001c905060005b60068160ff161015612d3e5760006001891660ff1603612cd85781858260ff1660068110612ca257612ca1613f9e565b5b6020020151604051602001612cb8929190614576565b6040516020818303038152906040528051906020012060001c9150612d21565b848160ff1660068110612cee57612ced613f9e565b5b602002015182604051602001612d05929190614576565b6040516020818303038152906040528051906020012060001c91505b60018860ff16901c97508080612d3690613be8565b915050612c71565b5082811491505095945050505050565b60008160030160009054906101000a900460ff1615612f6f574260058360040154612d7991906145a2565b1015612daf5760008260030160006101000a81548160ff0219169083151502179055506000826004018190555060009050612f74565b6000806000858152602001908152602001600020905060068160010160006101000a81548160ff02191690836006811115612ded57612dec613394565b5b02179055508060020160000160009054906101000a900473ffffffffffffffffffffffffffffffffffffffff1673ffffffffffffffffffffffffffffffffffffffff168360000160009054906101000a900473ffffffffffffffffffffffffffffffffffffffff1673ffffffffffffffffffffffffffffffffffffffff1614612e9d578060020160000160009054906101000a900473ffffffffffffffffffffffffffffffffffffffff16612ec6565b8060080160000160009054906101000a900473ffffffffffffffffffffffffffffffffffffffff165b81600f0160016101000a81548173ffffffffffffffffffffffffffffffffffffffff021916908373ffffffffffffffffffffffffffffffffffffffff1602179055507f668ce4ca171dee87d4d9d2b5d3dc31963fe7fbe50b982064dddb0fb9d56aee8b8482600f0160019054906101000a900473ffffffffffffffffffffffffffffffffffffffff16604051612f5d929190613b90565b60405180910390a16001915050612f74565b600090505b92915050565b6000806000905060006040518060a00160405280600560ff168152602001600460ff168152602001600360ff168152602001600260ff168152602001600260ff16815250905060005b60058160ff1610156130645761303183868360ff1660058110612fe957612fe8613f9e565b5b602002015160000151878460ff166005811061300857613007613f9e565b5b602002015160200151858560ff166005811061302757613026613f9e565b5b6020020151613240565b925060008367ffffffffffffffff1603613051576000935050505061306b565b808061305c90613be8565b915050612fc3565b5081925050505b919050565b60008060009050600080604090506130866132ff565b600093505b8160ff168460ff161015613130576001808560ff168967ffffffffffffffff16901c1667ffffffffffffffff1614868560ff16604081106130cf576130ce613f9e565b5b60200201516040516020016130e592919061454a565b6040516020818303038152906040528051906020012060001c818560ff166040811061311457613113613f9e565b5b602002018181525050838061312890613be8565b94505061308b565b60018260ff16901c91505b60008260ff161461321857600092508293505b8160ff168460ff16101561320957808360ff166040811061317257613171613f9e565b5b6020020151816001856131859190613c57565b60ff166040811061319957613198613f9e565b5b60200201516040516020016131af929190614576565b6040516020818303038152906040528051906020012060001c818560ff16604081106131de576131dd613f9e565b5b6020020181815250506002836131f49190613c57565b9250838061320190613be8565b94505061314e565b60018260ff16901c915061313b565b878160006040811061322d5761322c613f9e565b5b6020020151149450505050509392505050565b600080600090505b8260ff168160ff1610156132f25760006007861660ff160361326e5760009150506132f7565b603f8560ff1611156132845760009150506132f7565b60008560ff166001901b871667ffffffffffffffff16146132a95760009150506132f7565b8460ff166001901b8617955083156132cf576001856132c89190613c57565b94506132df565b6008856132dc9190613c57565b94505b80806132ea90613be8565b915050613248565b508490505b949350505050565b604051806108000160405280604090602082028036833780820191505090505090565b6000604051905090565b600080fd5b6000819050919050565b61334481613331565b811461334f57600080fd5b50565b6000813590506133618161333b565b92915050565b60006020828403121561337d5761337c61332c565b5b600061338b84828501613352565b91505092915050565b7f4e487b7100000000000000000000000000000000000000000000000000000000600052602160045260246000fd5b600781106133d4576133d3613394565b5b50565b60008190506133e5826133c3565b919050565b60006133f5826133d7565b9050919050565b613405816133ea565b82525050565b600060208201905061342060008301846133fc565b92915050565b60008115159050919050565b61343b81613426565b811461344657600080fd5b50565b60008135905061345881613432565b92915050565b600080fd5b6000601f19601f8301169050919050565b7f4e487b7100000000000000000000000000000000000000000000000000000000600052604160045260246000fd5b6134ac82613463565b810181811067ffffffffffffffff821117156134cb576134ca613474565b5b80604052505050565b60006134de613322565b90506134ea82826134a3565b919050565b600067ffffffffffffffff82111561350a57613509613474565b5b602082029050919050565b600080fd5b600061352d613528846134ef565b6134d4565b9050806020840283018581111561354757613546613515565b5b835b81811015613570578061355c8882613352565b845260208401935050602081019050613549565b5050509392505050565b600082601f83011261358f5761358e61345e565b5b600661359c84828561351a565b91505092915050565b60008060008061012085870312156135c0576135bf61332c565b5b60006135ce87828801613352565b94505060206135df87828801613449565b93505060406135f087828801613352565b92505060606136018782880161357a565b91505092959194509250565b600060ff82169050919050565b6136238161360d565b811461362e57600080fd5b50565b6000813590506136408161361a565b92915050565b6000806040838503121561365d5761365c61332c565b5b600061366b85828601613352565b925050602061367c85828601613631565b9150509250929050565b6000806040838503121561369d5761369c61332c565b5b60006136ab85828601613352565b92505060206136bc85828601613352565b9150509250929050565b6136cf81613331565b82525050565b60006020820190506136ea60008301846136c6565b92915050565b600067ffffffffffffffff82111561370b5761370a613474565b5b602082029050919050565b600080fd5b60006040828403121561373157613730613716565b5b61373b60406134d4565b9050600061374b84828501613631565b600083015250602061375f84828501613449565b60208301525092915050565b600061377e613779846136f0565b6134d4565b9050806040840283018581111561379857613797613515565b5b835b818110156137c157806137ad888261371b565b84526020840193505060408101905061379a565b5050509392505050565b600082601f8301126137e0576137df61345e565b5b60056137ed84828561376b565b91505092915050565b600067ffffffffffffffff82111561381157613810613474565b5b602082029050919050565b600061382f61382a846137f6565b6134d4565b9050806020840283018581111561384957613848613515565b5b835b81811015613872578061385e8882613352565b84526020840193505060208101905061384b565b5050509392505050565b600082601f8301126138915761389061345e565b5b604061389e84828561381c565b91505092915050565b600080600061096084860312156138c1576138c061332c565b5b60006138cf86828701613352565b93505060206138e0868287016137cb565b9250506101606138f28682870161387c565b9150509250925092565b600082825260208201905092915050565b7f47616d6520646f6573206e6f7420657869737400000000000000000000000000600082015250565b60006139436013836138fc565b915061394e8261390d565b602082019050919050565b6000602082019050818103600083015261397281613936565b9050919050565b7f596f7520617265206e6f7420696e20746869732067616d650000000000000000600082015250565b60006139af6018836138fc565b91506139ba82613979565b602082019050919050565b600060208201905081810360008301526139de816139a2565b9050919050565b7f47616d65206973206e6f7420696e2074686520636f7272656374207374617465600082015250565b6000613a1b6020836138fc565b9150613a26826139e5565b602082019050919050565b60006020820190508181036000830152613a4a81613a0e565b9050919050565b7f496e76616c69642070726f6f662c206974206d75737420626520616e2061727260008201527f6179206f66203620686173686573000000000000000000000000000000000000602082015250565b6000613aad602e836138fc565b9150613ab882613a51565b604082019050919050565b60006020820190508181036000830152613adc81613aa0565b9050919050565b7f596f7520616c72656164792072657665616c656420746865206d6f7665000000600082015250565b6000613b19601d836138fc565b9150613b2482613ae3565b602082019050919050565b60006020820190508181036000830152613b4881613b0c565b9050919050565b600073ffffffffffffffffffffffffffffffffffffffff82169050919050565b6000613b7a82613b4f565b9050919050565b613b8a81613b6f565b82525050565b6000604082019050613ba560008301856136c6565b613bb26020830184613b81565b9392505050565b7f4e487b7100000000000000000000000000000000000000000000000000000000600052601160045260246000fd5b6000613bf38261360d565b915060ff8203613c0657613c05613bb9565b5b600182019050919050565b613c1a8161360d565b82525050565b6000606082019050613c3560008301866136c6565b613c426020830185613b81565b613c4f6040830184613c11565b949350505050565b6000613c628261360d565b9150613c6d8361360d565b9250828201905060ff811115613c8657613c85613bb9565b5b92915050565b7f496e76616c696420706f736974696f6e00000000000000000000000000000000600082015250565b6000613cc26010836138fc565b9150613ccd82613c8c565b602082019050919050565b60006020820190508181036000830152613cf181613cb5565b9050919050565b7f596f7520616c72656164792070726f706f7365642061206d6f76650000000000600082015250565b6000613d2e601b836138fc565b9150613d3982613cf8565b602082019050919050565b60006020820190508181036000830152613d5d81613d21565b9050919050565b7f506f736974696f6e20616c72656164792072657665616c656400000000000000600082015250565b6000613d9a6019836138fc565b9150613da582613d64565b602082019050919050565b60006020820190508181036000830152613dc981613d8d565b9050919050565b7f596f7520617265206e6f74207468652077696e6e6572206f662074686973206760008201527f616d650000000000000000000000000000000000000000000000000000000000602082015250565b6000613e2c6023836138fc565b9150613e3782613dd0565b604082019050919050565b60006020820190508181036000830152613e5b81613e1f565b9050919050565b7f596f7520616c7265616479207769746864726177656400000000000000000000600082015250565b6000613e986016836138fc565b9150613ea382613e62565b602082019050919050565b60006020820190508181036000830152613ec781613e8b565b9050919050565b6000613ed982613331565b9150613ee483613331565b9250828203905081811115613efc57613efb613bb9565b5b92915050565b6000819050919050565b613f1d613f1882613331565b613f02565b82525050565b6000613f2f8284613f0c565b60208201915081905092915050565b7f4e487b7100000000000000000000000000000000000000000000000000000000600052601260045260246000fd5b6000613f7882613331565b9150613f8383613331565b925082613f9357613f92613f3e565b5b828206905092915050565b7f4e487b7100000000000000000000000000000000000000000000000000000000600052603260045260246000fd5b7f596f752061726520616c726561647920696e20746869732067616d6500000000600082015250565b6000614003601c836138fc565b915061400e82613fcd565b602082019050919050565b6000602082019050818103600083015261403281613ff6565b9050919050565b600061404482613331565b91506000820361405757614056613bb9565b5b600182039050919050565b7f43616e2774206372656174652061206e65772067616d6520617420746865206d60008201527f6f6d656e742c2072657472790000000000000000000000000000000000000000602082015250565b60006140be602c836138fc565b91506140c982614062565b604082019050919050565b600060208201905081810360008301526140ed816140b1565b9050919050565b60006140ff82613331565b91507fffffffffffffffffffffffffffffffffffffffffffffffffffffffffffffffff820361413157614130613bb9565b5b600182019050919050565b600060408201905061415160008301856136c6565b61415e60208301846136c6565b9392505050565b600060608201905061417a60008301866136c6565b6141876020830185613b81565b61419460408301846136c6565b949350505050565b7f596f752061726520756e6465722061636375736174696f6e2c2063616e27742060008201527f6d616b65206f74686572206d6f76657300000000000000000000000000000000602082015250565b60006141f86030836138fc565b91506142038261419c565b604082019050919050565b60006020820190508181036000830152614227816141eb565b9050919050565b7f4f70706f6e656e7420697320616c726561647920756e6465722061636375736160008201527f74696f6e00000000000000000000000000000000000000000000000000000000602082015250565b600061428a6024836138fc565b91506142958261422e565b604082019050919050565b600060208201905081810360008301526142b98161427d565b9050919050565b7f596f7520616c726561647920636f6d6d69747465642074686520626f61726400600082015250565b60006142f6601f836138fc565b9150614301826142c0565b602082019050919050565b60006020820190508181036000830152614325816142e9565b9050919050565b7f596f75206d75737420706179207468652066656520746f20636f6d6d6974207460008201527f686520626f617264000000000000000000000000000000000000000000000000602082015250565b60006143886028836138fc565b91506143938261432c565b604082019050919050565b600060208201905081810360008301526143b78161437b565b9050919050565b7f596f7520616c72656164792072657665616c65642074686520626f6172640000600082015250565b60006143f4601e836138fc565b91506143ff826143be565b602082019050919050565b60006020820190508181036000830152614423816143e7565b9050919050565b7f496e76616c6964206e6f6e636573206c656e6774680000000000000000000000600082015250565b60006144606015836138fc565b915061446b8261442a565b602082019050919050565b6000602082019050818103600083015261448f81614453565b9050919050565b7f496e76616c6964207368697073206c656e677468000000000000000000000000600082015250565b60006144cc6014836138fc565b91506144d782614496565b602082019050919050565b600060208201905081810360008301526144fb816144bf565b9050919050565b60008160f81b9050919050565b600061451a82614502565b9050919050565b600061452c8261450f565b9050919050565b61454461453f82613426565b614521565b82525050565b60006145568285614533565b6001820191506145668284613f0c565b6020820191508190509392505050565b60006145828285613f0c565b6020820191506145928284613f0c565b6020820191508190509392505050565b60006145ad82613331565b91506145b883613331565b92508282019050808211156145d0576145cf613bb9565b5b9291505056fea26469706673582212200e6cc366400707d4b1bb999903abdc5ef3b5db7c16af620801533479824a2b1564736f6c63430008130033",
  "immutableReferences": {},
  "source": "// SPDX-License-Identifier: MIT\npragma solidity >=0.4.22 <0.9.0;\n\n/*\n    The board is fixed to 8x8\n    with the following pieces:\n    - 1x Aircraft Carrier (5 squares)\n    - 1x Battleship (4 squares)\n    - 1x Cruiser (3 squares)\n    - 2x Destroyers (2 squares)\n\n    So we can terminate the game when:\n    - 1 player has 16 hits\n    - all positions have been revealed\n\n    Merkle proof for a 64 position board (8x8):\n    - actual position state\n    - nonce used to generate the hash\n    - 6 hashes\n    - Merkle Hash (already stored in the contract)\n */\n\ncontract BattleShip {\n    uint8 private constant NO_MOVE = 255;\n    uint8 private constant MAX_HIT = 16;\n    uint8 private constant MAX_ROUNDS = 64;\n\n    enum GameState {\n        // Game created but waiting for the second player to join\n        WaitingForOpponent,\n        // Players joined the game but need to agree on the fee\n        FeeNegotiation,\n        // Players agreed on the fee and need to commit the board\n        WaitingCommitment,\n        // Players committed the board and now the game starts\n        WaitingForMove,\n        // Players must submit Merkle proof in order to prove the move result\n        WaitingForProof,\n        // Game ended and now player must reveal the board\n        WaitingForReveal,\n        // Game ended and now we have a winner\n        GameOver\n    }\n\n    struct Ship {\n        uint8 start_position;\n        // true if horizontal, false if vertical\n        bool direction;\n    }\n\n    struct Player {\n        address user_id;\n        // Used to implement the fee negotiation, then to store the actual fee\n        uint256 proposed_fee;\n        // Used to implement the board commitment and check at the end\n        uint256 committed_board;\n        // Used to implements accusation\n        bool accused; // if true the player has been accused of leaving\n        uint256 accused_at; // represents the time when the player has been accused\n        // Used to store revealed board status and check at the end\n        // bitmap used to store the revealed positions\n        uint64 revealed_positions;\n        // bitmap used to store the actual hit\n        // only the actual bit at 1 in\n        // revealed_positions & position_status\n        // are the actual hits\n        uint64 position_status;\n        uint8 hits;\n        // Used to implement the move submission\n        uint8 move;\n        // Used to implement both the move reveal and the board reveal\n        bool revealed;\n        bool withdrawed;\n    }\n\n    struct Game {\n        uint256 game_id;\n        GameState game_state;\n        Player A;\n        Player B;\n        uint256 position_in_games_list;\n        uint8 rounds_elapsed;\n        address winner;\n    }\n\n    // Events to notify frontend\n    event NewGame(uint256 game_id);\n    event PlayerJoined(uint256 game_id, address player_id);\n    event FeeProposed(uint256 game_id, address player_id, uint256 fee);\n    event FeeAgreed(uint256 game_id, uint256 fee);\n    event BoardCommitted(uint256 game_id, address player_id, uint256 board);\n    event GameStarted(uint256 game_id);\n    event MoveProposed(uint256 game_id, address player_id, uint8 move);\n    event CheatingAttempt(uint256 game_id, address player_id);\n    event Hit(uint256 game_id, address player_id, uint8 position);\n    event Miss(uint256 game_id, address player_id, uint8 position);\n    event EndOfGame(uint256 game_id);\n    event GameOver(uint256 game_id, address winner);\n    event AccusationRequest(uint256 game_id, address player_id);\n\n    // Collects actual games data, used for the game evolution\n    mapping(uint256 => Game) private id2game;\n    // Collects games which are pending for players to join\n    // used for random matchmaking and game join\n    uint256[] private free_games;\n    uint256 private free_games_count;\n\n    // NB: public because it is both used by the frontend and the contract itself\n    function new_game() public {\n        uint256 game_id = uint256(\n            keccak256(abi.encodePacked(block.number - 1))\n        );\n\n        require(\n            id2game[game_id].game_id == 0,\n            \"Can't create a new game at the moment, retry\"\n        );\n\n        Game storage game = id2game[game_id];\n        game.game_id = game_id;\n        game.game_state = GameState.WaitingForOpponent;\n        game.position_in_games_list = free_games_count;\n        if (free_games_count == free_games.length) {\n            free_games.push(game_id);\n        } else {\n            free_games[free_games_count] = game_id;\n        }\n        free_games_count++;\n\n        game.A.user_id = msg.sender;\n\n        emit NewGame(game_id);\n    }\n\n    // NB: public because it is both used by the frontend and the contract itself\n    function join_game(uint256 game_id) public {\n        require(id2game[game_id].game_id != 0, \"Game does not exist\");\n\n        Game storage current_game = id2game[game_id];\n        require(\n            current_game.A.user_id != msg.sender,\n            \"You are already in this game\"\n        );\n\n        // Remove the game from the list of available games\n        if (free_games_count == 1) {\n            // if only one element, just remove it\n            delete free_games[0];\n            free_games_count--;\n        } else {\n            // otherwise swap the current game with the last one\n            // and then remove the last one and update it's position\n            // in the list\n            uint256 current_position = current_game.position_in_games_list;\n            uint256 last_position = free_games_count - 1;\n            uint256 last_game_id = free_games[last_position];\n\n            free_games[current_position] = last_game_id;\n            id2game[last_game_id].position_in_games_list = current_position;\n            delete free_games[last_position];\n            free_games_count--;\n        }\n\n        // Update game infos\n        // Assign the opponet player\n        current_game.B.user_id = msg.sender;\n\n        // Move game to fee negotiation\n        current_game.game_state = GameState.FeeNegotiation;\n\n        emit PlayerJoined(game_id, msg.sender);\n    }\n\n    // If no game exists just create one\n    // otherwise join random game\n    // then returns the game_id\n    // and a boolean to indicate if the game is new or not\n    function join_random_game() external {\n        if (free_games_count == 0) {\n            new_game();\n        } else {\n            // make choice at random\n            uint256 random_index = uint256(\n                keccak256(abi.encodePacked(block.number - 1))\n            );\n\n            uint256 game_id = free_games[random_index % free_games_count];\n            join_game(game_id);\n        }\n    }\n\n    modifier player_in_game(uint256 game_id) {\n        // Check that the game exists\n        require(id2game[game_id].game_id != 0, \"Game does not exist\");\n\n        // Check that user is in the game\n        require(\n            id2game[game_id].A.user_id == msg.sender ||\n                id2game[game_id].B.user_id == msg.sender,\n            \"You are not in this game\"\n        );\n        _;\n    }\n\n    modifier check_game_state(uint256 game_id, GameState game_state) {\n        // Check that the game is in the correct state\n        require(\n            id2game[game_id].game_state == game_state,\n            \"Game is not in the correct state\"\n        );\n        _;\n    }\n\n    // Propose fee until both players agree on the same fee\n    function propose_fee(\n        uint256 game_id,\n        uint256 fee\n    )\n        external\n        player_in_game(game_id)\n        check_game_state(game_id, GameState.FeeNegotiation)\n    {\n        Game storage current_game = id2game[game_id];\n\n        // Update fee proposal\n        if (current_game.A.user_id == msg.sender) {\n            current_game.A.proposed_fee = fee;\n        } else {\n            current_game.B.proposed_fee = fee;\n        }\n\n        // Manage notification to frontend and game state\n        // Both players agreed on the fee\n        if (current_game.A.proposed_fee == current_game.B.proposed_fee) {\n            current_game.game_state = GameState.WaitingCommitment;\n            emit FeeAgreed(game_id, fee);\n        }\n        // Otherwise just notify the frontend to continue the negotiation\n        else {\n            emit FeeProposed(game_id, msg.sender, fee);\n        }\n    }\n\n    function commit_board(\n        uint256 game_id,\n        uint256 board\n    )\n        external\n        payable\n        player_in_game(game_id)\n        check_game_state(game_id, GameState.WaitingCommitment)\n    {\n        Game storage current_game = id2game[game_id];\n\n        Player storage player = (current_game.A.user_id == msg.sender)\n            ? current_game.A\n            : current_game.B;\n\n        // Check that user did not already commit the board\n        // otherwise it would double pay\n        require(player.committed_board != 0, \"You already committed the board\");\n\n        // Check that the fee has been paid\n        // proposed_fee SHOULD be the same at this point\n        require(\n            msg.value == player.proposed_fee,\n            \"You must pay the fee to commit the board\"\n        );\n\n        // Update committed board\n        player.committed_board = board;\n\n        // Manage notification to frontend and game state\n        // Both players committed the board and payed the fee\n        if (\n            current_game.A.committed_board != 0 &&\n            current_game.B.committed_board != 0\n        ) {\n            current_game.game_state = GameState.WaitingForMove;\n            current_game.A.move = current_game.B.move = NO_MOVE;\n            emit BoardCommitted(game_id, msg.sender, board);\n            emit GameStarted(game_id);\n        }\n        // Otherwise just notify the frontend to continue wait for the other player\n        else {\n            emit BoardCommitted(game_id, msg.sender, board);\n        }\n    }\n\n    function submit_move(\n        uint256 game_id,\n        uint8 move\n    )\n        external\n        player_in_game(game_id)\n        check_game_state(game_id, GameState.WaitingForMove)\n    {\n        // Move must be in the range [0, 63] for a 8x8 board\n        require(move < 64, \"Invalid position\");\n        Game storage current_game = id2game[game_id];\n\n        Player storage player;\n        Player storage opponent;\n\n        if (current_game.A.user_id == msg.sender) {\n            player = current_game.A;\n            opponent = current_game.B;\n        } else {\n            player = current_game.B;\n            opponent = current_game.A;\n        }\n\n        // Check if user already proposed a move\n        require(player.move == NO_MOVE, \"You already proposed a move\");\n\n        // Check if positions has already been revealed\n        require(\n            (opponent.revealed_positions & (1 << move)) == 0,\n            \"Position already revealed\"\n        );\n\n        if (check_accusation(game_id, player)) {\n            return;\n        }\n\n        // Update move\n        player.move = move;\n\n        emit MoveProposed(game_id, msg.sender, move);\n\n        // Check if opponent already proposed a move\n        if (opponent.move != NO_MOVE) {\n            // move to reveal phase\n            current_game.game_state = GameState.WaitingForProof;\n        }\n    }\n\n    function submit_proof(\n        uint256 game_id,\n        bool has_ship,\n        uint256 nonce,\n        uint256[6] memory proof\n    )\n        external\n        player_in_game(game_id)\n        check_game_state(game_id, GameState.WaitingForProof)\n    {\n        // Check that the proof has the needed length\n        require(\n            proof.length == 6,\n            \"Invalid proof, it must be an array of 6 hashes\"\n        );\n\n        Game storage current_game = id2game[game_id];\n\n        Player storage player;\n        Player storage opponent;\n\n        if (current_game.A.user_id == msg.sender) {\n            player = current_game.A;\n            opponent = current_game.B;\n        } else {\n            player = current_game.B;\n            opponent = current_game.A;\n        }\n\n        // check that the user has not already revealed the move\n        require(!player.revealed, \"You already revealed the move\");\n\n        // Check if the proof is valid\n        if (\n            !check_proof(\n                opponent.move,\n                has_ship,\n                nonce,\n                proof,\n                player.committed_board\n            )\n        ) {\n            // Cheating attempt: terminate the game and set the opponet as the winner\n            current_game.game_state = GameState.GameOver;\n            current_game.winner = opponent.user_id;\n            emit CheatingAttempt(game_id, msg.sender);\n            emit GameOver(game_id, opponent.user_id);\n            return;\n        }\n\n        if (check_accusation(game_id, player)) {\n            return;\n        }\n\n        // Update revealed positions\n        player.revealed_positions |= uint64(1 << opponent.move);\n\n        // Update position status\n        if (has_ship) {\n            opponent.position_status |= uint64(1 << player.move);\n            opponent.hits++;\n            emit Hit(game_id, opponent.user_id, opponent.move);\n        } else {\n            emit Miss(game_id, opponent.user_id, opponent.move);\n        }\n\n        // set the move as revealed\n        player.revealed = true;\n\n        // Check if reveal phase is over\n        if (opponent.revealed) {\n            current_game.rounds_elapsed += 1;\n            // Check if game is over\n            if (\n                opponent.hits == MAX_HIT ||\n                player.hits == MAX_HIT ||\n                current_game.rounds_elapsed == MAX_ROUNDS\n            ) {\n                // Game is over so user must reveal their boards\n                current_game.game_state = GameState.WaitingForReveal;\n                emit EndOfGame(game_id);\n                return;\n            }\n            // Otherwise move to the next round\n            current_game.game_state = GameState.WaitingForMove;\n            player.move = opponent.move = NO_MOVE;\n            player.revealed = opponent.revealed = false;\n        }\n    }\n\n    function reveal_board(\n        uint256 game_id,\n        Ship[5] memory ships,\n        uint256[64] memory nonces\n    )\n        external\n        player_in_game(game_id)\n        check_game_state(game_id, GameState.WaitingForReveal)\n    {\n        Game storage current_game = id2game[game_id];\n\n        Player storage player;\n        Player storage opponent;\n\n        if (current_game.A.user_id == msg.sender) {\n            player = current_game.A;\n            opponent = current_game.B;\n        } else {\n            player = current_game.B;\n            opponent = current_game.A;\n        }\n\n        // Check that the user has not already revealed the board\n        require(!player.revealed, \"You already revealed the board\");\n\n        // Check that the user passed the right number of nonces\n        require(nonces.length == 64, \"Invalid nonces length\");\n\n        require(ships.length == 5, \"Invalid ships length\");\n\n        // If the board cannot be built, the user is cheating\n        uint64 board = build_board(ships);\n\n        // Check if ship placement is valid\n        // and that the board is the same as the committed one\n        if (\n            board == 0 ||\n            !check_board_proof(player.committed_board, board, nonces)\n        ) {\n            // Cheating attempt: terminate the game and set the opponet as the winner\n            current_game.game_state = GameState.GameOver;\n            current_game.winner = opponent.user_id;\n            emit CheatingAttempt(game_id, msg.sender);\n            emit GameOver(game_id, opponent.user_id);\n            return;\n        }\n\n        if (check_accusation(game_id, player)) {\n            return;\n        }\n\n        // Update revealed positions\n        player.position_status = board;\n        // Update user state to revealed\n        player.revealed = true;\n\n        // If both user revealed the board, the game is over\n        if (opponent.revealed) {\n            // Set winner\n            if (player.hits > opponent.hits) {\n                // player wins\n                current_game.winner = player.user_id;\n            } else if (opponent.hits > player.hits) {\n                // opponent wins\n                current_game.winner = opponent.user_id;\n            } else {\n                // draw\n                current_game.winner = address(0);\n            }\n            current_game.game_state = GameState.GameOver;\n            emit GameOver(game_id, current_game.winner);\n        }\n    }\n\n    function check_accusation(\n        uint256 game_id,\n        Player storage current_player\n    ) private returns (bool) {\n        // Check if player is under accusation\n        if (current_player.accused) {\n            // If response is under time limit, the accusation is retired\n            if (current_player.accused_at + 5 < block.timestamp) {\n                current_player.accused = false;\n                current_player.accused_at = 0;\n                return false;\n            } else {\n                // Otherwise the accusation is valid and the opponent wins\n                Game storage current_game = id2game[game_id];\n                current_game.game_state = GameState.GameOver;\n                current_game.winner = current_player.user_id ==\n                    current_game.A.user_id\n                    ? current_game.B.user_id\n                    : current_game.A.user_id;\n                emit GameOver(game_id, current_game.winner);\n                return true;\n            }\n        }\n\n        return false;\n    }\n\n    function withdraw(\n        uint256 game_id\n    )\n        external\n        player_in_game(game_id)\n        check_game_state(game_id, GameState.GameOver)\n    {\n        Game storage current_game = id2game[game_id];\n        require(\n            current_game.winner == msg.sender ||\n                current_game.winner == address(0),\n            \"You are not the winner of this game\"\n        );\n\n        Player storage player;\n\n        if (current_game.A.user_id == msg.sender) {\n            player = current_game.A;\n        } else {\n            player = current_game.B;\n        }\n\n        require(!player.withdrawed, \"You already withdrawed\");\n\n        uint256 amount = current_game.A.proposed_fee;\n        if (current_game.winner == address(0)) {\n            amount <<= 1;\n        }\n\n        // Avoid reentrancy\n        player.withdrawed = true;\n        payable(msg.sender).transfer(amount);\n    }\n\n    function make_accusation(uint256 game_id) external player_in_game(game_id) {\n        // Check that the game is either in the waiting for move or waiting for proof/reveal state\n        Game storage current_game = id2game[game_id];\n\n        require(\n            current_game.game_state == GameState.WaitingForMove ||\n                current_game.game_state == GameState.WaitingForProof ||\n                current_game.game_state == GameState.WaitingForReveal,\n            \"Game is not in the correct state\"\n        );\n\n        Player storage player;\n        Player storage opponent;\n\n        if (current_game.A.user_id == msg.sender) {\n            player = current_game.A;\n            opponent = current_game.B;\n        } else {\n            player = current_game.B;\n            opponent = current_game.A;\n        }\n\n        // Check that the user is not currently under accusation\n        require(\n            !player.accused,\n            \"You are under accusation, can't make other moves\"\n        );\n\n        // Check that the other player is not currently under accusation\n        require(!opponent.accused, \"Opponent is already under accusation\");\n\n        opponent.accused = true;\n        opponent.accused_at = block.timestamp;\n    }\n\n    /* Utility functions */\n\n    /* Assume that:\n        - index in [0, 63]\n        - proof.length == 6\n    */\n    function check_proof(\n        uint8 index,\n        bool has_ship,\n        uint256 nonce,\n        uint256[6] memory proof,\n        uint256 committed_board\n    ) private pure returns (bool) {\n        // build the leaf hash by hash(has_ship || nonce)\n        uint256 previous_hash = uint256(\n            keccak256(abi.encodePacked(has_ship, nonce))\n        );\n\n        for (uint8 i = 0; i < 6; i++) {\n            if (index & 1 == 0) {\n                // we are on the left side of the tree\n                previous_hash = uint256(\n                    keccak256(abi.encodePacked(previous_hash, proof[i]))\n                );\n            } else {\n                // we are on the right side of the tree\n                previous_hash = uint256(\n                    keccak256(abi.encodePacked(proof[i], previous_hash))\n                );\n            }\n            index = index >> 1;\n        }\n\n        return previous_hash == committed_board;\n    }\n\n    function check_board_proof(\n        uint256 committed_board,\n        uint64 board,\n        uint256[64] memory nonces\n    ) private pure returns (bool) {\n        // Compute Merkle tree root\n        uint8 i = 0;\n        uint8 j = 0;\n        uint8 actual_size = 64;\n\n        uint256[64] memory tree;\n\n        // Compute various hash(ship[i]  || nonces[i])\n        for (i = 0; i < actual_size; i++) {\n            tree[i] = uint256(\n                keccak256(abi.encodePacked(((board >> i) & 1) == 1, nonces[i]))\n            );\n        }\n\n        actual_size = actual_size >> 1;\n        while (actual_size != 0) {\n            for (i = j = 0; i < actual_size; i++) {\n                tree[i] = uint256(\n                    keccak256(abi.encodePacked(tree[j], tree[j + 1]))\n                );\n                j += 2;\n            }\n            actual_size = actual_size >> 1;\n        }\n\n        return tree[0] == committed_board;\n    }\n\n    function update_board(\n        uint64 current_board,\n        uint8 index,\n        bool direction,\n        uint8 ship_size\n    ) private pure returns (uint64) {\n        for (uint8 i = 0; i < ship_size; i++) {\n            // Check if we are at the end of the row\n            if (index & 0x7 == 0) {\n                return 0;\n            }\n            // check if we are at the end of the board\n            if (index > 63) {\n                return 0;\n            }\n\n            // If the bit is already set, it means that there is a collision\n            if (current_board & uint64(1 << index) != 0) {\n                return 0;\n            }\n\n            // Update board\n            current_board |= uint64(1 << index);\n            if (direction) {\n                index += 1;\n            } else {\n                index += 8;\n            }\n        }\n\n        return current_board;\n    }\n\n    function build_board(Ship[5] memory ships) private pure returns (uint64) {\n        uint64 board = 0;\n        uint8[5] memory sizes = [5, 4, 3, 2, 2];\n\n        for (uint8 i = 0; i < 5; i++) {\n            board = update_board(\n                board,\n                ships[i].start_position,\n                ships[i].direction,\n                sizes[i]\n            );\n            if (board == 0) {\n                return 0;\n            }\n        }\n\n        return board;\n    }\n\n    /* View functions */\n    // Return GameState\n    function get_game_state(uint256 game_id) external view returns (GameState) {\n        require(id2game[game_id].game_id != 0, \"Game does not exist\");\n        return id2game[game_id].game_state;\n    }\n\n    function get_free_games_length() external view returns (uint256) {\n        return free_games_count;\n    }\n}\n",
  "sourcePath": "/home/drw0if/p2p/battleship/contracts/BattleShip.sol",
  "compiler": {
    "name": "solc",
    "version": "0.8.19+commit.7dd6d404.Emscripten.clang"
  },
  "schemaVersion": "3.4.16",
  "updatedAt": "2023-12-25T22:02:54.524Z",
  "networkType": "ethereum",
  "devdoc": {
    "kind": "dev",
    "methods": {},
    "version": 1
  },
  "userdoc": {
    "kind": "user",
    "methods": {},
    "version": 1
  }
}