{
  "contractName": "BattleShip",
  "abi": [
    {
      "anonymous": false,
      "inputs": [
        {
          "indexed": false,
          "internalType": "uint256",
          "name": "game_id",
          "type": "uint256"
        },
        {
          "indexed": false,
          "internalType": "address",
          "name": "player_id",
          "type": "address"
        }
      ],
      "name": "AccusationRequest",
      "type": "event"
    },
    {
      "anonymous": false,
      "inputs": [
        {
          "indexed": false,
          "internalType": "uint256",
          "name": "game_id",
          "type": "uint256"
        },
        {
          "indexed": false,
          "internalType": "address",
          "name": "player_id",
          "type": "address"
        },
        {
          "indexed": false,
          "internalType": "uint256",
          "name": "board",
          "type": "uint256"
        }
      ],
      "name": "BoardCommitted",
      "type": "event"
    },
    {
      "anonymous": false,
      "inputs": [
        {
          "indexed": false,
          "internalType": "uint256",
          "name": "game_id",
          "type": "uint256"
        },
        {
          "indexed": false,
          "internalType": "address",
          "name": "player_id",
          "type": "address"
        }
      ],
      "name": "CheatingAttempt",
      "type": "event"
    },
    {
      "anonymous": false,
      "inputs": [
        {
          "indexed": false,
          "internalType": "uint256",
          "name": "game_id",
          "type": "uint256"
        }
      ],
      "name": "EndOfGame",
      "type": "event"
    },
    {
      "anonymous": false,
      "inputs": [
        {
          "indexed": false,
          "internalType": "uint256",
          "name": "game_id",
          "type": "uint256"
        },
        {
          "indexed": false,
          "internalType": "uint256",
          "name": "fee",
          "type": "uint256"
        }
      ],
      "name": "FeeAgreed",
      "type": "event"
    },
    {
      "anonymous": false,
      "inputs": [
        {
          "indexed": false,
          "internalType": "uint256",
          "name": "game_id",
          "type": "uint256"
        },
        {
          "indexed": false,
          "internalType": "address",
          "name": "player_id",
          "type": "address"
        },
        {
          "indexed": false,
          "internalType": "uint256",
          "name": "fee",
          "type": "uint256"
        }
      ],
      "name": "FeeProposed",
      "type": "event"
    },
    {
      "anonymous": false,
      "inputs": [
        {
          "indexed": false,
          "internalType": "uint256",
          "name": "game_id",
          "type": "uint256"
        },
        {
          "indexed": false,
          "internalType": "address",
          "name": "winner",
          "type": "address"
        }
      ],
      "name": "GameOver",
      "type": "event"
    },
    {
      "anonymous": false,
      "inputs": [
        {
          "indexed": false,
          "internalType": "uint256",
          "name": "game_id",
          "type": "uint256"
        }
      ],
      "name": "GameStarted",
      "type": "event"
    },
    {
      "anonymous": false,
      "inputs": [
        {
          "indexed": false,
          "internalType": "uint256",
          "name": "game_id",
          "type": "uint256"
        },
        {
          "indexed": false,
          "internalType": "address",
          "name": "player_id",
          "type": "address"
        },
        {
          "indexed": false,
          "internalType": "uint8",
          "name": "position",
          "type": "uint8"
        }
      ],
      "name": "Hit",
      "type": "event"
    },
    {
      "anonymous": false,
      "inputs": [
        {
          "indexed": false,
          "internalType": "uint256",
          "name": "game_id",
          "type": "uint256"
        },
        {
          "indexed": false,
          "internalType": "address",
          "name": "player_id",
          "type": "address"
        },
        {
          "indexed": false,
          "internalType": "uint8",
          "name": "position",
          "type": "uint8"
        }
      ],
      "name": "Miss",
      "type": "event"
    },
    {
      "anonymous": false,
      "inputs": [
        {
          "indexed": false,
          "internalType": "uint256",
          "name": "game_id",
          "type": "uint256"
        },
        {
          "indexed": false,
          "internalType": "address",
          "name": "player_id",
          "type": "address"
        },
        {
          "indexed": false,
          "internalType": "uint8",
          "name": "move",
          "type": "uint8"
        }
      ],
      "name": "MoveProposed",
      "type": "event"
    },
    {
      "anonymous": false,
      "inputs": [
        {
          "indexed": false,
          "internalType": "uint256",
          "name": "game_id",
          "type": "uint256"
        }
      ],
      "name": "NewGame",
      "type": "event"
    },
    {
      "anonymous": false,
      "inputs": [
        {
          "indexed": false,
          "internalType": "uint256",
          "name": "game_id",
          "type": "uint256"
        },
        {
          "indexed": false,
          "internalType": "address",
          "name": "player_id",
          "type": "address"
        }
      ],
      "name": "PlayerJoined",
      "type": "event"
    },
    {
      "inputs": [],
      "name": "new_game",
      "outputs": [],
      "stateMutability": "nonpayable",
      "type": "function"
    },
    {
      "inputs": [
        {
          "internalType": "uint256",
          "name": "game_id",
          "type": "uint256"
        }
      ],
      "name": "join_game",
      "outputs": [],
      "stateMutability": "nonpayable",
      "type": "function"
    },
    {
      "inputs": [],
      "name": "join_random_game",
      "outputs": [],
      "stateMutability": "nonpayable",
      "type": "function"
    },
    {
      "inputs": [
        {
          "internalType": "uint256",
          "name": "game_id",
          "type": "uint256"
        },
        {
          "internalType": "uint256",
          "name": "fee",
          "type": "uint256"
        }
      ],
      "name": "propose_fee",
      "outputs": [],
      "stateMutability": "nonpayable",
      "type": "function"
    },
    {
      "inputs": [
        {
          "internalType": "uint256",
          "name": "game_id",
          "type": "uint256"
        },
        {
          "internalType": "uint256",
          "name": "board",
          "type": "uint256"
        }
      ],
      "name": "commit_board",
      "outputs": [],
      "stateMutability": "payable",
      "type": "function",
      "payable": true
    },
    {
      "inputs": [
        {
          "internalType": "uint256",
          "name": "game_id",
          "type": "uint256"
        },
        {
          "internalType": "uint8",
          "name": "move",
          "type": "uint8"
        }
      ],
      "name": "submit_move",
      "outputs": [],
      "stateMutability": "nonpayable",
      "type": "function"
    },
    {
      "inputs": [
        {
          "internalType": "uint256",
          "name": "game_id",
          "type": "uint256"
        },
        {
          "internalType": "bool",
          "name": "has_ship",
          "type": "bool"
        },
        {
          "internalType": "uint256",
          "name": "nonce",
          "type": "uint256"
        },
        {
          "internalType": "uint256[6]",
          "name": "proof",
          "type": "uint256[6]"
        }
      ],
      "name": "submit_proof",
      "outputs": [],
      "stateMutability": "nonpayable",
      "type": "function"
    },
    {
      "inputs": [
        {
          "internalType": "uint256",
          "name": "game_id",
          "type": "uint256"
        },
        {
          "components": [
            {
              "internalType": "uint8",
              "name": "start_position",
              "type": "uint8"
            },
            {
              "internalType": "bool",
              "name": "direction",
              "type": "bool"
            }
          ],
          "internalType": "struct BattleShip.Ship[5]",
          "name": "ships",
          "type": "tuple[5]"
        },
        {
          "internalType": "uint256[64]",
          "name": "nonces",
          "type": "uint256[64]"
        }
      ],
      "name": "reveal_board",
      "outputs": [],
      "stateMutability": "nonpayable",
      "type": "function"
    },
    {
      "inputs": [
        {
          "internalType": "uint256",
          "name": "game_id",
          "type": "uint256"
        }
      ],
      "name": "withdraw",
      "outputs": [],
      "stateMutability": "nonpayable",
      "type": "function"
    },
    {
      "inputs": [
        {
          "internalType": "uint256",
          "name": "game_id",
          "type": "uint256"
        }
      ],
      "name": "make_accusation",
      "outputs": [],
      "stateMutability": "nonpayable",
      "type": "function"
    },
    {
      "inputs": [
        {
          "internalType": "uint256",
          "name": "game_id",
          "type": "uint256"
        }
      ],
      "name": "get_game_state",
      "outputs": [
        {
          "internalType": "enum BattleShip.GameState",
          "name": "",
          "type": "uint8"
        }
      ],
      "stateMutability": "view",
      "type": "function",
      "constant": true
    },
    {
      "inputs": [],
      "name": "get_free_games_length",
      "outputs": [
        {
          "internalType": "uint256",
          "name": "",
          "type": "uint256"
        }
      ],
      "stateMutability": "view",
      "type": "function",
      "constant": true
    },
    {
      "inputs": [
        {
          "internalType": "uint256",
          "name": "game_id",
          "type": "uint256"
        }
      ],
      "name": "get_opponent",
      "outputs": [
        {
          "internalType": "address",
          "name": "",
          "type": "address"
        }
      ],
      "stateMutability": "view",
      "type": "function",
      "constant": true
    }
  ],
  "bytecode": "0x608060405234801561001057600080fd5b506147a9806100206000396000f3fe6080604052600436106100c25760003560e01c80634a7b26ec1161007f57806385b3f2b41161005957806385b3f2b41461023c578063b88a392d14610267578063d4c66c3514610290578063d9d9a9a7146102ac576100c2565b80634a7b26ec146101d35780634c856460146101fc5780637e1d5c4c14610213576100c2565b80630e6372e4146100c757806326bd595814610104578063276df1af1461012d5780632e1a7d4d1461015657806342085e381461017f578063447d4436146101bc575b600080fd5b3480156100d357600080fd5b506100ee60048036038101906100e991906134e9565b6102d5565b6040516100fb919061358d565b60405180910390f35b34801561011057600080fd5b5061012b60048036038101906101269190613727565b610358565b005b34801561013957600080fd5b50610154600480360381019061014f91906137c8565b610bab565b005b34801561016257600080fd5b5061017d600480360381019061017891906134e9565b611007565b005b34801561018b57600080fd5b506101a660048036038101906101a191906134e9565b61149b565b6040516101b39190613849565b60405180910390f35b3480156101c857600080fd5b506101d16115c5565b005b3480156101df57600080fd5b506101fa60048036038101906101f591906134e9565b611654565b005b34801561020857600080fd5b5061021161190b565b005b34801561021f57600080fd5b5061023a60048036038101906102359190613864565b611aef565b005b34801561024857600080fd5b50610251611e39565b60405161025e91906138b3565b60405180910390f35b34801561027357600080fd5b5061028e600480360381019061028991906134e9565b611e43565b005b6102aa60048036038101906102a59190613864565b61220a565b005b3480156102b857600080fd5b506102d360048036038101906102ce9190613a85565b612667565b005b600080600080848152602001908152602001600020600001540361032e576040517f08c379a000000000000000000000000000000000000000000000000000000000815260040161032590613b37565b60405180910390fd5b60008083815260200190815260200160002060010160009054906101000a900460ff169050919050565b83600080600083815260200190815260200160002060000154036103b1576040517f08c379a00000000000000000000000000000000000000000000000000000000081526004016103a890613b37565b60405180910390fd5b3373ffffffffffffffffffffffffffffffffffffffff1660008083815260200190815260200160002060020160000160009054906101000a900473ffffffffffffffffffffffffffffffffffffffff1673ffffffffffffffffffffffffffffffffffffffff16148061048657503373ffffffffffffffffffffffffffffffffffffffff1660008083815260200190815260200160002060080160000160009054906101000a900473ffffffffffffffffffffffffffffffffffffffff1673ffffffffffffffffffffffffffffffffffffffff16145b6104c5576040517f08c379a00000000000000000000000000000000000000000000000000000000081526004016104bc90613ba3565b60405180910390fd5b8460048060068111156104db576104da613516565b5b60008084815260200190815260200160002060010160009054906101000a900460ff1660068111156105105761050f613516565b5b14610550576040517f08c379a000000000000000000000000000000000000000000000000000000000815260040161054790613c0f565b60405180910390fd5b60068014610593576040517f08c379a000000000000000000000000000000000000000000000000000000000815260040161058a90613ca1565b60405180910390fd5b600080600089815260200190815260200160002090506000803373ffffffffffffffffffffffffffffffffffffffff168360020160000160009054906101000a900473ffffffffffffffffffffffffffffffffffffffff1673ffffffffffffffffffffffffffffffffffffffff160361061757826002019150826008019050610624565b8260080191508260020190505b8160050160129054906101000a900460ff1615610676576040517f08c379a000000000000000000000000000000000000000000000000000000000815260040161066d90613d0d565b60405180910390fd5b6106988160050160119054906101000a900460ff168a8a8a8660020154612dbf565b6107ce5760068360010160006101000a81548160ff021916908360068111156106c4576106c3613516565b5b02179055508060000160009054906101000a900473ffffffffffffffffffffffffffffffffffffffff1683600f0160016101000a81548173ffffffffffffffffffffffffffffffffffffffff021916908373ffffffffffffffffffffffffffffffffffffffff1602179055507fa94eb170965acb1cb9de7b8c291cb52184d88fe98c0710bbb74068e2efb6f8708a33604051610761929190613d2d565b60405180910390a17f668ce4ca171dee87d4d9d2b5d3dc31963fe7fbe50b982064dddb0fb9d56aee8b8a8260000160009054906101000a900473ffffffffffffffffffffffffffffffffffffffff166040516107be929190613d2d565b60405180910390a1505050610ba2565b6107d88a83612ed0565b156107e557505050610ba2565b8060050160119054906101000a900460ff1660ff166001901b8260050160008282829054906101000a900467ffffffffffffffff161792506101000a81548167ffffffffffffffff021916908367ffffffffffffffff1602179055508815610952578160050160119054906101000a900460ff1660ff166001901b8160050160088282829054906101000a900467ffffffffffffffff161792506101000a81548167ffffffffffffffff021916908367ffffffffffffffff16021790555080600501601081819054906101000a900460ff16809291906108c490613d85565b91906101000a81548160ff021916908360ff160217905550507f362fa9e1f76c7bd7da2bb79b2c5a6979f30761fef11ef5f06aee598fff2d0f208a8260000160009054906101000a900473ffffffffffffffffffffffffffffffffffffffff168360050160119054906101000a900460ff1660405161094593929190613dbd565b60405180910390a16109c3565b7f7a542921653b80e9acb31eb9f20c8a79aaf5fc7bbc090bf2e75b5cc26607c7f58a8260000160009054906101000a900473ffffffffffffffffffffffffffffffffffffffff168360050160119054906101000a900460ff166040516109ba93929190613dbd565b60405180910390a15b60018260050160126101000a81548160ff0219169083151502179055508060050160129054906101000a900460ff1615610b9e57600183600f0160008282829054906101000a900460ff16610a189190613df4565b92506101000a81548160ff021916908360ff160217905550601060ff168160050160109054906101000a900460ff1660ff161480610a6d5750601060ff168260050160109054906101000a900460ff1660ff16145b80610a8f5750604060ff1683600f0160009054906101000a900460ff1660ff16145b15610b005760058360010160006101000a81548160ff02191690836006811115610abc57610abb613516565b5b02179055507f55bc7d27b24d9318cbcdf7a99aa9c14ab31e868d7adc542554db60815e5718cd8a604051610af091906138b3565b60405180910390a1505050610ba2565b60038360010160006101000a81548160ff02191690836006811115610b2857610b27613516565b5b021790555060ff8160050160116101000a81548160ff021916908360ff16021790558260050160116101000a81548160ff021916908360ff16021790555060008160050160126101000a81548160ff02191690831515021790558260050160126101000a81548160ff0219169083151502179055505b5050505b50505050505050565b8160008060008381526020019081526020016000206000015403610c04576040517f08c379a0000000000000000000000000000000000000000000000000000000008152600401610bfb90613b37565b60405180910390fd5b3373ffffffffffffffffffffffffffffffffffffffff1660008083815260200190815260200160002060020160000160009054906101000a900473ffffffffffffffffffffffffffffffffffffffff1673ffffffffffffffffffffffffffffffffffffffff161480610cd957503373ffffffffffffffffffffffffffffffffffffffff1660008083815260200190815260200160002060080160000160009054906101000a900473ffffffffffffffffffffffffffffffffffffffff1673ffffffffffffffffffffffffffffffffffffffff16145b610d18576040517f08c379a0000000000000000000000000000000000000000000000000000000008152600401610d0f90613ba3565b60405180910390fd5b826003806006811115610d2e57610d2d613516565b5b60008084815260200190815260200160002060010160009054906101000a900460ff166006811115610d6357610d62613516565b5b14610da3576040517f08c379a0000000000000000000000000000000000000000000000000000000008152600401610d9a90613c0f565b60405180910390fd5b60408460ff1610610de9576040517f08c379a0000000000000000000000000000000000000000000000000000000008152600401610de090613e75565b60405180910390fd5b600080600087815260200190815260200160002090506000803373ffffffffffffffffffffffffffffffffffffffff168360020160000160009054906101000a900473ffffffffffffffffffffffffffffffffffffffff1673ffffffffffffffffffffffffffffffffffffffff1603610e6d57826002019150826008019050610e7a565b8260080191508260020190505b60ff80168260050160119054906101000a900460ff1660ff1614610ed3576040517f08c379a0000000000000000000000000000000000000000000000000000000008152600401610eca90613ee1565b60405180910390fd5b60008760ff166001901b8260050160009054906101000a900467ffffffffffffffff1667ffffffffffffffff161614610f41576040517f08c379a0000000000000000000000000000000000000000000000000000000008152600401610f3890613f4d565b60405180910390fd5b610f4b8883612ed0565b15610f5857505050611000565b868260050160116101000a81548160ff021916908360ff1602179055507f55cac4ede2505e92e4459bdeff964df027cd1fc03b9bf762d3d27a700de7c998883389604051610fa893929190613dbd565b60405180910390a160ff80168160050160119054906101000a900460ff1660ff1614610ffc5760048360010160006101000a81548160ff02191690836006811115610ff657610ff5613516565b5b02179055505b5050505b5050505050565b8060008060008381526020019081526020016000206000015403611060576040517f08c379a000000000000000000000000000000000000000000000000000000000815260040161105790613b37565b60405180910390fd5b3373ffffffffffffffffffffffffffffffffffffffff1660008083815260200190815260200160002060020160000160009054906101000a900473ffffffffffffffffffffffffffffffffffffffff1673ffffffffffffffffffffffffffffffffffffffff16148061113557503373ffffffffffffffffffffffffffffffffffffffff1660008083815260200190815260200160002060080160000160009054906101000a900473ffffffffffffffffffffffffffffffffffffffff1673ffffffffffffffffffffffffffffffffffffffff16145b611174576040517f08c379a000000000000000000000000000000000000000000000000000000000815260040161116b90613ba3565b60405180910390fd5b81600680600681111561118a57611189613516565b5b60008084815260200190815260200160002060010160009054906101000a900460ff1660068111156111bf576111be613516565b5b146111ff576040517f08c379a00000000000000000000000000000000000000000000000000000000081526004016111f690613c0f565b60405180910390fd5b600080600086815260200190815260200160002090503373ffffffffffffffffffffffffffffffffffffffff1681600f0160019054906101000a900473ffffffffffffffffffffffffffffffffffffffff1673ffffffffffffffffffffffffffffffffffffffff1614806112c35750600073ffffffffffffffffffffffffffffffffffffffff1681600f0160019054906101000a900473ffffffffffffffffffffffffffffffffffffffff1673ffffffffffffffffffffffffffffffffffffffff16145b611302576040517f08c379a00000000000000000000000000000000000000000000000000000000081526004016112f990613fdf565b60405180910390fd5b60003373ffffffffffffffffffffffffffffffffffffffff168260020160000160009054906101000a900473ffffffffffffffffffffffffffffffffffffffff1673ffffffffffffffffffffffffffffffffffffffff160361136957816002019050611370565b8160080190505b8060050160139054906101000a900460ff16156113c2576040517f08c379a00000000000000000000000000000000000000000000000000000000081526004016113b99061404b565b60405180910390fd5b600082600201600101549050600073ffffffffffffffffffffffffffffffffffffffff1683600f0160019054906101000a900473ffffffffffffffffffffffffffffffffffffffff1673ffffffffffffffffffffffffffffffffffffffff160361142e57600181901b90505b60018260050160136101000a81548160ff0219169083151502179055503373ffffffffffffffffffffffffffffffffffffffff166108fc829081150290604051600060405180830381858888f19350505050158015611491573d6000803e3d6000fd5b5050505050505050565b60008060008084815260200190815260200160002060000154036114f4576040517f08c379a00000000000000000000000000000000000000000000000000000000081526004016114eb90613b37565b60405180910390fd5b600080600084815260200190815260200160002090503373ffffffffffffffffffffffffffffffffffffffff168160020160000160009054906101000a900473ffffffffffffffffffffffffffffffffffffffff1673ffffffffffffffffffffffffffffffffffffffff1603611594578060080160000160009054906101000a900473ffffffffffffffffffffffffffffffffffffffff169150506115c0565b8060020160000160009054906101000a900473ffffffffffffffffffffffffffffffffffffffff169150505b919050565b6000600254036115dc576115d761190b565b611652565b60006001436115eb919061406b565b6040516020016115fb91906140c0565b6040516020818303038152906040528051906020012060001c90506000600160025483611628919061410a565b815481106116395761163861413b565b5b9060005260206000200154905061164f81611654565b50505b565b600080600083815260200190815260200160002060000154036116ac576040517f08c379a00000000000000000000000000000000000000000000000000000000081526004016116a390613b37565b60405180910390fd5b600080600083815260200190815260200160002090503373ffffffffffffffffffffffffffffffffffffffff168160020160000160009054906101000a900473ffffffffffffffffffffffffffffffffffffffff1673ffffffffffffffffffffffffffffffffffffffff1603611757576040517f08c379a000000000000000000000000000000000000000000000000000000000815260040161174e906141b6565b60405180910390fd5b6001600254036117a15760016000815481106117765761177561413b565b5b906000526020600020016000905560026000815480929190611797906141d6565b919050555061185b565b600081600e01549050600060016002546117bb919061406b565b90506000600182815481106117d3576117d261413b565b5b9060005260206000200154905080600184815481106117f5576117f461413b565b5b906000526020600020018190555082600080838152602001908152602001600020600e0181905550600182815481106118315761183061413b565b5b906000526020600020016000905560026000815480929190611852906141d6565b91905055505050505b338160080160000160006101000a81548173ffffffffffffffffffffffffffffffffffffffff021916908373ffffffffffffffffffffffffffffffffffffffff16021790555060018160010160006101000a81548160ff021916908360068111156118c9576118c8613516565b5b02179055507f87969bc7faf902221a147b95ceba76e011c5efb0339a0a8ee7a2bb82d9cfbbd682336040516118ff929190613d2d565b60405180910390a15050565b600060014361191a919061406b565b60405160200161192a91906140c0565b6040516020818303038152906040528051906020012060001c90506000806000838152602001908152602001600020600001541461199d576040517f08c379a000000000000000000000000000000000000000000000000000000000815260040161199490614271565b60405180910390fd5b6000806000838152602001908152602001600020905081816000018190555060008160010160006101000a81548160ff021916908360068111156119e4576119e3613516565b5b021790555060025481600e018190555060018054905060025403611a30576001829080600181540180825580915050600190039060005260206000200160009091909190915055611a56565b81600160025481548110611a4757611a4661413b565b5b90600052602060002001819055505b60026000815480929190611a6990614291565b9190505550338160020160000160006101000a81548173ffffffffffffffffffffffffffffffffffffffff021916908373ffffffffffffffffffffffffffffffffffffffff1602179055507fa0b7f6f22bb4f69adc52dd16ffe2a964ab8b577be274247fa9a1547b03ce3e5582604051611ae391906138b3565b60405180910390a15050565b8160008060008381526020019081526020016000206000015403611b48576040517f08c379a0000000000000000000000000000000000000000000000000000000008152600401611b3f90613b37565b60405180910390fd5b3373ffffffffffffffffffffffffffffffffffffffff1660008083815260200190815260200160002060020160000160009054906101000a900473ffffffffffffffffffffffffffffffffffffffff1673ffffffffffffffffffffffffffffffffffffffff161480611c1d57503373ffffffffffffffffffffffffffffffffffffffff1660008083815260200190815260200160002060080160000160009054906101000a900473ffffffffffffffffffffffffffffffffffffffff1673ffffffffffffffffffffffffffffffffffffffff16145b611c5c576040517f08c379a0000000000000000000000000000000000000000000000000000000008152600401611c5390613ba3565b60405180910390fd5b826001806006811115611c7257611c71613516565b5b60008084815260200190815260200160002060010160009054906101000a900460ff166006811115611ca757611ca6613516565b5b14611ce7576040517f08c379a0000000000000000000000000000000000000000000000000000000008152600401611cde90613c0f565b60405180910390fd5b600080600087815260200190815260200160002090503373ffffffffffffffffffffffffffffffffffffffff168160020160000160009054906101000a900473ffffffffffffffffffffffffffffffffffffffff1673ffffffffffffffffffffffffffffffffffffffff1603611d6857848160020160010181905550611d75565b8481600801600101819055505b8060080160010154816002016001015403611df55760028160010160006101000a81548160ff02191690836006811115611db257611db1613516565b5b02179055507f49d0a3e35aea3c38dab75808edcf04c0cfae71b83c1a7ed55dc4e6a1bce8afc88686604051611de89291906142d9565b60405180910390a1611e31565b7f491d190755439e2ce91c7bed9989ef10d393e72ddb15dc0e75fe4c483998c263863387604051611e2893929190614302565b60405180910390a15b505050505050565b6000600254905090565b8060008060008381526020019081526020016000206000015403611e9c576040517f08c379a0000000000000000000000000000000000000000000000000000000008152600401611e9390613b37565b60405180910390fd5b3373ffffffffffffffffffffffffffffffffffffffff1660008083815260200190815260200160002060020160000160009054906101000a900473ffffffffffffffffffffffffffffffffffffffff1673ffffffffffffffffffffffffffffffffffffffff161480611f7157503373ffffffffffffffffffffffffffffffffffffffff1660008083815260200190815260200160002060080160000160009054906101000a900473ffffffffffffffffffffffffffffffffffffffff1673ffffffffffffffffffffffffffffffffffffffff16145b611fb0576040517f08c379a0000000000000000000000000000000000000000000000000000000008152600401611fa790613ba3565b60405180910390fd5b6000806000848152602001908152602001600020905060036006811115611fda57611fd9613516565b5b8160010160009054906101000a900460ff166006811115611ffe57611ffd613516565b5b148061203f57506004600681111561201957612018613516565b5b8160010160009054906101000a900460ff16600681111561203d5761203c613516565b5b145b8061207f57506005600681111561205957612058613516565b5b8160010160009054906101000a900460ff16600681111561207d5761207c613516565b5b145b6120be576040517f08c379a00000000000000000000000000000000000000000000000000000000081526004016120b590613c0f565b60405180910390fd5b6000803373ffffffffffffffffffffffffffffffffffffffff168360020160000160009054906101000a900473ffffffffffffffffffffffffffffffffffffffff1673ffffffffffffffffffffffffffffffffffffffff160361212c57826002019150826008019050612139565b8260080191508260020190505b8160030160009054906101000a900460ff161561218b576040517f08c379a0000000000000000000000000000000000000000000000000000000008152600401612182906143ab565b60405180910390fd5b8060030160009054906101000a900460ff16156121dd576040517f08c379a00000000000000000000000000000000000000000000000000000000081526004016121d49061443d565b60405180910390fd5b60018160030160006101000a81548160ff0219169083151502179055504281600401819055505050505050565b8160008060008381526020019081526020016000206000015403612263576040517f08c379a000000000000000000000000000000000000000000000000000000000815260040161225a90613b37565b60405180910390fd5b3373ffffffffffffffffffffffffffffffffffffffff1660008083815260200190815260200160002060020160000160009054906101000a900473ffffffffffffffffffffffffffffffffffffffff1673ffffffffffffffffffffffffffffffffffffffff16148061233857503373ffffffffffffffffffffffffffffffffffffffff1660008083815260200190815260200160002060080160000160009054906101000a900473ffffffffffffffffffffffffffffffffffffffff1673ffffffffffffffffffffffffffffffffffffffff16145b612377576040517f08c379a000000000000000000000000000000000000000000000000000000000815260040161236e90613ba3565b60405180910390fd5b82600280600681111561238d5761238c613516565b5b60008084815260200190815260200160002060010160009054906101000a900460ff1660068111156123c2576123c1613516565b5b14612402576040517f08c379a00000000000000000000000000000000000000000000000000000000081526004016123f990613c0f565b60405180910390fd5b6000806000878152602001908152602001600020905060003373ffffffffffffffffffffffffffffffffffffffff168260020160000160009054906101000a900473ffffffffffffffffffffffffffffffffffffffff1673ffffffffffffffffffffffffffffffffffffffff161461247d5781600801612482565b816002015b905060008160020154036124cb576040517f08c379a00000000000000000000000000000000000000000000000000000000081526004016124c2906144a9565b60405180910390fd5b80600101543414612511576040517f08c379a00000000000000000000000000000000000000000000000000000000081526004016125089061453b565b60405180910390fd5b858160020181905550600082600201600201541415801561253a57506000826008016002015414155b156126225760038260010160006101000a81548160ff0219169083600681111561256757612566613516565b5b021790555060ff8260080160050160116101000a81548160ff021916908360ff16021790558260020160050160116101000a81548160ff021916908360ff1602179055507f010d29992f394ceed8a8aed324eeba56758ab368faf07ca79af9fffe7953b8eb8733886040516125de93929190614302565b60405180910390a17f50ad08f58a27f2851d7e3a1b3a6a46b290f2ce677e99642d30ff639721e777908760405161261591906138b3565b60405180910390a161265e565b7f010d29992f394ceed8a8aed324eeba56758ab368faf07ca79af9fffe7953b8eb87338860405161265593929190614302565b60405180910390a15b50505050505050565b82600080600083815260200190815260200160002060000154036126c0576040517f08c379a00000000000000000000000000000000000000000000000000000000081526004016126b790613b37565b60405180910390fd5b3373ffffffffffffffffffffffffffffffffffffffff1660008083815260200190815260200160002060020160000160009054906101000a900473ffffffffffffffffffffffffffffffffffffffff1673ffffffffffffffffffffffffffffffffffffffff16148061279557503373ffffffffffffffffffffffffffffffffffffffff1660008083815260200190815260200160002060080160000160009054906101000a900473ffffffffffffffffffffffffffffffffffffffff1673ffffffffffffffffffffffffffffffffffffffff16145b6127d4576040517f08c379a00000000000000000000000000000000000000000000000000000000081526004016127cb90613ba3565b60405180910390fd5b8360058060068111156127ea576127e9613516565b5b60008084815260200190815260200160002060010160009054906101000a900460ff16600681111561281f5761281e613516565b5b1461285f576040517f08c379a000000000000000000000000000000000000000000000000000000000815260040161285690613c0f565b60405180910390fd5b600080600088815260200190815260200160002090506000803373ffffffffffffffffffffffffffffffffffffffff168360020160000160009054906101000a900473ffffffffffffffffffffffffffffffffffffffff1673ffffffffffffffffffffffffffffffffffffffff16036128e3578260020191508260080190506128f0565b8260080191508260020190505b8160050160129054906101000a900460ff1615612942576040517f08c379a0000000000000000000000000000000000000000000000000000000008152600401612939906145a7565b60405180910390fd5b60408014612985576040517f08c379a000000000000000000000000000000000000000000000000000000000815260040161297c90614613565b60405180910390fd5b600580146129c8576040517f08c379a00000000000000000000000000000000000000000000000000000000081526004016129bf9061467f565b60405180910390fd5b60006129d3896130fc565b905060008167ffffffffffffffff1614806129fa57506129f88360020154828a6131f2565b155b15612b325760068460010160006101000a81548160ff02191690836006811115612a2757612a26613516565b5b02179055508160000160009054906101000a900473ffffffffffffffffffffffffffffffffffffffff1684600f0160016101000a81548173ffffffffffffffffffffffffffffffffffffffff021916908373ffffffffffffffffffffffffffffffffffffffff1602179055507fa94eb170965acb1cb9de7b8c291cb52184d88fe98c0710bbb74068e2efb6f8708a33604051612ac4929190613d2d565b60405180910390a17f668ce4ca171dee87d4d9d2b5d3dc31963fe7fbe50b982064dddb0fb9d56aee8b8a8360000160009054906101000a900473ffffffffffffffffffffffffffffffffffffffff16604051612b21929190613d2d565b60405180910390a150505050612db7565b612b3c8a84612ed0565b15612b4a5750505050612db7565b808360050160086101000a81548167ffffffffffffffff021916908367ffffffffffffffff16021790555060018360050160126101000a81548160ff0219169083151502179055508160050160129054906101000a900460ff1615612db2578160050160109054906101000a900460ff1660ff168360050160109054906101000a900460ff1660ff161115612c45578260000160009054906101000a900473ffffffffffffffffffffffffffffffffffffffff1684600f0160016101000a81548173ffffffffffffffffffffffffffffffffffffffff021916908373ffffffffffffffffffffffffffffffffffffffff160217905550612d27565b8260050160109054906101000a900460ff1660ff168260050160109054906101000a900460ff1660ff161115612ce1578160000160009054906101000a900473ffffffffffffffffffffffffffffffffffffffff1684600f0160016101000a81548173ffffffffffffffffffffffffffffffffffffffff021916908373ffffffffffffffffffffffffffffffffffffffff160217905550612d26565b600084600f0160016101000a81548173ffffffffffffffffffffffffffffffffffffffff021916908373ffffffffffffffffffffffffffffffffffffffff1602179055505b5b60068460010160006101000a81548160ff02191690836006811115612d4f57612d4e613516565b5b02179055507f668ce4ca171dee87d4d9d2b5d3dc31963fe7fbe50b982064dddb0fb9d56aee8b8a85600f0160019054906101000a900473ffffffffffffffffffffffffffffffffffffffff16604051612da9929190613d2d565b60405180910390a15b505050505b505050505050565b6000808585604051602001612dd59291906146e7565b6040516020818303038152906040528051906020012060001c905060005b60068160ff161015612ec05760006001891660ff1603612e5a5781858260ff1660068110612e2457612e2361413b565b5b6020020151604051602001612e3a929190614713565b6040516020818303038152906040528051906020012060001c9150612ea3565b848160ff1660068110612e7057612e6f61413b565b5b602002015182604051602001612e87929190614713565b6040516020818303038152906040528051906020012060001c91505b60018860ff16901c97508080612eb890613d85565b915050612df3565b5082811491505095945050505050565b60008160030160009054906101000a900460ff16156130f1574260058360040154612efb919061473f565b1015612f315760008260030160006101000a81548160ff02191690831515021790555060008260040181905550600090506130f6565b6000806000858152602001908152602001600020905060068160010160006101000a81548160ff02191690836006811115612f6f57612f6e613516565b5b02179055508060020160000160009054906101000a900473ffffffffffffffffffffffffffffffffffffffff1673ffffffffffffffffffffffffffffffffffffffff168360000160009054906101000a900473ffffffffffffffffffffffffffffffffffffffff1673ffffffffffffffffffffffffffffffffffffffff161461301f578060020160000160009054906101000a900473ffffffffffffffffffffffffffffffffffffffff16613048565b8060080160000160009054906101000a900473ffffffffffffffffffffffffffffffffffffffff165b81600f0160016101000a81548173ffffffffffffffffffffffffffffffffffffffff021916908373ffffffffffffffffffffffffffffffffffffffff1602179055507f668ce4ca171dee87d4d9d2b5d3dc31963fe7fbe50b982064dddb0fb9d56aee8b8482600f0160019054906101000a900473ffffffffffffffffffffffffffffffffffffffff166040516130df929190613d2d565b60405180910390a160019150506130f6565b600090505b92915050565b6000806000905060006040518060a00160405280600560ff168152602001600460ff168152602001600360ff168152602001600260ff168152602001600260ff16815250905060005b60058160ff1610156131e6576131b383868360ff166005811061316b5761316a61413b565b5b602002015160000151878460ff166005811061318a5761318961413b565b5b602002015160200151858560ff16600581106131a9576131a861413b565b5b60200201516133c2565b925060008367ffffffffffffffff16036131d357600093505050506131ed565b80806131de90613d85565b915050613145565b5081925050505b919050565b6000806000905060008060409050613208613481565b600093505b8160ff168460ff1610156132b2576001808560ff168967ffffffffffffffff16901c1667ffffffffffffffff1614868560ff16604081106132515761325061413b565b5b60200201516040516020016132679291906146e7565b6040516020818303038152906040528051906020012060001c818560ff16604081106132965761329561413b565b5b60200201818152505083806132aa90613d85565b94505061320d565b60018260ff16901c91505b60008260ff161461339a57600092508293505b8160ff168460ff16101561338b57808360ff16604081106132f4576132f361413b565b5b6020020151816001856133079190613df4565b60ff166040811061331b5761331a61413b565b5b6020020151604051602001613331929190614713565b6040516020818303038152906040528051906020012060001c818560ff16604081106133605761335f61413b565b5b6020020181815250506002836133769190613df4565b9250838061338390613d85565b9450506132d0565b60018260ff16901c91506132bd565b87816000604081106133af576133ae61413b565b5b6020020151149450505050509392505050565b600080600090505b8260ff168160ff1610156134745760006007861660ff16036133f0576000915050613479565b603f8560ff161115613406576000915050613479565b60008560ff166001901b871667ffffffffffffffff161461342b576000915050613479565b8460ff166001901b8617955083156134515760018561344a9190613df4565b9450613461565b60088561345e9190613df4565b94505b808061346c90613d85565b9150506133ca565b508490505b949350505050565b604051806108000160405280604090602082028036833780820191505090505090565b6000604051905090565b600080fd5b6000819050919050565b6134c6816134b3565b81146134d157600080fd5b50565b6000813590506134e3816134bd565b92915050565b6000602082840312156134ff576134fe6134ae565b5b600061350d848285016134d4565b91505092915050565b7f4e487b7100000000000000000000000000000000000000000000000000000000600052602160045260246000fd5b6007811061355657613555613516565b5b50565b600081905061356782613545565b919050565b600061357782613559565b9050919050565b6135878161356c565b82525050565b60006020820190506135a2600083018461357e565b92915050565b60008115159050919050565b6135bd816135a8565b81146135c857600080fd5b50565b6000813590506135da816135b4565b92915050565b600080fd5b6000601f19601f8301169050919050565b7f4e487b7100000000000000000000000000000000000000000000000000000000600052604160045260246000fd5b61362e826135e5565b810181811067ffffffffffffffff8211171561364d5761364c6135f6565b5b80604052505050565b60006136606134a4565b905061366c8282613625565b919050565b600067ffffffffffffffff82111561368c5761368b6135f6565b5b602082029050919050565b600080fd5b60006136af6136aa84613671565b613656565b905080602084028301858111156136c9576136c8613697565b5b835b818110156136f257806136de88826134d4565b8452602084019350506020810190506136cb565b5050509392505050565b600082601f830112613711576137106135e0565b5b600661371e84828561369c565b91505092915050565b6000806000806101208587031215613742576137416134ae565b5b6000613750878288016134d4565b9450506020613761878288016135cb565b9350506040613772878288016134d4565b9250506060613783878288016136fc565b91505092959194509250565b600060ff82169050919050565b6137a58161378f565b81146137b057600080fd5b50565b6000813590506137c28161379c565b92915050565b600080604083850312156137df576137de6134ae565b5b60006137ed858286016134d4565b92505060206137fe858286016137b3565b9150509250929050565b600073ffffffffffffffffffffffffffffffffffffffff82169050919050565b600061383382613808565b9050919050565b61384381613828565b82525050565b600060208201905061385e600083018461383a565b92915050565b6000806040838503121561387b5761387a6134ae565b5b6000613889858286016134d4565b925050602061389a858286016134d4565b9150509250929050565b6138ad816134b3565b82525050565b60006020820190506138c860008301846138a4565b92915050565b600067ffffffffffffffff8211156138e9576138e86135f6565b5b602082029050919050565b600080fd5b60006040828403121561390f5761390e6138f4565b5b6139196040613656565b90506000613929848285016137b3565b600083015250602061393d848285016135cb565b60208301525092915050565b600061395c613957846138ce565b613656565b9050806040840283018581111561397657613975613697565b5b835b8181101561399f578061398b88826138f9565b845260208401935050604081019050613978565b5050509392505050565b600082601f8301126139be576139bd6135e0565b5b60056139cb848285613949565b91505092915050565b600067ffffffffffffffff8211156139ef576139ee6135f6565b5b602082029050919050565b6000613a0d613a08846139d4565b613656565b90508060208402830185811115613a2757613a26613697565b5b835b81811015613a505780613a3c88826134d4565b845260208401935050602081019050613a29565b5050509392505050565b600082601f830112613a6f57613a6e6135e0565b5b6040613a7c8482856139fa565b91505092915050565b60008060006109608486031215613a9f57613a9e6134ae565b5b6000613aad868287016134d4565b9350506020613abe868287016139a9565b925050610160613ad086828701613a5a565b9150509250925092565b600082825260208201905092915050565b7f47616d6520646f6573206e6f7420657869737400000000000000000000000000600082015250565b6000613b21601383613ada565b9150613b2c82613aeb565b602082019050919050565b60006020820190508181036000830152613b5081613b14565b9050919050565b7f596f7520617265206e6f7420696e20746869732067616d650000000000000000600082015250565b6000613b8d601883613ada565b9150613b9882613b57565b602082019050919050565b60006020820190508181036000830152613bbc81613b80565b9050919050565b7f47616d65206973206e6f7420696e2074686520636f7272656374207374617465600082015250565b6000613bf9602083613ada565b9150613c0482613bc3565b602082019050919050565b60006020820190508181036000830152613c2881613bec565b9050919050565b7f496e76616c69642070726f6f662c206974206d75737420626520616e2061727260008201527f6179206f66203620686173686573000000000000000000000000000000000000602082015250565b6000613c8b602e83613ada565b9150613c9682613c2f565b604082019050919050565b60006020820190508181036000830152613cba81613c7e565b9050919050565b7f596f7520616c72656164792072657665616c656420746865206d6f7665000000600082015250565b6000613cf7601d83613ada565b9150613d0282613cc1565b602082019050919050565b60006020820190508181036000830152613d2681613cea565b9050919050565b6000604082019050613d4260008301856138a4565b613d4f602083018461383a565b9392505050565b7f4e487b7100000000000000000000000000000000000000000000000000000000600052601160045260246000fd5b6000613d908261378f565b915060ff8203613da357613da2613d56565b5b600182019050919050565b613db78161378f565b82525050565b6000606082019050613dd260008301866138a4565b613ddf602083018561383a565b613dec6040830184613dae565b949350505050565b6000613dff8261378f565b9150613e0a8361378f565b9250828201905060ff811115613e2357613e22613d56565b5b92915050565b7f496e76616c696420706f736974696f6e00000000000000000000000000000000600082015250565b6000613e5f601083613ada565b9150613e6a82613e29565b602082019050919050565b60006020820190508181036000830152613e8e81613e52565b9050919050565b7f596f7520616c72656164792070726f706f7365642061206d6f76650000000000600082015250565b6000613ecb601b83613ada565b9150613ed682613e95565b602082019050919050565b60006020820190508181036000830152613efa81613ebe565b9050919050565b7f506f736974696f6e20616c72656164792072657665616c656400000000000000600082015250565b6000613f37601983613ada565b9150613f4282613f01565b602082019050919050565b60006020820190508181036000830152613f6681613f2a565b9050919050565b7f596f7520617265206e6f74207468652077696e6e6572206f662074686973206760008201527f616d650000000000000000000000000000000000000000000000000000000000602082015250565b6000613fc9602383613ada565b9150613fd482613f6d565b604082019050919050565b60006020820190508181036000830152613ff881613fbc565b9050919050565b7f596f7520616c7265616479207769746864726177656400000000000000000000600082015250565b6000614035601683613ada565b915061404082613fff565b602082019050919050565b6000602082019050818103600083015261406481614028565b9050919050565b6000614076826134b3565b9150614081836134b3565b925082820390508181111561409957614098613d56565b5b92915050565b6000819050919050565b6140ba6140b5826134b3565b61409f565b82525050565b60006140cc82846140a9565b60208201915081905092915050565b7f4e487b7100000000000000000000000000000000000000000000000000000000600052601260045260246000fd5b6000614115826134b3565b9150614120836134b3565b9250826141305761412f6140db565b5b828206905092915050565b7f4e487b7100000000000000000000000000000000000000000000000000000000600052603260045260246000fd5b7f596f752061726520616c726561647920696e20746869732067616d6500000000600082015250565b60006141a0601c83613ada565b91506141ab8261416a565b602082019050919050565b600060208201905081810360008301526141cf81614193565b9050919050565b60006141e1826134b3565b9150600082036141f4576141f3613d56565b5b600182039050919050565b7f43616e2774206372656174652061206e65772067616d6520617420746865206d60008201527f6f6d656e742c2072657472790000000000000000000000000000000000000000602082015250565b600061425b602c83613ada565b9150614266826141ff565b604082019050919050565b6000602082019050818103600083015261428a8161424e565b9050919050565b600061429c826134b3565b91507fffffffffffffffffffffffffffffffffffffffffffffffffffffffffffffffff82036142ce576142cd613d56565b5b600182019050919050565b60006040820190506142ee60008301856138a4565b6142fb60208301846138a4565b9392505050565b600060608201905061431760008301866138a4565b614324602083018561383a565b61433160408301846138a4565b949350505050565b7f596f752061726520756e6465722061636375736174696f6e2c2063616e27742060008201527f6d616b65206f74686572206d6f76657300000000000000000000000000000000602082015250565b6000614395603083613ada565b91506143a082614339565b604082019050919050565b600060208201905081810360008301526143c481614388565b9050919050565b7f4f70706f6e656e7420697320616c726561647920756e6465722061636375736160008201527f74696f6e00000000000000000000000000000000000000000000000000000000602082015250565b6000614427602483613ada565b9150614432826143cb565b604082019050919050565b600060208201905081810360008301526144568161441a565b9050919050565b7f596f7520616c726561647920636f6d6d69747465642074686520626f61726400600082015250565b6000614493601f83613ada565b915061449e8261445d565b602082019050919050565b600060208201905081810360008301526144c281614486565b9050919050565b7f596f75206d75737420706179207468652066656520746f20636f6d6d6974207460008201527f686520626f617264000000000000000000000000000000000000000000000000602082015250565b6000614525602883613ada565b9150614530826144c9565b604082019050919050565b6000602082019050818103600083015261455481614518565b9050919050565b7f596f7520616c72656164792072657665616c65642074686520626f6172640000600082015250565b6000614591601e83613ada565b915061459c8261455b565b602082019050919050565b600060208201905081810360008301526145c081614584565b9050919050565b7f496e76616c6964206e6f6e636573206c656e6774680000000000000000000000600082015250565b60006145fd601583613ada565b9150614608826145c7565b602082019050919050565b6000602082019050818103600083015261462c816145f0565b9050919050565b7f496e76616c6964207368697073206c656e677468000000000000000000000000600082015250565b6000614669601483613ada565b915061467482614633565b602082019050919050565b600060208201905081810360008301526146988161465c565b9050919050565b60008160f81b9050919050565b60006146b78261469f565b9050919050565b60006146c9826146ac565b9050919050565b6146e16146dc826135a8565b6146be565b82525050565b60006146f382856146d0565b60018201915061470382846140a9565b6020820191508190509392505050565b600061471f82856140a9565b60208201915061472f82846140a9565b6020820191508190509392505050565b600061474a826134b3565b9150614755836134b3565b925082820190508082111561476d5761476c613d56565b5b9291505056fea2646970667358221220d60955186e34ff0adeb5ed120ac4887fec29008d5f310424c4818015f79495a264736f6c63430008130033",
  "immutableReferences": {},
  "source": "// SPDX-License-Identifier: MIT\npragma solidity >=0.4.22 <0.9.0;\n\n/*\n    The board is fixed to 8x8\n    with the following pieces:\n    - 1x Aircraft Carrier (5 squares)\n    - 1x Battleship (4 squares)\n    - 1x Cruiser (3 squares)\n    - 2x Destroyers (2 squares)\n\n    So we can terminate the game when:\n    - 1 player has 16 hits\n    - all positions have been revealed\n\n    Merkle proof for a 64 position board (8x8):\n    - actual position state\n    - nonce used to generate the hash\n    - 6 hashes\n    - Merkle Hash (already stored in the contract)\n */\n\ncontract BattleShip {\n    uint8 private constant NO_MOVE = 255;\n    uint8 private constant MAX_HIT = 16;\n    uint8 private constant MAX_ROUNDS = 64;\n\n    enum GameState {\n        // Game created but waiting for the second player to join\n        WaitingForOpponent,\n        // Players joined the game but need to agree on the fee\n        FeeNegotiation,\n        // Players agreed on the fee and need to commit the board\n        WaitingCommitment,\n        // Players committed the board and now the game starts\n        WaitingForMove,\n        // Players must submit Merkle proof in order to prove the move result\n        WaitingForProof,\n        // Game ended and now player must reveal the board\n        WaitingForReveal,\n        // Game ended and now we have a winner\n        GameOver\n    }\n\n    struct Ship {\n        uint8 start_position;\n        // true if horizontal, false if vertical\n        bool direction;\n    }\n\n    struct Player {\n        address user_id;\n        // Used to implement the fee negotiation, then to store the actual fee\n        uint256 proposed_fee;\n        // Used to implement the board commitment and check at the end\n        uint256 committed_board;\n        // Used to implements accusation\n        bool accused; // if true the player has been accused of leaving\n        uint256 accused_at; // represents the time when the player has been accused\n        // Used to store revealed board status and check at the end\n        // bitmap used to store the revealed positions\n        uint64 revealed_positions;\n        // bitmap used to store the actual hit\n        // only the actual bit at 1 in\n        // revealed_positions & position_status\n        // are the actual hits\n        uint64 position_status;\n        uint8 hits;\n        // Used to implement the move submission\n        uint8 move;\n        // Used to implement both the move reveal and the board reveal\n        bool revealed;\n        bool withdrawed;\n    }\n\n    struct Game {\n        uint256 game_id;\n        GameState game_state;\n        Player A;\n        Player B;\n        uint256 position_in_games_list;\n        uint8 rounds_elapsed;\n        address winner;\n    }\n\n    // Events to notify frontend\n    event NewGame(uint256 game_id);\n    event PlayerJoined(uint256 game_id, address player_id);\n    event FeeProposed(uint256 game_id, address player_id, uint256 fee);\n    event FeeAgreed(uint256 game_id, uint256 fee);\n    event BoardCommitted(uint256 game_id, address player_id, uint256 board);\n    event GameStarted(uint256 game_id);\n    event MoveProposed(uint256 game_id, address player_id, uint8 move);\n    event CheatingAttempt(uint256 game_id, address player_id);\n    event Hit(uint256 game_id, address player_id, uint8 position);\n    event Miss(uint256 game_id, address player_id, uint8 position);\n    event EndOfGame(uint256 game_id);\n    event GameOver(uint256 game_id, address winner);\n    event AccusationRequest(uint256 game_id, address player_id);\n\n    // Collects actual games data, used for the game evolution\n    mapping(uint256 => Game) private id2game;\n    // Collects games which are pending for players to join\n    // used for random matchmaking and game join\n    uint256[] private free_games;\n    uint256 private free_games_count;\n\n    // NB: public because it is both used by the frontend and the contract itself\n    function new_game() public {\n        uint256 game_id = uint256(\n            keccak256(abi.encodePacked(block.number - 1))\n        );\n\n        require(\n            id2game[game_id].game_id == 0,\n            \"Can't create a new game at the moment, retry\"\n        );\n\n        Game storage game = id2game[game_id];\n        game.game_id = game_id;\n        game.game_state = GameState.WaitingForOpponent;\n        game.position_in_games_list = free_games_count;\n        if (free_games_count == free_games.length) {\n            free_games.push(game_id);\n        } else {\n            free_games[free_games_count] = game_id;\n        }\n        free_games_count++;\n\n        game.A.user_id = msg.sender;\n\n        emit NewGame(game_id);\n    }\n\n    // NB: public because it is both used by the frontend and the contract itself\n    function join_game(uint256 game_id) public {\n        require(id2game[game_id].game_id != 0, \"Game does not exist\");\n\n        Game storage current_game = id2game[game_id];\n        require(\n            current_game.A.user_id != msg.sender,\n            \"You are already in this game\"\n        );\n\n        // Remove the game from the list of available games\n        if (free_games_count == 1) {\n            // if only one element, just remove it\n            delete free_games[0];\n            free_games_count--;\n        } else {\n            // otherwise swap the current game with the last one\n            // and then remove the last one and update it's position\n            // in the list\n            uint256 current_position = current_game.position_in_games_list;\n            uint256 last_position = free_games_count - 1;\n            uint256 last_game_id = free_games[last_position];\n\n            free_games[current_position] = last_game_id;\n            id2game[last_game_id].position_in_games_list = current_position;\n            delete free_games[last_position];\n            free_games_count--;\n        }\n\n        // Update game infos\n        // Assign the opponet player\n        current_game.B.user_id = msg.sender;\n\n        // Move game to fee negotiation\n        current_game.game_state = GameState.FeeNegotiation;\n\n        emit PlayerJoined(game_id, msg.sender);\n    }\n\n    // If no game exists just create one\n    // otherwise join random game\n    // then returns the game_id\n    // and a boolean to indicate if the game is new or not\n    function join_random_game() external {\n        if (free_games_count == 0) {\n            new_game();\n        } else {\n            // make choice at random\n            uint256 random_index = uint256(\n                keccak256(abi.encodePacked(block.number - 1))\n            );\n\n            uint256 game_id = free_games[random_index % free_games_count];\n            join_game(game_id);\n        }\n    }\n\n    modifier player_in_game(uint256 game_id) {\n        // Check that the game exists\n        require(id2game[game_id].game_id != 0, \"Game does not exist\");\n\n        // Check that user is in the game\n        require(\n            id2game[game_id].A.user_id == msg.sender ||\n                id2game[game_id].B.user_id == msg.sender,\n            \"You are not in this game\"\n        );\n        _;\n    }\n\n    modifier check_game_state(uint256 game_id, GameState game_state) {\n        // Check that the game is in the correct state\n        require(\n            id2game[game_id].game_state == game_state,\n            \"Game is not in the correct state\"\n        );\n        _;\n    }\n\n    // Propose fee until both players agree on the same fee\n    function propose_fee(\n        uint256 game_id,\n        uint256 fee\n    )\n        external\n        player_in_game(game_id)\n        check_game_state(game_id, GameState.FeeNegotiation)\n    {\n        Game storage current_game = id2game[game_id];\n\n        // Update fee proposal\n        if (current_game.A.user_id == msg.sender) {\n            current_game.A.proposed_fee = fee;\n        } else {\n            current_game.B.proposed_fee = fee;\n        }\n\n        // Manage notification to frontend and game state\n        // Both players agreed on the fee\n        if (current_game.A.proposed_fee == current_game.B.proposed_fee) {\n            current_game.game_state = GameState.WaitingCommitment;\n            emit FeeAgreed(game_id, fee);\n        }\n        // Otherwise just notify the frontend to continue the negotiation\n        else {\n            emit FeeProposed(game_id, msg.sender, fee);\n        }\n    }\n\n    function commit_board(\n        uint256 game_id,\n        uint256 board\n    )\n        external\n        payable\n        player_in_game(game_id)\n        check_game_state(game_id, GameState.WaitingCommitment)\n    {\n        Game storage current_game = id2game[game_id];\n\n        Player storage player = (current_game.A.user_id == msg.sender)\n            ? current_game.A\n            : current_game.B;\n\n        // Check that user did not already commit the board\n        // otherwise it would double pay\n        require(player.committed_board != 0, \"You already committed the board\");\n\n        // Check that the fee has been paid\n        // proposed_fee SHOULD be the same at this point\n        require(\n            msg.value == player.proposed_fee,\n            \"You must pay the fee to commit the board\"\n        );\n\n        // Update committed board\n        player.committed_board = board;\n\n        // Manage notification to frontend and game state\n        // Both players committed the board and payed the fee\n        if (\n            current_game.A.committed_board != 0 &&\n            current_game.B.committed_board != 0\n        ) {\n            current_game.game_state = GameState.WaitingForMove;\n            current_game.A.move = current_game.B.move = NO_MOVE;\n            emit BoardCommitted(game_id, msg.sender, board);\n            emit GameStarted(game_id);\n        }\n        // Otherwise just notify the frontend to continue wait for the other player\n        else {\n            emit BoardCommitted(game_id, msg.sender, board);\n        }\n    }\n\n    function submit_move(\n        uint256 game_id,\n        uint8 move\n    )\n        external\n        player_in_game(game_id)\n        check_game_state(game_id, GameState.WaitingForMove)\n    {\n        // Move must be in the range [0, 63] for a 8x8 board\n        require(move < 64, \"Invalid position\");\n        Game storage current_game = id2game[game_id];\n\n        Player storage player;\n        Player storage opponent;\n\n        if (current_game.A.user_id == msg.sender) {\n            player = current_game.A;\n            opponent = current_game.B;\n        } else {\n            player = current_game.B;\n            opponent = current_game.A;\n        }\n\n        // Check if user already proposed a move\n        require(player.move == NO_MOVE, \"You already proposed a move\");\n\n        // Check if positions has already been revealed\n        require(\n            (opponent.revealed_positions & (1 << move)) == 0,\n            \"Position already revealed\"\n        );\n\n        if (check_accusation(game_id, player)) {\n            return;\n        }\n\n        // Update move\n        player.move = move;\n\n        emit MoveProposed(game_id, msg.sender, move);\n\n        // Check if opponent already proposed a move\n        if (opponent.move != NO_MOVE) {\n            // move to reveal phase\n            current_game.game_state = GameState.WaitingForProof;\n        }\n    }\n\n    function submit_proof(\n        uint256 game_id,\n        bool has_ship,\n        uint256 nonce,\n        uint256[6] memory proof\n    )\n        external\n        player_in_game(game_id)\n        check_game_state(game_id, GameState.WaitingForProof)\n    {\n        // Check that the proof has the needed length\n        require(\n            proof.length == 6,\n            \"Invalid proof, it must be an array of 6 hashes\"\n        );\n\n        Game storage current_game = id2game[game_id];\n\n        Player storage player;\n        Player storage opponent;\n\n        if (current_game.A.user_id == msg.sender) {\n            player = current_game.A;\n            opponent = current_game.B;\n        } else {\n            player = current_game.B;\n            opponent = current_game.A;\n        }\n\n        // check that the user has not already revealed the move\n        require(!player.revealed, \"You already revealed the move\");\n\n        // Check if the proof is valid\n        if (\n            !check_proof(\n                opponent.move,\n                has_ship,\n                nonce,\n                proof,\n                player.committed_board\n            )\n        ) {\n            // Cheating attempt: terminate the game and set the opponet as the winner\n            current_game.game_state = GameState.GameOver;\n            current_game.winner = opponent.user_id;\n            emit CheatingAttempt(game_id, msg.sender);\n            emit GameOver(game_id, opponent.user_id);\n            return;\n        }\n\n        if (check_accusation(game_id, player)) {\n            return;\n        }\n\n        // Update revealed positions\n        player.revealed_positions |= uint64(1 << opponent.move);\n\n        // Update position status\n        if (has_ship) {\n            opponent.position_status |= uint64(1 << player.move);\n            opponent.hits++;\n            emit Hit(game_id, opponent.user_id, opponent.move);\n        } else {\n            emit Miss(game_id, opponent.user_id, opponent.move);\n        }\n\n        // set the move as revealed\n        player.revealed = true;\n\n        // Check if reveal phase is over\n        if (opponent.revealed) {\n            current_game.rounds_elapsed += 1;\n            // Check if game is over\n            if (\n                opponent.hits == MAX_HIT ||\n                player.hits == MAX_HIT ||\n                current_game.rounds_elapsed == MAX_ROUNDS\n            ) {\n                // Game is over so user must reveal their boards\n                current_game.game_state = GameState.WaitingForReveal;\n                emit EndOfGame(game_id);\n                return;\n            }\n            // Otherwise move to the next round\n            current_game.game_state = GameState.WaitingForMove;\n            player.move = opponent.move = NO_MOVE;\n            player.revealed = opponent.revealed = false;\n        }\n    }\n\n    function reveal_board(\n        uint256 game_id,\n        Ship[5] memory ships,\n        uint256[64] memory nonces\n    )\n        external\n        player_in_game(game_id)\n        check_game_state(game_id, GameState.WaitingForReveal)\n    {\n        Game storage current_game = id2game[game_id];\n\n        Player storage player;\n        Player storage opponent;\n\n        if (current_game.A.user_id == msg.sender) {\n            player = current_game.A;\n            opponent = current_game.B;\n        } else {\n            player = current_game.B;\n            opponent = current_game.A;\n        }\n\n        // Check that the user has not already revealed the board\n        require(!player.revealed, \"You already revealed the board\");\n\n        // Check that the user passed the right number of nonces\n        require(nonces.length == 64, \"Invalid nonces length\");\n\n        require(ships.length == 5, \"Invalid ships length\");\n\n        // If the board cannot be built, the user is cheating\n        uint64 board = build_board(ships);\n\n        // Check if ship placement is valid\n        // and that the board is the same as the committed one\n        if (\n            board == 0 ||\n            !check_board_proof(player.committed_board, board, nonces)\n        ) {\n            // Cheating attempt: terminate the game and set the opponet as the winner\n            current_game.game_state = GameState.GameOver;\n            current_game.winner = opponent.user_id;\n            emit CheatingAttempt(game_id, msg.sender);\n            emit GameOver(game_id, opponent.user_id);\n            return;\n        }\n\n        if (check_accusation(game_id, player)) {\n            return;\n        }\n\n        // Update revealed positions\n        player.position_status = board;\n        // Update user state to revealed\n        player.revealed = true;\n\n        // If both user revealed the board, the game is over\n        if (opponent.revealed) {\n            // Set winner\n            if (player.hits > opponent.hits) {\n                // player wins\n                current_game.winner = player.user_id;\n            } else if (opponent.hits > player.hits) {\n                // opponent wins\n                current_game.winner = opponent.user_id;\n            } else {\n                // draw\n                current_game.winner = address(0);\n            }\n            current_game.game_state = GameState.GameOver;\n            emit GameOver(game_id, current_game.winner);\n        }\n    }\n\n    function check_accusation(\n        uint256 game_id,\n        Player storage current_player\n    ) private returns (bool) {\n        // Check if player is under accusation\n        if (current_player.accused) {\n            // If response is under time limit, the accusation is retired\n            if (current_player.accused_at + 5 < block.timestamp) {\n                current_player.accused = false;\n                current_player.accused_at = 0;\n                return false;\n            } else {\n                // Otherwise the accusation is valid and the opponent wins\n                Game storage current_game = id2game[game_id];\n                current_game.game_state = GameState.GameOver;\n                current_game.winner = current_player.user_id ==\n                    current_game.A.user_id\n                    ? current_game.B.user_id\n                    : current_game.A.user_id;\n                emit GameOver(game_id, current_game.winner);\n                return true;\n            }\n        }\n\n        return false;\n    }\n\n    function withdraw(\n        uint256 game_id\n    )\n        external\n        player_in_game(game_id)\n        check_game_state(game_id, GameState.GameOver)\n    {\n        Game storage current_game = id2game[game_id];\n        require(\n            current_game.winner == msg.sender ||\n                current_game.winner == address(0),\n            \"You are not the winner of this game\"\n        );\n\n        Player storage player;\n\n        if (current_game.A.user_id == msg.sender) {\n            player = current_game.A;\n        } else {\n            player = current_game.B;\n        }\n\n        require(!player.withdrawed, \"You already withdrawed\");\n\n        uint256 amount = current_game.A.proposed_fee;\n        if (current_game.winner == address(0)) {\n            amount <<= 1;\n        }\n\n        // Avoid reentrancy\n        player.withdrawed = true;\n        payable(msg.sender).transfer(amount);\n    }\n\n    function make_accusation(uint256 game_id) external player_in_game(game_id) {\n        // Check that the game is either in the waiting for move or waiting for proof/reveal state\n        Game storage current_game = id2game[game_id];\n\n        require(\n            current_game.game_state == GameState.WaitingForMove ||\n                current_game.game_state == GameState.WaitingForProof ||\n                current_game.game_state == GameState.WaitingForReveal,\n            \"Game is not in the correct state\"\n        );\n\n        Player storage player;\n        Player storage opponent;\n\n        if (current_game.A.user_id == msg.sender) {\n            player = current_game.A;\n            opponent = current_game.B;\n        } else {\n            player = current_game.B;\n            opponent = current_game.A;\n        }\n\n        // Check that the user is not currently under accusation\n        require(\n            !player.accused,\n            \"You are under accusation, can't make other moves\"\n        );\n\n        // Check that the other player is not currently under accusation\n        require(!opponent.accused, \"Opponent is already under accusation\");\n\n        opponent.accused = true;\n        opponent.accused_at = block.timestamp;\n    }\n\n    /* Utility functions */\n\n    /* Assume that:\n        - index in [0, 63]\n        - proof.length == 6\n    */\n    function check_proof(\n        uint8 index,\n        bool has_ship,\n        uint256 nonce,\n        uint256[6] memory proof,\n        uint256 committed_board\n    ) private pure returns (bool) {\n        // build the leaf hash by hash(has_ship || nonce)\n        uint256 previous_hash = uint256(\n            keccak256(abi.encodePacked(has_ship, nonce))\n        );\n\n        for (uint8 i = 0; i < 6; i++) {\n            if (index & 1 == 0) {\n                // we are on the left side of the tree\n                previous_hash = uint256(\n                    keccak256(abi.encodePacked(previous_hash, proof[i]))\n                );\n            } else {\n                // we are on the right side of the tree\n                previous_hash = uint256(\n                    keccak256(abi.encodePacked(proof[i], previous_hash))\n                );\n            }\n            index = index >> 1;\n        }\n\n        return previous_hash == committed_board;\n    }\n\n    function check_board_proof(\n        uint256 committed_board,\n        uint64 board,\n        uint256[64] memory nonces\n    ) private pure returns (bool) {\n        // Compute Merkle tree root\n        uint8 i = 0;\n        uint8 j = 0;\n        uint8 actual_size = 64;\n\n        uint256[64] memory tree;\n\n        // Compute various hash(ship[i]  || nonces[i])\n        for (i = 0; i < actual_size; i++) {\n            tree[i] = uint256(\n                keccak256(abi.encodePacked(((board >> i) & 1) == 1, nonces[i]))\n            );\n        }\n\n        actual_size = actual_size >> 1;\n        while (actual_size != 0) {\n            for (i = j = 0; i < actual_size; i++) {\n                tree[i] = uint256(\n                    keccak256(abi.encodePacked(tree[j], tree[j + 1]))\n                );\n                j += 2;\n            }\n            actual_size = actual_size >> 1;\n        }\n\n        return tree[0] == committed_board;\n    }\n\n    function update_board(\n        uint64 current_board,\n        uint8 index,\n        bool direction,\n        uint8 ship_size\n    ) private pure returns (uint64) {\n        for (uint8 i = 0; i < ship_size; i++) {\n            // Check if we are at the end of the row\n            if (index & 0x7 == 0) {\n                return 0;\n            }\n            // check if we are at the end of the board\n            if (index > 63) {\n                return 0;\n            }\n\n            // If the bit is already set, it means that there is a collision\n            if (current_board & uint64(1 << index) != 0) {\n                return 0;\n            }\n\n            // Update board\n            current_board |= uint64(1 << index);\n            if (direction) {\n                index += 1;\n            } else {\n                index += 8;\n            }\n        }\n\n        return current_board;\n    }\n\n    function build_board(Ship[5] memory ships) private pure returns (uint64) {\n        uint64 board = 0;\n        uint8[5] memory sizes = [5, 4, 3, 2, 2];\n\n        for (uint8 i = 0; i < 5; i++) {\n            board = update_board(\n                board,\n                ships[i].start_position,\n                ships[i].direction,\n                sizes[i]\n            );\n            if (board == 0) {\n                return 0;\n            }\n        }\n\n        return board;\n    }\n\n    /* View functions */\n    // Return GameState\n    function get_game_state(uint256 game_id) external view returns (GameState) {\n        require(id2game[game_id].game_id != 0, \"Game does not exist\");\n        return id2game[game_id].game_state;\n    }\n\n    function get_free_games_length() external view returns (uint256) {\n        return free_games_count;\n    }\n\n    function get_opponent(uint256 game_id) external view returns (address) {\n        require(id2game[game_id].game_id != 0, \"Game does not exist\");\n        Game storage current_game = id2game[game_id];\n        if (current_game.A.user_id == msg.sender) {\n            return current_game.B.user_id;\n        } else {\n            return current_game.A.user_id;\n        }\n    }\n}\n",
  "sourcePath": "/home/drw0if/p2p/battleship/contracts/BattleShip.sol",
  "compiler": {
    "name": "solc",
    "version": "0.8.19+commit.7dd6d404.Emscripten.clang"
  },
  "schemaVersion": "3.4.16",
  "updatedAt": "2023-12-26T14:28:12.875Z",
  "networkType": "ethereum",
  "devdoc": {
    "kind": "dev",
    "methods": {},
    "version": 1
  },
  "userdoc": {
    "kind": "user",
    "methods": {},
    "version": 1
  }
}