{
  "contractName": "BattleShip",
  "abi": [
    {
      "anonymous": false,
      "inputs": [
        {
          "indexed": false,
          "internalType": "uint256",
          "name": "game_id",
          "type": "uint256"
        },
        {
          "indexed": false,
          "internalType": "address",
          "name": "player_id",
          "type": "address"
        }
      ],
      "name": "AccusationRequest",
      "type": "event"
    },
    {
      "anonymous": false,
      "inputs": [
        {
          "indexed": false,
          "internalType": "uint256",
          "name": "game_id",
          "type": "uint256"
        },
        {
          "indexed": false,
          "internalType": "address",
          "name": "player_id",
          "type": "address"
        },
        {
          "indexed": false,
          "internalType": "uint256",
          "name": "board",
          "type": "uint256"
        }
      ],
      "name": "BoardCommitted",
      "type": "event"
    },
    {
      "anonymous": false,
      "inputs": [
        {
          "indexed": false,
          "internalType": "uint256",
          "name": "game_id",
          "type": "uint256"
        },
        {
          "indexed": false,
          "internalType": "address",
          "name": "player_id",
          "type": "address"
        }
      ],
      "name": "CheatingAttempt",
      "type": "event"
    },
    {
      "anonymous": false,
      "inputs": [
        {
          "indexed": false,
          "internalType": "uint256",
          "name": "game_id",
          "type": "uint256"
        }
      ],
      "name": "EndOfGame",
      "type": "event"
    },
    {
      "anonymous": false,
      "inputs": [
        {
          "indexed": false,
          "internalType": "uint256",
          "name": "game_id",
          "type": "uint256"
        },
        {
          "indexed": false,
          "internalType": "uint256",
          "name": "fee",
          "type": "uint256"
        }
      ],
      "name": "FeeAgreed",
      "type": "event"
    },
    {
      "anonymous": false,
      "inputs": [
        {
          "indexed": false,
          "internalType": "uint256",
          "name": "game_id",
          "type": "uint256"
        },
        {
          "indexed": false,
          "internalType": "address",
          "name": "player_id",
          "type": "address"
        },
        {
          "indexed": false,
          "internalType": "uint256",
          "name": "fee",
          "type": "uint256"
        }
      ],
      "name": "FeeProposed",
      "type": "event"
    },
    {
      "anonymous": false,
      "inputs": [
        {
          "indexed": false,
          "internalType": "uint256",
          "name": "game_id",
          "type": "uint256"
        },
        {
          "indexed": false,
          "internalType": "address",
          "name": "winner",
          "type": "address"
        }
      ],
      "name": "GameOver",
      "type": "event"
    },
    {
      "anonymous": false,
      "inputs": [
        {
          "indexed": false,
          "internalType": "uint256",
          "name": "game_id",
          "type": "uint256"
        }
      ],
      "name": "GameStarted",
      "type": "event"
    },
    {
      "anonymous": false,
      "inputs": [
        {
          "indexed": false,
          "internalType": "uint256",
          "name": "game_id",
          "type": "uint256"
        },
        {
          "indexed": false,
          "internalType": "address",
          "name": "player_id",
          "type": "address"
        },
        {
          "indexed": false,
          "internalType": "uint8",
          "name": "position",
          "type": "uint8"
        }
      ],
      "name": "Hit",
      "type": "event"
    },
    {
      "anonymous": false,
      "inputs": [
        {
          "indexed": false,
          "internalType": "uint256",
          "name": "game_id",
          "type": "uint256"
        },
        {
          "indexed": false,
          "internalType": "address",
          "name": "player_id",
          "type": "address"
        },
        {
          "indexed": false,
          "internalType": "uint8",
          "name": "position",
          "type": "uint8"
        }
      ],
      "name": "Miss",
      "type": "event"
    },
    {
      "anonymous": false,
      "inputs": [
        {
          "indexed": false,
          "internalType": "uint256",
          "name": "game_id",
          "type": "uint256"
        },
        {
          "indexed": false,
          "internalType": "address",
          "name": "player_id",
          "type": "address"
        },
        {
          "indexed": false,
          "internalType": "uint8",
          "name": "move",
          "type": "uint8"
        }
      ],
      "name": "MoveProposed",
      "type": "event"
    },
    {
      "anonymous": false,
      "inputs": [
        {
          "indexed": false,
          "internalType": "uint256",
          "name": "game_id",
          "type": "uint256"
        },
        {
          "indexed": false,
          "internalType": "address",
          "name": "player_id",
          "type": "address"
        }
      ],
      "name": "PlayerJoined",
      "type": "event"
    },
    {
      "inputs": [],
      "name": "new_game",
      "outputs": [
        {
          "internalType": "uint256",
          "name": "",
          "type": "uint256"
        }
      ],
      "stateMutability": "nonpayable",
      "type": "function"
    },
    {
      "inputs": [
        {
          "internalType": "uint256",
          "name": "game_id",
          "type": "uint256"
        }
      ],
      "name": "join_game",
      "outputs": [],
      "stateMutability": "nonpayable",
      "type": "function"
    },
    {
      "inputs": [],
      "name": "join_random_game",
      "outputs": [
        {
          "internalType": "uint256",
          "name": "",
          "type": "uint256"
        }
      ],
      "stateMutability": "nonpayable",
      "type": "function"
    },
    {
      "inputs": [
        {
          "internalType": "uint256",
          "name": "game_id",
          "type": "uint256"
        },
        {
          "internalType": "uint256",
          "name": "fee",
          "type": "uint256"
        }
      ],
      "name": "propose_fee",
      "outputs": [],
      "stateMutability": "nonpayable",
      "type": "function"
    },
    {
      "inputs": [
        {
          "internalType": "uint256",
          "name": "game_id",
          "type": "uint256"
        },
        {
          "internalType": "uint256",
          "name": "board",
          "type": "uint256"
        }
      ],
      "name": "commit_board",
      "outputs": [],
      "stateMutability": "payable",
      "type": "function",
      "payable": true
    },
    {
      "inputs": [
        {
          "internalType": "uint256",
          "name": "game_id",
          "type": "uint256"
        },
        {
          "internalType": "uint8",
          "name": "move",
          "type": "uint8"
        }
      ],
      "name": "submit_move",
      "outputs": [],
      "stateMutability": "nonpayable",
      "type": "function"
    },
    {
      "inputs": [
        {
          "internalType": "uint256",
          "name": "game_id",
          "type": "uint256"
        },
        {
          "internalType": "bool",
          "name": "has_ship",
          "type": "bool"
        },
        {
          "internalType": "uint256",
          "name": "nonce",
          "type": "uint256"
        },
        {
          "internalType": "uint256[6]",
          "name": "proof",
          "type": "uint256[6]"
        }
      ],
      "name": "submit_proof",
      "outputs": [],
      "stateMutability": "nonpayable",
      "type": "function"
    },
    {
      "inputs": [
        {
          "internalType": "uint256",
          "name": "game_id",
          "type": "uint256"
        },
        {
          "components": [
            {
              "internalType": "uint8",
              "name": "start_position",
              "type": "uint8"
            },
            {
              "internalType": "bool",
              "name": "direction",
              "type": "bool"
            }
          ],
          "internalType": "struct BattleShip.Ship[5]",
          "name": "ships",
          "type": "tuple[5]"
        },
        {
          "internalType": "uint256[64]",
          "name": "nonces",
          "type": "uint256[64]"
        }
      ],
      "name": "reveal_board",
      "outputs": [],
      "stateMutability": "nonpayable",
      "type": "function"
    },
    {
      "inputs": [
        {
          "internalType": "uint256",
          "name": "game_id",
          "type": "uint256"
        }
      ],
      "name": "withdraw",
      "outputs": [],
      "stateMutability": "nonpayable",
      "type": "function"
    },
    {
      "inputs": [
        {
          "internalType": "uint256",
          "name": "game_id",
          "type": "uint256"
        }
      ],
      "name": "make_accusation",
      "outputs": [],
      "stateMutability": "nonpayable",
      "type": "function"
    }
  ],
  "bytecode": "0x608060405234801561001057600080fd5b506143b5806100206000396000f3fe6080604052600436106100915760003560e01c80634c856460116100595780634c856460146101655780637e1d5c4c14610190578063b88a392d146101b9578063d4c66c35146101e2578063d9d9a9a7146101fe57610091565b806326bd595814610096578063276df1af146100bf5780632e1a7d4d146100e8578063447d4436146101115780634a7b26ec1461013c575b600080fd5b3480156100a257600080fd5b506100bd60048036038101906100b89190613363565b610227565b005b3480156100cb57600080fd5b506100e660048036038101906100e19190613404565b610a7a565b005b3480156100f457600080fd5b5061010f600480360381019061010a9190613444565b610ed6565b005b34801561011d57600080fd5b5061012661136a565b6040516101339190613480565b60405180910390f35b34801561014857600080fd5b50610163600480360381019061015e9190613444565b611405565b005b34801561017157600080fd5b5061017a611690565b6040516101879190613480565b60405180910390f35b34801561019c57600080fd5b506101b760048036038101906101b2919061349b565b6117f4565b005b3480156101c557600080fd5b506101e060048036038101906101db9190613444565b611b3e565b005b6101fc60048036038101906101f7919061349b565b611f05565b005b34801561020a57600080fd5b5061022560048036038101906102209190613692565b612362565b005b8360008060008381526020019081526020016000206000015403610280576040517f08c379a000000000000000000000000000000000000000000000000000000000815260040161027790613744565b60405180910390fd5b3373ffffffffffffffffffffffffffffffffffffffff1660008083815260200190815260200160002060020160000160009054906101000a900473ffffffffffffffffffffffffffffffffffffffff1673ffffffffffffffffffffffffffffffffffffffff16148061035557503373ffffffffffffffffffffffffffffffffffffffff1660008083815260200190815260200160002060080160000160009054906101000a900473ffffffffffffffffffffffffffffffffffffffff1673ffffffffffffffffffffffffffffffffffffffff16145b610394576040517f08c379a000000000000000000000000000000000000000000000000000000000815260040161038b906137b0565b60405180910390fd5b8460048060068111156103aa576103a96137d0565b5b60008084815260200190815260200160002060010160009054906101000a900460ff1660068111156103df576103de6137d0565b5b1461041f576040517f08c379a00000000000000000000000000000000000000000000000000000000081526004016104169061384b565b60405180910390fd5b60068014610462576040517f08c379a0000000000000000000000000000000000000000000000000000000008152600401610459906138dd565b60405180910390fd5b600080600089815260200190815260200160002090506000803373ffffffffffffffffffffffffffffffffffffffff168360020160000160009054906101000a900473ffffffffffffffffffffffffffffffffffffffff1673ffffffffffffffffffffffffffffffffffffffff16036104e6578260020191508260080190506104f3565b8260080191508260020190505b8160050160129054906101000a900460ff1615610545576040517f08c379a000000000000000000000000000000000000000000000000000000000815260040161053c90613949565b60405180910390fd5b6105678160050160119054906101000a900460ff168a8a8a8660020154612aba565b61069d5760068360010160006101000a81548160ff02191690836006811115610593576105926137d0565b5b02179055508060000160009054906101000a900473ffffffffffffffffffffffffffffffffffffffff1683600f0160016101000a81548173ffffffffffffffffffffffffffffffffffffffff021916908373ffffffffffffffffffffffffffffffffffffffff1602179055507fa94eb170965acb1cb9de7b8c291cb52184d88fe98c0710bbb74068e2efb6f8708a336040516106309291906139aa565b60405180910390a17f668ce4ca171dee87d4d9d2b5d3dc31963fe7fbe50b982064dddb0fb9d56aee8b8a8260000160009054906101000a900473ffffffffffffffffffffffffffffffffffffffff1660405161068d9291906139aa565b60405180910390a1505050610a71565b6106a78a83612bcb565b156106b457505050610a71565b8060050160119054906101000a900460ff1660ff166001901b8260050160008282829054906101000a900467ffffffffffffffff161792506101000a81548167ffffffffffffffff021916908367ffffffffffffffff1602179055508815610821578160050160119054906101000a900460ff1660ff166001901b8160050160088282829054906101000a900467ffffffffffffffff161792506101000a81548167ffffffffffffffff021916908367ffffffffffffffff16021790555080600501601081819054906101000a900460ff168092919061079390613a02565b91906101000a81548160ff021916908360ff160217905550507f362fa9e1f76c7bd7da2bb79b2c5a6979f30761fef11ef5f06aee598fff2d0f208a8260000160009054906101000a900473ffffffffffffffffffffffffffffffffffffffff168360050160119054906101000a900460ff1660405161081493929190613a3a565b60405180910390a1610892565b7f7a542921653b80e9acb31eb9f20c8a79aaf5fc7bbc090bf2e75b5cc26607c7f58a8260000160009054906101000a900473ffffffffffffffffffffffffffffffffffffffff168360050160119054906101000a900460ff1660405161088993929190613a3a565b60405180910390a15b60018260050160126101000a81548160ff0219169083151502179055508060050160129054906101000a900460ff1615610a6d57600183600f0160008282829054906101000a900460ff166108e79190613a71565b92506101000a81548160ff021916908360ff160217905550601060ff168160050160109054906101000a900460ff1660ff16148061093c5750601060ff168260050160109054906101000a900460ff1660ff16145b8061095e5750604060ff1683600f0160009054906101000a900460ff1660ff16145b156109cf5760058360010160006101000a81548160ff0219169083600681111561098b5761098a6137d0565b5b02179055507f55bc7d27b24d9318cbcdf7a99aa9c14ab31e868d7adc542554db60815e5718cd8a6040516109bf9190613480565b60405180910390a1505050610a71565b60038360010160006101000a81548160ff021916908360068111156109f7576109f66137d0565b5b021790555060ff8160050160116101000a81548160ff021916908360ff16021790558260050160116101000a81548160ff021916908360ff16021790555060008160050160126101000a81548160ff02191690831515021790558260050160126101000a81548160ff0219169083151502179055505b5050505b50505050505050565b8160008060008381526020019081526020016000206000015403610ad3576040517f08c379a0000000000000000000000000000000000000000000000000000000008152600401610aca90613744565b60405180910390fd5b3373ffffffffffffffffffffffffffffffffffffffff1660008083815260200190815260200160002060020160000160009054906101000a900473ffffffffffffffffffffffffffffffffffffffff1673ffffffffffffffffffffffffffffffffffffffff161480610ba857503373ffffffffffffffffffffffffffffffffffffffff1660008083815260200190815260200160002060080160000160009054906101000a900473ffffffffffffffffffffffffffffffffffffffff1673ffffffffffffffffffffffffffffffffffffffff16145b610be7576040517f08c379a0000000000000000000000000000000000000000000000000000000008152600401610bde906137b0565b60405180910390fd5b826003806006811115610bfd57610bfc6137d0565b5b60008084815260200190815260200160002060010160009054906101000a900460ff166006811115610c3257610c316137d0565b5b14610c72576040517f08c379a0000000000000000000000000000000000000000000000000000000008152600401610c699061384b565b60405180910390fd5b60408460ff1610610cb8576040517f08c379a0000000000000000000000000000000000000000000000000000000008152600401610caf90613af2565b60405180910390fd5b600080600087815260200190815260200160002090506000803373ffffffffffffffffffffffffffffffffffffffff168360020160000160009054906101000a900473ffffffffffffffffffffffffffffffffffffffff1673ffffffffffffffffffffffffffffffffffffffff1603610d3c57826002019150826008019050610d49565b8260080191508260020190505b60ff80168260050160119054906101000a900460ff1660ff1614610da2576040517f08c379a0000000000000000000000000000000000000000000000000000000008152600401610d9990613b5e565b60405180910390fd5b60008760ff166001901b8260050160009054906101000a900467ffffffffffffffff1667ffffffffffffffff161614610e10576040517f08c379a0000000000000000000000000000000000000000000000000000000008152600401610e0790613bca565b60405180910390fd5b610e1a8883612bcb565b15610e2757505050610ecf565b868260050160116101000a81548160ff021916908360ff1602179055507f55cac4ede2505e92e4459bdeff964df027cd1fc03b9bf762d3d27a700de7c998883389604051610e7793929190613a3a565b60405180910390a160ff80168160050160119054906101000a900460ff1660ff1614610ecb5760048360010160006101000a81548160ff02191690836006811115610ec557610ec46137d0565b5b02179055505b5050505b5050505050565b8060008060008381526020019081526020016000206000015403610f2f576040517f08c379a0000000000000000000000000000000000000000000000000000000008152600401610f2690613744565b60405180910390fd5b3373ffffffffffffffffffffffffffffffffffffffff1660008083815260200190815260200160002060020160000160009054906101000a900473ffffffffffffffffffffffffffffffffffffffff1673ffffffffffffffffffffffffffffffffffffffff16148061100457503373ffffffffffffffffffffffffffffffffffffffff1660008083815260200190815260200160002060080160000160009054906101000a900473ffffffffffffffffffffffffffffffffffffffff1673ffffffffffffffffffffffffffffffffffffffff16145b611043576040517f08c379a000000000000000000000000000000000000000000000000000000000815260040161103a906137b0565b60405180910390fd5b816006806006811115611059576110586137d0565b5b60008084815260200190815260200160002060010160009054906101000a900460ff16600681111561108e5761108d6137d0565b5b146110ce576040517f08c379a00000000000000000000000000000000000000000000000000000000081526004016110c59061384b565b60405180910390fd5b600080600086815260200190815260200160002090503373ffffffffffffffffffffffffffffffffffffffff1681600f0160019054906101000a900473ffffffffffffffffffffffffffffffffffffffff1673ffffffffffffffffffffffffffffffffffffffff1614806111925750600073ffffffffffffffffffffffffffffffffffffffff1681600f0160019054906101000a900473ffffffffffffffffffffffffffffffffffffffff1673ffffffffffffffffffffffffffffffffffffffff16145b6111d1576040517f08c379a00000000000000000000000000000000000000000000000000000000081526004016111c890613c5c565b60405180910390fd5b60003373ffffffffffffffffffffffffffffffffffffffff168260020160000160009054906101000a900473ffffffffffffffffffffffffffffffffffffffff1673ffffffffffffffffffffffffffffffffffffffff16036112385781600201905061123f565b8160080190505b8060050160139054906101000a900460ff1615611291576040517f08c379a000000000000000000000000000000000000000000000000000000000815260040161128890613cc8565b60405180910390fd5b600082600201600101549050600073ffffffffffffffffffffffffffffffffffffffff1683600f0160019054906101000a900473ffffffffffffffffffffffffffffffffffffffff1673ffffffffffffffffffffffffffffffffffffffff16036112fd57600181901b90505b60018260050160136101000a81548160ff0219169083151502179055503373ffffffffffffffffffffffffffffffffffffffff166108fc829081150290604051600060405180830381858888f19350505050158015611360573d6000803e3d6000fd5b5050505050505050565b6000806001805490500361138757611380611690565b9050611402565b60006001436113969190613ce8565b6040516020016113a69190613d3d565b6040516020818303038152906040528051906020012060001c9050600060018080549050836113d59190613d87565b815481106113e6576113e5613db8565b5b906000526020600020015490506113fc81611405565b80925050505b90565b6000806000838152602001908152602001600020600001540361145d576040517f08c379a000000000000000000000000000000000000000000000000000000000815260040161145490613744565b60405180910390fd5b600080600083815260200190815260200160002090503373ffffffffffffffffffffffffffffffffffffffff168160020160000160009054906101000a900473ffffffffffffffffffffffffffffffffffffffff1673ffffffffffffffffffffffffffffffffffffffff1603611508576040517f08c379a00000000000000000000000000000000000000000000000000000000081526004016114ff90613e33565b60405180910390fd5b600180805490500361153c57600160008154811061152957611528613db8565b5b90600052602060002001600090556115e0565b600081600e015490506000600180805490506115589190613ce8565b90506000600182815481106115705761156f613db8565b5b90600052602060002001549050806001848154811061159257611591613db8565b5b906000526020600020018190555082600080838152602001908152602001600020600e0181905550600182815481106115ce576115cd613db8565b5b90600052602060002001600090555050505b338160080160000160006101000a81548173ffffffffffffffffffffffffffffffffffffffff021916908373ffffffffffffffffffffffffffffffffffffffff16021790555060018160010160006101000a81548160ff0219169083600681111561164e5761164d6137d0565b5b02179055507f87969bc7faf902221a147b95ceba76e011c5efb0339a0a8ee7a2bb82d9cfbbd682336040516116849291906139aa565b60405180910390a15050565b6000806001436116a09190613ce8565b6040516020016116b09190613d3d565b6040516020818303038152906040528051906020012060001c905060008060008381526020019081526020016000206000015403611723576040517f08c379a000000000000000000000000000000000000000000000000000000000815260040161171a90613ec5565b60405180910390fd5b6000806000838152602001908152602001600020905081816000018190555060008160010160006101000a81548160ff0219169083600681111561176a576117696137d0565b5b021790555060018054905081600e01819055506001829080600181540180825580915050600190039060005260206000200160009091909190915055338160020160000160006101000a81548173ffffffffffffffffffffffffffffffffffffffff021916908373ffffffffffffffffffffffffffffffffffffffff160217905550819250505090565b816000806000838152602001908152602001600020600001540361184d576040517f08c379a000000000000000000000000000000000000000000000000000000000815260040161184490613744565b60405180910390fd5b3373ffffffffffffffffffffffffffffffffffffffff1660008083815260200190815260200160002060020160000160009054906101000a900473ffffffffffffffffffffffffffffffffffffffff1673ffffffffffffffffffffffffffffffffffffffff16148061192257503373ffffffffffffffffffffffffffffffffffffffff1660008083815260200190815260200160002060080160000160009054906101000a900473ffffffffffffffffffffffffffffffffffffffff1673ffffffffffffffffffffffffffffffffffffffff16145b611961576040517f08c379a0000000000000000000000000000000000000000000000000000000008152600401611958906137b0565b60405180910390fd5b826001806006811115611977576119766137d0565b5b60008084815260200190815260200160002060010160009054906101000a900460ff1660068111156119ac576119ab6137d0565b5b146119ec576040517f08c379a00000000000000000000000000000000000000000000000000000000081526004016119e39061384b565b60405180910390fd5b600080600087815260200190815260200160002090503373ffffffffffffffffffffffffffffffffffffffff168160020160000160009054906101000a900473ffffffffffffffffffffffffffffffffffffffff1673ffffffffffffffffffffffffffffffffffffffff1603611a6d57848160020160010181905550611a7a565b8481600801600101819055505b8060080160010154816002016001015403611afa5760028160010160006101000a81548160ff02191690836006811115611ab757611ab66137d0565b5b02179055507f49d0a3e35aea3c38dab75808edcf04c0cfae71b83c1a7ed55dc4e6a1bce8afc88686604051611aed929190613ee5565b60405180910390a1611b36565b7f491d190755439e2ce91c7bed9989ef10d393e72ddb15dc0e75fe4c483998c263863387604051611b2d93929190613f0e565b60405180910390a15b505050505050565b8060008060008381526020019081526020016000206000015403611b97576040517f08c379a0000000000000000000000000000000000000000000000000000000008152600401611b8e90613744565b60405180910390fd5b3373ffffffffffffffffffffffffffffffffffffffff1660008083815260200190815260200160002060020160000160009054906101000a900473ffffffffffffffffffffffffffffffffffffffff1673ffffffffffffffffffffffffffffffffffffffff161480611c6c57503373ffffffffffffffffffffffffffffffffffffffff1660008083815260200190815260200160002060080160000160009054906101000a900473ffffffffffffffffffffffffffffffffffffffff1673ffffffffffffffffffffffffffffffffffffffff16145b611cab576040517f08c379a0000000000000000000000000000000000000000000000000000000008152600401611ca2906137b0565b60405180910390fd5b6000806000848152602001908152602001600020905060036006811115611cd557611cd46137d0565b5b8160010160009054906101000a900460ff166006811115611cf957611cf86137d0565b5b1480611d3a575060046006811115611d1457611d136137d0565b5b8160010160009054906101000a900460ff166006811115611d3857611d376137d0565b5b145b80611d7a575060056006811115611d5457611d536137d0565b5b8160010160009054906101000a900460ff166006811115611d7857611d776137d0565b5b145b611db9576040517f08c379a0000000000000000000000000000000000000000000000000000000008152600401611db09061384b565b60405180910390fd5b6000803373ffffffffffffffffffffffffffffffffffffffff168360020160000160009054906101000a900473ffffffffffffffffffffffffffffffffffffffff1673ffffffffffffffffffffffffffffffffffffffff1603611e2757826002019150826008019050611e34565b8260080191508260020190505b8160030160009054906101000a900460ff1615611e86576040517f08c379a0000000000000000000000000000000000000000000000000000000008152600401611e7d90613fb7565b60405180910390fd5b8060030160009054906101000a900460ff1615611ed8576040517f08c379a0000000000000000000000000000000000000000000000000000000008152600401611ecf90614049565b60405180910390fd5b60018160030160006101000a81548160ff0219169083151502179055504281600401819055505050505050565b8160008060008381526020019081526020016000206000015403611f5e576040517f08c379a0000000000000000000000000000000000000000000000000000000008152600401611f5590613744565b60405180910390fd5b3373ffffffffffffffffffffffffffffffffffffffff1660008083815260200190815260200160002060020160000160009054906101000a900473ffffffffffffffffffffffffffffffffffffffff1673ffffffffffffffffffffffffffffffffffffffff16148061203357503373ffffffffffffffffffffffffffffffffffffffff1660008083815260200190815260200160002060080160000160009054906101000a900473ffffffffffffffffffffffffffffffffffffffff1673ffffffffffffffffffffffffffffffffffffffff16145b612072576040517f08c379a0000000000000000000000000000000000000000000000000000000008152600401612069906137b0565b60405180910390fd5b826002806006811115612088576120876137d0565b5b60008084815260200190815260200160002060010160009054906101000a900460ff1660068111156120bd576120bc6137d0565b5b146120fd576040517f08c379a00000000000000000000000000000000000000000000000000000000081526004016120f49061384b565b60405180910390fd5b6000806000878152602001908152602001600020905060003373ffffffffffffffffffffffffffffffffffffffff168260020160000160009054906101000a900473ffffffffffffffffffffffffffffffffffffffff1673ffffffffffffffffffffffffffffffffffffffff1614612178578160080161217d565b816002015b905060008160020154036121c6576040517f08c379a00000000000000000000000000000000000000000000000000000000081526004016121bd906140b5565b60405180910390fd5b8060010154341461220c576040517f08c379a000000000000000000000000000000000000000000000000000000000815260040161220390614147565b60405180910390fd5b858160020181905550600082600201600201541415801561223557506000826008016002015414155b1561231d5760038260010160006101000a81548160ff02191690836006811115612262576122616137d0565b5b021790555060ff8260080160050160116101000a81548160ff021916908360ff16021790558260020160050160116101000a81548160ff021916908360ff1602179055507f010d29992f394ceed8a8aed324eeba56758ab368faf07ca79af9fffe7953b8eb8733886040516122d993929190613f0e565b60405180910390a17f50ad08f58a27f2851d7e3a1b3a6a46b290f2ce677e99642d30ff639721e77790876040516123109190613480565b60405180910390a1612359565b7f010d29992f394ceed8a8aed324eeba56758ab368faf07ca79af9fffe7953b8eb87338860405161235093929190613f0e565b60405180910390a15b50505050505050565b82600080600083815260200190815260200160002060000154036123bb576040517f08c379a00000000000000000000000000000000000000000000000000000000081526004016123b290613744565b60405180910390fd5b3373ffffffffffffffffffffffffffffffffffffffff1660008083815260200190815260200160002060020160000160009054906101000a900473ffffffffffffffffffffffffffffffffffffffff1673ffffffffffffffffffffffffffffffffffffffff16148061249057503373ffffffffffffffffffffffffffffffffffffffff1660008083815260200190815260200160002060080160000160009054906101000a900473ffffffffffffffffffffffffffffffffffffffff1673ffffffffffffffffffffffffffffffffffffffff16145b6124cf576040517f08c379a00000000000000000000000000000000000000000000000000000000081526004016124c6906137b0565b60405180910390fd5b8360058060068111156124e5576124e46137d0565b5b60008084815260200190815260200160002060010160009054906101000a900460ff16600681111561251a576125196137d0565b5b1461255a576040517f08c379a00000000000000000000000000000000000000000000000000000000081526004016125519061384b565b60405180910390fd5b600080600088815260200190815260200160002090506000803373ffffffffffffffffffffffffffffffffffffffff168360020160000160009054906101000a900473ffffffffffffffffffffffffffffffffffffffff1673ffffffffffffffffffffffffffffffffffffffff16036125de578260020191508260080190506125eb565b8260080191508260020190505b8160050160129054906101000a900460ff161561263d576040517f08c379a0000000000000000000000000000000000000000000000000000000008152600401612634906141b3565b60405180910390fd5b60408014612680576040517f08c379a00000000000000000000000000000000000000000000000000000000081526004016126779061421f565b60405180910390fd5b600580146126c3576040517f08c379a00000000000000000000000000000000000000000000000000000000081526004016126ba9061428b565b60405180910390fd5b60006126ce89612df7565b905060008167ffffffffffffffff1614806126f557506126f38360020154828a612eed565b155b1561282d5760068460010160006101000a81548160ff02191690836006811115612722576127216137d0565b5b02179055508160000160009054906101000a900473ffffffffffffffffffffffffffffffffffffffff1684600f0160016101000a81548173ffffffffffffffffffffffffffffffffffffffff021916908373ffffffffffffffffffffffffffffffffffffffff1602179055507fa94eb170965acb1cb9de7b8c291cb52184d88fe98c0710bbb74068e2efb6f8708a336040516127bf9291906139aa565b60405180910390a17f668ce4ca171dee87d4d9d2b5d3dc31963fe7fbe50b982064dddb0fb9d56aee8b8a8360000160009054906101000a900473ffffffffffffffffffffffffffffffffffffffff1660405161281c9291906139aa565b60405180910390a150505050612ab2565b6128378a84612bcb565b156128455750505050612ab2565b808360050160086101000a81548167ffffffffffffffff021916908367ffffffffffffffff16021790555060018360050160126101000a81548160ff0219169083151502179055508160050160129054906101000a900460ff1615612aad578160050160109054906101000a900460ff1660ff168360050160109054906101000a900460ff1660ff161115612940578260000160009054906101000a900473ffffffffffffffffffffffffffffffffffffffff1684600f0160016101000a81548173ffffffffffffffffffffffffffffffffffffffff021916908373ffffffffffffffffffffffffffffffffffffffff160217905550612a22565b8260050160109054906101000a900460ff1660ff168260050160109054906101000a900460ff1660ff1611156129dc578160000160009054906101000a900473ffffffffffffffffffffffffffffffffffffffff1684600f0160016101000a81548173ffffffffffffffffffffffffffffffffffffffff021916908373ffffffffffffffffffffffffffffffffffffffff160217905550612a21565b600084600f0160016101000a81548173ffffffffffffffffffffffffffffffffffffffff021916908373ffffffffffffffffffffffffffffffffffffffff1602179055505b5b60068460010160006101000a81548160ff02191690836006811115612a4a57612a496137d0565b5b02179055507f668ce4ca171dee87d4d9d2b5d3dc31963fe7fbe50b982064dddb0fb9d56aee8b8a85600f0160019054906101000a900473ffffffffffffffffffffffffffffffffffffffff16604051612aa49291906139aa565b60405180910390a15b505050505b505050505050565b6000808585604051602001612ad09291906142f3565b6040516020818303038152906040528051906020012060001c905060005b60068160ff161015612bbb5760006001891660ff1603612b555781858260ff1660068110612b1f57612b1e613db8565b5b6020020151604051602001612b3592919061431f565b6040516020818303038152906040528051906020012060001c9150612b9e565b848160ff1660068110612b6b57612b6a613db8565b5b602002015182604051602001612b8292919061431f565b6040516020818303038152906040528051906020012060001c91505b60018860ff16901c97508080612bb390613a02565b915050612aee565b5082811491505095945050505050565b60008160030160009054906101000a900460ff1615612dec574260058360040154612bf6919061434b565b1015612c2c5760008260030160006101000a81548160ff0219169083151502179055506000826004018190555060009050612df1565b6000806000858152602001908152602001600020905060068160010160006101000a81548160ff02191690836006811115612c6a57612c696137d0565b5b02179055508060020160000160009054906101000a900473ffffffffffffffffffffffffffffffffffffffff1673ffffffffffffffffffffffffffffffffffffffff168360000160009054906101000a900473ffffffffffffffffffffffffffffffffffffffff1673ffffffffffffffffffffffffffffffffffffffff1614612d1a578060020160000160009054906101000a900473ffffffffffffffffffffffffffffffffffffffff16612d43565b8060080160000160009054906101000a900473ffffffffffffffffffffffffffffffffffffffff165b81600f0160016101000a81548173ffffffffffffffffffffffffffffffffffffffff021916908373ffffffffffffffffffffffffffffffffffffffff1602179055507f668ce4ca171dee87d4d9d2b5d3dc31963fe7fbe50b982064dddb0fb9d56aee8b8482600f0160019054906101000a900473ffffffffffffffffffffffffffffffffffffffff16604051612dda9291906139aa565b60405180910390a16001915050612df1565b600090505b92915050565b6000806000905060006040518060a00160405280600560ff168152602001600460ff168152602001600360ff168152602001600260ff168152602001600260ff16815250905060005b60058160ff161015612ee157612eae83868360ff1660058110612e6657612e65613db8565b5b602002015160000151878460ff1660058110612e8557612e84613db8565b5b602002015160200151858560ff1660058110612ea457612ea3613db8565b5b60200201516130bd565b925060008367ffffffffffffffff1603612ece5760009350505050612ee8565b8080612ed990613a02565b915050612e40565b5081925050505b919050565b6000806000905060008060409050612f0361317c565b600093505b8160ff168460ff161015612fad576001808560ff168967ffffffffffffffff16901c1667ffffffffffffffff1614868560ff1660408110612f4c57612f4b613db8565b5b6020020151604051602001612f629291906142f3565b6040516020818303038152906040528051906020012060001c818560ff1660408110612f9157612f90613db8565b5b6020020181815250508380612fa590613a02565b945050612f08565b60018260ff16901c91505b60008260ff161461309557600092508293505b8160ff168460ff16101561308657808360ff1660408110612fef57612fee613db8565b5b6020020151816001856130029190613a71565b60ff166040811061301657613015613db8565b5b602002015160405160200161302c92919061431f565b6040516020818303038152906040528051906020012060001c818560ff166040811061305b5761305a613db8565b5b6020020181815250506002836130719190613a71565b9250838061307e90613a02565b945050612fcb565b60018260ff16901c9150612fb8565b87816000604081106130aa576130a9613db8565b5b6020020151149450505050509392505050565b600080600090505b8260ff168160ff16101561316f5760006007861660ff16036130eb576000915050613174565b603f8560ff161115613101576000915050613174565b60008560ff166001901b871667ffffffffffffffff1614613126576000915050613174565b8460ff166001901b86179550831561314c576001856131459190613a71565b945061315c565b6008856131599190613a71565b94505b808061316790613a02565b9150506130c5565b508490505b949350505050565b604051806108000160405280604090602082028036833780820191505090505090565b6000604051905090565b600080fd5b6000819050919050565b6131c1816131ae565b81146131cc57600080fd5b50565b6000813590506131de816131b8565b92915050565b60008115159050919050565b6131f9816131e4565b811461320457600080fd5b50565b600081359050613216816131f0565b92915050565b600080fd5b6000601f19601f8301169050919050565b7f4e487b7100000000000000000000000000000000000000000000000000000000600052604160045260246000fd5b61326a82613221565b810181811067ffffffffffffffff8211171561328957613288613232565b5b80604052505050565b600061329c61319f565b90506132a88282613261565b919050565b600067ffffffffffffffff8211156132c8576132c7613232565b5b602082029050919050565b600080fd5b60006132eb6132e6846132ad565b613292565b90508060208402830185811115613305576133046132d3565b5b835b8181101561332e578061331a88826131cf565b845260208401935050602081019050613307565b5050509392505050565b600082601f83011261334d5761334c61321c565b5b600661335a8482856132d8565b91505092915050565b600080600080610120858703121561337e5761337d6131a9565b5b600061338c878288016131cf565b945050602061339d87828801613207565b93505060406133ae878288016131cf565b92505060606133bf87828801613338565b91505092959194509250565b600060ff82169050919050565b6133e1816133cb565b81146133ec57600080fd5b50565b6000813590506133fe816133d8565b92915050565b6000806040838503121561341b5761341a6131a9565b5b6000613429858286016131cf565b925050602061343a858286016133ef565b9150509250929050565b60006020828403121561345a576134596131a9565b5b6000613468848285016131cf565b91505092915050565b61347a816131ae565b82525050565b60006020820190506134956000830184613471565b92915050565b600080604083850312156134b2576134b16131a9565b5b60006134c0858286016131cf565b92505060206134d1858286016131cf565b9150509250929050565b600067ffffffffffffffff8211156134f6576134f5613232565b5b602082029050919050565b600080fd5b60006040828403121561351c5761351b613501565b5b6135266040613292565b90506000613536848285016133ef565b600083015250602061354a84828501613207565b60208301525092915050565b6000613569613564846134db565b613292565b90508060408402830185811115613583576135826132d3565b5b835b818110156135ac57806135988882613506565b845260208401935050604081019050613585565b5050509392505050565b600082601f8301126135cb576135ca61321c565b5b60056135d8848285613556565b91505092915050565b600067ffffffffffffffff8211156135fc576135fb613232565b5b602082029050919050565b600061361a613615846135e1565b613292565b90508060208402830185811115613634576136336132d3565b5b835b8181101561365d578061364988826131cf565b845260208401935050602081019050613636565b5050509392505050565b600082601f83011261367c5761367b61321c565b5b6040613689848285613607565b91505092915050565b600080600061096084860312156136ac576136ab6131a9565b5b60006136ba868287016131cf565b93505060206136cb868287016135b6565b9250506101606136dd86828701613667565b9150509250925092565b600082825260208201905092915050565b7f47616d6520646f6573206e6f7420657869737400000000000000000000000000600082015250565b600061372e6013836136e7565b9150613739826136f8565b602082019050919050565b6000602082019050818103600083015261375d81613721565b9050919050565b7f596f7520617265206e6f7420696e20746869732067616d650000000000000000600082015250565b600061379a6018836136e7565b91506137a582613764565b602082019050919050565b600060208201905081810360008301526137c98161378d565b9050919050565b7f4e487b7100000000000000000000000000000000000000000000000000000000600052602160045260246000fd5b7f47616d65206973206e6f7420696e2074686520636f7272656374207374617465600082015250565b60006138356020836136e7565b9150613840826137ff565b602082019050919050565b6000602082019050818103600083015261386481613828565b9050919050565b7f496e76616c69642070726f6f662c206974206d75737420626520616e2061727260008201527f6179206f66203620686173686573000000000000000000000000000000000000602082015250565b60006138c7602e836136e7565b91506138d28261386b565b604082019050919050565b600060208201905081810360008301526138f6816138ba565b9050919050565b7f596f7520616c72656164792072657665616c656420746865206d6f7665000000600082015250565b6000613933601d836136e7565b915061393e826138fd565b602082019050919050565b6000602082019050818103600083015261396281613926565b9050919050565b600073ffffffffffffffffffffffffffffffffffffffff82169050919050565b600061399482613969565b9050919050565b6139a481613989565b82525050565b60006040820190506139bf6000830185613471565b6139cc602083018461399b565b9392505050565b7f4e487b7100000000000000000000000000000000000000000000000000000000600052601160045260246000fd5b6000613a0d826133cb565b915060ff8203613a2057613a1f6139d3565b5b600182019050919050565b613a34816133cb565b82525050565b6000606082019050613a4f6000830186613471565b613a5c602083018561399b565b613a696040830184613a2b565b949350505050565b6000613a7c826133cb565b9150613a87836133cb565b9250828201905060ff811115613aa057613a9f6139d3565b5b92915050565b7f496e76616c696420706f736974696f6e00000000000000000000000000000000600082015250565b6000613adc6010836136e7565b9150613ae782613aa6565b602082019050919050565b60006020820190508181036000830152613b0b81613acf565b9050919050565b7f596f7520616c72656164792070726f706f7365642061206d6f76650000000000600082015250565b6000613b48601b836136e7565b9150613b5382613b12565b602082019050919050565b60006020820190508181036000830152613b7781613b3b565b9050919050565b7f506f736974696f6e20616c72656164792072657665616c656400000000000000600082015250565b6000613bb46019836136e7565b9150613bbf82613b7e565b602082019050919050565b60006020820190508181036000830152613be381613ba7565b9050919050565b7f596f7520617265206e6f74207468652077696e6e6572206f662074686973206760008201527f616d650000000000000000000000000000000000000000000000000000000000602082015250565b6000613c466023836136e7565b9150613c5182613bea565b604082019050919050565b60006020820190508181036000830152613c7581613c39565b9050919050565b7f596f7520616c7265616479207769746864726177656400000000000000000000600082015250565b6000613cb26016836136e7565b9150613cbd82613c7c565b602082019050919050565b60006020820190508181036000830152613ce181613ca5565b9050919050565b6000613cf3826131ae565b9150613cfe836131ae565b9250828203905081811115613d1657613d156139d3565b5b92915050565b6000819050919050565b613d37613d32826131ae565b613d1c565b82525050565b6000613d498284613d26565b60208201915081905092915050565b7f4e487b7100000000000000000000000000000000000000000000000000000000600052601260045260246000fd5b6000613d92826131ae565b9150613d9d836131ae565b925082613dad57613dac613d58565b5b828206905092915050565b7f4e487b7100000000000000000000000000000000000000000000000000000000600052603260045260246000fd5b7f596f752061726520616c726561647920696e20746869732067616d6500000000600082015250565b6000613e1d601c836136e7565b9150613e2882613de7565b602082019050919050565b60006020820190508181036000830152613e4c81613e10565b9050919050565b7f43616e2774206372656174652061206e65772067616d6520617420746865206d60008201527f6f6d656e742c2072657472790000000000000000000000000000000000000000602082015250565b6000613eaf602c836136e7565b9150613eba82613e53565b604082019050919050565b60006020820190508181036000830152613ede81613ea2565b9050919050565b6000604082019050613efa6000830185613471565b613f076020830184613471565b9392505050565b6000606082019050613f236000830186613471565b613f30602083018561399b565b613f3d6040830184613471565b949350505050565b7f596f752061726520756e6465722061636375736174696f6e2c2063616e27742060008201527f6d616b65206f74686572206d6f76657300000000000000000000000000000000602082015250565b6000613fa16030836136e7565b9150613fac82613f45565b604082019050919050565b60006020820190508181036000830152613fd081613f94565b9050919050565b7f4f70706f6e656e7420697320616c726561647920756e6465722061636375736160008201527f74696f6e00000000000000000000000000000000000000000000000000000000602082015250565b60006140336024836136e7565b915061403e82613fd7565b604082019050919050565b6000602082019050818103600083015261406281614026565b9050919050565b7f596f7520616c726561647920636f6d6d69747465642074686520626f61726400600082015250565b600061409f601f836136e7565b91506140aa82614069565b602082019050919050565b600060208201905081810360008301526140ce81614092565b9050919050565b7f596f75206d75737420706179207468652066656520746f20636f6d6d6974207460008201527f686520626f617264000000000000000000000000000000000000000000000000602082015250565b60006141316028836136e7565b915061413c826140d5565b604082019050919050565b6000602082019050818103600083015261416081614124565b9050919050565b7f596f7520616c72656164792072657665616c65642074686520626f6172640000600082015250565b600061419d601e836136e7565b91506141a882614167565b602082019050919050565b600060208201905081810360008301526141cc81614190565b9050919050565b7f496e76616c6964206e6f6e636573206c656e6774680000000000000000000000600082015250565b60006142096015836136e7565b9150614214826141d3565b602082019050919050565b60006020820190508181036000830152614238816141fc565b9050919050565b7f496e76616c6964207368697073206c656e677468000000000000000000000000600082015250565b60006142756014836136e7565b91506142808261423f565b602082019050919050565b600060208201905081810360008301526142a481614268565b9050919050565b60008160f81b9050919050565b60006142c3826142ab565b9050919050565b60006142d5826142b8565b9050919050565b6142ed6142e8826131e4565b6142ca565b82525050565b60006142ff82856142dc565b60018201915061430f8284613d26565b6020820191508190509392505050565b600061432b8285613d26565b60208201915061433b8284613d26565b6020820191508190509392505050565b6000614356826131ae565b9150614361836131ae565b9250828201905080821115614379576143786139d3565b5b9291505056fea2646970667358221220a317e147103198f5720ba14d94a0c78c844b93cf010c4294a5519ab60860687364736f6c63430008130033",
  "immutableReferences": {},
  "source": "// SPDX-License-Identifier: MIT\npragma solidity >=0.4.22 <0.9.0;\n\n/*\n    The board is fixed to 8x8\n    with the following pieces:\n    - 1x Aircraft Carrier (5 squares)\n    - 1x Battleship (4 squares)\n    - 1x Cruiser (3 squares)\n    - 2x Destroyers (2 squares)\n\n    So we can terminate the game when:\n    - 1 player has 16 hits\n    - all positions have been revealed\n\n    Merkle proof for a 64 position board (8x8):\n    - actual position state\n    - nonce used to generate the hash\n    - 6 hashes\n    - Merkle Hash (already stored in the contract)\n */\n\ncontract BattleShip {\n    uint8 private constant NO_MOVE = 255;\n    uint8 private constant MAX_HIT = 16;\n    uint8 private constant MAX_ROUNDS = 64;\n\n    enum GameState {\n        // Game created but waiting for the second player to join\n        WaitingForOpponent,\n        // Players joined the game but need to agree on the fee\n        FeeNegotiation,\n        // Players agreed on the fee and need to commit the board\n        WaitingCommitment,\n        // Players committed the board and now the game starts\n        WaitingForMove,\n        // Players must submit Merkle proof in order to prove the move result\n        WaitingForProof,\n        // Game ended and now player must reveal the board\n        WaitingForReveal,\n        // Game ended and now we have a winner\n        GameOver\n    }\n\n    struct Ship {\n        uint8 start_position;\n        // true if horizontal, false if vertical\n        bool direction;\n    }\n\n    struct Player {\n        address user_id;\n        // Used to implement the fee negotiation, then to store the actual fee\n        uint256 proposed_fee;\n        // Used to implement the board commitment and check at the end\n        uint256 committed_board;\n        // Used to implements accusation\n        bool accused; // if true the player has been accused of leaving\n        uint256 accused_at; // represents the time when the player has been accused\n        // Used to store revealed board status and check at the end\n        // bitmap used to store the revealed positions\n        uint64 revealed_positions;\n        // bitmap used to store the actual hit\n        // only the actual bit at 1 in\n        // revealed_positions & position_status\n        // are the actual hits\n        uint64 position_status;\n        uint8 hits;\n        // Used to implement the move submission\n        uint8 move;\n        // Used to implement both the move reveal and the board reveal\n        bool revealed;\n        bool withdrawed;\n    }\n\n    struct Game {\n        uint256 game_id;\n        GameState game_state;\n        Player A;\n        Player B;\n        uint256 position_in_games_list;\n        uint8 rounds_elapsed;\n        address winner;\n    }\n\n    // Events to notify frontend\n    event PlayerJoined(uint256 game_id, address player_id);\n    event FeeProposed(uint256 game_id, address player_id, uint256 fee);\n    event FeeAgreed(uint256 game_id, uint256 fee);\n    event BoardCommitted(uint256 game_id, address player_id, uint256 board);\n    event GameStarted(uint256 game_id);\n    event MoveProposed(uint256 game_id, address player_id, uint8 move);\n    event CheatingAttempt(uint256 game_id, address player_id);\n    event Hit(uint256 game_id, address player_id, uint8 position);\n    event Miss(uint256 game_id, address player_id, uint8 position);\n    event EndOfGame(uint256 game_id);\n    event GameOver(uint256 game_id, address winner);\n    event AccusationRequest(uint256 game_id, address player_id);\n\n    // Collects actual games data, used for the game evolution\n    mapping(uint256 => Game) private id2game;\n    // Collects games which are pending for players to join\n    // used for random matchmaking and game join\n    uint256[] private free_games;\n\n    // NB: public because it is both used by the frontend and the contract itself\n    function new_game() public returns (uint256) {\n        uint256 game_id = uint256(\n            keccak256(abi.encodePacked(block.number - 1))\n        );\n\n        require(\n            id2game[game_id].game_id != 0,\n            \"Can't create a new game at the moment, retry\"\n        );\n\n        Game storage game = id2game[game_id];\n        game.game_id = game_id;\n        game.game_state = GameState.WaitingForOpponent;\n        game.position_in_games_list = free_games.length;\n        free_games.push(game_id);\n\n        game.A.user_id = msg.sender;\n\n        return game_id;\n    }\n\n    // NB: public because it is both used by the frontend and the contract itself\n    function join_game(uint256 game_id) public {\n        require(id2game[game_id].game_id != 0, \"Game does not exist\");\n\n        Game storage current_game = id2game[game_id];\n        require(\n            current_game.A.user_id != msg.sender,\n            \"You are already in this game\"\n        );\n\n        // Remove the game from the list of available games\n        if (free_games.length == 1) {\n            // if only one element, just remove it\n            delete free_games[0];\n        } else {\n            // otherwise swap the current game with the last one\n            // and then remove the last one and update it's position\n            // in the list\n            uint256 current_position = current_game.position_in_games_list;\n            uint256 last_position = free_games.length - 1;\n            uint256 last_game_id = free_games[last_position];\n\n            free_games[current_position] = last_game_id;\n            id2game[last_game_id].position_in_games_list = current_position;\n            delete free_games[last_position];\n        }\n\n        // Update game infos\n        // Assign the opponet player\n        current_game.B.user_id = msg.sender;\n\n        // Move game to fee negotiation\n        current_game.game_state = GameState.FeeNegotiation;\n\n        emit PlayerJoined(game_id, msg.sender);\n    }\n\n    // If no game exists just create one\n    // otherwise join random game\n    // then returns the game_id\n    function join_random_game() external returns (uint256) {\n        if (free_games.length == 0) {\n            return new_game();\n        } else {\n            // make choice at random\n            uint256 random_index = uint256(\n                keccak256(abi.encodePacked(block.number - 1))\n            );\n\n            uint256 game_id = free_games[random_index % free_games.length];\n            join_game(game_id);\n            return game_id;\n        }\n    }\n\n    modifier player_in_game(uint256 game_id) {\n        // Check that the game exists\n        require(id2game[game_id].game_id != 0, \"Game does not exist\");\n\n        // Check that user is in the game\n        require(\n            id2game[game_id].A.user_id == msg.sender ||\n                id2game[game_id].B.user_id == msg.sender,\n            \"You are not in this game\"\n        );\n        _;\n    }\n\n    modifier check_game_state(uint256 game_id, GameState game_state) {\n        // Check that the game is in the correct state\n        require(\n            id2game[game_id].game_state == game_state,\n            \"Game is not in the correct state\"\n        );\n        _;\n    }\n\n    // Propose fee until both players agree on the same fee\n    function propose_fee(\n        uint256 game_id,\n        uint256 fee\n    )\n        external\n        player_in_game(game_id)\n        check_game_state(game_id, GameState.FeeNegotiation)\n    {\n        Game storage current_game = id2game[game_id];\n\n        // Update fee proposal\n        if (current_game.A.user_id == msg.sender) {\n            current_game.A.proposed_fee = fee;\n        } else {\n            current_game.B.proposed_fee = fee;\n        }\n\n        // Manage notification to frontend and game state\n        // Both players agreed on the fee\n        if (current_game.A.proposed_fee == current_game.B.proposed_fee) {\n            current_game.game_state = GameState.WaitingCommitment;\n            emit FeeAgreed(game_id, fee);\n        }\n        // Otherwise just notify the frontend to continue the negotiation\n        else {\n            emit FeeProposed(game_id, msg.sender, fee);\n        }\n    }\n\n    function commit_board(\n        uint256 game_id,\n        uint256 board\n    )\n        external\n        payable\n        player_in_game(game_id)\n        check_game_state(game_id, GameState.WaitingCommitment)\n    {\n        Game storage current_game = id2game[game_id];\n\n        Player storage player = (current_game.A.user_id == msg.sender)\n            ? current_game.A\n            : current_game.B;\n\n        // Check that user did not already commit the board\n        // otherwise it would double pay\n        require(player.committed_board != 0, \"You already committed the board\");\n\n        // Check that the fee has been paid\n        // proposed_fee SHOULD be the same at this point\n        require(\n            msg.value == player.proposed_fee,\n            \"You must pay the fee to commit the board\"\n        );\n\n        // Update committed board\n        player.committed_board = board;\n\n        // Manage notification to frontend and game state\n        // Both players committed the board and payed the fee\n        if (\n            current_game.A.committed_board != 0 &&\n            current_game.B.committed_board != 0\n        ) {\n            current_game.game_state = GameState.WaitingForMove;\n            current_game.A.move = current_game.B.move = NO_MOVE;\n            emit BoardCommitted(game_id, msg.sender, board);\n            emit GameStarted(game_id);\n        }\n        // Otherwise just notify the frontend to continue wait for the other player\n        else {\n            emit BoardCommitted(game_id, msg.sender, board);\n        }\n    }\n\n    function submit_move(\n        uint256 game_id,\n        uint8 move\n    )\n        external\n        player_in_game(game_id)\n        check_game_state(game_id, GameState.WaitingForMove)\n    {\n        // Move must be in the range [0, 63] for a 8x8 board\n        require(move < 64, \"Invalid position\");\n        Game storage current_game = id2game[game_id];\n\n        Player storage player;\n        Player storage opponent;\n\n        if (current_game.A.user_id == msg.sender) {\n            player = current_game.A;\n            opponent = current_game.B;\n        } else {\n            player = current_game.B;\n            opponent = current_game.A;\n        }\n\n        // Check if user already proposed a move\n        require(player.move == NO_MOVE, \"You already proposed a move\");\n\n        // Check if positions has already been revealed\n        require(\n            (opponent.revealed_positions & (1 << move)) == 0,\n            \"Position already revealed\"\n        );\n\n        if (check_accusation(game_id, player)) {\n            return;\n        }\n\n        // Update move\n        player.move = move;\n\n        emit MoveProposed(game_id, msg.sender, move);\n\n        // Check if opponent already proposed a move\n        if (opponent.move != NO_MOVE) {\n            // move to reveal phase\n            current_game.game_state = GameState.WaitingForProof;\n        }\n    }\n\n    function submit_proof(\n        uint256 game_id,\n        bool has_ship,\n        uint256 nonce,\n        uint256[6] memory proof\n    )\n        external\n        player_in_game(game_id)\n        check_game_state(game_id, GameState.WaitingForProof)\n    {\n        // Check that the proof has the needed length\n        require(\n            proof.length == 6,\n            \"Invalid proof, it must be an array of 6 hashes\"\n        );\n\n        Game storage current_game = id2game[game_id];\n\n        Player storage player;\n        Player storage opponent;\n\n        if (current_game.A.user_id == msg.sender) {\n            player = current_game.A;\n            opponent = current_game.B;\n        } else {\n            player = current_game.B;\n            opponent = current_game.A;\n        }\n\n        // check that the user has not already revealed the move\n        require(!player.revealed, \"You already revealed the move\");\n\n        // Check if the proof is valid\n        if (\n            !check_proof(\n                opponent.move,\n                has_ship,\n                nonce,\n                proof,\n                player.committed_board\n            )\n        ) {\n            // Cheating attempt: terminate the game and set the opponet as the winner\n            current_game.game_state = GameState.GameOver;\n            current_game.winner = opponent.user_id;\n            emit CheatingAttempt(game_id, msg.sender);\n            emit GameOver(game_id, opponent.user_id);\n            return;\n        }\n\n        if (check_accusation(game_id, player)) {\n            return;\n        }\n\n        // Update revealed positions\n        player.revealed_positions |= uint64(1 << opponent.move);\n\n        // Update position status\n        if (has_ship) {\n            opponent.position_status |= uint64(1 << player.move);\n            opponent.hits++;\n            emit Hit(game_id, opponent.user_id, opponent.move);\n        } else {\n            emit Miss(game_id, opponent.user_id, opponent.move);\n        }\n\n        // set the move as revealed\n        player.revealed = true;\n\n        // Check if reveal phase is over\n        if (opponent.revealed) {\n            current_game.rounds_elapsed += 1;\n            // Check if game is over\n            if (\n                opponent.hits == MAX_HIT ||\n                player.hits == MAX_HIT ||\n                current_game.rounds_elapsed == MAX_ROUNDS\n            ) {\n                // Game is over so user must reveal their boards\n                current_game.game_state = GameState.WaitingForReveal;\n                emit EndOfGame(game_id);\n                return;\n            }\n            // Otherwise move to the next round\n            current_game.game_state = GameState.WaitingForMove;\n            player.move = opponent.move = NO_MOVE;\n            player.revealed = opponent.revealed = false;\n        }\n    }\n\n    function reveal_board(\n        uint256 game_id,\n        Ship[5] memory ships,\n        uint256[64] memory nonces\n    )\n        external\n        player_in_game(game_id)\n        check_game_state(game_id, GameState.WaitingForReveal)\n    {\n        Game storage current_game = id2game[game_id];\n\n        Player storage player;\n        Player storage opponent;\n\n        if (current_game.A.user_id == msg.sender) {\n            player = current_game.A;\n            opponent = current_game.B;\n        } else {\n            player = current_game.B;\n            opponent = current_game.A;\n        }\n\n        // Check that the user has not already revealed the board\n        require(!player.revealed, \"You already revealed the board\");\n\n        // Check that the user passed the right number of nonces\n        require(nonces.length == 64, \"Invalid nonces length\");\n\n        require(ships.length == 5, \"Invalid ships length\");\n\n        // If the board cannot be built, the user is cheating\n        uint64 board = build_board(ships);\n\n        // Check if ship placement is valid\n        // and that the board is the same as the committed one\n        if (\n            board == 0 ||\n            !check_board_proof(player.committed_board, board, nonces)\n        ) {\n            // Cheating attempt: terminate the game and set the opponet as the winner\n            current_game.game_state = GameState.GameOver;\n            current_game.winner = opponent.user_id;\n            emit CheatingAttempt(game_id, msg.sender);\n            emit GameOver(game_id, opponent.user_id);\n            return;\n        }\n\n        if (check_accusation(game_id, player)) {\n            return;\n        }\n\n        // Update revealed positions\n        player.position_status = board;\n        // Update user state to revealed\n        player.revealed = true;\n\n        // If both user revealed the board, the game is over\n        if (opponent.revealed) {\n            // Set winner\n            if (player.hits > opponent.hits) {\n                // player wins\n                current_game.winner = player.user_id;\n            } else if (opponent.hits > player.hits) {\n                // opponent wins\n                current_game.winner = opponent.user_id;\n            } else {\n                // draw\n                current_game.winner = address(0);\n            }\n            current_game.game_state = GameState.GameOver;\n            emit GameOver(game_id, current_game.winner);\n        }\n    }\n\n    function check_accusation(\n        uint256 game_id,\n        Player storage current_player\n    ) private returns (bool) {\n        // Check if player is under accusation\n        if (current_player.accused) {\n            // If response is under time limit, the accusation is retired\n            if (current_player.accused_at + 5 < block.timestamp) {\n                current_player.accused = false;\n                current_player.accused_at = 0;\n                return false;\n            } else {\n                // Otherwise the accusation is valid and the opponent wins\n                Game storage current_game = id2game[game_id];\n                current_game.game_state = GameState.GameOver;\n                current_game.winner = current_player.user_id ==\n                    current_game.A.user_id\n                    ? current_game.B.user_id\n                    : current_game.A.user_id;\n                emit GameOver(game_id, current_game.winner);\n                return true;\n            }\n        }\n\n        return false;\n    }\n\n    function withdraw(\n        uint256 game_id\n    )\n        external\n        player_in_game(game_id)\n        check_game_state(game_id, GameState.GameOver)\n    {\n        Game storage current_game = id2game[game_id];\n        require(\n            current_game.winner == msg.sender ||\n                current_game.winner == address(0),\n            \"You are not the winner of this game\"\n        );\n\n        Player storage player;\n\n        if (current_game.A.user_id == msg.sender) {\n            player = current_game.A;\n        } else {\n            player = current_game.B;\n        }\n\n        require(!player.withdrawed, \"You already withdrawed\");\n\n        uint256 amount = current_game.A.proposed_fee;\n        if (current_game.winner == address(0)) {\n            amount <<= 1;\n        }\n\n        // Avoid reentrancy\n        player.withdrawed = true;\n        payable(msg.sender).transfer(amount);\n    }\n\n    function make_accusation(uint256 game_id) external player_in_game(game_id) {\n        // Check that the game is either in the waiting for move or waiting for proof/reveal state\n        Game storage current_game = id2game[game_id];\n\n        require(\n            current_game.game_state == GameState.WaitingForMove ||\n                current_game.game_state == GameState.WaitingForProof ||\n                current_game.game_state == GameState.WaitingForReveal,\n            \"Game is not in the correct state\"\n        );\n\n        Player storage player;\n        Player storage opponent;\n\n        if (current_game.A.user_id == msg.sender) {\n            player = current_game.A;\n            opponent = current_game.B;\n        } else {\n            player = current_game.B;\n            opponent = current_game.A;\n        }\n\n        // Check that the user is not currently under accusation\n        require(\n            !player.accused,\n            \"You are under accusation, can't make other moves\"\n        );\n\n        // Check that the other player is not currently under accusation\n        require(!opponent.accused, \"Opponent is already under accusation\");\n\n        opponent.accused = true;\n        opponent.accused_at = block.timestamp;\n    }\n\n    /* Utility functions */\n\n    /* Assume that:\n        - index in [0, 63]\n        - proof.length == 6\n    */\n    function check_proof(\n        uint8 index,\n        bool has_ship,\n        uint256 nonce,\n        uint256[6] memory proof,\n        uint256 committed_board\n    ) private pure returns (bool) {\n        // build the leaf hash by hash(has_ship || nonce)\n        uint256 previous_hash = uint256(\n            keccak256(abi.encodePacked(has_ship, nonce))\n        );\n\n        for (uint8 i = 0; i < 6; i++) {\n            if (index & 1 == 0) {\n                // we are on the left side of the tree\n                previous_hash = uint256(\n                    keccak256(abi.encodePacked(previous_hash, proof[i]))\n                );\n            } else {\n                // we are on the right side of the tree\n                previous_hash = uint256(\n                    keccak256(abi.encodePacked(proof[i], previous_hash))\n                );\n            }\n            index = index >> 1;\n        }\n\n        return previous_hash == committed_board;\n    }\n\n    function check_board_proof(\n        uint256 committed_board,\n        uint64 board,\n        uint256[64] memory nonces\n    ) private pure returns (bool) {\n        // Compute Merkle tree root\n        uint8 i = 0;\n        uint8 j = 0;\n        uint8 actual_size = 64;\n\n        uint256[64] memory tree;\n\n        // Compute various hash(ship[i]  || nonces[i])\n        for (i = 0; i < actual_size; i++) {\n            tree[i] = uint256(\n                keccak256(abi.encodePacked(((board >> i) & 1) == 1, nonces[i]))\n            );\n        }\n\n        actual_size = actual_size >> 1;\n        while (actual_size != 0) {\n            for (i = j = 0; i < actual_size; i++) {\n                tree[i] = uint256(\n                    keccak256(abi.encodePacked(tree[j], tree[j + 1]))\n                );\n                j += 2;\n            }\n            actual_size = actual_size >> 1;\n        }\n\n        return tree[0] == committed_board;\n    }\n\n    function update_board(\n        uint64 current_board,\n        uint8 index,\n        bool direction,\n        uint8 ship_size\n    ) private pure returns (uint64) {\n        for (uint8 i = 0; i < ship_size; i++) {\n            // Check if we are at the end of the row\n            if (index & 0x7 == 0) {\n                return 0;\n            }\n            // check if we are at the end of the board\n            if (index > 63) {\n                return 0;\n            }\n\n            // If the bit is already set, it means that there is a collision\n            if (current_board & uint64(1 << index) != 0) {\n                return 0;\n            }\n\n            // Update board\n            current_board |= uint64(1 << index);\n            if (direction) {\n                index += 1;\n            } else {\n                index += 8;\n            }\n        }\n\n        return current_board;\n    }\n\n    function build_board(Ship[5] memory ships) private pure returns (uint64) {\n        uint64 board = 0;\n        uint8[5] memory sizes = [5, 4, 3, 2, 2];\n\n        for (uint8 i = 0; i < 5; i++) {\n            board = update_board(\n                board,\n                ships[i].start_position,\n                ships[i].direction,\n                sizes[i]\n            );\n            if (board == 0) {\n                return 0;\n            }\n        }\n\n        return board;\n    }\n\n    /* View functions */\n}\n",
  "sourcePath": "/home/drw0if/p2p/battleship/contracts/BattleShip.sol",
  "compiler": {
    "name": "solc",
    "version": "0.8.19+commit.7dd6d404.Emscripten.clang"
  },
  "schemaVersion": "3.4.16",
  "updatedAt": "2023-12-24T23:37:23.296Z",
  "networkType": "ethereum",
  "devdoc": {
    "kind": "dev",
    "methods": {},
    "version": 1
  },
  "userdoc": {
    "kind": "user",
    "methods": {},
    "version": 1
  }
}